{
  "contracts/USDT.sol": {
    "TetherToken": {
      "abi": [
        {
          "constant": true,
          "inputs": [],
          "name": "name",
          "outputs": [
            {
              "name": "",
              "type": "string"
            }
          ],
          "payable": false,
          "stateMutability": "view",
          "type": "function"
        },
        {
          "constant": false,
          "inputs": [
            {
              "name": "_upgradedAddress",
              "type": "address"
            }
          ],
          "name": "deprecate",
          "outputs": [],
          "payable": false,
          "stateMutability": "nonpayable",
          "type": "function"
        },
        {
          "constant": false,
          "inputs": [
            {
              "name": "_spender",
              "type": "address"
            },
            {
              "name": "_value",
              "type": "uint256"
            }
          ],
          "name": "approve",
          "outputs": [],
          "payable": false,
          "stateMutability": "nonpayable",
          "type": "function"
        },
        {
          "constant": true,
          "inputs": [],
          "name": "deprecated",
          "outputs": [
            {
              "name": "",
              "type": "bool"
            }
          ],
          "payable": false,
          "stateMutability": "view",
          "type": "function"
        },
        {
          "constant": false,
          "inputs": [
            {
              "name": "_evilUser",
              "type": "address"
            }
          ],
          "name": "addBlackList",
          "outputs": [],
          "payable": false,
          "stateMutability": "nonpayable",
          "type": "function"
        },
        {
          "constant": true,
          "inputs": [],
          "name": "totalSupply",
          "outputs": [
            {
              "name": "",
              "type": "uint256"
            }
          ],
          "payable": false,
          "stateMutability": "view",
          "type": "function"
        },
        {
          "constant": false,
          "inputs": [
            {
              "name": "_from",
              "type": "address"
            },
            {
              "name": "_to",
              "type": "address"
            },
            {
              "name": "_value",
              "type": "uint256"
            }
          ],
          "name": "transferFrom",
          "outputs": [],
          "payable": false,
          "stateMutability": "nonpayable",
          "type": "function"
        },
        {
          "constant": true,
          "inputs": [],
          "name": "upgradedAddress",
          "outputs": [
            {
              "name": "",
              "type": "address"
            }
          ],
          "payable": false,
          "stateMutability": "view",
          "type": "function"
        },
        {
          "constant": true,
          "inputs": [
            {
              "name": "",
              "type": "address"
            }
          ],
          "name": "balances",
          "outputs": [
            {
              "name": "",
              "type": "uint256"
            }
          ],
          "payable": false,
          "stateMutability": "view",
          "type": "function"
        },
        {
          "constant": true,
          "inputs": [],
          "name": "decimals",
          "outputs": [
            {
              "name": "",
              "type": "uint256"
            }
          ],
          "payable": false,
          "stateMutability": "view",
          "type": "function"
        },
        {
          "constant": true,
          "inputs": [],
          "name": "maximumFee",
          "outputs": [
            {
              "name": "",
              "type": "uint256"
            }
          ],
          "payable": false,
          "stateMutability": "view",
          "type": "function"
        },
        {
          "constant": true,
          "inputs": [],
          "name": "_totalSupply",
          "outputs": [
            {
              "name": "",
              "type": "uint256"
            }
          ],
          "payable": false,
          "stateMutability": "view",
          "type": "function"
        },
        {
          "constant": false,
          "inputs": [],
          "name": "unpause",
          "outputs": [],
          "payable": false,
          "stateMutability": "nonpayable",
          "type": "function"
        },
        {
          "constant": true,
          "inputs": [
            {
              "name": "_maker",
              "type": "address"
            }
          ],
          "name": "getBlackListStatus",
          "outputs": [
            {
              "name": "",
              "type": "bool"
            }
          ],
          "payable": false,
          "stateMutability": "view",
          "type": "function"
        },
        {
          "constant": true,
          "inputs": [
            {
              "name": "",
              "type": "address"
            },
            {
              "name": "",
              "type": "address"
            }
          ],
          "name": "allowed",
          "outputs": [
            {
              "name": "",
              "type": "uint256"
            }
          ],
          "payable": false,
          "stateMutability": "view",
          "type": "function"
        },
        {
          "constant": true,
          "inputs": [],
          "name": "paused",
          "outputs": [
            {
              "name": "",
              "type": "bool"
            }
          ],
          "payable": false,
          "stateMutability": "view",
          "type": "function"
        },
        {
          "constant": true,
          "inputs": [
            {
              "name": "who",
              "type": "address"
            }
          ],
          "name": "balanceOf",
          "outputs": [
            {
              "name": "",
              "type": "uint256"
            }
          ],
          "payable": false,
          "stateMutability": "view",
          "type": "function"
        },
        {
          "constant": false,
          "inputs": [],
          "name": "pause",
          "outputs": [],
          "payable": false,
          "stateMutability": "nonpayable",
          "type": "function"
        },
        {
          "constant": true,
          "inputs": [],
          "name": "getOwner",
          "outputs": [
            {
              "name": "",
              "type": "address"
            }
          ],
          "payable": false,
          "stateMutability": "view",
          "type": "function"
        },
        {
          "constant": true,
          "inputs": [],
          "name": "owner",
          "outputs": [
            {
              "name": "",
              "type": "address"
            }
          ],
          "payable": false,
          "stateMutability": "view",
          "type": "function"
        },
        {
          "constant": true,
          "inputs": [],
          "name": "symbol",
          "outputs": [
            {
              "name": "",
              "type": "string"
            }
          ],
          "payable": false,
          "stateMutability": "view",
          "type": "function"
        },
        {
          "constant": false,
          "inputs": [
            {
              "name": "_to",
              "type": "address"
            },
            {
              "name": "_value",
              "type": "uint256"
            }
          ],
          "name": "transfer",
          "outputs": [],
          "payable": false,
          "stateMutability": "nonpayable",
          "type": "function"
        },
        {
          "constant": false,
          "inputs": [
            {
              "name": "newBasisPoints",
              "type": "uint256"
            },
            {
              "name": "newMaxFee",
              "type": "uint256"
            }
          ],
          "name": "setParams",
          "outputs": [],
          "payable": false,
          "stateMutability": "nonpayable",
          "type": "function"
        },
        {
          "constant": false,
          "inputs": [
            {
              "name": "amount",
              "type": "uint256"
            }
          ],
          "name": "issue",
          "outputs": [],
          "payable": false,
          "stateMutability": "nonpayable",
          "type": "function"
        },
        {
          "constant": false,
          "inputs": [
            {
              "name": "amount",
              "type": "uint256"
            }
          ],
          "name": "redeem",
          "outputs": [],
          "payable": false,
          "stateMutability": "nonpayable",
          "type": "function"
        },
        {
          "constant": true,
          "inputs": [
            {
              "name": "_owner",
              "type": "address"
            },
            {
              "name": "_spender",
              "type": "address"
            }
          ],
          "name": "allowance",
          "outputs": [
            {
              "name": "remaining",
              "type": "uint256"
            }
          ],
          "payable": false,
          "stateMutability": "view",
          "type": "function"
        },
        {
          "constant": true,
          "inputs": [],
          "name": "basisPointsRate",
          "outputs": [
            {
              "name": "",
              "type": "uint256"
            }
          ],
          "payable": false,
          "stateMutability": "view",
          "type": "function"
        },
        {
          "constant": true,
          "inputs": [
            {
              "name": "",
              "type": "address"
            }
          ],
          "name": "isBlackListed",
          "outputs": [
            {
              "name": "",
              "type": "bool"
            }
          ],
          "payable": false,
          "stateMutability": "view",
          "type": "function"
        },
        {
          "constant": false,
          "inputs": [
            {
              "name": "_clearedUser",
              "type": "address"
            }
          ],
          "name": "removeBlackList",
          "outputs": [],
          "payable": false,
          "stateMutability": "nonpayable",
          "type": "function"
        },
        {
          "constant": true,
          "inputs": [],
          "name": "MAX_UINT",
          "outputs": [
            {
              "name": "",
              "type": "uint256"
            }
          ],
          "payable": false,
          "stateMutability": "view",
          "type": "function"
        },
        {
          "constant": false,
          "inputs": [
            {
              "name": "newOwner",
              "type": "address"
            }
          ],
          "name": "transferOwnership",
          "outputs": [],
          "payable": false,
          "stateMutability": "nonpayable",
          "type": "function"
        },
        {
          "constant": false,
          "inputs": [
            {
              "name": "_blackListedUser",
              "type": "address"
            }
          ],
          "name": "destroyBlackFunds",
          "outputs": [],
          "payable": false,
          "stateMutability": "nonpayable",
          "type": "function"
        },
        {
          "inputs": [
            {
              "name": "_initialSupply",
              "type": "uint256"
            },
            {
              "name": "_name",
              "type": "string"
            },
            {
              "name": "_symbol",
              "type": "string"
            },
            {
              "name": "_decimals",
              "type": "uint256"
            }
          ],
          "payable": false,
          "stateMutability": "nonpayable",
          "type": "constructor"
        },
        {
          "anonymous": false,
          "inputs": [
            {
              "indexed": false,
              "name": "amount",
              "type": "uint256"
            }
          ],
          "name": "Issue",
          "type": "event"
        },
        {
          "anonymous": false,
          "inputs": [
            {
              "indexed": false,
              "name": "amount",
              "type": "uint256"
            }
          ],
          "name": "Redeem",
          "type": "event"
        },
        {
          "anonymous": false,
          "inputs": [
            {
              "indexed": false,
              "name": "newAddress",
              "type": "address"
            }
          ],
          "name": "Deprecate",
          "type": "event"
        },
        {
          "anonymous": false,
          "inputs": [
            {
              "indexed": false,
              "name": "feeBasisPoints",
              "type": "uint256"
            },
            {
              "indexed": false,
              "name": "maxFee",
              "type": "uint256"
            }
          ],
          "name": "Params",
          "type": "event"
        },
        {
          "anonymous": false,
          "inputs": [
            {
              "indexed": false,
              "name": "_blackListedUser",
              "type": "address"
            },
            {
              "indexed": false,
              "name": "_balance",
              "type": "uint256"
            }
          ],
          "name": "DestroyedBlackFunds",
          "type": "event"
        },
        {
          "anonymous": false,
          "inputs": [
            {
              "indexed": false,
              "name": "_user",
              "type": "address"
            }
          ],
          "name": "AddedBlackList",
          "type": "event"
        },
        {
          "anonymous": false,
          "inputs": [
            {
              "indexed": false,
              "name": "_user",
              "type": "address"
            }
          ],
          "name": "RemovedBlackList",
          "type": "event"
        },
        {
          "anonymous": false,
          "inputs": [
            {
              "indexed": true,
              "name": "owner",
              "type": "address"
            },
            {
              "indexed": true,
              "name": "spender",
              "type": "address"
            },
            {
              "indexed": false,
              "name": "value",
              "type": "uint256"
            }
          ],
          "name": "Approval",
          "type": "event"
        },
        {
          "anonymous": false,
          "inputs": [
            {
              "indexed": true,
              "name": "from",
              "type": "address"
            },
            {
              "indexed": true,
              "name": "to",
              "type": "address"
            },
            {
              "indexed": false,
              "name": "value",
              "type": "uint256"
            }
          ],
          "name": "Transfer",
          "type": "event"
        },
        {
          "anonymous": false,
          "inputs": [],
          "name": "Pause",
          "type": "event"
        },
        {
          "anonymous": false,
          "inputs": [],
          "name": "Unpause",
          "type": "event"
        }
      ],
      "devdoc": {
        "methods": {
          "pause()": {
            "details": "called by the owner to pause, triggers stopped state"
          },
          "transferOwnership(address)": {
            "details": "Allows the current owner to transfer control of the contract to a newOwner.",
            "params": {
              "newOwner": "The address to transfer ownership to."
            }
          },
          "unpause()": {
            "details": "called by the owner to unpause, returns to normal state"
          }
        }
      },
      "evm": {
        "assembly": "    /* \"contracts/USDT.sol\":9398:13897  contract TetherToken is Pausable, StandardToken, BlackList {... */\n  mstore(0x40, 0x60)\n    /* \"contracts/USDT.sol\":7100:7105  false */\n  0x0\n    /* \"contracts/USDT.sol\":7079:7105  bool public paused = false */\n  dup1\n  sload\n  not(mul(0xff, exp(0x2, 0xa0)))\n  and\n  dup2\n  sstore\n    /* \"contracts/USDT.sol\":2929:2963  uint256 public basisPointsRate = 0 */\n  0x3\n  dup2\n  swap1\n  sstore\n    /* \"contracts/USDT.sol\":2967:2996  uint256 public maximumFee = 0 */\n  0x4\n  sstore\n    /* \"contracts/USDT.sol\":9869:10158  function TetherToken(... */\n  jumpi(tag_1, iszero(callvalue))\n  0x0\n  dup1\n  revert\ntag_1:\n  mload(0x40)\n  sub(codesize, bytecodeSize)\n  dup1\n  bytecodeSize\n  dup4\n  codecopy\n  dup2\n  add\n  0x40\n  mstore\n  dup1\n  dup1\n  mload\n  swap2\n  swap1\n  0x20\n  add\n  dup1\n  mload\n  dup3\n  add\n  swap2\n  swap1\n  0x20\n  add\n  dup1\n  mload\n  dup3\n  add\n  swap2\n  swap1\n  0x20\n  add\n  dup1\n  mload\n    /* \"contracts/USDT.sol\":1282:1287  owner */\n  0x0\n    /* \"contracts/USDT.sol\":1282:1300  owner = msg.sender */\n  dup1\n  sload\n  not(sub(exp(0x2, 0xa0), 0x1))\n  and\n    /* \"contracts/USDT.sol\":1290:1300  msg.sender */\n  caller\n  sub(exp(0x2, 0xa0), 0x1)\n    /* \"contracts/USDT.sol\":1282:1300  owner = msg.sender */\n  and\n  or\n  swap1\n  sstore\n  0x1\n    /* \"contracts/USDT.sol\":9996:10025  _totalSupply = _initialSupply */\n  dup7\n  swap1\n  sstore\n    /* \"contracts/USDT.sol\":9869:10158  function TetherToken(... */\n  swap2\n  pop\n    /* \"contracts/USDT.sol\":10031:10035  name */\n  0x7\n  swap1\n  pop\n    /* \"contracts/USDT.sol\":10038:10043  _name */\n  dup4\n  dup1\n    /* \"contracts/USDT.sol\":10031:10043  name = _name */\n  mload\n  tag_6\n  swap3\n  swap2\n  0x20\n  add\n  swap1\n  jump\t// in(tag_7)\ntag_6:\n  pop\n    /* \"contracts/USDT.sol\":10049:10055  symbol */\n  0x8\n    /* \"contracts/USDT.sol\":10058:10065  _symbol */\n  dup3\n  dup1\n    /* \"contracts/USDT.sol\":10049:10065  symbol = _symbol */\n  mload\n  tag_8\n  swap3\n  swap2\n  0x20\n  add\n  swap1\n  jump\t// in(tag_7)\ntag_8:\n  pop\n    /* \"contracts/USDT.sol\":10071:10079  decimals */\n  0x9\n    /* \"contracts/USDT.sol\":10071:10091  decimals = _decimals */\n  sstore\n  pop\n  pop\n    /* \"contracts/USDT.sol\":10097:10112  balances[owner] */\n  0x0\n    /* \"contracts/USDT.sol\":10106:10111  owner */\n  dup1\n  sload\n  sub(exp(0x2, 0xa0), 0x1)\n  and\n    /* \"contracts/USDT.sol\":10097:10112  balances[owner] */\n  dup2\n  mstore\n    /* \"contracts/USDT.sol\":10097:10105  balances */\n  0x2\n    /* \"contracts/USDT.sol\":10097:10112  balances[owner] */\n  0x20\n  mstore\n  0x40\n  swap1\n  keccak256\n    /* \"contracts/USDT.sol\":10097:10129  balances[owner] = _initialSupply */\n  sstore\n    /* \"contracts/USDT.sol\":10135:10145  deprecated */\n  0xa\n    /* \"contracts/USDT.sol\":10135:10153  deprecated = false */\n  dup1\n  sload\n  not(mul(0xff, exp(0x2, 0xa0)))\n  and\n  swap1\n  sstore\n    /* \"contracts/USDT.sol\":9398:13897  contract TetherToken is Pausable, StandardToken, BlackList {... */\n  jump(tag_9)\ntag_7:\n  dup3\n  dup1\n  sload\n  0x1\n  dup2\n  0x1\n  and\n  iszero\n  0x100\n  mul\n  sub\n  and\n  0x2\n  swap1\n  div\n  swap1\n  0x0\n  mstore\n  keccak256(0x0, 0x20)\n  swap1\n  0x1f\n  add\n  0x20\n  swap1\n  div\n  dup2\n  add\n  swap3\n  dup3\n  0x1f\n  lt\n  tag_11\n  jumpi\n  dup1\n  mload\n  not(0xff)\n  and\n  dup4\n  dup1\n  add\n  or\n  dup6\n  sstore\n  jump(tag_13)\ntag_11:\n  dup3\n  dup1\n  add\n  0x1\n  add\n  dup6\n  sstore\n  dup3\n  iszero\n  tag_13\n  jumpi\n  swap2\n  dup3\n  add\ntag_12:\n  dup3\n  dup2\n  gt\n  iszero\n  tag_13\n  jumpi\n  dup3\n  mload\n  dup3\n  sstore\n  swap2\n  0x20\n  add\n  swap2\n  swap1\n  0x1\n  add\n  swap1\n  jump(tag_12)\ntag_13:\n  pop\n  tag_14\n  swap3\n  swap2\n  pop\n  jump\t// in(tag_15)\ntag_14:\n  pop\n  swap1\n  jump\t// out\ntag_15:\n  tag_16\n  swap2\n  swap1\ntag_17:\n  dup1\n  dup3\n  gt\n  iszero\n  tag_14\n  jumpi\n  0x0\n  dup2\n  sstore\n  0x1\n  add\n  jump(tag_17)\ntag_16:\n  swap1\n  jump\t// out\ntag_9:\n  dataSize(sub_0)\n  dup1\n  dataOffset(sub_0)\n  0x0\n  codecopy\n  0x0\n  return\nstop\n\nsub_0: assembly {\n        /* \"contracts/USDT.sol\":9398:13897  contract TetherToken is Pausable, StandardToken, BlackList {... */\n      mstore(0x40, 0x60)\n      jumpi(tag_1, iszero(calldatasize))\n      and(div(calldataload(0x0), exp(0x2, 0xe0)), 0xffffffff)\n      0x6fdde03\n      dup2\n      eq\n      tag_2\n      jumpi\n      dup1\n      0x753c30c\n      eq\n      tag_3\n      jumpi\n      dup1\n      0x95ea7b3\n      eq\n      tag_4\n      jumpi\n      dup1\n      0xe136b19\n      eq\n      tag_5\n      jumpi\n      dup1\n      0xecb93c0\n      eq\n      tag_6\n      jumpi\n      dup1\n      0x18160ddd\n      eq\n      tag_7\n      jumpi\n      dup1\n      0x23b872dd\n      eq\n      tag_8\n      jumpi\n      dup1\n      0x26976e3f\n      eq\n      tag_9\n      jumpi\n      dup1\n      0x27e235e3\n      eq\n      tag_10\n      jumpi\n      dup1\n      0x313ce567\n      eq\n      tag_11\n      jumpi\n      dup1\n      0x35390714\n      eq\n      tag_12\n      jumpi\n      dup1\n      0x3eaaf86b\n      eq\n      tag_13\n      jumpi\n      dup1\n      0x3f4ba83a\n      eq\n      tag_14\n      jumpi\n      dup1\n      0x59bf1abe\n      eq\n      tag_15\n      jumpi\n      dup1\n      0x5c658165\n      eq\n      tag_16\n      jumpi\n      dup1\n      0x5c975abb\n      eq\n      tag_17\n      jumpi\n      dup1\n      0x70a08231\n      eq\n      tag_18\n      jumpi\n      dup1\n      0x8456cb59\n      eq\n      tag_19\n      jumpi\n      dup1\n      0x893d20e8\n      eq\n      tag_20\n      jumpi\n      dup1\n      0x8da5cb5b\n      eq\n      tag_21\n      jumpi\n      dup1\n      0x95d89b41\n      eq\n      tag_22\n      jumpi\n      dup1\n      0xa9059cbb\n      eq\n      tag_23\n      jumpi\n      dup1\n      0xc0324c77\n      eq\n      tag_24\n      jumpi\n      dup1\n      0xcc872b66\n      eq\n      tag_25\n      jumpi\n      dup1\n      0xdb006a75\n      eq\n      tag_26\n      jumpi\n      dup1\n      0xdd62ed3e\n      eq\n      tag_27\n      jumpi\n      dup1\n      0xdd644f72\n      eq\n      tag_28\n      jumpi\n      dup1\n      0xe47d6060\n      eq\n      tag_29\n      jumpi\n      dup1\n      0xe4997dc5\n      eq\n      tag_30\n      jumpi\n      dup1\n      0xe5b5019a\n      eq\n      tag_31\n      jumpi\n      dup1\n      0xf2fde38b\n      eq\n      tag_32\n      jumpi\n      dup1\n      0xf3bdc228\n      eq\n      tag_33\n      jumpi\n    tag_1:\n      0x0\n      dup1\n      revert\n        /* \"contracts/USDT.sol\":9461:9479  string public name */\n    tag_2:\n      jumpi(tag_34, iszero(callvalue))\n      0x0\n      dup1\n      revert\n    tag_34:\n      tag_35\n      jump(tag_36)\n    tag_35:\n      mload(0x40)\n      0x20\n      dup1\n      dup3\n      mstore\n      dup2\n      swap1\n      dup2\n      add\n      dup4\n      dup2\n      dup2\n      mload\n      dup2\n      mstore\n      0x20\n      add\n      swap2\n      pop\n      dup1\n      mload\n      swap1\n      0x20\n      add\n      swap1\n      dup1\n      dup4\n      dup4\n        /* \"--CODEGEN--\":23:24   */\n      0x0\n        /* \"--CODEGEN--\":8:108   */\n    tag_37:\n        /* \"--CODEGEN--\":33:36   */\n      dup4\n        /* \"--CODEGEN--\":30:31   */\n      dup2\n        /* \"--CODEGEN--\":27:29   */\n      lt\n        /* \"--CODEGEN--\":8:108   */\n      iszero\n      tag_38\n      jumpi\n        /* \"--CODEGEN--\":99:100   */\n      dup1\n        /* \"--CODEGEN--\":94:97   */\n      dup3\n        /* \"--CODEGEN--\":90:93   */\n      add\n        /* \"--CODEGEN--\":84:89   */\n      mload\n        /* \"--CODEGEN--\":71:74   */\n      dup4\n      dup3\n      add\n        /* \"--CODEGEN--\":64:70   */\n      mstore\n        /* \"--CODEGEN--\":52:54   */\n      0x20\n        /* \"--CODEGEN--\":45:48   */\n      add\n        /* \"--CODEGEN--\":8:108   */\n      jump(tag_37)\n    tag_38:\n        /* \"--CODEGEN--\":12:26   */\n      pop\n        /* \"--CODEGEN--\":3:112   */\n      pop\n      pop\n      pop\n      swap1\n      pop\n      swap1\n      dup2\n      add\n      swap1\n      0x1f\n      and\n      dup1\n      iszero\n      tag_40\n      jumpi\n      dup1\n      dup3\n      sub\n      dup1\n      mload\n      0x1\n      dup4\n      0x20\n      sub\n      0x100\n      exp\n      sub\n      not\n      and\n      dup2\n      mstore\n      0x20\n      add\n      swap2\n      pop\n    tag_40:\n      pop\n      swap3\n      pop\n      pop\n      pop\n      mload(0x40)\n      dup1\n      swap2\n      sub\n      swap1\n      return\n        /* \"contracts/USDT.sol\":11995:12158  function deprecate(address _upgradedAddress) public onlyOwner {... */\n    tag_3:\n      jumpi(tag_41, iszero(callvalue))\n      0x0\n      dup1\n      revert\n    tag_41:\n      tag_42\n      and(calldataload(0x4), sub(exp(0x2, 0xa0), 0x1))\n      jump(tag_43)\n    tag_42:\n      stop\n        /* \"contracts/USDT.sol\":11321:11594  function approve(address _spender, uint256 _value) public onlyPayloadSize(2 * 32) {... */\n    tag_4:\n      jumpi(tag_44, iszero(callvalue))\n      0x0\n      dup1\n      revert\n    tag_44:\n      tag_42\n      and(calldataload(0x4), sub(exp(0x2, 0xa0), 0x1))\n      calldataload(0x24)\n      jump(tag_46)\n        /* \"contracts/USDT.sol\":9568:9590  bool public deprecated */\n    tag_5:\n      jumpi(tag_47, iszero(callvalue))\n      0x0\n      dup1\n      revert\n    tag_47:\n      tag_48\n      jump(tag_49)\n    tag_48:\n      mload(0x40)\n      swap1\n      iszero\n      iszero\n      dup2\n      mstore\n      0x20\n      add\n      mload(0x40)\n      dup1\n      swap2\n      sub\n      swap1\n      return\n        /* \"contracts/USDT.sol\":8171:8302  function addBlackList(address _evilUser) public onlyOwner {... */\n    tag_6:\n      jumpi(tag_50, iszero(callvalue))\n      0x0\n      dup1\n      revert\n    tag_50:\n      tag_42\n      and(calldataload(0x4), sub(exp(0x2, 0xa0), 0x1))\n      jump(tag_52)\n        /* \"contracts/USDT.sol\":12217:12406  function totalSupply() public constant returns (uint256) {... */\n    tag_7:\n      jumpi(tag_53, iszero(callvalue))\n      0x0\n      dup1\n      revert\n    tag_53:\n      tag_54\n      jump(tag_55)\n    tag_54:\n      mload(0x40)\n      swap1\n      dup2\n      mstore\n      0x20\n      add\n      mload(0x40)\n      dup1\n      swap2\n      sub\n      swap1\n      return\n        /* \"contracts/USDT.sol\":10606:10950  function transferFrom(... */\n    tag_8:\n      jumpi(tag_56, iszero(callvalue))\n      0x0\n      dup1\n      revert\n    tag_56:\n      tag_42\n      sub(exp(0x2, 0xa0), 0x1)\n      calldataload(0x4)\n      dup2\n      and\n      swap1\n      calldataload(0x24)\n      and\n      calldataload(0x44)\n      jump(tag_58)\n        /* \"contracts/USDT.sol\":9534:9564  address public upgradedAddress */\n    tag_9:\n      jumpi(tag_59, iszero(callvalue))\n      0x0\n      dup1\n      revert\n    tag_59:\n      tag_60\n      jump(tag_61)\n    tag_60:\n      mload(0x40)\n      sub(exp(0x2, 0xa0), 0x1)\n      swap1\n      swap2\n      and\n      dup2\n      mstore\n      0x20\n      add\n      mload(0x40)\n      dup1\n      swap2\n      sub\n      swap1\n      return\n        /* \"contracts/USDT.sol\":2805:2848  mapping(address => uint256) public balances */\n    tag_10:\n      jumpi(tag_62, iszero(callvalue))\n      0x0\n      dup1\n      revert\n    tag_62:\n      tag_54\n      and(calldataload(0x4), sub(exp(0x2, 0xa0), 0x1))\n      jump(tag_64)\n        /* \"contracts/USDT.sol\":9507:9530  uint256 public decimals */\n    tag_11:\n      jumpi(tag_65, iszero(callvalue))\n      0x0\n      dup1\n      revert\n    tag_65:\n      tag_54\n      jump(tag_67)\n        /* \"contracts/USDT.sol\":2967:2996  uint256 public maximumFee = 0 */\n    tag_12:\n      jumpi(tag_68, iszero(callvalue))\n      0x0\n      dup1\n      revert\n    tag_68:\n      tag_54\n      jump(tag_70)\n        /* \"contracts/USDT.sol\":1899:1926  uint256 public _totalSupply */\n    tag_13:\n      jumpi(tag_71, iszero(callvalue))\n      0x0\n      dup1\n      revert\n    tag_71:\n      tag_54\n      jump(tag_73)\n        /* \"contracts/USDT.sol\":7664:7751  function unpause() public onlyOwner whenPaused {... */\n    tag_14:\n      jumpi(tag_74, iszero(callvalue))\n      0x0\n      dup1\n      revert\n    tag_74:\n      tag_42\n      jump(tag_76)\n        /* \"contracts/USDT.sol\":7918:8034  function getBlackListStatus(address _maker) external constant returns (bool) {... */\n    tag_15:\n      jumpi(tag_77, iszero(callvalue))\n      0x0\n      dup1\n      revert\n    tag_77:\n      tag_48\n      and(calldataload(0x4), sub(exp(0x2, 0xa0), 0x1))\n      jump(tag_79)\n        /* \"contracts/USDT.sol\":4461:4523  mapping(address => mapping(address => uint256)) public allowed */\n    tag_16:\n      jumpi(tag_80, iszero(callvalue))\n      0x0\n      dup1\n      revert\n    tag_80:\n      tag_54\n      sub(exp(0x2, 0xa0), 0x1)\n      calldataload(0x4)\n      dup2\n      and\n      swap1\n      calldataload(0x24)\n      and\n      jump(tag_82)\n        /* \"contracts/USDT.sol\":7079:7105  bool public paused = false */\n    tag_17:\n      jumpi(tag_83, iszero(callvalue))\n      0x0\n      dup1\n      revert\n    tag_83:\n      tag_48\n      jump(tag_85)\n        /* \"contracts/USDT.sol\":11028:11243  function balanceOf(address who) public constant returns (uint256) {... */\n    tag_18:\n      jumpi(tag_86, iszero(callvalue))\n      0x0\n      dup1\n      revert\n    tag_86:\n      tag_54\n      and(calldataload(0x4), sub(exp(0x2, 0xa0), 0x1))\n      jump(tag_88)\n        /* \"contracts/USDT.sol\":7497:7582  function pause() public onlyOwner whenNotPaused {... */\n    tag_19:\n      jumpi(tag_89, iszero(callvalue))\n      0x0\n      dup1\n      revert\n    tag_89:\n      tag_42\n      jump(tag_91)\n        /* \"contracts/USDT.sol\":8038:8117  function getOwner() external constant returns (address) {... */\n    tag_20:\n      jumpi(tag_92, iszero(callvalue))\n      0x0\n      dup1\n      revert\n    tag_92:\n      tag_60\n      jump(tag_94)\n        /* \"contracts/USDT.sol\":1109:1129  address public owner */\n    tag_21:\n      jumpi(tag_95, iszero(callvalue))\n      0x0\n      dup1\n      revert\n    tag_95:\n      tag_60\n      jump(tag_97)\n        /* \"contracts/USDT.sol\":9483:9503  string public symbol */\n    tag_22:\n      jumpi(tag_98, iszero(callvalue))\n      0x0\n      dup1\n      revert\n    tag_98:\n      tag_35\n      jump(tag_100)\n        /* \"contracts/USDT.sol\":10236:10528  function transfer(address _to, uint256 _value) public whenNotPaused {... */\n    tag_23:\n      jumpi(tag_105, iszero(callvalue))\n      0x0\n      dup1\n      revert\n    tag_105:\n      tag_42\n      and(calldataload(0x4), sub(exp(0x2, 0xa0), 0x1))\n      calldataload(0x24)\n      jump(tag_107)\n        /* \"contracts/USDT.sol\":13221:13579  function setParams(uint256 newBasisPoints, uint256 newMaxFee) public onlyOwner {... */\n    tag_24:\n      jumpi(tag_108, iszero(callvalue))\n      0x0\n      dup1\n      revert\n    tag_108:\n      tag_42\n      calldataload(0x4)\n      calldataload(0x24)\n      jump(tag_110)\n        /* \"contracts/USDT.sol\":12554:12794  function issue(uint256 amount) public onlyOwner {... */\n    tag_25:\n      jumpi(tag_111, iszero(callvalue))\n      0x0\n      dup1\n      revert\n    tag_111:\n      tag_42\n      calldataload(0x4)\n      jump(tag_113)\n        /* \"contracts/USDT.sol\":13006:13217  function redeem(uint256 amount) public onlyOwner {... */\n    tag_26:\n      jumpi(tag_114, iszero(callvalue))\n      0x0\n      dup1\n      revert\n    tag_114:\n      tag_42\n      calldataload(0x4)\n      jump(tag_116)\n        /* \"contracts/USDT.sol\":11672:11936  function allowance(address _owner, address _spender) public constant returns (uint256 remaining) {... */\n    tag_27:\n      jumpi(tag_117, iszero(callvalue))\n      0x0\n      dup1\n      revert\n    tag_117:\n      tag_54\n      sub(exp(0x2, 0xa0), 0x1)\n      calldataload(0x4)\n      dup2\n      and\n      swap1\n      calldataload(0x24)\n      and\n      jump(tag_119)\n        /* \"contracts/USDT.sol\":2929:2963  uint256 public basisPointsRate = 0 */\n    tag_28:\n      jumpi(tag_120, iszero(callvalue))\n      0x0\n      dup1\n      revert\n    tag_120:\n      tag_54\n      jump(tag_122)\n        /* \"contracts/USDT.sol\":8121:8166  mapping(address => bool) public isBlackListed */\n    tag_29:\n      jumpi(tag_123, iszero(callvalue))\n      0x0\n      dup1\n      revert\n    tag_123:\n      tag_48\n      and(calldataload(0x4), sub(exp(0x2, 0xa0), 0x1))\n      jump(tag_125)\n        /* \"contracts/USDT.sol\":8306:8452  function removeBlackList(address _clearedUser) public onlyOwner {... */\n    tag_30:\n      jumpi(tag_126, iszero(callvalue))\n      0x0\n      dup1\n      revert\n    tag_126:\n      tag_42\n      and(calldataload(0x4), sub(exp(0x2, 0xa0), 0x1))\n      jump(tag_128)\n        /* \"contracts/USDT.sol\":4528:4573  uint256 public constant MAX_UINT = 2**256 - 1 */\n    tag_31:\n      jumpi(tag_129, iszero(callvalue))\n      0x0\n      dup1\n      revert\n    tag_129:\n      tag_54\n      jump(tag_131)\n        /* \"contracts/USDT.sol\":1613:1744  function transferOwnership(address newOwner) public onlyOwner {... */\n    tag_32:\n      jumpi(tag_132, iszero(callvalue))\n      0x0\n      dup1\n      revert\n    tag_132:\n      tag_42\n      and(calldataload(0x4), sub(exp(0x2, 0xa0), 0x1))\n      jump(tag_134)\n        /* \"contracts/USDT.sol\":8456:8754  function destroyBlackFunds(address _blackListedUser) public onlyOwner {... */\n    tag_33:\n      jumpi(tag_135, iszero(callvalue))\n      0x0\n      dup1\n      revert\n    tag_135:\n      tag_42\n      and(calldataload(0x4), sub(exp(0x2, 0xa0), 0x1))\n      jump(tag_137)\n        /* \"contracts/USDT.sol\":9461:9479  string public name */\n    tag_36:\n      0x7\n      dup1\n      sload\n      0x1\n      dup2\n      0x1\n      and\n      iszero\n      0x100\n      mul\n      sub\n      and\n      0x2\n      swap1\n      div\n      dup1\n      0x1f\n      add\n      0x20\n      dup1\n      swap2\n      div\n      mul\n      0x20\n      add\n      mload(0x40)\n      swap1\n      dup2\n      add\n      0x40\n      mstore\n      dup1\n      swap3\n      swap2\n      swap1\n      dup2\n      dup2\n      mstore\n      0x20\n      add\n      dup3\n      dup1\n      sload\n      0x1\n      dup2\n      0x1\n      and\n      iszero\n      0x100\n      mul\n      sub\n      and\n      0x2\n      swap1\n      div\n      dup1\n      iszero\n      tag_138\n      jumpi\n      dup1\n      0x1f\n      lt\n      tag_139\n      jumpi\n      0x100\n      dup1\n      dup4\n      sload\n      div\n      mul\n      dup4\n      mstore\n      swap2\n      0x20\n      add\n      swap2\n      jump(tag_138)\n    tag_139:\n      dup3\n      add\n      swap2\n      swap1\n      0x0\n      mstore\n      keccak256(0x0, 0x20)\n      swap1\n    tag_140:\n      dup2\n      sload\n      dup2\n      mstore\n      swap1\n      0x1\n      add\n      swap1\n      0x20\n      add\n      dup1\n      dup4\n      gt\n      tag_140\n      jumpi\n      dup3\n      swap1\n      sub\n      0x1f\n      and\n      dup3\n      add\n      swap2\n    tag_138:\n      pop\n      pop\n      pop\n      pop\n      pop\n      dup2\n      jump\t// out\n        /* \"contracts/USDT.sol\":11995:12158  function deprecate(address _upgradedAddress) public onlyOwner {... */\n    tag_43:\n        /* \"contracts/USDT.sol\":1434:1439  owner */\n      sload(0x0)\n        /* \"contracts/USDT.sol\":1420:1430  msg.sender */\n      caller\n      sub(exp(0x2, 0xa0), 0x1)\n        /* \"contracts/USDT.sol\":1420:1439  msg.sender == owner */\n      swap1\n      dup2\n      and\n        /* \"contracts/USDT.sol\":1434:1439  owner */\n      swap2\n      and\n        /* \"contracts/USDT.sol\":1420:1439  msg.sender == owner */\n      eq\n        /* \"contracts/USDT.sol\":1412:1440  require(msg.sender == owner) */\n      tag_142\n      jumpi\n      0x0\n      dup1\n      revert\n    tag_142:\n        /* \"contracts/USDT.sol\":12063:12073  deprecated */\n      0xa\n        /* \"contracts/USDT.sol\":12063:12080  deprecated = true */\n      dup1\n      sload\n      exp(0x2, 0xa0)\n      not(0xff0000000000000000000000000000000000000000)\n      swap1\n      swap2\n      and\n      or\n      not(0xffffffffffffffffffffffffffffffffffffffff)\n        /* \"contracts/USDT.sol\":12086:12120  upgradedAddress = _upgradedAddress */\n      and\n      sub(exp(0x2, 0xa0), 0x1)\n      dup4\n      and\n      or\n      swap1\n      sstore\n        /* \"contracts/USDT.sol\":12126:12153  Deprecate(_upgradedAddress) */\n      0xcc358699805e9a8b7f77b522628c7cb9abd07d9efb86b6fb616af1609036a99e\n        /* \"contracts/USDT.sol\":12086:12120  upgradedAddress = _upgradedAddress */\n      dup2\n        /* \"contracts/USDT.sol\":12126:12153  Deprecate(_upgradedAddress) */\n      mload(0x40)\n      sub(exp(0x2, 0xa0), 0x1)\n      swap1\n      swap2\n      and\n      dup2\n      mstore\n      0x20\n      add\n      mload(0x40)\n      dup1\n      swap2\n      sub\n      swap1\n      log1\n        /* \"contracts/USDT.sol\":11995:12158  function deprecate(address _upgradedAddress) public onlyOwner {... */\n      pop\n      jump\t// out\n        /* \"contracts/USDT.sol\":11321:11594  function approve(address _spender, uint256 _value) public onlyPayloadSize(2 * 32) {... */\n    tag_46:\n        /* \"contracts/USDT.sol\":11395:11401  2 * 32 */\n      0x40\n        /* \"contracts/USDT.sol\":3136:3144  size + 4 */\n      0x44\n        /* \"contracts/USDT.sol\":3118:3126  msg.data */\n      calldatasize\n        /* \"contracts/USDT.sol\":3118:3144  msg.data.length < size + 4 */\n      lt\n        /* \"contracts/USDT.sol\":3116:3145  !(msg.data.length < size + 4) */\n      iszero\n        /* \"contracts/USDT.sol\":3108:3146  require(!(msg.data.length < size + 4)) */\n      tag_145\n      jumpi\n      0x0\n      dup1\n      revert\n    tag_145:\n        /* \"contracts/USDT.sol\":11413:11423  deprecated */\n      sload(0xa)\n      exp(0x2, 0xa0)\n      swap1\n      div\n      0xff\n      and\n        /* \"contracts/USDT.sol\":11409:11590  if (deprecated) {... */\n      iszero\n      tag_147\n      jumpi\n        /* \"contracts/USDT.sol\":11462:11477  upgradedAddress */\n      and(sub(exp(0x2, 0xa0), 0x1), sload(0xa))\n        /* \"contracts/USDT.sol\":11440:11494  UpgradedStandardToken(upgradedAddress).approveByLegacy */\n      0xaee92d33\n        /* \"contracts/USDT.sol\":11495:11505  msg.sender */\n      caller\n        /* \"contracts/USDT.sol\":11507:11515  _spender */\n      dup6\n        /* \"contracts/USDT.sol\":11517:11523  _value */\n      dup6\n        /* \"contracts/USDT.sol\":11440:11524  UpgradedStandardToken(upgradedAddress).approveByLegacy(msg.sender, _spender, _value) */\n      mload(0x40)\n      exp(0x2, 0xe0)\n      0xffffffff\n      dup7\n      and\n      mul\n      dup2\n      mstore\n      sub(exp(0x2, 0xa0), 0x1)\n      swap4\n      dup5\n      and\n      0x4\n      dup3\n      add\n      mstore\n      swap2\n      swap1\n      swap3\n      and\n      0x24\n      dup3\n      add\n      mstore\n      0x44\n      dup2\n      add\n      swap2\n      swap1\n      swap2\n      mstore\n      0x64\n      add\n      0x0\n      mload(0x40)\n      dup1\n      dup4\n      sub\n      dup2\n      0x0\n      dup8\n      dup1\n      extcodesize\n      iszero\n      iszero\n      tag_148\n      jumpi\n      0x0\n      dup1\n      revert\n    tag_148:\n      sub(gas, 0x2c6)\n      call\n      iszero\n      iszero\n      tag_149\n      jumpi\n      0x0\n      dup1\n      revert\n    tag_149:\n      pop\n      pop\n      pop\n        /* \"contracts/USDT.sol\":11433:11524  return UpgradedStandardToken(upgradedAddress).approveByLegacy(msg.sender, _spender, _value) */\n      jump(tag_151)\n        /* \"contracts/USDT.sol\":11409:11590  if (deprecated) {... */\n    tag_147:\n        /* \"contracts/USDT.sol\":11552:11583  super.approve(_spender, _value) */\n      tag_151\n        /* \"contracts/USDT.sol\":11566:11574  _spender */\n      dup4\n        /* \"contracts/USDT.sol\":11576:11582  _value */\n      dup4\n        /* \"contracts/USDT.sol\":11552:11565  super.approve */\n      tag_152\n        /* \"contracts/USDT.sol\":11552:11583  super.approve(_spender, _value) */\n      jump\t// in\n    tag_151:\n        /* \"contracts/USDT.sol\":11321:11594  function approve(address _spender, uint256 _value) public onlyPayloadSize(2 * 32) {... */\n      pop\n      pop\n      pop\n      jump\t// out\n        /* \"contracts/USDT.sol\":9568:9590  bool public deprecated */\n    tag_49:\n      sload(0xa)\n      exp(0x2, 0xa0)\n      swap1\n      div\n      0xff\n      and\n      dup2\n      jump\t// out\n        /* \"contracts/USDT.sol\":8171:8302  function addBlackList(address _evilUser) public onlyOwner {... */\n    tag_52:\n        /* \"contracts/USDT.sol\":1434:1439  owner */\n      sload(0x0)\n        /* \"contracts/USDT.sol\":1420:1430  msg.sender */\n      caller\n      sub(exp(0x2, 0xa0), 0x1)\n        /* \"contracts/USDT.sol\":1420:1439  msg.sender == owner */\n      swap1\n      dup2\n      and\n        /* \"contracts/USDT.sol\":1434:1439  owner */\n      swap2\n      and\n        /* \"contracts/USDT.sol\":1420:1439  msg.sender == owner */\n      eq\n        /* \"contracts/USDT.sol\":1412:1440  require(msg.sender == owner) */\n      tag_154\n      jumpi\n      0x0\n      dup1\n      revert\n    tag_154:\n      sub(exp(0x2, 0xa0), 0x1)\n        /* \"contracts/USDT.sol\":8235:8259  isBlackListed[_evilUser] */\n      dup2\n      and\n      0x0\n      swap1\n      dup2\n      mstore\n        /* \"contracts/USDT.sol\":8235:8248  isBlackListed */\n      0x6\n        /* \"contracts/USDT.sol\":8235:8259  isBlackListed[_evilUser] */\n      0x20\n      mstore\n      0x40\n      swap1\n      dup2\n      swap1\n      keccak256\n        /* \"contracts/USDT.sol\":8235:8266  isBlackListed[_evilUser] = true */\n      dup1\n      sload\n      not(0xff)\n      and\n        /* \"contracts/USDT.sol\":8262:8266  true */\n      0x1\n        /* \"contracts/USDT.sol\":8235:8266  isBlackListed[_evilUser] = true */\n      or\n      swap1\n      sstore\n        /* \"contracts/USDT.sol\":8272:8297  AddedBlackList(_evilUser) */\n      0x42e160154868087d6bfdc0ca23d96a1c1cfa32f1b72ba9ba27b69b98a0d819dc\n      swap1\n        /* \"contracts/USDT.sol\":8249:8258  _evilUser */\n      dup3\n      swap1\n        /* \"contracts/USDT.sol\":8272:8297  AddedBlackList(_evilUser) */\n      mload\n      sub(exp(0x2, 0xa0), 0x1)\n      swap1\n      swap2\n      and\n      dup2\n      mstore\n      0x20\n      add\n      mload(0x40)\n      dup1\n      swap2\n      sub\n      swap1\n      log1\n        /* \"contracts/USDT.sol\":8171:8302  function addBlackList(address _evilUser) public onlyOwner {... */\n      pop\n      jump\t// out\n        /* \"contracts/USDT.sol\":12217:12406  function totalSupply() public constant returns (uint256) {... */\n    tag_55:\n        /* \"contracts/USDT.sol\":12284:12294  deprecated */\n      sload(0xa)\n        /* \"contracts/USDT.sol\":12265:12272  uint256 */\n      0x0\n      swap1\n      exp(0x2, 0xa0)\n        /* \"contracts/USDT.sol\":12284:12294  deprecated */\n      swap1\n      div\n      0xff\n      and\n        /* \"contracts/USDT.sol\":12280:12402  if (deprecated) {... */\n      iszero\n      tag_157\n      jumpi\n        /* \"contracts/USDT.sol\":12325:12340  upgradedAddress */\n      and(sub(exp(0x2, 0xa0), 0x1), sload(0xa))\n        /* \"contracts/USDT.sol\":12311:12353  StandardToken(upgradedAddress).totalSupply */\n      0x18160ddd\n        /* \"contracts/USDT.sol\":12325:12340  upgradedAddress */\n      0x0\n        /* \"contracts/USDT.sol\":12311:12355  StandardToken(upgradedAddress).totalSupply() */\n      add(0x20, mload(0x40))\n      mstore\n      mload(0x40)\n      dup2\n      0xffffffff\n      and\n      exp(0x2, 0xe0)\n      mul\n      dup2\n      mstore\n      0x4\n      add\n      0x20\n      mload(0x40)\n      dup1\n      dup4\n      sub\n      dup2\n      0x0\n      dup8\n      dup1\n      extcodesize\n      iszero\n      iszero\n      tag_158\n      jumpi\n      0x0\n      dup1\n      revert\n    tag_158:\n      sub(gas, 0x2c6)\n      call\n      iszero\n      iszero\n      tag_159\n      jumpi\n      0x0\n      dup1\n      revert\n    tag_159:\n      pop\n      pop\n      pop\n      mload(0x40)\n      dup1\n      mload\n      swap1\n      pop\n        /* \"contracts/USDT.sol\":12304:12355  return StandardToken(upgradedAddress).totalSupply() */\n      swap1\n      pop\n      jump(tag_160)\n        /* \"contracts/USDT.sol\":12280:12402  if (deprecated) {... */\n    tag_157:\n      pop\n        /* \"contracts/USDT.sol\":12383:12395  _totalSupply */\n      sload(0x1)\n        /* \"contracts/USDT.sol\":12280:12402  if (deprecated) {... */\n    tag_160:\n        /* \"contracts/USDT.sol\":12217:12406  function totalSupply() public constant returns (uint256) {... */\n      swap1\n      jump\t// out\n        /* \"contracts/USDT.sol\":10606:10950  function transferFrom(... */\n    tag_58:\n        /* \"contracts/USDT.sol\":7247:7253  paused */\n      sload(0x0)\n      exp(0x2, 0xa0)\n      swap1\n      div\n      0xff\n      and\n        /* \"contracts/USDT.sol\":7246:7253  !paused */\n      iszero\n        /* \"contracts/USDT.sol\":7238:7254  require(!paused) */\n      tag_162\n      jumpi\n      0x0\n      dup1\n      revert\n    tag_162:\n      sub(exp(0x2, 0xa0), 0x1)\n        /* \"contracts/USDT.sol\":10724:10744  isBlackListed[_from] */\n      dup4\n      and\n      0x0\n      swap1\n      dup2\n      mstore\n        /* \"contracts/USDT.sol\":10724:10737  isBlackListed */\n      0x6\n        /* \"contracts/USDT.sol\":10724:10744  isBlackListed[_from] */\n      0x20\n      mstore\n      0x40\n      swap1\n      keccak256\n      sload\n      0xff\n      and\n        /* \"contracts/USDT.sol\":10723:10744  !isBlackListed[_from] */\n      iszero\n        /* \"contracts/USDT.sol\":10715:10745  require(!isBlackListed[_from]) */\n      tag_164\n      jumpi\n      0x0\n      dup1\n      revert\n    tag_164:\n        /* \"contracts/USDT.sol\":10755:10765  deprecated */\n      sload(0xa)\n      exp(0x2, 0xa0)\n      swap1\n      div\n      0xff\n      and\n        /* \"contracts/USDT.sol\":10751:10946  if (deprecated) {... */\n      iszero\n      tag_165\n      jumpi\n        /* \"contracts/USDT.sol\":10804:10819  upgradedAddress */\n      and(sub(exp(0x2, 0xa0), 0x1), sload(0xa))\n        /* \"contracts/USDT.sol\":10782:10841  UpgradedStandardToken(upgradedAddress).transferFromByLegacy */\n      0x8b477adb\n        /* \"contracts/USDT.sol\":10842:10852  msg.sender */\n      caller\n        /* \"contracts/USDT.sol\":10854:10859  _from */\n      dup6\n        /* \"contracts/USDT.sol\":10861:10864  _to */\n      dup6\n        /* \"contracts/USDT.sol\":10866:10872  _value */\n      dup6\n        /* \"contracts/USDT.sol\":10782:10873  UpgradedStandardToken(upgradedAddress).transferFromByLegacy(msg.sender, _from, _to, _value) */\n      mload(0x40)\n      exp(0x2, 0xe0)\n      0xffffffff\n      dup8\n      and\n      mul\n      dup2\n      mstore\n      sub(exp(0x2, 0xa0), 0x1)\n      swap5\n      dup6\n      and\n      0x4\n      dup3\n      add\n      mstore\n      swap3\n      dup5\n      and\n      0x24\n      dup5\n      add\n      mstore\n      swap3\n      and\n      0x44\n      dup3\n      add\n      mstore\n      0x64\n      dup2\n      add\n      swap2\n      swap1\n      swap2\n      mstore\n      0x84\n      add\n      0x0\n      mload(0x40)\n      dup1\n      dup4\n      sub\n      dup2\n      0x0\n      dup8\n      dup1\n      extcodesize\n      iszero\n      iszero\n      tag_148\n      jumpi\n      0x0\n      dup1\n      revert\n        /* \"contracts/USDT.sol\":10751:10946  if (deprecated) {... */\n    tag_165:\n        /* \"contracts/USDT.sol\":10901:10939  super.transferFrom(_from, _to, _value) */\n      tag_151\n        /* \"contracts/USDT.sol\":10920:10925  _from */\n      dup4\n        /* \"contracts/USDT.sol\":10927:10930  _to */\n      dup4\n        /* \"contracts/USDT.sol\":10932:10938  _value */\n      dup4\n        /* \"contracts/USDT.sol\":10901:10919  super.transferFrom */\n      tag_170\n        /* \"contracts/USDT.sol\":10901:10939  super.transferFrom(_from, _to, _value) */\n      jump\t// in\n        /* \"contracts/USDT.sol\":9534:9564  address public upgradedAddress */\n    tag_61:\n      and(sub(exp(0x2, 0xa0), 0x1), sload(0xa))\n      dup2\n      jump\t// out\n        /* \"contracts/USDT.sol\":2805:2848  mapping(address => uint256) public balances */\n    tag_64:\n      mstore(0x20, 0x2)\n      0x0\n      swap1\n      dup2\n      mstore\n      0x40\n      swap1\n      keccak256\n      sload\n      dup2\n      jump\t// out\n        /* \"contracts/USDT.sol\":9507:9530  uint256 public decimals */\n    tag_67:\n      sload(0x9)\n      dup2\n      jump\t// out\n        /* \"contracts/USDT.sol\":2967:2996  uint256 public maximumFee = 0 */\n    tag_70:\n      sload(0x4)\n      dup2\n      jump\t// out\n        /* \"contracts/USDT.sol\":1899:1926  uint256 public _totalSupply */\n    tag_73:\n      sload(0x1)\n      dup2\n      jump\t// out\n        /* \"contracts/USDT.sol\":7664:7751  function unpause() public onlyOwner whenPaused {... */\n    tag_76:\n        /* \"contracts/USDT.sol\":1434:1439  owner */\n      sload(0x0)\n        /* \"contracts/USDT.sol\":1420:1430  msg.sender */\n      caller\n      sub(exp(0x2, 0xa0), 0x1)\n        /* \"contracts/USDT.sol\":1420:1439  msg.sender == owner */\n      swap1\n      dup2\n      and\n        /* \"contracts/USDT.sol\":1434:1439  owner */\n      swap2\n      and\n        /* \"contracts/USDT.sol\":1420:1439  msg.sender == owner */\n      eq\n        /* \"contracts/USDT.sol\":1412:1440  require(msg.sender == owner) */\n      tag_172\n      jumpi\n      0x0\n      dup1\n      revert\n    tag_172:\n        /* \"contracts/USDT.sol\":7399:7405  paused */\n      sload(0x0)\n      exp(0x2, 0xa0)\n      swap1\n      div\n      0xff\n      and\n        /* \"contracts/USDT.sol\":7391:7406  require(paused) */\n      iszero\n      iszero\n      tag_174\n      jumpi\n      0x0\n      dup1\n      revert\n    tag_174:\n        /* \"contracts/USDT.sol\":7726:7731  false */\n      0x0\n        /* \"contracts/USDT.sol\":7717:7731  paused = false */\n      dup1\n      sload\n      not(0xff0000000000000000000000000000000000000000)\n      and\n      swap1\n      sstore\n        /* \"contracts/USDT.sol\":7737:7746  Unpause() */\n      0x7805862f689e2f13df9f062ff482ad3ad112aca9e0847911ed832e158c525b33\n      mload(0x40)\n      mload(0x40)\n      dup1\n      swap2\n      sub\n      swap1\n      log1\n        /* \"contracts/USDT.sol\":7664:7751  function unpause() public onlyOwner whenPaused {... */\n      jump\t// out\n        /* \"contracts/USDT.sol\":7918:8034  function getBlackListStatus(address _maker) external constant returns (bool) {... */\n    tag_79:\n      sub(exp(0x2, 0xa0), 0x1)\n        /* \"contracts/USDT.sol\":8008:8029  isBlackListed[_maker] */\n      dup2\n      and\n        /* \"contracts/USDT.sol\":7989:7993  bool */\n      0x0\n        /* \"contracts/USDT.sol\":8008:8029  isBlackListed[_maker] */\n      swap1\n      dup2\n      mstore\n        /* \"contracts/USDT.sol\":8008:8021  isBlackListed */\n      0x6\n        /* \"contracts/USDT.sol\":8008:8029  isBlackListed[_maker] */\n      0x20\n      mstore\n      0x40\n      swap1\n      keccak256\n      sload\n      0xff\n      and\n        /* \"contracts/USDT.sol\":7918:8034  function getBlackListStatus(address _maker) external constant returns (bool) {... */\n    tag_176:\n      swap2\n      swap1\n      pop\n      jump\t// out\n        /* \"contracts/USDT.sol\":4461:4523  mapping(address => mapping(address => uint256)) public allowed */\n    tag_82:\n      0x5\n      0x20\n      swap1\n      dup2\n      mstore\n      0x0\n      swap3\n      dup4\n      mstore\n      0x40\n      dup1\n      dup5\n      keccak256\n      swap1\n      swap2\n      mstore\n      swap1\n      dup3\n      mstore\n      swap1\n      keccak256\n      sload\n      dup2\n      jump\t// out\n        /* \"contracts/USDT.sol\":7079:7105  bool public paused = false */\n    tag_85:\n      sload(0x0)\n      exp(0x2, 0xa0)\n      swap1\n      div\n      0xff\n      and\n      dup2\n      jump\t// out\n        /* \"contracts/USDT.sol\":11028:11243  function balanceOf(address who) public constant returns (uint256) {... */\n    tag_88:\n        /* \"contracts/USDT.sol\":11104:11114  deprecated */\n      sload(0xa)\n        /* \"contracts/USDT.sol\":11085:11092  uint256 */\n      0x0\n      swap1\n      exp(0x2, 0xa0)\n        /* \"contracts/USDT.sol\":11104:11114  deprecated */\n      swap1\n      div\n      0xff\n      and\n        /* \"contracts/USDT.sol\":11100:11239  if (deprecated) {... */\n      iszero\n      tag_178\n      jumpi\n        /* \"contracts/USDT.sol\":11153:11168  upgradedAddress */\n      and(sub(exp(0x2, 0xa0), 0x1), sload(0xa))\n        /* \"contracts/USDT.sol\":11131:11179  UpgradedStandardToken(upgradedAddress).balanceOf */\n      0x70a08231\n        /* \"contracts/USDT.sol\":11180:11183  who */\n      dup4\n        /* \"contracts/USDT.sol\":11153:11168  upgradedAddress */\n      0x0\n        /* \"contracts/USDT.sol\":11131:11184  UpgradedStandardToken(upgradedAddress).balanceOf(who) */\n      add(0x20, mload(0x40))\n      mstore\n      mload(0x40)\n      exp(0x2, 0xe0)\n      0xffffffff\n      dup5\n      and\n      mul\n      dup2\n      mstore\n      sub(exp(0x2, 0xa0), 0x1)\n      swap1\n      swap2\n      and\n      0x4\n      dup3\n      add\n      mstore\n      0x24\n      add\n      0x20\n      mload(0x40)\n      dup1\n      dup4\n      sub\n      dup2\n      0x0\n      dup8\n      dup1\n      extcodesize\n      iszero\n      iszero\n      tag_179\n      jumpi\n      0x0\n      dup1\n      revert\n    tag_179:\n      sub(gas, 0x2c6)\n      call\n      iszero\n      iszero\n      tag_180\n      jumpi\n      0x0\n      dup1\n      revert\n    tag_180:\n      pop\n      pop\n      pop\n      mload(0x40)\n      dup1\n      mload\n      swap1\n      pop\n        /* \"contracts/USDT.sol\":11124:11184  return UpgradedStandardToken(upgradedAddress).balanceOf(who) */\n      swap1\n      pop\n      jump(tag_176)\n        /* \"contracts/USDT.sol\":11100:11239  if (deprecated) {... */\n    tag_178:\n        /* \"contracts/USDT.sol\":11212:11232  super.balanceOf(who) */\n      tag_182\n        /* \"contracts/USDT.sol\":11228:11231  who */\n      dup3\n        /* \"contracts/USDT.sol\":11212:11227  super.balanceOf */\n      tag_183\n        /* \"contracts/USDT.sol\":11212:11232  super.balanceOf(who) */\n      jump\t// in\n    tag_182:\n        /* \"contracts/USDT.sol\":11205:11232  return super.balanceOf(who) */\n      swap1\n      pop\n      jump(tag_176)\n        /* \"contracts/USDT.sol\":7497:7582  function pause() public onlyOwner whenNotPaused {... */\n    tag_91:\n        /* \"contracts/USDT.sol\":1434:1439  owner */\n      sload(0x0)\n        /* \"contracts/USDT.sol\":1420:1430  msg.sender */\n      caller\n      sub(exp(0x2, 0xa0), 0x1)\n        /* \"contracts/USDT.sol\":1420:1439  msg.sender == owner */\n      swap1\n      dup2\n      and\n        /* \"contracts/USDT.sol\":1434:1439  owner */\n      swap2\n      and\n        /* \"contracts/USDT.sol\":1420:1439  msg.sender == owner */\n      eq\n        /* \"contracts/USDT.sol\":1412:1440  require(msg.sender == owner) */\n      tag_185\n      jumpi\n      0x0\n      dup1\n      revert\n    tag_185:\n        /* \"contracts/USDT.sol\":7247:7253  paused */\n      sload(0x0)\n      exp(0x2, 0xa0)\n      swap1\n      div\n      0xff\n      and\n        /* \"contracts/USDT.sol\":7246:7253  !paused */\n      iszero\n        /* \"contracts/USDT.sol\":7238:7254  require(!paused) */\n      tag_187\n      jumpi\n      0x0\n      dup1\n      revert\n    tag_187:\n        /* \"contracts/USDT.sol\":7551:7557  paused */\n      0x0\n        /* \"contracts/USDT.sol\":7551:7564  paused = true */\n      dup1\n      sload\n      not(0xff0000000000000000000000000000000000000000)\n      and\n      exp(0x2, 0xa0)\n      or\n      swap1\n      sstore\n        /* \"contracts/USDT.sol\":7570:7577  Pause() */\n      0x6985a02210a168e66602d3235cb6db0e70f92b3ba4d376a33c0f3d9434bff625\n      mload(0x40)\n      mload(0x40)\n      dup1\n      swap2\n      sub\n      swap1\n      log1\n        /* \"contracts/USDT.sol\":7497:7582  function pause() public onlyOwner whenNotPaused {... */\n      jump\t// out\n        /* \"contracts/USDT.sol\":8038:8117  function getOwner() external constant returns (address) {... */\n    tag_94:\n        /* \"contracts/USDT.sol\":8085:8092  address */\n      0x0\n        /* \"contracts/USDT.sol\":8107:8112  owner */\n      sload\n      sub(exp(0x2, 0xa0), 0x1)\n      and\n        /* \"contracts/USDT.sol\":8038:8117  function getOwner() external constant returns (address) {... */\n      swap1\n      jump\t// out\n        /* \"contracts/USDT.sol\":1109:1129  address public owner */\n    tag_97:\n      and(sub(exp(0x2, 0xa0), 0x1), sload(0x0))\n      dup2\n      jump\t// out\n        /* \"contracts/USDT.sol\":9483:9503  string public symbol */\n    tag_100:\n      0x8\n      dup1\n      sload\n      0x1\n      dup2\n      0x1\n      and\n      iszero\n      0x100\n      mul\n      sub\n      and\n      0x2\n      swap1\n      div\n      dup1\n      0x1f\n      add\n      0x20\n      dup1\n      swap2\n      div\n      mul\n      0x20\n      add\n      mload(0x40)\n      swap1\n      dup2\n      add\n      0x40\n      mstore\n      dup1\n      swap3\n      swap2\n      swap1\n      dup2\n      dup2\n      mstore\n      0x20\n      add\n      dup3\n      dup1\n      sload\n      0x1\n      dup2\n      0x1\n      and\n      iszero\n      0x100\n      mul\n      sub\n      and\n      0x2\n      swap1\n      div\n      dup1\n      iszero\n      tag_138\n      jumpi\n      dup1\n      0x1f\n      lt\n      tag_139\n      jumpi\n      0x100\n      dup1\n      dup4\n      sload\n      div\n      mul\n      dup4\n      mstore\n      swap2\n      0x20\n      add\n      swap2\n      jump(tag_138)\n        /* \"contracts/USDT.sol\":10236:10528  function transfer(address _to, uint256 _value) public whenNotPaused {... */\n    tag_107:\n        /* \"contracts/USDT.sol\":7247:7253  paused */\n      sload(0x0)\n      exp(0x2, 0xa0)\n      swap1\n      div\n      0xff\n      and\n        /* \"contracts/USDT.sol\":7246:7253  !paused */\n      iszero\n        /* \"contracts/USDT.sol\":7238:7254  require(!paused) */\n      tag_194\n      jumpi\n      0x0\n      dup1\n      revert\n    tag_194:\n      sub(exp(0x2, 0xa0), 0x1)\n        /* \"contracts/USDT.sol\":10333:10343  msg.sender */\n      caller\n        /* \"contracts/USDT.sol\":10319:10344  isBlackListed[msg.sender] */\n      and\n      0x0\n      swap1\n      dup2\n      mstore\n        /* \"contracts/USDT.sol\":10319:10332  isBlackListed */\n      0x6\n        /* \"contracts/USDT.sol\":10319:10344  isBlackListed[msg.sender] */\n      0x20\n      mstore\n      0x40\n      swap1\n      keccak256\n      sload\n      0xff\n      and\n        /* \"contracts/USDT.sol\":10318:10344  !isBlackListed[msg.sender] */\n      iszero\n        /* \"contracts/USDT.sol\":10310:10345  require(!isBlackListed[msg.sender]) */\n      tag_196\n      jumpi\n      0x0\n      dup1\n      revert\n    tag_196:\n        /* \"contracts/USDT.sol\":10355:10365  deprecated */\n      sload(0xa)\n      exp(0x2, 0xa0)\n      swap1\n      div\n      0xff\n      and\n        /* \"contracts/USDT.sol\":10351:10524  if (deprecated) {... */\n      iszero\n      tag_197\n      jumpi\n        /* \"contracts/USDT.sol\":10404:10419  upgradedAddress */\n      and(sub(exp(0x2, 0xa0), 0x1), sload(0xa))\n        /* \"contracts/USDT.sol\":10382:10437  UpgradedStandardToken(upgradedAddress).transferByLegacy */\n      0x6e18980a\n        /* \"contracts/USDT.sol\":10438:10448  msg.sender */\n      caller\n        /* \"contracts/USDT.sol\":10450:10453  _to */\n      dup5\n        /* \"contracts/USDT.sol\":10455:10461  _value */\n      dup5\n        /* \"contracts/USDT.sol\":10382:10462  UpgradedStandardToken(upgradedAddress).transferByLegacy(msg.sender, _to, _value) */\n      mload(0x40)\n      exp(0x2, 0xe0)\n      0xffffffff\n      dup7\n      and\n      mul\n      dup2\n      mstore\n      sub(exp(0x2, 0xa0), 0x1)\n      swap4\n      dup5\n      and\n      0x4\n      dup3\n      add\n      mstore\n      swap2\n      swap1\n      swap3\n      and\n      0x24\n      dup3\n      add\n      mstore\n      0x44\n      dup2\n      add\n      swap2\n      swap1\n      swap2\n      mstore\n      0x64\n      add\n      0x0\n      mload(0x40)\n      dup1\n      dup4\n      sub\n      dup2\n      0x0\n      dup8\n      dup1\n      extcodesize\n      iszero\n      iszero\n      tag_198\n      jumpi\n      0x0\n      dup1\n      revert\n    tag_198:\n      sub(gas, 0x2c6)\n      call\n      iszero\n      iszero\n      tag_199\n      jumpi\n      0x0\n      dup1\n      revert\n    tag_199:\n      pop\n      pop\n      pop\n        /* \"contracts/USDT.sol\":10375:10462  return UpgradedStandardToken(upgradedAddress).transferByLegacy(msg.sender, _to, _value) */\n      jump(tag_201)\n        /* \"contracts/USDT.sol\":10351:10524  if (deprecated) {... */\n    tag_197:\n        /* \"contracts/USDT.sol\":10490:10517  super.transfer(_to, _value) */\n      tag_201\n        /* \"contracts/USDT.sol\":10505:10508  _to */\n      dup3\n        /* \"contracts/USDT.sol\":10510:10516  _value */\n      dup3\n        /* \"contracts/USDT.sol\":10490:10504  super.transfer */\n      tag_202\n        /* \"contracts/USDT.sol\":10490:10517  super.transfer(_to, _value) */\n      jump\t// in\n    tag_201:\n        /* \"contracts/USDT.sol\":10236:10528  function transfer(address _to, uint256 _value) public whenNotPaused {... */\n      pop\n      pop\n      jump\t// out\n        /* \"contracts/USDT.sol\":13221:13579  function setParams(uint256 newBasisPoints, uint256 newMaxFee) public onlyOwner {... */\n    tag_110:\n        /* \"contracts/USDT.sol\":1434:1439  owner */\n      sload(0x0)\n        /* \"contracts/USDT.sol\":1420:1430  msg.sender */\n      caller\n      sub(exp(0x2, 0xa0), 0x1)\n        /* \"contracts/USDT.sol\":1420:1439  msg.sender == owner */\n      swap1\n      dup2\n      and\n        /* \"contracts/USDT.sol\":1434:1439  owner */\n      swap2\n      and\n        /* \"contracts/USDT.sol\":1420:1439  msg.sender == owner */\n      eq\n        /* \"contracts/USDT.sol\":1412:1440  require(msg.sender == owner) */\n      tag_204\n      jumpi\n      0x0\n      dup1\n      revert\n    tag_204:\n        /* \"contracts/USDT.sol\":13415:13417  20 */\n      0x14\n        /* \"contracts/USDT.sol\":13398:13417  newBasisPoints < 20 */\n      dup3\n      lt\n        /* \"contracts/USDT.sol\":13390:13418  require(newBasisPoints < 20) */\n      tag_206\n      jumpi\n      0x0\n      dup1\n      revert\n    tag_206:\n        /* \"contracts/USDT.sol\":13444:13446  50 */\n      0x32\n        /* \"contracts/USDT.sol\":13432:13446  newMaxFee < 50 */\n      dup2\n      lt\n        /* \"contracts/USDT.sol\":13424:13447  require(newMaxFee < 50) */\n      tag_207\n      jumpi\n      0x0\n      dup1\n      revert\n    tag_207:\n        /* \"contracts/USDT.sol\":13454:13469  basisPointsRate */\n      0x3\n        /* \"contracts/USDT.sol\":13454:13486  basisPointsRate = newBasisPoints */\n      dup3\n      swap1\n      sstore\n        /* \"contracts/USDT.sol\":13523:13531  decimals */\n      sload(0x9)\n        /* \"contracts/USDT.sol\":13505:13532  newMaxFee.mul(10**decimals) */\n      tag_208\n      swap1\n        /* \"contracts/USDT.sol\":13505:13514  newMaxFee */\n      dup3\n      swap1\n        /* \"contracts/USDT.sol\":13519:13521  10 */\n      0xa\n        /* \"contracts/USDT.sol\":13519:13531  10**decimals */\n      exp\n        /* \"contracts/USDT.sol\":13505:13532  newMaxFee.mul(10**decimals) */\n      0xffffffff\n        /* \"contracts/USDT.sol\":13505:13518  newMaxFee.mul */\n      tag_209\n        /* \"contracts/USDT.sol\":13505:13532  newMaxFee.mul(10**decimals) */\n      and\n      jump\t// in\n    tag_208:\n        /* \"contracts/USDT.sol\":13492:13502  maximumFee */\n      0x4\n        /* \"contracts/USDT.sol\":13492:13532  maximumFee = newMaxFee.mul(10**decimals) */\n      dup2\n      swap1\n      sstore\n        /* \"contracts/USDT.sol\":13546:13561  basisPointsRate */\n      sload(0x3)\n        /* \"contracts/USDT.sol\":13539:13574  Params(basisPointsRate, maximumFee) */\n      0xb044a1e409eac5c48e5af22d4af52670dd1a99059537a78b31b48c6500a6354e\n      swap2\n      mload(0x40)\n      swap2\n      dup3\n      mstore\n      0x20\n      dup3\n      add\n      mstore\n      0x40\n      swap1\n      dup2\n      add\n      swap1\n      mload\n      dup1\n      swap2\n      sub\n      swap1\n      log1\n        /* \"contracts/USDT.sol\":13221:13579  function setParams(uint256 newBasisPoints, uint256 newMaxFee) public onlyOwner {... */\n      pop\n      pop\n      jump\t// out\n        /* \"contracts/USDT.sol\":12554:12794  function issue(uint256 amount) public onlyOwner {... */\n    tag_113:\n        /* \"contracts/USDT.sol\":1434:1439  owner */\n      sload(0x0)\n        /* \"contracts/USDT.sol\":1420:1430  msg.sender */\n      caller\n      sub(exp(0x2, 0xa0), 0x1)\n        /* \"contracts/USDT.sol\":1420:1439  msg.sender == owner */\n      swap1\n      dup2\n      and\n        /* \"contracts/USDT.sol\":1434:1439  owner */\n      swap2\n      and\n        /* \"contracts/USDT.sol\":1420:1439  msg.sender == owner */\n      eq\n        /* \"contracts/USDT.sol\":1412:1440  require(msg.sender == owner) */\n      tag_211\n      jumpi\n      0x0\n      dup1\n      revert\n    tag_211:\n        /* \"contracts/USDT.sol\":12640:12652  _totalSupply */\n      sload(0x1)\n        /* \"contracts/USDT.sol\":12616:12637  _totalSupply + amount */\n      dup2\n      dup2\n      add\n        /* \"contracts/USDT.sol\":12616:12652  _totalSupply + amount > _totalSupply */\n      gt\n        /* \"contracts/USDT.sol\":12608:12653  require(_totalSupply + amount > _totalSupply) */\n      tag_213\n      jumpi\n      0x0\n      dup1\n      revert\n    tag_213:\n        /* \"contracts/USDT.sol\":12694:12709  balances[owner] */\n      0x0\n        /* \"contracts/USDT.sol\":12703:12708  owner */\n      dup1\n      sload\n      sub(exp(0x2, 0xa0), 0x1)\n      and\n        /* \"contracts/USDT.sol\":12694:12709  balances[owner] */\n      dup2\n      mstore\n        /* \"contracts/USDT.sol\":12694:12702  balances */\n      0x2\n        /* \"contracts/USDT.sol\":12694:12709  balances[owner] */\n      0x20\n      mstore\n      0x40\n      swap1\n      keccak256\n      sload\n        /* \"contracts/USDT.sol\":12667:12691  balances[owner] + amount */\n      dup2\n      dup2\n      add\n        /* \"contracts/USDT.sol\":12667:12709  balances[owner] + amount > balances[owner] */\n      gt\n        /* \"contracts/USDT.sol\":12659:12710  require(balances[owner] + amount > balances[owner]) */\n      tag_214\n      jumpi\n      0x0\n      dup1\n      revert\n    tag_214:\n        /* \"contracts/USDT.sol\":12717:12732  balances[owner] */\n      0x0\n        /* \"contracts/USDT.sol\":12726:12731  owner */\n      dup1\n      sload\n      sub(exp(0x2, 0xa0), 0x1)\n      and\n        /* \"contracts/USDT.sol\":12717:12732  balances[owner] */\n      dup2\n      mstore\n        /* \"contracts/USDT.sol\":12717:12725  balances */\n      0x2\n        /* \"contracts/USDT.sol\":12717:12732  balances[owner] */\n      0x20\n      mstore\n      0x40\n      swap1\n      dup2\n      swap1\n      keccak256\n        /* \"contracts/USDT.sol\":12717:12742  balances[owner] += amount */\n      dup1\n      sload\n      dup4\n      add\n      swap1\n      sstore\n        /* \"contracts/USDT.sol\":12726:12731  owner */\n      0x1\n        /* \"contracts/USDT.sol\":12748:12770  _totalSupply += amount */\n      dup1\n      sload\n      dup4\n      add\n      swap1\n      sstore\n        /* \"contracts/USDT.sol\":12776:12789  Issue(amount) */\n      0xcb8241adb0c3fdb35b70c24ce35c5eb0c17af7431c99f827d44a445ca624176a\n      swap1\n        /* \"contracts/USDT.sol\":12736:12742  amount */\n      dup3\n      swap1\n        /* \"contracts/USDT.sol\":12776:12789  Issue(amount) */\n      mload\n      swap1\n      dup2\n      mstore\n      0x20\n      add\n      mload(0x40)\n      dup1\n      swap2\n      sub\n      swap1\n      log1\n        /* \"contracts/USDT.sol\":12554:12794  function issue(uint256 amount) public onlyOwner {... */\n      pop\n      jump\t// out\n        /* \"contracts/USDT.sol\":13006:13217  function redeem(uint256 amount) public onlyOwner {... */\n    tag_116:\n        /* \"contracts/USDT.sol\":1434:1439  owner */\n      sload(0x0)\n        /* \"contracts/USDT.sol\":1420:1430  msg.sender */\n      caller\n      sub(exp(0x2, 0xa0), 0x1)\n        /* \"contracts/USDT.sol\":1420:1439  msg.sender == owner */\n      swap1\n      dup2\n      and\n        /* \"contracts/USDT.sol\":1434:1439  owner */\n      swap2\n      and\n        /* \"contracts/USDT.sol\":1420:1439  msg.sender == owner */\n      eq\n        /* \"contracts/USDT.sol\":1412:1440  require(msg.sender == owner) */\n      tag_216\n      jumpi\n      0x0\n      dup1\n      revert\n    tag_216:\n        /* \"contracts/USDT.sol\":13069:13081  _totalSupply */\n      sload(0x1)\n        /* \"contracts/USDT.sol\":13069:13091  _totalSupply >= amount */\n      dup2\n      swap1\n      lt\n      iszero\n        /* \"contracts/USDT.sol\":13061:13092  require(_totalSupply >= amount) */\n      tag_218\n      jumpi\n      0x0\n      dup1\n      revert\n    tag_218:\n        /* \"contracts/USDT.sol\":13106:13121  balances[owner] */\n      0x0\n        /* \"contracts/USDT.sol\":13115:13120  owner */\n      dup1\n      sload\n      sub(exp(0x2, 0xa0), 0x1)\n      and\n        /* \"contracts/USDT.sol\":13106:13121  balances[owner] */\n      dup2\n      mstore\n        /* \"contracts/USDT.sol\":13106:13114  balances */\n      0x2\n        /* \"contracts/USDT.sol\":13106:13121  balances[owner] */\n      0x20\n      mstore\n      0x40\n      swap1\n      keccak256\n      sload\n        /* \"contracts/USDT.sol\":13106:13131  balances[owner] >= amount */\n      dup2\n      swap1\n      lt\n      iszero\n        /* \"contracts/USDT.sol\":13098:13132  require(balances[owner] >= amount) */\n      tag_219\n      jumpi\n      0x0\n      dup1\n      revert\n    tag_219:\n        /* \"contracts/USDT.sol\":13139:13151  _totalSupply */\n      0x1\n        /* \"contracts/USDT.sol\":13139:13161  _totalSupply -= amount */\n      dup1\n      sload\n      dup3\n      swap1\n      sub\n      swap1\n      sstore\n        /* \"contracts/USDT.sol\":13139:13151  _totalSupply */\n      0x0\n        /* \"contracts/USDT.sol\":13176:13181  owner */\n      dup1\n      sload\n      sub(exp(0x2, 0xa0), 0x1)\n      and\n        /* \"contracts/USDT.sol\":13167:13182  balances[owner] */\n      dup2\n      mstore\n        /* \"contracts/USDT.sol\":13167:13175  balances */\n      0x2\n        /* \"contracts/USDT.sol\":13167:13182  balances[owner] */\n      0x20\n      mstore\n      0x40\n      swap1\n      dup2\n      swap1\n      keccak256\n        /* \"contracts/USDT.sol\":13167:13192  balances[owner] -= amount */\n      dup1\n      sload\n      dup4\n      swap1\n      sub\n      swap1\n      sstore\n        /* \"contracts/USDT.sol\":13198:13212  Redeem(amount) */\n      0x702d5967f45f6513a38ffc42d6ba9bf230bd40e8f53b16363c7eb4fd2deb9a44\n      swap1\n        /* \"contracts/USDT.sol\":13155:13161  amount */\n      dup3\n      swap1\n        /* \"contracts/USDT.sol\":13198:13212  Redeem(amount) */\n      mload\n      swap1\n      dup2\n      mstore\n      0x20\n      add\n      mload(0x40)\n      dup1\n      swap2\n      sub\n      swap1\n      log1\n        /* \"contracts/USDT.sol\":13006:13217  function redeem(uint256 amount) public onlyOwner {... */\n      pop\n      jump\t// out\n        /* \"contracts/USDT.sol\":11672:11936  function allowance(address _owner, address _spender) public constant returns (uint256 remaining) {... */\n    tag_119:\n        /* \"contracts/USDT.sol\":11779:11789  deprecated */\n      sload(0xa)\n        /* \"contracts/USDT.sol\":11750:11767  uint256 remaining */\n      0x0\n      swap1\n      exp(0x2, 0xa0)\n        /* \"contracts/USDT.sol\":11779:11789  deprecated */\n      swap1\n      div\n      0xff\n      and\n        /* \"contracts/USDT.sol\":11775:11932  if (deprecated) {... */\n      iszero\n      tag_221\n      jumpi\n        /* \"contracts/USDT.sol\":11820:11835  upgradedAddress */\n      and(sub(exp(0x2, 0xa0), 0x1), sload(0xa))\n        /* \"contracts/USDT.sol\":11806:11846  StandardToken(upgradedAddress).allowance */\n      0xdd62ed3e\n        /* \"contracts/USDT.sol\":11847:11853  _owner */\n      dup5\n        /* \"contracts/USDT.sol\":11855:11863  _spender */\n      dup5\n        /* \"contracts/USDT.sol\":11820:11835  upgradedAddress */\n      0x0\n        /* \"contracts/USDT.sol\":11806:11864  StandardToken(upgradedAddress).allowance(_owner, _spender) */\n      add(0x20, mload(0x40))\n      mstore\n      mload(0x40)\n      exp(0x2, 0xe0)\n      0xffffffff\n      dup6\n      and\n      mul\n      dup2\n      mstore\n      sub(exp(0x2, 0xa0), 0x1)\n      swap3\n      dup4\n      and\n      0x4\n      dup3\n      add\n      mstore\n      swap2\n      and\n      0x24\n      dup3\n      add\n      mstore\n      0x44\n      add\n      0x20\n      mload(0x40)\n      dup1\n      dup4\n      sub\n      dup2\n      0x0\n      dup8\n      dup1\n      extcodesize\n      iszero\n      iszero\n      tag_222\n      jumpi\n      0x0\n      dup1\n      revert\n    tag_222:\n      sub(gas, 0x2c6)\n      call\n      iszero\n      iszero\n      tag_223\n      jumpi\n      0x0\n      dup1\n      revert\n    tag_223:\n      pop\n      pop\n      pop\n      mload(0x40)\n      dup1\n      mload\n      swap1\n      pop\n        /* \"contracts/USDT.sol\":11799:11864  return StandardToken(upgradedAddress).allowance(_owner, _spender) */\n      swap1\n      pop\n      jump(tag_224)\n        /* \"contracts/USDT.sol\":11775:11932  if (deprecated) {... */\n    tag_221:\n        /* \"contracts/USDT.sol\":11892:11925  super.allowance(_owner, _spender) */\n      tag_225\n        /* \"contracts/USDT.sol\":11908:11914  _owner */\n      dup4\n        /* \"contracts/USDT.sol\":11916:11924  _spender */\n      dup4\n        /* \"contracts/USDT.sol\":11892:11907  super.allowance */\n      tag_226\n        /* \"contracts/USDT.sol\":11892:11925  super.allowance(_owner, _spender) */\n      jump\t// in\n    tag_225:\n        /* \"contracts/USDT.sol\":11885:11925  return super.allowance(_owner, _spender) */\n      swap1\n      pop\n        /* \"contracts/USDT.sol\":11775:11932  if (deprecated) {... */\n    tag_224:\n        /* \"contracts/USDT.sol\":11672:11936  function allowance(address _owner, address _spender) public constant returns (uint256 remaining) {... */\n      swap3\n      swap2\n      pop\n      pop\n      jump\t// out\n        /* \"contracts/USDT.sol\":2929:2963  uint256 public basisPointsRate = 0 */\n    tag_122:\n      sload(0x3)\n      dup2\n      jump\t// out\n        /* \"contracts/USDT.sol\":8121:8166  mapping(address => bool) public isBlackListed */\n    tag_125:\n      mstore(0x20, 0x6)\n      0x0\n      swap1\n      dup2\n      mstore\n      0x40\n      swap1\n      keccak256\n      sload\n      0xff\n      and\n      dup2\n      jump\t// out\n        /* \"contracts/USDT.sol\":8306:8452  function removeBlackList(address _clearedUser) public onlyOwner {... */\n    tag_128:\n        /* \"contracts/USDT.sol\":1434:1439  owner */\n      sload(0x0)\n        /* \"contracts/USDT.sol\":1420:1430  msg.sender */\n      caller\n      sub(exp(0x2, 0xa0), 0x1)\n        /* \"contracts/USDT.sol\":1420:1439  msg.sender == owner */\n      swap1\n      dup2\n      and\n        /* \"contracts/USDT.sol\":1434:1439  owner */\n      swap2\n      and\n        /* \"contracts/USDT.sol\":1420:1439  msg.sender == owner */\n      eq\n        /* \"contracts/USDT.sol\":1412:1440  require(msg.sender == owner) */\n      tag_228\n      jumpi\n      0x0\n      dup1\n      revert\n    tag_228:\n      sub(exp(0x2, 0xa0), 0x1)\n        /* \"contracts/USDT.sol\":8376:8403  isBlackListed[_clearedUser] */\n      dup2\n      and\n        /* \"contracts/USDT.sol\":8406:8411  false */\n      0x0\n        /* \"contracts/USDT.sol\":8376:8403  isBlackListed[_clearedUser] */\n      swap1\n      dup2\n      mstore\n        /* \"contracts/USDT.sol\":8376:8389  isBlackListed */\n      0x6\n        /* \"contracts/USDT.sol\":8376:8403  isBlackListed[_clearedUser] */\n      0x20\n      mstore\n      0x40\n      swap1\n      dup2\n      swap1\n      keccak256\n        /* \"contracts/USDT.sol\":8376:8411  isBlackListed[_clearedUser] = false */\n      dup1\n      sload\n      not(0xff)\n      and\n      swap1\n      sstore\n        /* \"contracts/USDT.sol\":8417:8447  RemovedBlackList(_clearedUser) */\n      0xd7e9ec6e6ecd65492dce6bf513cd6867560d49544421d0783ddf06e76c24470c\n      swap1\n        /* \"contracts/USDT.sol\":8390:8402  _clearedUser */\n      dup3\n      swap1\n        /* \"contracts/USDT.sol\":8417:8447  RemovedBlackList(_clearedUser) */\n      mload\n      sub(exp(0x2, 0xa0), 0x1)\n      swap1\n      swap2\n      and\n      dup2\n      mstore\n      0x20\n      add\n      mload(0x40)\n      dup1\n      swap2\n      sub\n      swap1\n      log1\n        /* \"contracts/USDT.sol\":8306:8452  function removeBlackList(address _clearedUser) public onlyOwner {... */\n      pop\n      jump\t// out\n        /* \"contracts/USDT.sol\":4528:4573  uint256 public constant MAX_UINT = 2**256 - 1 */\n    tag_131:\n      not(0x0)\n      dup2\n      jump\t// out\n        /* \"contracts/USDT.sol\":1613:1744  function transferOwnership(address newOwner) public onlyOwner {... */\n    tag_134:\n        /* \"contracts/USDT.sol\":1434:1439  owner */\n      sload(0x0)\n        /* \"contracts/USDT.sol\":1420:1430  msg.sender */\n      caller\n      sub(exp(0x2, 0xa0), 0x1)\n        /* \"contracts/USDT.sol\":1420:1439  msg.sender == owner */\n      swap1\n      dup2\n      and\n        /* \"contracts/USDT.sol\":1434:1439  owner */\n      swap2\n      and\n        /* \"contracts/USDT.sol\":1420:1439  msg.sender == owner */\n      eq\n        /* \"contracts/USDT.sol\":1412:1440  require(msg.sender == owner) */\n      tag_231\n      jumpi\n      0x0\n      dup1\n      revert\n    tag_231:\n      sub(exp(0x2, 0xa0), 0x1)\n        /* \"contracts/USDT.sol\":1685:1707  newOwner != address(0) */\n      dup2\n      and\n      iszero\n        /* \"contracts/USDT.sol\":1681:1740  if (newOwner != address(0)) {... */\n      tag_233\n      jumpi\n        /* \"contracts/USDT.sol\":1717:1722  owner */\n      0x0\n        /* \"contracts/USDT.sol\":1717:1733  owner = newOwner */\n      dup1\n      sload\n      not(0xffffffffffffffffffffffffffffffffffffffff)\n      and\n      sub(exp(0x2, 0xa0), 0x1)\n      dup4\n      and\n      or\n      swap1\n      sstore\n        /* \"contracts/USDT.sol\":1681:1740  if (newOwner != address(0)) {... */\n    tag_233:\n        /* \"contracts/USDT.sol\":1613:1744  function transferOwnership(address newOwner) public onlyOwner {... */\n      pop\n      jump\t// out\n        /* \"contracts/USDT.sol\":8456:8754  function destroyBlackFunds(address _blackListedUser) public onlyOwner {... */\n    tag_137:\n        /* \"contracts/USDT.sol\":8578:8596  uint256 dirtyFunds */\n      0x0\n        /* \"contracts/USDT.sol\":1434:1439  owner */\n      dup1\n      sload\n        /* \"contracts/USDT.sol\":1420:1430  msg.sender */\n      caller\n      sub(exp(0x2, 0xa0), 0x1)\n        /* \"contracts/USDT.sol\":1420:1439  msg.sender == owner */\n      swap1\n      dup2\n      and\n        /* \"contracts/USDT.sol\":1434:1439  owner */\n      swap2\n      and\n        /* \"contracts/USDT.sol\":1420:1439  msg.sender == owner */\n      eq\n        /* \"contracts/USDT.sol\":1412:1440  require(msg.sender == owner) */\n      tag_235\n      jumpi\n      0x0\n      dup1\n      revert\n    tag_235:\n      sub(exp(0x2, 0xa0), 0x1)\n        /* \"contracts/USDT.sol\":8540:8571  isBlackListed[_blackListedUser] */\n      dup3\n      and\n      0x0\n      swap1\n      dup2\n      mstore\n        /* \"contracts/USDT.sol\":8540:8553  isBlackListed */\n      0x6\n        /* \"contracts/USDT.sol\":8540:8571  isBlackListed[_blackListedUser] */\n      0x20\n      mstore\n      0x40\n      swap1\n      keccak256\n      sload\n      0xff\n      and\n        /* \"contracts/USDT.sol\":8532:8572  require(isBlackListed[_blackListedUser]) */\n      iszero\n      iszero\n      tag_237\n      jumpi\n      0x0\n      dup1\n      revert\n    tag_237:\n        /* \"contracts/USDT.sol\":8599:8626  balanceOf(_blackListedUser) */\n      tag_238\n        /* \"contracts/USDT.sol\":8609:8625  _blackListedUser */\n      dup3\n        /* \"contracts/USDT.sol\":8599:8608  balanceOf */\n      tag_88\n        /* \"contracts/USDT.sol\":8599:8626  balanceOf(_blackListedUser) */\n      jump\t// in\n    tag_238:\n      sub(exp(0x2, 0xa0), 0x1)\n        /* \"contracts/USDT.sol\":8632:8658  balances[_blackListedUser] */\n      dup4\n      and\n        /* \"contracts/USDT.sol\":8661:8662  0 */\n      0x0\n        /* \"contracts/USDT.sol\":8632:8658  balances[_blackListedUser] */\n      swap1\n      dup2\n      mstore\n        /* \"contracts/USDT.sol\":8632:8640  balances */\n      0x2\n        /* \"contracts/USDT.sol\":8632:8658  balances[_blackListedUser] */\n      0x20\n      mstore\n      0x40\n      dup1\n      dup3\n      keccak256\n        /* \"contracts/USDT.sol\":8632:8662  balances[_blackListedUser] = 0 */\n      swap2\n      swap1\n      swap2\n      sstore\n        /* \"contracts/USDT.sol\":8668:8680  _totalSupply */\n      0x1\n        /* \"contracts/USDT.sol\":8668:8694  _totalSupply -= dirtyFunds */\n      dup1\n      sload\n      dup4\n      swap1\n      sub\n      swap1\n      sstore\n        /* \"contracts/USDT.sol\":8578:8626  uint256 dirtyFunds = balanceOf(_blackListedUser) */\n      swap1\n      swap2\n      pop\n        /* \"contracts/USDT.sol\":8700:8749  DestroyedBlackFunds(_blackListedUser, dirtyFunds) */\n      0x61e6e66b0d6339b2980aecc6ccc0039736791f0ccde9ed512e789a7fbdd698c6\n      swap1\n        /* \"contracts/USDT.sol\":8641:8657  _blackListedUser */\n      dup4\n      swap1\n        /* \"contracts/USDT.sol\":8578:8626  uint256 dirtyFunds = balanceOf(_blackListedUser) */\n      dup4\n      swap1\n        /* \"contracts/USDT.sol\":8700:8749  DestroyedBlackFunds(_blackListedUser, dirtyFunds) */\n      mload\n      sub(exp(0x2, 0xa0), 0x1)\n      swap1\n      swap3\n      and\n      dup3\n      mstore\n      0x20\n      dup3\n      add\n      mstore\n      0x40\n      swap1\n      dup2\n      add\n      swap1\n      mload\n      dup1\n      swap2\n      sub\n      swap1\n      log1\n        /* \"contracts/USDT.sol\":8456:8754  function destroyBlackFunds(address _blackListedUser) public onlyOwner {... */\n      pop\n      pop\n      jump\t// out\n        /* \"contracts/USDT.sol\":5901:6436  function approve(address _spender, uint256 _value) public onlyPayloadSize(2 * 32) {... */\n    tag_152:\n        /* \"contracts/USDT.sol\":5975:5981  2 * 32 */\n      0x40\n        /* \"contracts/USDT.sol\":3136:3144  size + 4 */\n      0x44\n        /* \"contracts/USDT.sol\":3118:3126  msg.data */\n      calldatasize\n        /* \"contracts/USDT.sol\":3118:3144  msg.data.length < size + 4 */\n      lt\n        /* \"contracts/USDT.sol\":3116:3145  !(msg.data.length < size + 4) */\n      iszero\n        /* \"contracts/USDT.sol\":3108:3146  require(!(msg.data.length < size + 4)) */\n      tag_240\n      jumpi\n      0x0\n      dup1\n      revert\n    tag_240:\n        /* \"contracts/USDT.sol\":6288:6299  _value != 0 */\n      dup2\n      iszero\n      dup1\n      iszero\n      swap1\n        /* \"contracts/USDT.sol\":6287:6340  (_value != 0) && (allowed[msg.sender][_spender] != 0) */\n      tag_242\n      jumpi\n      pop\n      sub(exp(0x2, 0xa0), 0x1)\n        /* \"contracts/USDT.sol\":6313:6323  msg.sender */\n      caller\n        /* \"contracts/USDT.sol\":6305:6324  allowed[msg.sender] */\n      dup2\n      and\n      0x0\n      swap1\n      dup2\n      mstore\n        /* \"contracts/USDT.sol\":6305:6312  allowed */\n      0x5\n        /* \"contracts/USDT.sol\":6305:6324  allowed[msg.sender] */\n      0x20\n      swap1\n      dup2\n      mstore\n      0x40\n      dup1\n      dup4\n      keccak256\n        /* \"contracts/USDT.sol\":6305:6334  allowed[msg.sender][_spender] */\n      swap4\n      dup8\n      and\n      dup4\n      mstore\n      swap3\n      swap1\n      mstore\n      keccak256\n      sload\n        /* \"contracts/USDT.sol\":6305:6339  allowed[msg.sender][_spender] != 0 */\n      iszero\n      iszero\n        /* \"contracts/USDT.sol\":6287:6340  (_value != 0) && (allowed[msg.sender][_spender] != 0) */\n    tag_242:\n        /* \"contracts/USDT.sol\":6285:6341  !((_value != 0) && (allowed[msg.sender][_spender] != 0)) */\n      iszero\n        /* \"contracts/USDT.sol\":6277:6342  require(!((_value != 0) && (allowed[msg.sender][_spender] != 0))) */\n      tag_243\n      jumpi\n      0x0\n      dup1\n      revert\n    tag_243:\n      sub(exp(0x2, 0xa0), 0x1)\n        /* \"contracts/USDT.sol\":6357:6367  msg.sender */\n      caller\n        /* \"contracts/USDT.sol\":6349:6368  allowed[msg.sender] */\n      dup2\n      and\n      0x0\n      dup2\n      dup2\n      mstore\n        /* \"contracts/USDT.sol\":6349:6356  allowed */\n      0x5\n        /* \"contracts/USDT.sol\":6349:6368  allowed[msg.sender] */\n      0x20\n      swap1\n      dup2\n      mstore\n      0x40\n      dup1\n      dup4\n      keccak256\n        /* \"contracts/USDT.sol\":6349:6378  allowed[msg.sender][_spender] */\n      swap5\n      dup9\n      and\n      dup1\n      dup5\n      mstore\n      swap5\n      swap1\n      swap2\n      mstore\n      swap1\n      dup2\n      swap1\n      keccak256\n        /* \"contracts/USDT.sol\":6349:6387  allowed[msg.sender][_spender] = _value */\n      dup6\n      swap1\n      sstore\n        /* \"contracts/USDT.sol\":6393:6431  Approval(msg.sender, _spender, _value) */\n      0x8c5be1e5ebec7d5bd14f71427d1e84f3dd0314c0f7b2291e5b200ac8c7c3b925\n      swap1\n        /* \"contracts/USDT.sol\":6381:6387  _value */\n      dup6\n      swap1\n        /* \"contracts/USDT.sol\":6393:6431  Approval(msg.sender, _spender, _value) */\n      mload\n      swap1\n      dup2\n      mstore\n      0x20\n      add\n      mload(0x40)\n      dup1\n      swap2\n      sub\n      swap1\n      log3\n        /* \"contracts/USDT.sol\":5901:6436  function approve(address _spender, uint256 _value) public onlyPayloadSize(2 * 32) {... */\n      pop\n      pop\n      pop\n      jump\t// out\n        /* \"contracts/USDT.sol\":4846:5669  function transferFrom(... */\n    tag_170:\n        /* \"contracts/USDT.sol\":4965:4979  var _allowance */\n      0x0\n      dup1\n      dup1\n        /* \"contracts/USDT.sol\":4951:4957  3 * 32 */\n      0x60\n        /* \"contracts/USDT.sol\":3136:3144  size + 4 */\n      0x64\n        /* \"contracts/USDT.sol\":3118:3126  msg.data */\n      calldatasize\n        /* \"contracts/USDT.sol\":3118:3144  msg.data.length < size + 4 */\n      lt\n        /* \"contracts/USDT.sol\":3116:3145  !(msg.data.length < size + 4) */\n      iszero\n        /* \"contracts/USDT.sol\":3108:3146  require(!(msg.data.length < size + 4)) */\n      tag_245\n      jumpi\n      0x0\n      dup1\n      revert\n    tag_245:\n      sub(exp(0x2, 0xa0), 0x1)\n        /* \"contracts/USDT.sol\":4982:4996  allowed[_from] */\n      dup1\n      dup9\n      and\n      0x0\n      swap1\n      dup2\n      mstore\n        /* \"contracts/USDT.sol\":4982:4989  allowed */\n      0x5\n        /* \"contracts/USDT.sol\":4982:4996  allowed[_from] */\n      0x20\n      swap1\n      dup2\n      mstore\n      0x40\n      dup1\n      dup4\n      keccak256\n        /* \"contracts/USDT.sol\":4997:5007  msg.sender */\n      caller\n        /* \"contracts/USDT.sol\":4982:5008  allowed[_from][msg.sender] */\n      swap1\n      swap5\n      and\n      dup4\n      mstore\n      swap3\n      swap1\n      mstore\n      keccak256\n      sload\n        /* \"contracts/USDT.sol\":5188:5203  basisPointsRate */\n      sload(0x3)\n        /* \"contracts/USDT.sol\":4982:5008  allowed[_from][msg.sender] */\n      swap1\n      swap5\n      pop\n        /* \"contracts/USDT.sol\":5176:5216  (_value.mul(basisPointsRate)).div(10000) */\n      tag_247\n      swap1\n        /* \"contracts/USDT.sol\":5210:5215  10000 */\n      0x2710\n      swap1\n        /* \"contracts/USDT.sol\":5177:5204  _value.mul(basisPointsRate) */\n      tag_248\n      swap1\n        /* \"contracts/USDT.sol\":5177:5183  _value */\n      dup9\n      swap1\n        /* \"contracts/USDT.sol\":5177:5204  _value.mul(basisPointsRate) */\n      0xffffffff\n        /* \"contracts/USDT.sol\":5177:5187  _value.mul */\n      tag_209\n        /* \"contracts/USDT.sol\":5177:5204  _value.mul(basisPointsRate) */\n      and\n      jump\t// in\n    tag_248:\n        /* \"contracts/USDT.sol\":5176:5209  (_value.mul(basisPointsRate)).div */\n      swap1\n        /* \"contracts/USDT.sol\":5176:5216  (_value.mul(basisPointsRate)).div(10000) */\n      0xffffffff\n        /* \"contracts/USDT.sol\":5176:5209  (_value.mul(basisPointsRate)).div */\n      tag_249\n        /* \"contracts/USDT.sol\":5176:5216  (_value.mul(basisPointsRate)).div(10000) */\n      and\n      jump\t// in\n    tag_247:\n        /* \"contracts/USDT.sol\":5162:5216  uint256 fee = (_value.mul(basisPointsRate)).div(10000) */\n      swap3\n      pop\n        /* \"contracts/USDT.sol\":5232:5242  maximumFee */\n      sload(0x4)\n        /* \"contracts/USDT.sol\":5226:5229  fee */\n      dup4\n        /* \"contracts/USDT.sol\":5226:5242  fee > maximumFee */\n      gt\n        /* \"contracts/USDT.sol\":5222:5275  if (fee > maximumFee) {... */\n      iszero\n      tag_250\n      jumpi\n        /* \"contracts/USDT.sol\":5258:5268  maximumFee */\n      sload(0x4)\n        /* \"contracts/USDT.sol\":5252:5268  fee = maximumFee */\n      swap3\n      pop\n        /* \"contracts/USDT.sol\":5222:5275  if (fee > maximumFee) {... */\n    tag_250:\n      not(0x0)\n        /* \"contracts/USDT.sol\":5284:5294  _allowance */\n      dup5\n        /* \"contracts/USDT.sol\":5284:5305  _allowance < MAX_UINT */\n      lt\n        /* \"contracts/USDT.sol\":5280:5373  if (_allowance < MAX_UINT) {... */\n      iszero\n      tag_251\n      jumpi\n        /* \"contracts/USDT.sol\":5344:5366  _allowance.sub(_value) */\n      tag_252\n        /* \"contracts/USDT.sol\":5344:5354  _allowance */\n      dup5\n        /* \"contracts/USDT.sol\":5359:5365  _value */\n      dup7\n        /* \"contracts/USDT.sol\":5344:5366  _allowance.sub(_value) */\n      0xffffffff\n        /* \"contracts/USDT.sol\":5344:5358  _allowance.sub */\n      tag_253\n        /* \"contracts/USDT.sol\":5344:5366  _allowance.sub(_value) */\n      and\n      jump\t// in\n    tag_252:\n      sub(exp(0x2, 0xa0), 0x1)\n        /* \"contracts/USDT.sol\":5315:5329  allowed[_from] */\n      dup1\n      dup10\n      and\n      0x0\n      swap1\n      dup2\n      mstore\n        /* \"contracts/USDT.sol\":5315:5322  allowed */\n      0x5\n        /* \"contracts/USDT.sol\":5315:5329  allowed[_from] */\n      0x20\n      swap1\n      dup2\n      mstore\n      0x40\n      dup1\n      dup4\n      keccak256\n        /* \"contracts/USDT.sol\":5330:5340  msg.sender */\n      caller\n        /* \"contracts/USDT.sol\":5315:5341  allowed[_from][msg.sender] */\n      swap1\n      swap5\n      and\n      dup4\n      mstore\n      swap3\n      swap1\n      mstore\n      keccak256\n        /* \"contracts/USDT.sol\":5315:5366  allowed[_from][msg.sender] = _allowance.sub(_value) */\n      sstore\n        /* \"contracts/USDT.sol\":5280:5373  if (_allowance < MAX_UINT) {... */\n    tag_251:\n        /* \"contracts/USDT.sol\":5399:5414  _value.sub(fee) */\n      tag_254\n        /* \"contracts/USDT.sol\":5399:5405  _value */\n      dup6\n        /* \"contracts/USDT.sol\":5410:5413  fee */\n      dup5\n        /* \"contracts/USDT.sol\":5399:5414  _value.sub(fee) */\n      0xffffffff\n        /* \"contracts/USDT.sol\":5399:5409  _value.sub */\n      tag_253\n        /* \"contracts/USDT.sol\":5399:5414  _value.sub(fee) */\n      and\n      jump\t// in\n    tag_254:\n      sub(exp(0x2, 0xa0), 0x1)\n        /* \"contracts/USDT.sol\":5438:5453  balances[_from] */\n      dup9\n      and\n      0x0\n      swap1\n      dup2\n      mstore\n        /* \"contracts/USDT.sol\":5438:5446  balances */\n      0x2\n        /* \"contracts/USDT.sol\":5438:5453  balances[_from] */\n      0x20\n      mstore\n      0x40\n      swap1\n      keccak256\n      sload\n        /* \"contracts/USDT.sol\":5378:5414  uint256 sendAmount = _value.sub(fee) */\n      swap1\n      swap3\n      pop\n        /* \"contracts/USDT.sol\":5438:5465  balances[_from].sub(_value) */\n      tag_255\n      swap1\n        /* \"contracts/USDT.sol\":5458:5464  _value */\n      dup7\n        /* \"contracts/USDT.sol\":5438:5465  balances[_from].sub(_value) */\n      0xffffffff\n        /* \"contracts/USDT.sol\":5438:5457  balances[_from].sub */\n      tag_253\n        /* \"contracts/USDT.sol\":5438:5465  balances[_from].sub(_value) */\n      and\n      jump\t// in\n    tag_255:\n      sub(exp(0x2, 0xa0), 0x1)\n        /* \"contracts/USDT.sol\":5420:5435  balances[_from] */\n      dup1\n      dup10\n      and\n      0x0\n      swap1\n      dup2\n      mstore\n        /* \"contracts/USDT.sol\":5420:5428  balances */\n      0x2\n        /* \"contracts/USDT.sol\":5420:5435  balances[_from] */\n      0x20\n      mstore\n      0x40\n      dup1\n      dup3\n      keccak256\n        /* \"contracts/USDT.sol\":5420:5465  balances[_from] = balances[_from].sub(_value) */\n      swap4\n      swap1\n      swap4\n      sstore\n        /* \"contracts/USDT.sol\":5487:5500  balances[_to] */\n      swap1\n      dup9\n      and\n      dup2\n      mstore\n      keccak256\n      sload\n        /* \"contracts/USDT.sol\":5487:5516  balances[_to].add(sendAmount) */\n      tag_256\n      swap1\n        /* \"contracts/USDT.sol\":5505:5515  sendAmount */\n      dup4\n        /* \"contracts/USDT.sol\":5487:5516  balances[_to].add(sendAmount) */\n      0xffffffff\n        /* \"contracts/USDT.sol\":5487:5504  balances[_to].add */\n      tag_257\n        /* \"contracts/USDT.sol\":5487:5516  balances[_to].add(sendAmount) */\n      and\n      jump\t// in\n    tag_256:\n      sub(exp(0x2, 0xa0), 0x1)\n        /* \"contracts/USDT.sol\":5471:5484  balances[_to] */\n      dup8\n      and\n      0x0\n      swap1\n      dup2\n      mstore\n        /* \"contracts/USDT.sol\":5471:5479  balances */\n      0x2\n        /* \"contracts/USDT.sol\":5471:5484  balances[_to] */\n      0x20\n      mstore\n      0x40\n      dup2\n      keccak256\n        /* \"contracts/USDT.sol\":5471:5516  balances[_to] = balances[_to].add(sendAmount) */\n      swap2\n      swap1\n      swap2\n      sstore\n        /* \"contracts/USDT.sol\":5526:5533  fee > 0 */\n      dup4\n      gt\n        /* \"contracts/USDT.sol\":5522:5627  if (fee > 0) {... */\n      iszero\n      tag_258\n      jumpi\n        /* \"contracts/USDT.sol\":5561:5576  balances[owner] */\n      0x0\n        /* \"contracts/USDT.sol\":5570:5575  owner */\n      dup1\n      sload\n      sub(exp(0x2, 0xa0), 0x1)\n      and\n        /* \"contracts/USDT.sol\":5561:5576  balances[owner] */\n      dup2\n      mstore\n        /* \"contracts/USDT.sol\":5561:5569  balances */\n      0x2\n        /* \"contracts/USDT.sol\":5561:5576  balances[owner] */\n      0x20\n      mstore\n      0x40\n      swap1\n      keccak256\n      sload\n        /* \"contracts/USDT.sol\":5561:5585  balances[owner].add(fee) */\n      tag_259\n      swap1\n        /* \"contracts/USDT.sol\":5581:5584  fee */\n      dup5\n        /* \"contracts/USDT.sol\":5561:5585  balances[owner].add(fee) */\n      0xffffffff\n        /* \"contracts/USDT.sol\":5561:5580  balances[owner].add */\n      tag_257\n        /* \"contracts/USDT.sol\":5561:5585  balances[owner].add(fee) */\n      and\n      jump\t// in\n    tag_259:\n        /* \"contracts/USDT.sol\":5543:5558  balances[owner] */\n      0x0\n        /* \"contracts/USDT.sol\":5552:5557  owner */\n      dup1\n      sload\n      sub(exp(0x2, 0xa0), 0x1)\n      swap1\n      dup2\n      and\n        /* \"contracts/USDT.sol\":5543:5558  balances[owner] */\n      dup3\n      mstore\n        /* \"contracts/USDT.sol\":5543:5551  balances */\n      0x2\n        /* \"contracts/USDT.sol\":5543:5558  balances[owner] */\n      0x20\n      mstore\n      0x40\n      dup1\n      dup4\n      keccak256\n        /* \"contracts/USDT.sol\":5543:5585  balances[owner] = balances[owner].add(fee) */\n      swap4\n      swap1\n      swap4\n      sstore\n        /* \"contracts/USDT.sol\":5609:5614  owner */\n      swap1\n      sload\n      dup2\n      and\n      swap2\n        /* \"contracts/USDT.sol\":5593:5620  Transfer(_from, owner, fee) */\n      swap1\n      dup10\n      and\n      swap1\n      0xddf252ad1be2c89b69c2b068fc378daa952ba7f163c4a11628f55a4df523b3ef\n      swap1\n        /* \"contracts/USDT.sol\":5616:5619  fee */\n      dup7\n      swap1\n        /* \"contracts/USDT.sol\":5593:5620  Transfer(_from, owner, fee) */\n      mload\n      swap1\n      dup2\n      mstore\n      0x20\n      add\n      mload(0x40)\n      dup1\n      swap2\n      sub\n      swap1\n      log3\n        /* \"contracts/USDT.sol\":5522:5627  if (fee > 0) {... */\n    tag_258:\n        /* \"contracts/USDT.sol\":5648:5651  _to */\n      dup6\n      sub(exp(0x2, 0xa0), 0x1)\n        /* \"contracts/USDT.sol\":5632:5664  Transfer(_from, _to, sendAmount) */\n      and\n        /* \"contracts/USDT.sol\":5641:5646  _from */\n      dup8\n      sub(exp(0x2, 0xa0), 0x1)\n        /* \"contracts/USDT.sol\":5632:5664  Transfer(_from, _to, sendAmount) */\n      and\n      0xddf252ad1be2c89b69c2b068fc378daa952ba7f163c4a11628f55a4df523b3ef\n        /* \"contracts/USDT.sol\":5653:5663  sendAmount */\n      dup5\n        /* \"contracts/USDT.sol\":5632:5664  Transfer(_from, _to, sendAmount) */\n      mload(0x40)\n      swap1\n      dup2\n      mstore\n      0x20\n      add\n      mload(0x40)\n      dup1\n      swap2\n      sub\n      swap1\n      log3\n        /* \"contracts/USDT.sol\":4846:5669  function transferFrom(... */\n      pop\n      pop\n      pop\n      pop\n      pop\n      pop\n      pop\n      jump\t// out\n        /* \"contracts/USDT.sol\":4032:4143  function balanceOf(address _owner) public constant returns (uint256 balance) {... */\n    tag_183:\n      sub(exp(0x2, 0xa0), 0x1)\n        /* \"contracts/USDT.sol\":4122:4138  balances[_owner] */\n      and\n        /* \"contracts/USDT.sol\":4092:4107  uint256 balance */\n      0x0\n        /* \"contracts/USDT.sol\":4122:4138  balances[_owner] */\n      swap1\n      dup2\n      mstore\n        /* \"contracts/USDT.sol\":4122:4130  balances */\n      0x2\n        /* \"contracts/USDT.sol\":4122:4138  balances[_owner] */\n      0x20\n      mstore\n      0x40\n      swap1\n      keccak256\n      sload\n      swap1\n        /* \"contracts/USDT.sol\":4032:4143  function balanceOf(address _owner) public constant returns (uint256 balance) {... */\n      jump\t// out\n        /* \"contracts/USDT.sol\":3316:3829  function transfer(address _to, uint256 _value) public onlyPayloadSize(2 * 32) {... */\n    tag_202:\n        /* \"contracts/USDT.sol\":3400:3411  uint256 fee */\n      0x0\n      dup1\n        /* \"contracts/USDT.sol\":3386:3392  2 * 32 */\n      0x40\n        /* \"contracts/USDT.sol\":3136:3144  size + 4 */\n      0x44\n        /* \"contracts/USDT.sol\":3118:3126  msg.data */\n      calldatasize\n        /* \"contracts/USDT.sol\":3118:3144  msg.data.length < size + 4 */\n      lt\n        /* \"contracts/USDT.sol\":3116:3145  !(msg.data.length < size + 4) */\n      iszero\n        /* \"contracts/USDT.sol\":3108:3146  require(!(msg.data.length < size + 4)) */\n      tag_262\n      jumpi\n      0x0\n      dup1\n      revert\n    tag_262:\n        /* \"contracts/USDT.sol\":3414:3454  (_value.mul(basisPointsRate)).div(10000) */\n      tag_264\n        /* \"contracts/USDT.sol\":3448:3453  10000 */\n      0x2710\n        /* \"contracts/USDT.sol\":3415:3442  _value.mul(basisPointsRate) */\n      tag_248\n        /* \"contracts/USDT.sol\":3426:3441  basisPointsRate */\n      sload(0x3)\n        /* \"contracts/USDT.sol\":3415:3421  _value */\n      dup8\n        /* \"contracts/USDT.sol\":3415:3425  _value.mul */\n      tag_209\n      swap1\n        /* \"contracts/USDT.sol\":3415:3442  _value.mul(basisPointsRate) */\n      swap2\n      swap1\n      0xffffffff\n      and\n      jump\t// in\n        /* \"contracts/USDT.sol\":3414:3454  (_value.mul(basisPointsRate)).div(10000) */\n    tag_264:\n        /* \"contracts/USDT.sol\":3400:3454  uint256 fee = (_value.mul(basisPointsRate)).div(10000) */\n      swap3\n      pop\n        /* \"contracts/USDT.sol\":3470:3480  maximumFee */\n      sload(0x4)\n        /* \"contracts/USDT.sol\":3464:3467  fee */\n      dup4\n        /* \"contracts/USDT.sol\":3464:3480  fee > maximumFee */\n      gt\n        /* \"contracts/USDT.sol\":3460:3513  if (fee > maximumFee) {... */\n      iszero\n      tag_266\n      jumpi\n        /* \"contracts/USDT.sol\":3496:3506  maximumFee */\n      sload(0x4)\n        /* \"contracts/USDT.sol\":3490:3506  fee = maximumFee */\n      swap3\n      pop\n        /* \"contracts/USDT.sol\":3460:3513  if (fee > maximumFee) {... */\n    tag_266:\n        /* \"contracts/USDT.sol\":3539:3554  _value.sub(fee) */\n      tag_267\n        /* \"contracts/USDT.sol\":3539:3545  _value */\n      dup5\n        /* \"contracts/USDT.sol\":3550:3553  fee */\n      dup5\n        /* \"contracts/USDT.sol\":3539:3554  _value.sub(fee) */\n      0xffffffff\n        /* \"contracts/USDT.sol\":3539:3549  _value.sub */\n      tag_253\n        /* \"contracts/USDT.sol\":3539:3554  _value.sub(fee) */\n      and\n      jump\t// in\n    tag_267:\n      sub(exp(0x2, 0xa0), 0x1)\n        /* \"contracts/USDT.sol\":3592:3602  msg.sender */\n      caller\n        /* \"contracts/USDT.sol\":3583:3603  balances[msg.sender] */\n      and\n      0x0\n      swap1\n      dup2\n      mstore\n        /* \"contracts/USDT.sol\":3583:3591  balances */\n      0x2\n        /* \"contracts/USDT.sol\":3583:3603  balances[msg.sender] */\n      0x20\n      mstore\n      0x40\n      swap1\n      keccak256\n      sload\n        /* \"contracts/USDT.sol\":3518:3554  uint256 sendAmount = _value.sub(fee) */\n      swap1\n      swap3\n      pop\n        /* \"contracts/USDT.sol\":3583:3615  balances[msg.sender].sub(_value) */\n      tag_268\n      swap1\n        /* \"contracts/USDT.sol\":3608:3614  _value */\n      dup6\n        /* \"contracts/USDT.sol\":3583:3615  balances[msg.sender].sub(_value) */\n      0xffffffff\n        /* \"contracts/USDT.sol\":3583:3607  balances[msg.sender].sub */\n      tag_253\n        /* \"contracts/USDT.sol\":3583:3615  balances[msg.sender].sub(_value) */\n      and\n      jump\t// in\n    tag_268:\n      sub(exp(0x2, 0xa0), 0x1)\n        /* \"contracts/USDT.sol\":3569:3579  msg.sender */\n      caller\n        /* \"contracts/USDT.sol\":3560:3580  balances[msg.sender] */\n      dup2\n      and\n      0x0\n      swap1\n      dup2\n      mstore\n        /* \"contracts/USDT.sol\":3560:3568  balances */\n      0x2\n        /* \"contracts/USDT.sol\":3560:3580  balances[msg.sender] */\n      0x20\n      mstore\n      0x40\n      dup1\n      dup3\n      keccak256\n        /* \"contracts/USDT.sol\":3560:3615  balances[msg.sender] = balances[msg.sender].sub(_value) */\n      swap4\n      swap1\n      swap4\n      sstore\n        /* \"contracts/USDT.sol\":3637:3650  balances[_to] */\n      swap1\n      dup8\n      and\n      dup2\n      mstore\n      keccak256\n      sload\n        /* \"contracts/USDT.sol\":3637:3666  balances[_to].add(sendAmount) */\n      tag_269\n      swap1\n        /* \"contracts/USDT.sol\":3655:3665  sendAmount */\n      dup4\n        /* \"contracts/USDT.sol\":3637:3666  balances[_to].add(sendAmount) */\n      0xffffffff\n        /* \"contracts/USDT.sol\":3637:3654  balances[_to].add */\n      tag_257\n        /* \"contracts/USDT.sol\":3637:3666  balances[_to].add(sendAmount) */\n      and\n      jump\t// in\n    tag_269:\n      sub(exp(0x2, 0xa0), 0x1)\n        /* \"contracts/USDT.sol\":3621:3634  balances[_to] */\n      dup7\n      and\n      0x0\n      swap1\n      dup2\n      mstore\n        /* \"contracts/USDT.sol\":3621:3629  balances */\n      0x2\n        /* \"contracts/USDT.sol\":3621:3634  balances[_to] */\n      0x20\n      mstore\n      0x40\n      dup2\n      keccak256\n        /* \"contracts/USDT.sol\":3621:3666  balances[_to] = balances[_to].add(sendAmount) */\n      swap2\n      swap1\n      swap2\n      sstore\n        /* \"contracts/USDT.sol\":3676:3683  fee > 0 */\n      dup4\n      gt\n        /* \"contracts/USDT.sol\":3672:3782  if (fee > 0) {... */\n      iszero\n      tag_270\n      jumpi\n        /* \"contracts/USDT.sol\":3711:3726  balances[owner] */\n      0x0\n        /* \"contracts/USDT.sol\":3720:3725  owner */\n      dup1\n      sload\n      sub(exp(0x2, 0xa0), 0x1)\n      and\n        /* \"contracts/USDT.sol\":3711:3726  balances[owner] */\n      dup2\n      mstore\n        /* \"contracts/USDT.sol\":3711:3719  balances */\n      0x2\n        /* \"contracts/USDT.sol\":3711:3726  balances[owner] */\n      0x20\n      mstore\n      0x40\n      swap1\n      keccak256\n      sload\n        /* \"contracts/USDT.sol\":3711:3735  balances[owner].add(fee) */\n      tag_271\n      swap1\n        /* \"contracts/USDT.sol\":3731:3734  fee */\n      dup5\n        /* \"contracts/USDT.sol\":3711:3735  balances[owner].add(fee) */\n      0xffffffff\n        /* \"contracts/USDT.sol\":3711:3730  balances[owner].add */\n      tag_257\n        /* \"contracts/USDT.sol\":3711:3735  balances[owner].add(fee) */\n      and\n      jump\t// in\n    tag_271:\n        /* \"contracts/USDT.sol\":3693:3708  balances[owner] */\n      0x0\n        /* \"contracts/USDT.sol\":3702:3707  owner */\n      dup1\n      sload\n      sub(exp(0x2, 0xa0), 0x1)\n      swap1\n      dup2\n      and\n        /* \"contracts/USDT.sol\":3693:3708  balances[owner] */\n      dup3\n      mstore\n        /* \"contracts/USDT.sol\":3693:3701  balances */\n      0x2\n        /* \"contracts/USDT.sol\":3693:3708  balances[owner] */\n      0x20\n      mstore\n      0x40\n      dup1\n      dup4\n      keccak256\n        /* \"contracts/USDT.sol\":3693:3735  balances[owner] = balances[owner].add(fee) */\n      swap4\n      swap1\n      swap4\n      sstore\n        /* \"contracts/USDT.sol\":3764:3769  owner */\n      swap1\n      sload\n      dup2\n      and\n      swap2\n        /* \"contracts/USDT.sol\":3752:3762  msg.sender */\n      caller\n        /* \"contracts/USDT.sol\":3743:3775  Transfer(msg.sender, owner, fee) */\n      swap1\n      swap2\n      and\n      swap1\n      0xddf252ad1be2c89b69c2b068fc378daa952ba7f163c4a11628f55a4df523b3ef\n      swap1\n        /* \"contracts/USDT.sol\":3771:3774  fee */\n      dup7\n      swap1\n        /* \"contracts/USDT.sol\":3743:3775  Transfer(msg.sender, owner, fee) */\n      mload\n      swap1\n      dup2\n      mstore\n      0x20\n      add\n      mload(0x40)\n      dup1\n      swap2\n      sub\n      swap1\n      log3\n        /* \"contracts/USDT.sol\":3672:3782  if (fee > 0) {... */\n    tag_270:\n        /* \"contracts/USDT.sol\":3808:3811  _to */\n      dup5\n      sub(exp(0x2, 0xa0), 0x1)\n        /* \"contracts/USDT.sol\":3787:3824  Transfer(msg.sender, _to, sendAmount) */\n      and\n        /* \"contracts/USDT.sol\":3796:3806  msg.sender */\n      caller\n      sub(exp(0x2, 0xa0), 0x1)\n        /* \"contracts/USDT.sol\":3787:3824  Transfer(msg.sender, _to, sendAmount) */\n      and\n      0xddf252ad1be2c89b69c2b068fc378daa952ba7f163c4a11628f55a4df523b3ef\n        /* \"contracts/USDT.sol\":3813:3823  sendAmount */\n      dup5\n        /* \"contracts/USDT.sol\":3787:3824  Transfer(msg.sender, _to, sendAmount) */\n      mload(0x40)\n      swap1\n      dup2\n      mstore\n      0x20\n      add\n      mload(0x40)\n      dup1\n      swap2\n      sub\n      swap1\n      log3\n        /* \"contracts/USDT.sol\":3316:3829  function transfer(address _to, uint256 _value) public onlyPayloadSize(2 * 32) {... */\n      pop\n      pop\n      pop\n      pop\n      pop\n      jump\t// out\n        /* \"contracts/USDT.sol\":205:378  function mul(uint256 a, uint256 b) internal pure returns (uint256) {... */\n    tag_209:\n        /* \"contracts/USDT.sol\":263:270  uint256 */\n      0x0\n      dup1\n        /* \"contracts/USDT.sol\":282:288  a == 0 */\n      dup4\n      iszero\n        /* \"contracts/USDT.sol\":278:313  if (a == 0) {... */\n      iszero\n      tag_273\n      jumpi\n        /* \"contracts/USDT.sol\":305:306  0 */\n      0x0\n        /* \"contracts/USDT.sol\":298:306  return 0 */\n      swap2\n      pop\n      jump(tag_272)\n        /* \"contracts/USDT.sol\":278:313  if (a == 0) {... */\n    tag_273:\n      pop\n        /* \"contracts/USDT.sol\":330:335  a * b */\n      dup3\n      dup3\n      mul\n        /* \"contracts/USDT.sol\":334:335  b */\n      dup3\n        /* \"contracts/USDT.sol\":330:331  a */\n      dup5\n        /* \"contracts/USDT.sol\":330:335  a * b */\n      dup3\n        /* \"contracts/USDT.sol\":348:353  c / a */\n      dup2\n      iszero\n      iszero\n      tag_274\n      jumpi\n      invalid\n    tag_274:\n      div\n        /* \"contracts/USDT.sol\":348:358  c / a == b */\n      eq\n        /* \"contracts/USDT.sol\":341:359  assert(c / a == b) */\n      tag_275\n      jumpi\n      invalid\n    tag_275:\n        /* \"contracts/USDT.sol\":372:373  c */\n      dup1\n        /* \"contracts/USDT.sol\":365:373  return c */\n      swap2\n      pop\n        /* \"contracts/USDT.sol\":205:378  function mul(uint256 a, uint256 b) internal pure returns (uint256) {... */\n    tag_272:\n      pop\n      swap3\n      swap2\n      pop\n      pop\n      jump\t// out\n        /* \"contracts/USDT.sol\":6752:6892  function allowance(address _owner, address _spender) public constant returns (uint256 remaining) {... */\n    tag_226:\n      sub(exp(0x2, 0xa0), 0x1)\n        /* \"contracts/USDT.sol\":6862:6877  allowed[_owner] */\n      swap2\n      dup3\n      and\n        /* \"contracts/USDT.sol\":6830:6847  uint256 remaining */\n      0x0\n        /* \"contracts/USDT.sol\":6862:6877  allowed[_owner] */\n      swap1\n      dup2\n      mstore\n        /* \"contracts/USDT.sol\":6862:6869  allowed */\n      0x5\n        /* \"contracts/USDT.sol\":6862:6877  allowed[_owner] */\n      0x20\n      swap1\n      dup2\n      mstore\n      0x40\n      dup1\n      dup4\n      keccak256\n        /* \"contracts/USDT.sol\":6862:6887  allowed[_owner][_spender] */\n      swap4\n      swap1\n      swap5\n      and\n      dup3\n      mstore\n      swap2\n      swap1\n      swap2\n      mstore\n      keccak256\n      sload\n      swap1\n        /* \"contracts/USDT.sol\":6752:6892  function allowance(address _owner, address _spender) public constant returns (uint256 remaining) {... */\n      jump\t// out\n        /* \"contracts/USDT.sol\":382:647  function div(uint256 a, uint256 b) internal pure returns (uint256) {... */\n    tag_249:\n        /* \"contracts/USDT.sol\":440:447  uint256 */\n      0x0\n        /* \"contracts/USDT.sol\":529:538  uint256 c */\n      dup1\n        /* \"contracts/USDT.sol\":545:546  b */\n      dup3\n        /* \"contracts/USDT.sol\":541:542  a */\n      dup5\n        /* \"contracts/USDT.sol\":541:546  a / b */\n      dup2\n      iszero\n      iszero\n      tag_278\n      jumpi\n      invalid\n    tag_278:\n      div\n      swap5\n        /* \"contracts/USDT.sol\":382:647  function div(uint256 a, uint256 b) internal pure returns (uint256) {... */\n      swap4\n      pop\n      pop\n      pop\n      pop\n      jump\t// out\n        /* \"contracts/USDT.sol\":651:761  function sub(uint256 a, uint256 b) internal pure returns (uint256) {... */\n    tag_253:\n        /* \"contracts/USDT.sol\":709:716  uint256 */\n      0x0\n        /* \"contracts/USDT.sol\":731:737  b <= a */\n      dup3\n      dup3\n      gt\n      iszero\n        /* \"contracts/USDT.sol\":724:738  assert(b <= a) */\n      tag_280\n      jumpi\n      invalid\n    tag_280:\n      pop\n        /* \"contracts/USDT.sol\":751:756  a - b */\n      swap1\n      sub\n      swap1\n        /* \"contracts/USDT.sol\":651:761  function sub(uint256 a, uint256 b) internal pure returns (uint256) {... */\n      jump\t// out\n        /* \"contracts/USDT.sol\":765:894  function add(uint256 a, uint256 b) internal pure returns (uint256) {... */\n    tag_257:\n        /* \"contracts/USDT.sol\":823:830  uint256 */\n      0x0\n        /* \"contracts/USDT.sol\":850:855  a + b */\n      dup3\n      dup3\n      add\n        /* \"contracts/USDT.sol\":868:874  c >= a */\n      dup4\n      dup2\n      lt\n      iszero\n        /* \"contracts/USDT.sol\":861:875  assert(c >= a) */\n      tag_275\n      jumpi\n      invalid\n\n    auxdata: 0xa165627a7a723058207bbf4c4d334ff45fd7e8f132709cc9862402bf911cfaeb6342a6986a3227b30c0029\n}\n",
        "bytecode": {
          "linkReferences": {},
          "object": "60606040526000805460a060020a60ff0219168155600381905560045534156200002857600080fd5b604051620017fb380380620017fb833981016040528080519190602001805182019190602001805182019190602001805160008054600160a060020a03191633600160a060020a0316179055600186905591506007905083805162000092929160200190620000dd565b506008828051620000a8929160200190620000dd565b50600955505060008054600160a060020a0316815260026020526040902055600a805460a060020a60ff021916905562000182565b828054600181600116156101000203166002900490600052602060002090601f016020900481019282601f106200012057805160ff191683800117855562000150565b8280016001018555821562000150579182015b828111156200015057825182559160200191906001019062000133565b506200015e92915062000162565b5090565b6200017f91905b808211156200015e576000815560010162000169565b90565b61166980620001926000396000f3006060604052361561017a5763ffffffff60e060020a60003504166306fdde03811461017f5780630753c30c14610209578063095ea7b31461022a5780630e136b191461024c5780630ecb93c01461027357806318160ddd1461029257806323b872dd146102b757806326976e3f146102df57806327e235e31461030e578063313ce5671461032d57806335390714146103405780633eaaf86b146103535780633f4ba83a1461036657806359bf1abe146103795780635c658165146103985780635c975abb146103bd57806370a08231146103d05780638456cb59146103ef578063893d20e8146104025780638da5cb5b1461041557806395d89b4114610428578063a9059cbb1461043b578063c0324c771461045d578063cc872b6614610476578063db006a751461048c578063dd62ed3e146104a2578063dd644f72146104c7578063e47d6060146104da578063e4997dc5146104f9578063e5b5019a14610518578063f2fde38b1461052b578063f3bdc2281461054a575b600080fd5b341561018a57600080fd5b610192610569565b60405160208082528190810183818151815260200191508051906020019080838360005b838110156101ce5780820151838201526020016101b6565b50505050905090810190601f1680156101fb5780820380516001836020036101000a031916815260200191505b509250505060405180910390f35b341561021457600080fd5b610228600160a060020a0360043516610607565b005b341561023557600080fd5b610228600160a060020a03600435166024356106aa565b341561025757600080fd5b61025f610757565b604051901515815260200160405180910390f35b341561027e57600080fd5b610228600160a060020a0360043516610767565b341561029d57600080fd5b6102a56107e7565b60405190815260200160405180910390f35b34156102c257600080fd5b610228600160a060020a036004358116906024351660443561086e565b34156102ea57600080fd5b6102f2610932565b604051600160a060020a03909116815260200160405180910390f35b341561031957600080fd5b6102a5600160a060020a0360043516610941565b341561033857600080fd5b6102a5610953565b341561034b57600080fd5b6102a5610959565b341561035e57600080fd5b6102a561095f565b341561037157600080fd5b610228610965565b341561038457600080fd5b61025f600160a060020a03600435166109e4565b34156103a357600080fd5b6102a5600160a060020a0360043581169060243516610a06565b34156103c857600080fd5b61025f610a23565b34156103db57600080fd5b6102a5600160a060020a0360043516610a33565b34156103fa57600080fd5b610228610ad3565b341561040d57600080fd5b6102f2610b57565b341561042057600080fd5b6102f2610b66565b341561043357600080fd5b610192610b75565b341561044657600080fd5b610228600160a060020a0360043516602435610be0565b341561046857600080fd5b610228600435602435610cb9565b341561048157600080fd5b610228600435610d4f565b341561049757600080fd5b610228600435610dfe565b34156104ad57600080fd5b6102a5600160a060020a0360043581169060243516610eaf565b34156104d257600080fd5b6102a5610f5a565b34156104e557600080fd5b61025f600160a060020a0360043516610f60565b341561050457600080fd5b610228600160a060020a0360043516610f75565b341561052357600080fd5b6102a5610ff2565b341561053657600080fd5b610228600160a060020a0360043516610ff8565b341561055557600080fd5b610228600160a060020a036004351661104e565b60078054600181600116156101000203166002900480601f0160208091040260200160405190810160405280929190818152602001828054600181600116156101000203166002900480156105ff5780601f106105d4576101008083540402835291602001916105ff565b820191906000526020600020905b8154815290600101906020018083116105e257829003601f168201915b505050505081565b60005433600160a060020a0390811691161461062257600080fd5b600a805460a060020a74ff0000000000000000000000000000000000000000199091161773ffffffffffffffffffffffffffffffffffffffff1916600160a060020a0383161790557fcc358699805e9a8b7f77b522628c7cb9abd07d9efb86b6fb616af1609036a99e81604051600160a060020a03909116815260200160405180910390a150565b604060443610156106ba57600080fd5b600a5460a060020a900460ff161561074857600a54600160a060020a031663aee92d3333858560405160e060020a63ffffffff8616028152600160a060020a0393841660048201529190921660248201526044810191909152606401600060405180830381600087803b151561072f57600080fd5b6102c65a03f1151561074057600080fd5b505050610752565b610752838361110c565b505050565b600a5460a060020a900460ff1681565b60005433600160a060020a0390811691161461078257600080fd5b600160a060020a03811660009081526006602052604090819020805460ff191660011790557f42e160154868087d6bfdc0ca23d96a1c1cfa32f1b72ba9ba27b69b98a0d819dc90829051600160a060020a03909116815260200160405180910390a150565b600a5460009060a060020a900460ff161561086657600a54600160a060020a03166318160ddd6000604051602001526040518163ffffffff1660e060020a028152600401602060405180830381600087803b151561084457600080fd5b6102c65a03f1151561085557600080fd5b50505060405180519050905061086b565b506001545b90565b60005460a060020a900460ff161561088557600080fd5b600160a060020a03831660009081526006602052604090205460ff16156108ab57600080fd5b600a5460a060020a900460ff161561092757600a54600160a060020a0316638b477adb3385858560405160e060020a63ffffffff8716028152600160a060020a0394851660048201529284166024840152921660448201526064810191909152608401600060405180830381600087803b151561072f57600080fd5b6107528383836111be565b600a54600160a060020a031681565b60026020526000908152604090205481565b60095481565b60045481565b60015481565b60005433600160a060020a0390811691161461098057600080fd5b60005460a060020a900460ff16151561099857600080fd5b6000805474ff0000000000000000000000000000000000000000191690557f7805862f689e2f13df9f062ff482ad3ad112aca9e0847911ed832e158c525b3360405160405180910390a1565b600160a060020a03811660009081526006602052604090205460ff165b919050565b600560209081526000928352604080842090915290825290205481565b60005460a060020a900460ff1681565b600a5460009060a060020a900460ff1615610ac357600a54600160a060020a03166370a082318360006040516020015260405160e060020a63ffffffff8416028152600160a060020a039091166004820152602401602060405180830381600087803b1515610aa157600080fd5b6102c65a03f11515610ab257600080fd5b505050604051805190509050610a01565b610acc826113e1565b9050610a01565b60005433600160a060020a03908116911614610aee57600080fd5b60005460a060020a900460ff1615610b0557600080fd5b6000805474ff0000000000000000000000000000000000000000191660a060020a1790557f6985a02210a168e66602d3235cb6db0e70f92b3ba4d376a33c0f3d9434bff62560405160405180910390a1565b600054600160a060020a031690565b600054600160a060020a031681565b60088054600181600116156101000203166002900480601f0160208091040260200160405190810160405280929190818152602001828054600181600116156101000203166002900480156105ff5780601f106105d4576101008083540402835291602001916105ff565b60005460a060020a900460ff1615610bf757600080fd5b600160a060020a03331660009081526006602052604090205460ff1615610c1d57600080fd5b600a5460a060020a900460ff1615610cab57600a54600160a060020a0316636e18980a33848460405160e060020a63ffffffff8616028152600160a060020a0393841660048201529190921660248201526044810191909152606401600060405180830381600087803b1515610c9257600080fd5b6102c65a03f11515610ca357600080fd5b505050610cb5565b610cb582826113fc565b5050565b60005433600160a060020a03908116911614610cd457600080fd5b60148210610ce157600080fd5b60328110610cee57600080fd5b6003829055600954610d0a908290600a0a63ffffffff6115a416565b60048190556003547fb044a1e409eac5c48e5af22d4af52670dd1a99059537a78b31b48c6500a6354e9160405191825260208201526040908101905180910390a15050565b60005433600160a060020a03908116911614610d6a57600080fd5b60015481810111610d7a57600080fd5b60008054600160a060020a031681526002602052604090205481810111610da057600080fd5b60008054600160a060020a03168152600260205260409081902080548301905560018054830190557fcb8241adb0c3fdb35b70c24ce35c5eb0c17af7431c99f827d44a445ca624176a9082905190815260200160405180910390a150565b60005433600160a060020a03908116911614610e1957600080fd5b60015481901015610e2957600080fd5b60008054600160a060020a031681526002602052604090205481901015610e4f57600080fd5b60018054829003905560008054600160a060020a031681526002602052604090819020805483900390557f702d5967f45f6513a38ffc42d6ba9bf230bd40e8f53b16363c7eb4fd2deb9a449082905190815260200160405180910390a150565b600a5460009060a060020a900460ff1615610f4757600a54600160a060020a031663dd62ed3e848460006040516020015260405160e060020a63ffffffff8516028152600160a060020a03928316600482015291166024820152604401602060405180830381600087803b1515610f2557600080fd5b6102c65a03f11515610f3657600080fd5b505050604051805190509050610f54565b610f5183836115da565b90505b92915050565b60035481565b60066020526000908152604090205460ff1681565b60005433600160a060020a03908116911614610f9057600080fd5b600160a060020a03811660009081526006602052604090819020805460ff191690557fd7e9ec6e6ecd65492dce6bf513cd6867560d49544421d0783ddf06e76c24470c90829051600160a060020a03909116815260200160405180910390a150565b60001981565b60005433600160a060020a0390811691161461101357600080fd5b600160a060020a0381161561104b576000805473ffffffffffffffffffffffffffffffffffffffff1916600160a060020a0383161790555b50565b6000805433600160a060020a0390811691161461106a57600080fd5b600160a060020a03821660009081526006602052604090205460ff16151561109157600080fd5b61109a82610a33565b600160a060020a038316600090815260026020526040808220919091556001805483900390559091507f61e6e66b0d6339b2980aecc6ccc0039736791f0ccde9ed512e789a7fbdd698c6908390839051600160a060020a03909216825260208201526040908101905180910390a15050565b6040604436101561111c57600080fd5b811580159061114f5750600160a060020a0333811660009081526005602090815260408083209387168352929052205415155b1561115957600080fd5b600160a060020a03338116600081815260056020908152604080832094881680845294909152908190208590557f8c5be1e5ebec7d5bd14f71427d1e84f3dd0314c0f7b2291e5b200ac8c7c3b9259085905190815260200160405180910390a3505050565b60008080606060643610156111d257600080fd5b600160a060020a0380881660009081526005602090815260408083203390941683529290522054600354909450611224906127109061121890889063ffffffff6115a416565b9063ffffffff61160516565b92506004548311156112365760045492505b60001984101561127857611250848663ffffffff61161c16565b600160a060020a03808916600090815260056020908152604080832033909416835292905220555b611288858463ffffffff61161c16565b600160a060020a0388166000908152600260205260409020549092506112b4908663ffffffff61161c16565b600160a060020a0380891660009081526002602052604080822093909355908816815220546112e9908363ffffffff61162e16565b600160a060020a0387166000908152600260205260408120919091558311156113915760008054600160a060020a0316815260026020526040902054611335908463ffffffff61162e16565b60008054600160a060020a03908116825260026020526040808320939093559054811691908916907fddf252ad1be2c89b69c2b068fc378daa952ba7f163c4a11628f55a4df523b3ef9086905190815260200160405180910390a35b85600160a060020a031687600160a060020a03167fddf252ad1be2c89b69c2b068fc378daa952ba7f163c4a11628f55a4df523b3ef8460405190815260200160405180910390a350505050505050565b600160a060020a031660009081526002602052604090205490565b6000806040604436101561140f57600080fd5b61142a612710611218600354876115a490919063ffffffff16565b925060045483111561143c5760045492505b61144c848463ffffffff61161c16565b600160a060020a033316600090815260026020526040902054909250611478908563ffffffff61161c16565b600160a060020a0333811660009081526002602052604080822093909355908716815220546114ad908363ffffffff61162e16565b600160a060020a0386166000908152600260205260408120919091558311156115565760008054600160a060020a03168152600260205260409020546114f9908463ffffffff61162e16565b60008054600160a060020a0390811682526002602052604080832093909355905481169133909116907fddf252ad1be2c89b69c2b068fc378daa952ba7f163c4a11628f55a4df523b3ef9086905190815260200160405180910390a35b84600160a060020a031633600160a060020a03167fddf252ad1be2c89b69c2b068fc378daa952ba7f163c4a11628f55a4df523b3ef8460405190815260200160405180910390a35050505050565b6000808315156115b757600091506115d3565b508282028284828115156115c757fe5b04146115cf57fe5b8091505b5092915050565b600160a060020a03918216600090815260056020908152604080832093909416825291909152205490565b600080828481151561161357fe5b04949350505050565b60008282111561162857fe5b50900390565b6000828201838110156115cf57fe00a165627a7a723058207bbf4c4d334ff45fd7e8f132709cc9862402bf911cfaeb6342a6986a3227b30c0029",
          "opcodes": "PUSH1 0x60 PUSH1 0x40 MSTORE PUSH1 0x0 DUP1 SLOAD PUSH1 0xA0 PUSH1 0x2 EXP PUSH1 0xFF MUL NOT AND DUP2 SSTORE PUSH1 0x3 DUP2 SWAP1 SSTORE PUSH1 0x4 SSTORE CALLVALUE ISZERO PUSH3 0x28 JUMPI PUSH1 0x0 DUP1 REVERT JUMPDEST PUSH1 0x40 MLOAD PUSH3 0x17FB CODESIZE SUB DUP1 PUSH3 0x17FB DUP4 CODECOPY DUP2 ADD PUSH1 0x40 MSTORE DUP1 DUP1 MLOAD SWAP2 SWAP1 PUSH1 0x20 ADD DUP1 MLOAD DUP3 ADD SWAP2 SWAP1 PUSH1 0x20 ADD DUP1 MLOAD DUP3 ADD SWAP2 SWAP1 PUSH1 0x20 ADD DUP1 MLOAD PUSH1 0x0 DUP1 SLOAD PUSH1 0x1 PUSH1 0xA0 PUSH1 0x2 EXP SUB NOT AND CALLER PUSH1 0x1 PUSH1 0xA0 PUSH1 0x2 EXP SUB AND OR SWAP1 SSTORE PUSH1 0x1 DUP7 SWAP1 SSTORE SWAP2 POP PUSH1 0x7 SWAP1 POP DUP4 DUP1 MLOAD PUSH3 0x92 SWAP3 SWAP2 PUSH1 0x20 ADD SWAP1 PUSH3 0xDD JUMP JUMPDEST POP PUSH1 0x8 DUP3 DUP1 MLOAD PUSH3 0xA8 SWAP3 SWAP2 PUSH1 0x20 ADD SWAP1 PUSH3 0xDD JUMP JUMPDEST POP PUSH1 0x9 SSTORE POP POP PUSH1 0x0 DUP1 SLOAD PUSH1 0x1 PUSH1 0xA0 PUSH1 0x2 EXP SUB AND DUP2 MSTORE PUSH1 0x2 PUSH1 0x20 MSTORE PUSH1 0x40 SWAP1 KECCAK256 SSTORE PUSH1 0xA DUP1 SLOAD PUSH1 0xA0 PUSH1 0x2 EXP PUSH1 0xFF MUL NOT AND SWAP1 SSTORE PUSH3 0x182 JUMP JUMPDEST DUP3 DUP1 SLOAD PUSH1 0x1 DUP2 PUSH1 0x1 AND ISZERO PUSH2 0x100 MUL SUB AND PUSH1 0x2 SWAP1 DIV SWAP1 PUSH1 0x0 MSTORE PUSH1 0x20 PUSH1 0x0 KECCAK256 SWAP1 PUSH1 0x1F ADD PUSH1 0x20 SWAP1 DIV DUP2 ADD SWAP3 DUP3 PUSH1 0x1F LT PUSH3 0x120 JUMPI DUP1 MLOAD PUSH1 0xFF NOT AND DUP4 DUP1 ADD OR DUP6 SSTORE PUSH3 0x150 JUMP JUMPDEST DUP3 DUP1 ADD PUSH1 0x1 ADD DUP6 SSTORE DUP3 ISZERO PUSH3 0x150 JUMPI SWAP2 DUP3 ADD JUMPDEST DUP3 DUP2 GT ISZERO PUSH3 0x150 JUMPI DUP3 MLOAD DUP3 SSTORE SWAP2 PUSH1 0x20 ADD SWAP2 SWAP1 PUSH1 0x1 ADD SWAP1 PUSH3 0x133 JUMP JUMPDEST POP PUSH3 0x15E SWAP3 SWAP2 POP PUSH3 0x162 JUMP JUMPDEST POP SWAP1 JUMP JUMPDEST PUSH3 0x17F SWAP2 SWAP1 JUMPDEST DUP1 DUP3 GT ISZERO PUSH3 0x15E JUMPI PUSH1 0x0 DUP2 SSTORE PUSH1 0x1 ADD PUSH3 0x169 JUMP JUMPDEST SWAP1 JUMP JUMPDEST PUSH2 0x1669 DUP1 PUSH3 0x192 PUSH1 0x0 CODECOPY PUSH1 0x0 RETURN STOP PUSH1 0x60 PUSH1 0x40 MSTORE CALLDATASIZE ISZERO PUSH2 0x17A JUMPI PUSH4 0xFFFFFFFF PUSH1 0xE0 PUSH1 0x2 EXP PUSH1 0x0 CALLDATALOAD DIV AND PUSH4 0x6FDDE03 DUP2 EQ PUSH2 0x17F JUMPI DUP1 PUSH4 0x753C30C EQ PUSH2 0x209 JUMPI DUP1 PUSH4 0x95EA7B3 EQ PUSH2 0x22A JUMPI DUP1 PUSH4 0xE136B19 EQ PUSH2 0x24C JUMPI DUP1 PUSH4 0xECB93C0 EQ PUSH2 0x273 JUMPI DUP1 PUSH4 0x18160DDD EQ PUSH2 0x292 JUMPI DUP1 PUSH4 0x23B872DD EQ PUSH2 0x2B7 JUMPI DUP1 PUSH4 0x26976E3F EQ PUSH2 0x2DF JUMPI DUP1 PUSH4 0x27E235E3 EQ PUSH2 0x30E JUMPI DUP1 PUSH4 0x313CE567 EQ PUSH2 0x32D JUMPI DUP1 PUSH4 0x35390714 EQ PUSH2 0x340 JUMPI DUP1 PUSH4 0x3EAAF86B EQ PUSH2 0x353 JUMPI DUP1 PUSH4 0x3F4BA83A EQ PUSH2 0x366 JUMPI DUP1 PUSH4 0x59BF1ABE EQ PUSH2 0x379 JUMPI DUP1 PUSH4 0x5C658165 EQ PUSH2 0x398 JUMPI DUP1 PUSH4 0x5C975ABB EQ PUSH2 0x3BD JUMPI DUP1 PUSH4 0x70A08231 EQ PUSH2 0x3D0 JUMPI DUP1 PUSH4 0x8456CB59 EQ PUSH2 0x3EF JUMPI DUP1 PUSH4 0x893D20E8 EQ PUSH2 0x402 JUMPI DUP1 PUSH4 0x8DA5CB5B EQ PUSH2 0x415 JUMPI DUP1 PUSH4 0x95D89B41 EQ PUSH2 0x428 JUMPI DUP1 PUSH4 0xA9059CBB EQ PUSH2 0x43B JUMPI DUP1 PUSH4 0xC0324C77 EQ PUSH2 0x45D JUMPI DUP1 PUSH4 0xCC872B66 EQ PUSH2 0x476 JUMPI DUP1 PUSH4 0xDB006A75 EQ PUSH2 0x48C JUMPI DUP1 PUSH4 0xDD62ED3E EQ PUSH2 0x4A2 JUMPI DUP1 PUSH4 0xDD644F72 EQ PUSH2 0x4C7 JUMPI DUP1 PUSH4 0xE47D6060 EQ PUSH2 0x4DA JUMPI DUP1 PUSH4 0xE4997DC5 EQ PUSH2 0x4F9 JUMPI DUP1 PUSH4 0xE5B5019A EQ PUSH2 0x518 JUMPI DUP1 PUSH4 0xF2FDE38B EQ PUSH2 0x52B JUMPI DUP1 PUSH4 0xF3BDC228 EQ PUSH2 0x54A JUMPI JUMPDEST PUSH1 0x0 DUP1 REVERT JUMPDEST CALLVALUE ISZERO PUSH2 0x18A JUMPI PUSH1 0x0 DUP1 REVERT JUMPDEST PUSH2 0x192 PUSH2 0x569 JUMP JUMPDEST PUSH1 0x40 MLOAD PUSH1 0x20 DUP1 DUP3 MSTORE DUP2 SWAP1 DUP2 ADD DUP4 DUP2 DUP2 MLOAD DUP2 MSTORE PUSH1 0x20 ADD SWAP2 POP DUP1 MLOAD SWAP1 PUSH1 0x20 ADD SWAP1 DUP1 DUP4 DUP4 PUSH1 0x0 JUMPDEST DUP4 DUP2 LT ISZERO PUSH2 0x1CE JUMPI DUP1 DUP3 ADD MLOAD DUP4 DUP3 ADD MSTORE PUSH1 0x20 ADD PUSH2 0x1B6 JUMP JUMPDEST POP POP POP POP SWAP1 POP SWAP1 DUP2 ADD SWAP1 PUSH1 0x1F AND DUP1 ISZERO PUSH2 0x1FB JUMPI DUP1 DUP3 SUB DUP1 MLOAD PUSH1 0x1 DUP4 PUSH1 0x20 SUB PUSH2 0x100 EXP SUB NOT AND DUP2 MSTORE PUSH1 0x20 ADD SWAP2 POP JUMPDEST POP SWAP3 POP POP POP PUSH1 0x40 MLOAD DUP1 SWAP2 SUB SWAP1 RETURN JUMPDEST CALLVALUE ISZERO PUSH2 0x214 JUMPI PUSH1 0x0 DUP1 REVERT JUMPDEST PUSH2 0x228 PUSH1 0x1 PUSH1 0xA0 PUSH1 0x2 EXP SUB PUSH1 0x4 CALLDATALOAD AND PUSH2 0x607 JUMP JUMPDEST STOP JUMPDEST CALLVALUE ISZERO PUSH2 0x235 JUMPI PUSH1 0x0 DUP1 REVERT JUMPDEST PUSH2 0x228 PUSH1 0x1 PUSH1 0xA0 PUSH1 0x2 EXP SUB PUSH1 0x4 CALLDATALOAD AND PUSH1 0x24 CALLDATALOAD PUSH2 0x6AA JUMP JUMPDEST CALLVALUE ISZERO PUSH2 0x257 JUMPI PUSH1 0x0 DUP1 REVERT JUMPDEST PUSH2 0x25F PUSH2 0x757 JUMP JUMPDEST PUSH1 0x40 MLOAD SWAP1 ISZERO ISZERO DUP2 MSTORE PUSH1 0x20 ADD PUSH1 0x40 MLOAD DUP1 SWAP2 SUB SWAP1 RETURN JUMPDEST CALLVALUE ISZERO PUSH2 0x27E JUMPI PUSH1 0x0 DUP1 REVERT JUMPDEST PUSH2 0x228 PUSH1 0x1 PUSH1 0xA0 PUSH1 0x2 EXP SUB PUSH1 0x4 CALLDATALOAD AND PUSH2 0x767 JUMP JUMPDEST CALLVALUE ISZERO PUSH2 0x29D JUMPI PUSH1 0x0 DUP1 REVERT JUMPDEST PUSH2 0x2A5 PUSH2 0x7E7 JUMP JUMPDEST PUSH1 0x40 MLOAD SWAP1 DUP2 MSTORE PUSH1 0x20 ADD PUSH1 0x40 MLOAD DUP1 SWAP2 SUB SWAP1 RETURN JUMPDEST CALLVALUE ISZERO PUSH2 0x2C2 JUMPI PUSH1 0x0 DUP1 REVERT JUMPDEST PUSH2 0x228 PUSH1 0x1 PUSH1 0xA0 PUSH1 0x2 EXP SUB PUSH1 0x4 CALLDATALOAD DUP2 AND SWAP1 PUSH1 0x24 CALLDATALOAD AND PUSH1 0x44 CALLDATALOAD PUSH2 0x86E JUMP JUMPDEST CALLVALUE ISZERO PUSH2 0x2EA JUMPI PUSH1 0x0 DUP1 REVERT JUMPDEST PUSH2 0x2F2 PUSH2 0x932 JUMP JUMPDEST PUSH1 0x40 MLOAD PUSH1 0x1 PUSH1 0xA0 PUSH1 0x2 EXP SUB SWAP1 SWAP2 AND DUP2 MSTORE PUSH1 0x20 ADD PUSH1 0x40 MLOAD DUP1 SWAP2 SUB SWAP1 RETURN JUMPDEST CALLVALUE ISZERO PUSH2 0x319 JUMPI PUSH1 0x0 DUP1 REVERT JUMPDEST PUSH2 0x2A5 PUSH1 0x1 PUSH1 0xA0 PUSH1 0x2 EXP SUB PUSH1 0x4 CALLDATALOAD AND PUSH2 0x941 JUMP JUMPDEST CALLVALUE ISZERO PUSH2 0x338 JUMPI PUSH1 0x0 DUP1 REVERT JUMPDEST PUSH2 0x2A5 PUSH2 0x953 JUMP JUMPDEST CALLVALUE ISZERO PUSH2 0x34B JUMPI PUSH1 0x0 DUP1 REVERT JUMPDEST PUSH2 0x2A5 PUSH2 0x959 JUMP JUMPDEST CALLVALUE ISZERO PUSH2 0x35E JUMPI PUSH1 0x0 DUP1 REVERT JUMPDEST PUSH2 0x2A5 PUSH2 0x95F JUMP JUMPDEST CALLVALUE ISZERO PUSH2 0x371 JUMPI PUSH1 0x0 DUP1 REVERT JUMPDEST PUSH2 0x228 PUSH2 0x965 JUMP JUMPDEST CALLVALUE ISZERO PUSH2 0x384 JUMPI PUSH1 0x0 DUP1 REVERT JUMPDEST PUSH2 0x25F PUSH1 0x1 PUSH1 0xA0 PUSH1 0x2 EXP SUB PUSH1 0x4 CALLDATALOAD AND PUSH2 0x9E4 JUMP JUMPDEST CALLVALUE ISZERO PUSH2 0x3A3 JUMPI PUSH1 0x0 DUP1 REVERT JUMPDEST PUSH2 0x2A5 PUSH1 0x1 PUSH1 0xA0 PUSH1 0x2 EXP SUB PUSH1 0x4 CALLDATALOAD DUP2 AND SWAP1 PUSH1 0x24 CALLDATALOAD AND PUSH2 0xA06 JUMP JUMPDEST CALLVALUE ISZERO PUSH2 0x3C8 JUMPI PUSH1 0x0 DUP1 REVERT JUMPDEST PUSH2 0x25F PUSH2 0xA23 JUMP JUMPDEST CALLVALUE ISZERO PUSH2 0x3DB JUMPI PUSH1 0x0 DUP1 REVERT JUMPDEST PUSH2 0x2A5 PUSH1 0x1 PUSH1 0xA0 PUSH1 0x2 EXP SUB PUSH1 0x4 CALLDATALOAD AND PUSH2 0xA33 JUMP JUMPDEST CALLVALUE ISZERO PUSH2 0x3FA JUMPI PUSH1 0x0 DUP1 REVERT JUMPDEST PUSH2 0x228 PUSH2 0xAD3 JUMP JUMPDEST CALLVALUE ISZERO PUSH2 0x40D JUMPI PUSH1 0x0 DUP1 REVERT JUMPDEST PUSH2 0x2F2 PUSH2 0xB57 JUMP JUMPDEST CALLVALUE ISZERO PUSH2 0x420 JUMPI PUSH1 0x0 DUP1 REVERT JUMPDEST PUSH2 0x2F2 PUSH2 0xB66 JUMP JUMPDEST CALLVALUE ISZERO PUSH2 0x433 JUMPI PUSH1 0x0 DUP1 REVERT JUMPDEST PUSH2 0x192 PUSH2 0xB75 JUMP JUMPDEST CALLVALUE ISZERO PUSH2 0x446 JUMPI PUSH1 0x0 DUP1 REVERT JUMPDEST PUSH2 0x228 PUSH1 0x1 PUSH1 0xA0 PUSH1 0x2 EXP SUB PUSH1 0x4 CALLDATALOAD AND PUSH1 0x24 CALLDATALOAD PUSH2 0xBE0 JUMP JUMPDEST CALLVALUE ISZERO PUSH2 0x468 JUMPI PUSH1 0x0 DUP1 REVERT JUMPDEST PUSH2 0x228 PUSH1 0x4 CALLDATALOAD PUSH1 0x24 CALLDATALOAD PUSH2 0xCB9 JUMP JUMPDEST CALLVALUE ISZERO PUSH2 0x481 JUMPI PUSH1 0x0 DUP1 REVERT JUMPDEST PUSH2 0x228 PUSH1 0x4 CALLDATALOAD PUSH2 0xD4F JUMP JUMPDEST CALLVALUE ISZERO PUSH2 0x497 JUMPI PUSH1 0x0 DUP1 REVERT JUMPDEST PUSH2 0x228 PUSH1 0x4 CALLDATALOAD PUSH2 0xDFE JUMP JUMPDEST CALLVALUE ISZERO PUSH2 0x4AD JUMPI PUSH1 0x0 DUP1 REVERT JUMPDEST PUSH2 0x2A5 PUSH1 0x1 PUSH1 0xA0 PUSH1 0x2 EXP SUB PUSH1 0x4 CALLDATALOAD DUP2 AND SWAP1 PUSH1 0x24 CALLDATALOAD AND PUSH2 0xEAF JUMP JUMPDEST CALLVALUE ISZERO PUSH2 0x4D2 JUMPI PUSH1 0x0 DUP1 REVERT JUMPDEST PUSH2 0x2A5 PUSH2 0xF5A JUMP JUMPDEST CALLVALUE ISZERO PUSH2 0x4E5 JUMPI PUSH1 0x0 DUP1 REVERT JUMPDEST PUSH2 0x25F PUSH1 0x1 PUSH1 0xA0 PUSH1 0x2 EXP SUB PUSH1 0x4 CALLDATALOAD AND PUSH2 0xF60 JUMP JUMPDEST CALLVALUE ISZERO PUSH2 0x504 JUMPI PUSH1 0x0 DUP1 REVERT JUMPDEST PUSH2 0x228 PUSH1 0x1 PUSH1 0xA0 PUSH1 0x2 EXP SUB PUSH1 0x4 CALLDATALOAD AND PUSH2 0xF75 JUMP JUMPDEST CALLVALUE ISZERO PUSH2 0x523 JUMPI PUSH1 0x0 DUP1 REVERT JUMPDEST PUSH2 0x2A5 PUSH2 0xFF2 JUMP JUMPDEST CALLVALUE ISZERO PUSH2 0x536 JUMPI PUSH1 0x0 DUP1 REVERT JUMPDEST PUSH2 0x228 PUSH1 0x1 PUSH1 0xA0 PUSH1 0x2 EXP SUB PUSH1 0x4 CALLDATALOAD AND PUSH2 0xFF8 JUMP JUMPDEST CALLVALUE ISZERO PUSH2 0x555 JUMPI PUSH1 0x0 DUP1 REVERT JUMPDEST PUSH2 0x228 PUSH1 0x1 PUSH1 0xA0 PUSH1 0x2 EXP SUB PUSH1 0x4 CALLDATALOAD AND PUSH2 0x104E JUMP JUMPDEST PUSH1 0x7 DUP1 SLOAD PUSH1 0x1 DUP2 PUSH1 0x1 AND ISZERO PUSH2 0x100 MUL SUB AND PUSH1 0x2 SWAP1 DIV DUP1 PUSH1 0x1F ADD PUSH1 0x20 DUP1 SWAP2 DIV MUL PUSH1 0x20 ADD PUSH1 0x40 MLOAD SWAP1 DUP2 ADD PUSH1 0x40 MSTORE DUP1 SWAP3 SWAP2 SWAP1 DUP2 DUP2 MSTORE PUSH1 0x20 ADD DUP3 DUP1 SLOAD PUSH1 0x1 DUP2 PUSH1 0x1 AND ISZERO PUSH2 0x100 MUL SUB AND PUSH1 0x2 SWAP1 DIV DUP1 ISZERO PUSH2 0x5FF JUMPI DUP1 PUSH1 0x1F LT PUSH2 0x5D4 JUMPI PUSH2 0x100 DUP1 DUP4 SLOAD DIV MUL DUP4 MSTORE SWAP2 PUSH1 0x20 ADD SWAP2 PUSH2 0x5FF JUMP JUMPDEST DUP3 ADD SWAP2 SWAP1 PUSH1 0x0 MSTORE PUSH1 0x20 PUSH1 0x0 KECCAK256 SWAP1 JUMPDEST DUP2 SLOAD DUP2 MSTORE SWAP1 PUSH1 0x1 ADD SWAP1 PUSH1 0x20 ADD DUP1 DUP4 GT PUSH2 0x5E2 JUMPI DUP3 SWAP1 SUB PUSH1 0x1F AND DUP3 ADD SWAP2 JUMPDEST POP POP POP POP POP DUP2 JUMP JUMPDEST PUSH1 0x0 SLOAD CALLER PUSH1 0x1 PUSH1 0xA0 PUSH1 0x2 EXP SUB SWAP1 DUP2 AND SWAP2 AND EQ PUSH2 0x622 JUMPI PUSH1 0x0 DUP1 REVERT JUMPDEST PUSH1 0xA DUP1 SLOAD PUSH1 0xA0 PUSH1 0x2 EXP PUSH21 0xFF0000000000000000000000000000000000000000 NOT SWAP1 SWAP2 AND OR PUSH20 0xFFFFFFFFFFFFFFFFFFFFFFFFFFFFFFFFFFFFFFFF NOT AND PUSH1 0x1 PUSH1 0xA0 PUSH1 0x2 EXP SUB DUP4 AND OR SWAP1 SSTORE PUSH32 0xCC358699805E9A8B7F77B522628C7CB9ABD07D9EFB86B6FB616AF1609036A99E DUP2 PUSH1 0x40 MLOAD PUSH1 0x1 PUSH1 0xA0 PUSH1 0x2 EXP SUB SWAP1 SWAP2 AND DUP2 MSTORE PUSH1 0x20 ADD PUSH1 0x40 MLOAD DUP1 SWAP2 SUB SWAP1 LOG1 POP JUMP JUMPDEST PUSH1 0x40 PUSH1 0x44 CALLDATASIZE LT ISZERO PUSH2 0x6BA JUMPI PUSH1 0x0 DUP1 REVERT JUMPDEST PUSH1 0xA SLOAD PUSH1 0xA0 PUSH1 0x2 EXP SWAP1 DIV PUSH1 0xFF AND ISZERO PUSH2 0x748 JUMPI PUSH1 0xA SLOAD PUSH1 0x1 PUSH1 0xA0 PUSH1 0x2 EXP SUB AND PUSH4 0xAEE92D33 CALLER DUP6 DUP6 PUSH1 0x40 MLOAD PUSH1 0xE0 PUSH1 0x2 EXP PUSH4 0xFFFFFFFF DUP7 AND MUL DUP2 MSTORE PUSH1 0x1 PUSH1 0xA0 PUSH1 0x2 EXP SUB SWAP4 DUP5 AND PUSH1 0x4 DUP3 ADD MSTORE SWAP2 SWAP1 SWAP3 AND PUSH1 0x24 DUP3 ADD MSTORE PUSH1 0x44 DUP2 ADD SWAP2 SWAP1 SWAP2 MSTORE PUSH1 0x64 ADD PUSH1 0x0 PUSH1 0x40 MLOAD DUP1 DUP4 SUB DUP2 PUSH1 0x0 DUP8 DUP1 EXTCODESIZE ISZERO ISZERO PUSH2 0x72F JUMPI PUSH1 0x0 DUP1 REVERT JUMPDEST PUSH2 0x2C6 GAS SUB CALL ISZERO ISZERO PUSH2 0x740 JUMPI PUSH1 0x0 DUP1 REVERT JUMPDEST POP POP POP PUSH2 0x752 JUMP JUMPDEST PUSH2 0x752 DUP4 DUP4 PUSH2 0x110C JUMP JUMPDEST POP POP POP JUMP JUMPDEST PUSH1 0xA SLOAD PUSH1 0xA0 PUSH1 0x2 EXP SWAP1 DIV PUSH1 0xFF AND DUP2 JUMP JUMPDEST PUSH1 0x0 SLOAD CALLER PUSH1 0x1 PUSH1 0xA0 PUSH1 0x2 EXP SUB SWAP1 DUP2 AND SWAP2 AND EQ PUSH2 0x782 JUMPI PUSH1 0x0 DUP1 REVERT JUMPDEST PUSH1 0x1 PUSH1 0xA0 PUSH1 0x2 EXP SUB DUP2 AND PUSH1 0x0 SWAP1 DUP2 MSTORE PUSH1 0x6 PUSH1 0x20 MSTORE PUSH1 0x40 SWAP1 DUP2 SWAP1 KECCAK256 DUP1 SLOAD PUSH1 0xFF NOT AND PUSH1 0x1 OR SWAP1 SSTORE PUSH32 0x42E160154868087D6BFDC0CA23D96A1C1CFA32F1B72BA9BA27B69B98A0D819DC SWAP1 DUP3 SWAP1 MLOAD PUSH1 0x1 PUSH1 0xA0 PUSH1 0x2 EXP SUB SWAP1 SWAP2 AND DUP2 MSTORE PUSH1 0x20 ADD PUSH1 0x40 MLOAD DUP1 SWAP2 SUB SWAP1 LOG1 POP JUMP JUMPDEST PUSH1 0xA SLOAD PUSH1 0x0 SWAP1 PUSH1 0xA0 PUSH1 0x2 EXP SWAP1 DIV PUSH1 0xFF AND ISZERO PUSH2 0x866 JUMPI PUSH1 0xA SLOAD PUSH1 0x1 PUSH1 0xA0 PUSH1 0x2 EXP SUB AND PUSH4 0x18160DDD PUSH1 0x0 PUSH1 0x40 MLOAD PUSH1 0x20 ADD MSTORE PUSH1 0x40 MLOAD DUP2 PUSH4 0xFFFFFFFF AND PUSH1 0xE0 PUSH1 0x2 EXP MUL DUP2 MSTORE PUSH1 0x4 ADD PUSH1 0x20 PUSH1 0x40 MLOAD DUP1 DUP4 SUB DUP2 PUSH1 0x0 DUP8 DUP1 EXTCODESIZE ISZERO ISZERO PUSH2 0x844 JUMPI PUSH1 0x0 DUP1 REVERT JUMPDEST PUSH2 0x2C6 GAS SUB CALL ISZERO ISZERO PUSH2 0x855 JUMPI PUSH1 0x0 DUP1 REVERT JUMPDEST POP POP POP PUSH1 0x40 MLOAD DUP1 MLOAD SWAP1 POP SWAP1 POP PUSH2 0x86B JUMP JUMPDEST POP PUSH1 0x1 SLOAD JUMPDEST SWAP1 JUMP JUMPDEST PUSH1 0x0 SLOAD PUSH1 0xA0 PUSH1 0x2 EXP SWAP1 DIV PUSH1 0xFF AND ISZERO PUSH2 0x885 JUMPI PUSH1 0x0 DUP1 REVERT JUMPDEST PUSH1 0x1 PUSH1 0xA0 PUSH1 0x2 EXP SUB DUP4 AND PUSH1 0x0 SWAP1 DUP2 MSTORE PUSH1 0x6 PUSH1 0x20 MSTORE PUSH1 0x40 SWAP1 KECCAK256 SLOAD PUSH1 0xFF AND ISZERO PUSH2 0x8AB JUMPI PUSH1 0x0 DUP1 REVERT JUMPDEST PUSH1 0xA SLOAD PUSH1 0xA0 PUSH1 0x2 EXP SWAP1 DIV PUSH1 0xFF AND ISZERO PUSH2 0x927 JUMPI PUSH1 0xA SLOAD PUSH1 0x1 PUSH1 0xA0 PUSH1 0x2 EXP SUB AND PUSH4 0x8B477ADB CALLER DUP6 DUP6 DUP6 PUSH1 0x40 MLOAD PUSH1 0xE0 PUSH1 0x2 EXP PUSH4 0xFFFFFFFF DUP8 AND MUL DUP2 MSTORE PUSH1 0x1 PUSH1 0xA0 PUSH1 0x2 EXP SUB SWAP5 DUP6 AND PUSH1 0x4 DUP3 ADD MSTORE SWAP3 DUP5 AND PUSH1 0x24 DUP5 ADD MSTORE SWAP3 AND PUSH1 0x44 DUP3 ADD MSTORE PUSH1 0x64 DUP2 ADD SWAP2 SWAP1 SWAP2 MSTORE PUSH1 0x84 ADD PUSH1 0x0 PUSH1 0x40 MLOAD DUP1 DUP4 SUB DUP2 PUSH1 0x0 DUP8 DUP1 EXTCODESIZE ISZERO ISZERO PUSH2 0x72F JUMPI PUSH1 0x0 DUP1 REVERT JUMPDEST PUSH2 0x752 DUP4 DUP4 DUP4 PUSH2 0x11BE JUMP JUMPDEST PUSH1 0xA SLOAD PUSH1 0x1 PUSH1 0xA0 PUSH1 0x2 EXP SUB AND DUP2 JUMP JUMPDEST PUSH1 0x2 PUSH1 0x20 MSTORE PUSH1 0x0 SWAP1 DUP2 MSTORE PUSH1 0x40 SWAP1 KECCAK256 SLOAD DUP2 JUMP JUMPDEST PUSH1 0x9 SLOAD DUP2 JUMP JUMPDEST PUSH1 0x4 SLOAD DUP2 JUMP JUMPDEST PUSH1 0x1 SLOAD DUP2 JUMP JUMPDEST PUSH1 0x0 SLOAD CALLER PUSH1 0x1 PUSH1 0xA0 PUSH1 0x2 EXP SUB SWAP1 DUP2 AND SWAP2 AND EQ PUSH2 0x980 JUMPI PUSH1 0x0 DUP1 REVERT JUMPDEST PUSH1 0x0 SLOAD PUSH1 0xA0 PUSH1 0x2 EXP SWAP1 DIV PUSH1 0xFF AND ISZERO ISZERO PUSH2 0x998 JUMPI PUSH1 0x0 DUP1 REVERT JUMPDEST PUSH1 0x0 DUP1 SLOAD PUSH21 0xFF0000000000000000000000000000000000000000 NOT AND SWAP1 SSTORE PUSH32 0x7805862F689E2F13DF9F062FF482AD3AD112ACA9E0847911ED832E158C525B33 PUSH1 0x40 MLOAD PUSH1 0x40 MLOAD DUP1 SWAP2 SUB SWAP1 LOG1 JUMP JUMPDEST PUSH1 0x1 PUSH1 0xA0 PUSH1 0x2 EXP SUB DUP2 AND PUSH1 0x0 SWAP1 DUP2 MSTORE PUSH1 0x6 PUSH1 0x20 MSTORE PUSH1 0x40 SWAP1 KECCAK256 SLOAD PUSH1 0xFF AND JUMPDEST SWAP2 SWAP1 POP JUMP JUMPDEST PUSH1 0x5 PUSH1 0x20 SWAP1 DUP2 MSTORE PUSH1 0x0 SWAP3 DUP4 MSTORE PUSH1 0x40 DUP1 DUP5 KECCAK256 SWAP1 SWAP2 MSTORE SWAP1 DUP3 MSTORE SWAP1 KECCAK256 SLOAD DUP2 JUMP JUMPDEST PUSH1 0x0 SLOAD PUSH1 0xA0 PUSH1 0x2 EXP SWAP1 DIV PUSH1 0xFF AND DUP2 JUMP JUMPDEST PUSH1 0xA SLOAD PUSH1 0x0 SWAP1 PUSH1 0xA0 PUSH1 0x2 EXP SWAP1 DIV PUSH1 0xFF AND ISZERO PUSH2 0xAC3 JUMPI PUSH1 0xA SLOAD PUSH1 0x1 PUSH1 0xA0 PUSH1 0x2 EXP SUB AND PUSH4 0x70A08231 DUP4 PUSH1 0x0 PUSH1 0x40 MLOAD PUSH1 0x20 ADD MSTORE PUSH1 0x40 MLOAD PUSH1 0xE0 PUSH1 0x2 EXP PUSH4 0xFFFFFFFF DUP5 AND MUL DUP2 MSTORE PUSH1 0x1 PUSH1 0xA0 PUSH1 0x2 EXP SUB SWAP1 SWAP2 AND PUSH1 0x4 DUP3 ADD MSTORE PUSH1 0x24 ADD PUSH1 0x20 PUSH1 0x40 MLOAD DUP1 DUP4 SUB DUP2 PUSH1 0x0 DUP8 DUP1 EXTCODESIZE ISZERO ISZERO PUSH2 0xAA1 JUMPI PUSH1 0x0 DUP1 REVERT JUMPDEST PUSH2 0x2C6 GAS SUB CALL ISZERO ISZERO PUSH2 0xAB2 JUMPI PUSH1 0x0 DUP1 REVERT JUMPDEST POP POP POP PUSH1 0x40 MLOAD DUP1 MLOAD SWAP1 POP SWAP1 POP PUSH2 0xA01 JUMP JUMPDEST PUSH2 0xACC DUP3 PUSH2 0x13E1 JUMP JUMPDEST SWAP1 POP PUSH2 0xA01 JUMP JUMPDEST PUSH1 0x0 SLOAD CALLER PUSH1 0x1 PUSH1 0xA0 PUSH1 0x2 EXP SUB SWAP1 DUP2 AND SWAP2 AND EQ PUSH2 0xAEE JUMPI PUSH1 0x0 DUP1 REVERT JUMPDEST PUSH1 0x0 SLOAD PUSH1 0xA0 PUSH1 0x2 EXP SWAP1 DIV PUSH1 0xFF AND ISZERO PUSH2 0xB05 JUMPI PUSH1 0x0 DUP1 REVERT JUMPDEST PUSH1 0x0 DUP1 SLOAD PUSH21 0xFF0000000000000000000000000000000000000000 NOT AND PUSH1 0xA0 PUSH1 0x2 EXP OR SWAP1 SSTORE PUSH32 0x6985A02210A168E66602D3235CB6DB0E70F92B3BA4D376A33C0F3D9434BFF625 PUSH1 0x40 MLOAD PUSH1 0x40 MLOAD DUP1 SWAP2 SUB SWAP1 LOG1 JUMP JUMPDEST PUSH1 0x0 SLOAD PUSH1 0x1 PUSH1 0xA0 PUSH1 0x2 EXP SUB AND SWAP1 JUMP JUMPDEST PUSH1 0x0 SLOAD PUSH1 0x1 PUSH1 0xA0 PUSH1 0x2 EXP SUB AND DUP2 JUMP JUMPDEST PUSH1 0x8 DUP1 SLOAD PUSH1 0x1 DUP2 PUSH1 0x1 AND ISZERO PUSH2 0x100 MUL SUB AND PUSH1 0x2 SWAP1 DIV DUP1 PUSH1 0x1F ADD PUSH1 0x20 DUP1 SWAP2 DIV MUL PUSH1 0x20 ADD PUSH1 0x40 MLOAD SWAP1 DUP2 ADD PUSH1 0x40 MSTORE DUP1 SWAP3 SWAP2 SWAP1 DUP2 DUP2 MSTORE PUSH1 0x20 ADD DUP3 DUP1 SLOAD PUSH1 0x1 DUP2 PUSH1 0x1 AND ISZERO PUSH2 0x100 MUL SUB AND PUSH1 0x2 SWAP1 DIV DUP1 ISZERO PUSH2 0x5FF JUMPI DUP1 PUSH1 0x1F LT PUSH2 0x5D4 JUMPI PUSH2 0x100 DUP1 DUP4 SLOAD DIV MUL DUP4 MSTORE SWAP2 PUSH1 0x20 ADD SWAP2 PUSH2 0x5FF JUMP JUMPDEST PUSH1 0x0 SLOAD PUSH1 0xA0 PUSH1 0x2 EXP SWAP1 DIV PUSH1 0xFF AND ISZERO PUSH2 0xBF7 JUMPI PUSH1 0x0 DUP1 REVERT JUMPDEST PUSH1 0x1 PUSH1 0xA0 PUSH1 0x2 EXP SUB CALLER AND PUSH1 0x0 SWAP1 DUP2 MSTORE PUSH1 0x6 PUSH1 0x20 MSTORE PUSH1 0x40 SWAP1 KECCAK256 SLOAD PUSH1 0xFF AND ISZERO PUSH2 0xC1D JUMPI PUSH1 0x0 DUP1 REVERT JUMPDEST PUSH1 0xA SLOAD PUSH1 0xA0 PUSH1 0x2 EXP SWAP1 DIV PUSH1 0xFF AND ISZERO PUSH2 0xCAB JUMPI PUSH1 0xA SLOAD PUSH1 0x1 PUSH1 0xA0 PUSH1 0x2 EXP SUB AND PUSH4 0x6E18980A CALLER DUP5 DUP5 PUSH1 0x40 MLOAD PUSH1 0xE0 PUSH1 0x2 EXP PUSH4 0xFFFFFFFF DUP7 AND MUL DUP2 MSTORE PUSH1 0x1 PUSH1 0xA0 PUSH1 0x2 EXP SUB SWAP4 DUP5 AND PUSH1 0x4 DUP3 ADD MSTORE SWAP2 SWAP1 SWAP3 AND PUSH1 0x24 DUP3 ADD MSTORE PUSH1 0x44 DUP2 ADD SWAP2 SWAP1 SWAP2 MSTORE PUSH1 0x64 ADD PUSH1 0x0 PUSH1 0x40 MLOAD DUP1 DUP4 SUB DUP2 PUSH1 0x0 DUP8 DUP1 EXTCODESIZE ISZERO ISZERO PUSH2 0xC92 JUMPI PUSH1 0x0 DUP1 REVERT JUMPDEST PUSH2 0x2C6 GAS SUB CALL ISZERO ISZERO PUSH2 0xCA3 JUMPI PUSH1 0x0 DUP1 REVERT JUMPDEST POP POP POP PUSH2 0xCB5 JUMP JUMPDEST PUSH2 0xCB5 DUP3 DUP3 PUSH2 0x13FC JUMP JUMPDEST POP POP JUMP JUMPDEST PUSH1 0x0 SLOAD CALLER PUSH1 0x1 PUSH1 0xA0 PUSH1 0x2 EXP SUB SWAP1 DUP2 AND SWAP2 AND EQ PUSH2 0xCD4 JUMPI PUSH1 0x0 DUP1 REVERT JUMPDEST PUSH1 0x14 DUP3 LT PUSH2 0xCE1 JUMPI PUSH1 0x0 DUP1 REVERT JUMPDEST PUSH1 0x32 DUP2 LT PUSH2 0xCEE JUMPI PUSH1 0x0 DUP1 REVERT JUMPDEST PUSH1 0x3 DUP3 SWAP1 SSTORE PUSH1 0x9 SLOAD PUSH2 0xD0A SWAP1 DUP3 SWAP1 PUSH1 0xA EXP PUSH4 0xFFFFFFFF PUSH2 0x15A4 AND JUMP JUMPDEST PUSH1 0x4 DUP2 SWAP1 SSTORE PUSH1 0x3 SLOAD PUSH32 0xB044A1E409EAC5C48E5AF22D4AF52670DD1A99059537A78B31B48C6500A6354E SWAP2 PUSH1 0x40 MLOAD SWAP2 DUP3 MSTORE PUSH1 0x20 DUP3 ADD MSTORE PUSH1 0x40 SWAP1 DUP2 ADD SWAP1 MLOAD DUP1 SWAP2 SUB SWAP1 LOG1 POP POP JUMP JUMPDEST PUSH1 0x0 SLOAD CALLER PUSH1 0x1 PUSH1 0xA0 PUSH1 0x2 EXP SUB SWAP1 DUP2 AND SWAP2 AND EQ PUSH2 0xD6A JUMPI PUSH1 0x0 DUP1 REVERT JUMPDEST PUSH1 0x1 SLOAD DUP2 DUP2 ADD GT PUSH2 0xD7A JUMPI PUSH1 0x0 DUP1 REVERT JUMPDEST PUSH1 0x0 DUP1 SLOAD PUSH1 0x1 PUSH1 0xA0 PUSH1 0x2 EXP SUB AND DUP2 MSTORE PUSH1 0x2 PUSH1 0x20 MSTORE PUSH1 0x40 SWAP1 KECCAK256 SLOAD DUP2 DUP2 ADD GT PUSH2 0xDA0 JUMPI PUSH1 0x0 DUP1 REVERT JUMPDEST PUSH1 0x0 DUP1 SLOAD PUSH1 0x1 PUSH1 0xA0 PUSH1 0x2 EXP SUB AND DUP2 MSTORE PUSH1 0x2 PUSH1 0x20 MSTORE PUSH1 0x40 SWAP1 DUP2 SWAP1 KECCAK256 DUP1 SLOAD DUP4 ADD SWAP1 SSTORE PUSH1 0x1 DUP1 SLOAD DUP4 ADD SWAP1 SSTORE PUSH32 0xCB8241ADB0C3FDB35B70C24CE35C5EB0C17AF7431C99F827D44A445CA624176A SWAP1 DUP3 SWAP1 MLOAD SWAP1 DUP2 MSTORE PUSH1 0x20 ADD PUSH1 0x40 MLOAD DUP1 SWAP2 SUB SWAP1 LOG1 POP JUMP JUMPDEST PUSH1 0x0 SLOAD CALLER PUSH1 0x1 PUSH1 0xA0 PUSH1 0x2 EXP SUB SWAP1 DUP2 AND SWAP2 AND EQ PUSH2 0xE19 JUMPI PUSH1 0x0 DUP1 REVERT JUMPDEST PUSH1 0x1 SLOAD DUP2 SWAP1 LT ISZERO PUSH2 0xE29 JUMPI PUSH1 0x0 DUP1 REVERT JUMPDEST PUSH1 0x0 DUP1 SLOAD PUSH1 0x1 PUSH1 0xA0 PUSH1 0x2 EXP SUB AND DUP2 MSTORE PUSH1 0x2 PUSH1 0x20 MSTORE PUSH1 0x40 SWAP1 KECCAK256 SLOAD DUP2 SWAP1 LT ISZERO PUSH2 0xE4F JUMPI PUSH1 0x0 DUP1 REVERT JUMPDEST PUSH1 0x1 DUP1 SLOAD DUP3 SWAP1 SUB SWAP1 SSTORE PUSH1 0x0 DUP1 SLOAD PUSH1 0x1 PUSH1 0xA0 PUSH1 0x2 EXP SUB AND DUP2 MSTORE PUSH1 0x2 PUSH1 0x20 MSTORE PUSH1 0x40 SWAP1 DUP2 SWAP1 KECCAK256 DUP1 SLOAD DUP4 SWAP1 SUB SWAP1 SSTORE PUSH32 0x702D5967F45F6513A38FFC42D6BA9BF230BD40E8F53B16363C7EB4FD2DEB9A44 SWAP1 DUP3 SWAP1 MLOAD SWAP1 DUP2 MSTORE PUSH1 0x20 ADD PUSH1 0x40 MLOAD DUP1 SWAP2 SUB SWAP1 LOG1 POP JUMP JUMPDEST PUSH1 0xA SLOAD PUSH1 0x0 SWAP1 PUSH1 0xA0 PUSH1 0x2 EXP SWAP1 DIV PUSH1 0xFF AND ISZERO PUSH2 0xF47 JUMPI PUSH1 0xA SLOAD PUSH1 0x1 PUSH1 0xA0 PUSH1 0x2 EXP SUB AND PUSH4 0xDD62ED3E DUP5 DUP5 PUSH1 0x0 PUSH1 0x40 MLOAD PUSH1 0x20 ADD MSTORE PUSH1 0x40 MLOAD PUSH1 0xE0 PUSH1 0x2 EXP PUSH4 0xFFFFFFFF DUP6 AND MUL DUP2 MSTORE PUSH1 0x1 PUSH1 0xA0 PUSH1 0x2 EXP SUB SWAP3 DUP4 AND PUSH1 0x4 DUP3 ADD MSTORE SWAP2 AND PUSH1 0x24 DUP3 ADD MSTORE PUSH1 0x44 ADD PUSH1 0x20 PUSH1 0x40 MLOAD DUP1 DUP4 SUB DUP2 PUSH1 0x0 DUP8 DUP1 EXTCODESIZE ISZERO ISZERO PUSH2 0xF25 JUMPI PUSH1 0x0 DUP1 REVERT JUMPDEST PUSH2 0x2C6 GAS SUB CALL ISZERO ISZERO PUSH2 0xF36 JUMPI PUSH1 0x0 DUP1 REVERT JUMPDEST POP POP POP PUSH1 0x40 MLOAD DUP1 MLOAD SWAP1 POP SWAP1 POP PUSH2 0xF54 JUMP JUMPDEST PUSH2 0xF51 DUP4 DUP4 PUSH2 0x15DA JUMP JUMPDEST SWAP1 POP JUMPDEST SWAP3 SWAP2 POP POP JUMP JUMPDEST PUSH1 0x3 SLOAD DUP2 JUMP JUMPDEST PUSH1 0x6 PUSH1 0x20 MSTORE PUSH1 0x0 SWAP1 DUP2 MSTORE PUSH1 0x40 SWAP1 KECCAK256 SLOAD PUSH1 0xFF AND DUP2 JUMP JUMPDEST PUSH1 0x0 SLOAD CALLER PUSH1 0x1 PUSH1 0xA0 PUSH1 0x2 EXP SUB SWAP1 DUP2 AND SWAP2 AND EQ PUSH2 0xF90 JUMPI PUSH1 0x0 DUP1 REVERT JUMPDEST PUSH1 0x1 PUSH1 0xA0 PUSH1 0x2 EXP SUB DUP2 AND PUSH1 0x0 SWAP1 DUP2 MSTORE PUSH1 0x6 PUSH1 0x20 MSTORE PUSH1 0x40 SWAP1 DUP2 SWAP1 KECCAK256 DUP1 SLOAD PUSH1 0xFF NOT AND SWAP1 SSTORE PUSH32 0xD7E9EC6E6ECD65492DCE6BF513CD6867560D49544421D0783DDF06E76C24470C SWAP1 DUP3 SWAP1 MLOAD PUSH1 0x1 PUSH1 0xA0 PUSH1 0x2 EXP SUB SWAP1 SWAP2 AND DUP2 MSTORE PUSH1 0x20 ADD PUSH1 0x40 MLOAD DUP1 SWAP2 SUB SWAP1 LOG1 POP JUMP JUMPDEST PUSH1 0x0 NOT DUP2 JUMP JUMPDEST PUSH1 0x0 SLOAD CALLER PUSH1 0x1 PUSH1 0xA0 PUSH1 0x2 EXP SUB SWAP1 DUP2 AND SWAP2 AND EQ PUSH2 0x1013 JUMPI PUSH1 0x0 DUP1 REVERT JUMPDEST PUSH1 0x1 PUSH1 0xA0 PUSH1 0x2 EXP SUB DUP2 AND ISZERO PUSH2 0x104B JUMPI PUSH1 0x0 DUP1 SLOAD PUSH20 0xFFFFFFFFFFFFFFFFFFFFFFFFFFFFFFFFFFFFFFFF NOT AND PUSH1 0x1 PUSH1 0xA0 PUSH1 0x2 EXP SUB DUP4 AND OR SWAP1 SSTORE JUMPDEST POP JUMP JUMPDEST PUSH1 0x0 DUP1 SLOAD CALLER PUSH1 0x1 PUSH1 0xA0 PUSH1 0x2 EXP SUB SWAP1 DUP2 AND SWAP2 AND EQ PUSH2 0x106A JUMPI PUSH1 0x0 DUP1 REVERT JUMPDEST PUSH1 0x1 PUSH1 0xA0 PUSH1 0x2 EXP SUB DUP3 AND PUSH1 0x0 SWAP1 DUP2 MSTORE PUSH1 0x6 PUSH1 0x20 MSTORE PUSH1 0x40 SWAP1 KECCAK256 SLOAD PUSH1 0xFF AND ISZERO ISZERO PUSH2 0x1091 JUMPI PUSH1 0x0 DUP1 REVERT JUMPDEST PUSH2 0x109A DUP3 PUSH2 0xA33 JUMP JUMPDEST PUSH1 0x1 PUSH1 0xA0 PUSH1 0x2 EXP SUB DUP4 AND PUSH1 0x0 SWAP1 DUP2 MSTORE PUSH1 0x2 PUSH1 0x20 MSTORE PUSH1 0x40 DUP1 DUP3 KECCAK256 SWAP2 SWAP1 SWAP2 SSTORE PUSH1 0x1 DUP1 SLOAD DUP4 SWAP1 SUB SWAP1 SSTORE SWAP1 SWAP2 POP PUSH32 0x61E6E66B0D6339B2980AECC6CCC0039736791F0CCDE9ED512E789A7FBDD698C6 SWAP1 DUP4 SWAP1 DUP4 SWAP1 MLOAD PUSH1 0x1 PUSH1 0xA0 PUSH1 0x2 EXP SUB SWAP1 SWAP3 AND DUP3 MSTORE PUSH1 0x20 DUP3 ADD MSTORE PUSH1 0x40 SWAP1 DUP2 ADD SWAP1 MLOAD DUP1 SWAP2 SUB SWAP1 LOG1 POP POP JUMP JUMPDEST PUSH1 0x40 PUSH1 0x44 CALLDATASIZE LT ISZERO PUSH2 0x111C JUMPI PUSH1 0x0 DUP1 REVERT JUMPDEST DUP2 ISZERO DUP1 ISZERO SWAP1 PUSH2 0x114F JUMPI POP PUSH1 0x1 PUSH1 0xA0 PUSH1 0x2 EXP SUB CALLER DUP2 AND PUSH1 0x0 SWAP1 DUP2 MSTORE PUSH1 0x5 PUSH1 0x20 SWAP1 DUP2 MSTORE PUSH1 0x40 DUP1 DUP4 KECCAK256 SWAP4 DUP8 AND DUP4 MSTORE SWAP3 SWAP1 MSTORE KECCAK256 SLOAD ISZERO ISZERO JUMPDEST ISZERO PUSH2 0x1159 JUMPI PUSH1 0x0 DUP1 REVERT JUMPDEST PUSH1 0x1 PUSH1 0xA0 PUSH1 0x2 EXP SUB CALLER DUP2 AND PUSH1 0x0 DUP2 DUP2 MSTORE PUSH1 0x5 PUSH1 0x20 SWAP1 DUP2 MSTORE PUSH1 0x40 DUP1 DUP4 KECCAK256 SWAP5 DUP9 AND DUP1 DUP5 MSTORE SWAP5 SWAP1 SWAP2 MSTORE SWAP1 DUP2 SWAP1 KECCAK256 DUP6 SWAP1 SSTORE PUSH32 0x8C5BE1E5EBEC7D5BD14F71427D1E84F3DD0314C0F7B2291E5B200AC8C7C3B925 SWAP1 DUP6 SWAP1 MLOAD SWAP1 DUP2 MSTORE PUSH1 0x20 ADD PUSH1 0x40 MLOAD DUP1 SWAP2 SUB SWAP1 LOG3 POP POP POP JUMP JUMPDEST PUSH1 0x0 DUP1 DUP1 PUSH1 0x60 PUSH1 0x64 CALLDATASIZE LT ISZERO PUSH2 0x11D2 JUMPI PUSH1 0x0 DUP1 REVERT JUMPDEST PUSH1 0x1 PUSH1 0xA0 PUSH1 0x2 EXP SUB DUP1 DUP9 AND PUSH1 0x0 SWAP1 DUP2 MSTORE PUSH1 0x5 PUSH1 0x20 SWAP1 DUP2 MSTORE PUSH1 0x40 DUP1 DUP4 KECCAK256 CALLER SWAP1 SWAP5 AND DUP4 MSTORE SWAP3 SWAP1 MSTORE KECCAK256 SLOAD PUSH1 0x3 SLOAD SWAP1 SWAP5 POP PUSH2 0x1224 SWAP1 PUSH2 0x2710 SWAP1 PUSH2 0x1218 SWAP1 DUP9 SWAP1 PUSH4 0xFFFFFFFF PUSH2 0x15A4 AND JUMP JUMPDEST SWAP1 PUSH4 0xFFFFFFFF PUSH2 0x1605 AND JUMP JUMPDEST SWAP3 POP PUSH1 0x4 SLOAD DUP4 GT ISZERO PUSH2 0x1236 JUMPI PUSH1 0x4 SLOAD SWAP3 POP JUMPDEST PUSH1 0x0 NOT DUP5 LT ISZERO PUSH2 0x1278 JUMPI PUSH2 0x1250 DUP5 DUP7 PUSH4 0xFFFFFFFF PUSH2 0x161C AND JUMP JUMPDEST PUSH1 0x1 PUSH1 0xA0 PUSH1 0x2 EXP SUB DUP1 DUP10 AND PUSH1 0x0 SWAP1 DUP2 MSTORE PUSH1 0x5 PUSH1 0x20 SWAP1 DUP2 MSTORE PUSH1 0x40 DUP1 DUP4 KECCAK256 CALLER SWAP1 SWAP5 AND DUP4 MSTORE SWAP3 SWAP1 MSTORE KECCAK256 SSTORE JUMPDEST PUSH2 0x1288 DUP6 DUP5 PUSH4 0xFFFFFFFF PUSH2 0x161C AND JUMP JUMPDEST PUSH1 0x1 PUSH1 0xA0 PUSH1 0x2 EXP SUB DUP9 AND PUSH1 0x0 SWAP1 DUP2 MSTORE PUSH1 0x2 PUSH1 0x20 MSTORE PUSH1 0x40 SWAP1 KECCAK256 SLOAD SWAP1 SWAP3 POP PUSH2 0x12B4 SWAP1 DUP7 PUSH4 0xFFFFFFFF PUSH2 0x161C AND JUMP JUMPDEST PUSH1 0x1 PUSH1 0xA0 PUSH1 0x2 EXP SUB DUP1 DUP10 AND PUSH1 0x0 SWAP1 DUP2 MSTORE PUSH1 0x2 PUSH1 0x20 MSTORE PUSH1 0x40 DUP1 DUP3 KECCAK256 SWAP4 SWAP1 SWAP4 SSTORE SWAP1 DUP9 AND DUP2 MSTORE KECCAK256 SLOAD PUSH2 0x12E9 SWAP1 DUP4 PUSH4 0xFFFFFFFF PUSH2 0x162E AND JUMP JUMPDEST PUSH1 0x1 PUSH1 0xA0 PUSH1 0x2 EXP SUB DUP8 AND PUSH1 0x0 SWAP1 DUP2 MSTORE PUSH1 0x2 PUSH1 0x20 MSTORE PUSH1 0x40 DUP2 KECCAK256 SWAP2 SWAP1 SWAP2 SSTORE DUP4 GT ISZERO PUSH2 0x1391 JUMPI PUSH1 0x0 DUP1 SLOAD PUSH1 0x1 PUSH1 0xA0 PUSH1 0x2 EXP SUB AND DUP2 MSTORE PUSH1 0x2 PUSH1 0x20 MSTORE PUSH1 0x40 SWAP1 KECCAK256 SLOAD PUSH2 0x1335 SWAP1 DUP5 PUSH4 0xFFFFFFFF PUSH2 0x162E AND JUMP JUMPDEST PUSH1 0x0 DUP1 SLOAD PUSH1 0x1 PUSH1 0xA0 PUSH1 0x2 EXP SUB SWAP1 DUP2 AND DUP3 MSTORE PUSH1 0x2 PUSH1 0x20 MSTORE PUSH1 0x40 DUP1 DUP4 KECCAK256 SWAP4 SWAP1 SWAP4 SSTORE SWAP1 SLOAD DUP2 AND SWAP2 SWAP1 DUP10 AND SWAP1 PUSH32 0xDDF252AD1BE2C89B69C2B068FC378DAA952BA7F163C4A11628F55A4DF523B3EF SWAP1 DUP7 SWAP1 MLOAD SWAP1 DUP2 MSTORE PUSH1 0x20 ADD PUSH1 0x40 MLOAD DUP1 SWAP2 SUB SWAP1 LOG3 JUMPDEST DUP6 PUSH1 0x1 PUSH1 0xA0 PUSH1 0x2 EXP SUB AND DUP8 PUSH1 0x1 PUSH1 0xA0 PUSH1 0x2 EXP SUB AND PUSH32 0xDDF252AD1BE2C89B69C2B068FC378DAA952BA7F163C4A11628F55A4DF523B3EF DUP5 PUSH1 0x40 MLOAD SWAP1 DUP2 MSTORE PUSH1 0x20 ADD PUSH1 0x40 MLOAD DUP1 SWAP2 SUB SWAP1 LOG3 POP POP POP POP POP POP POP JUMP JUMPDEST PUSH1 0x1 PUSH1 0xA0 PUSH1 0x2 EXP SUB AND PUSH1 0x0 SWAP1 DUP2 MSTORE PUSH1 0x2 PUSH1 0x20 MSTORE PUSH1 0x40 SWAP1 KECCAK256 SLOAD SWAP1 JUMP JUMPDEST PUSH1 0x0 DUP1 PUSH1 0x40 PUSH1 0x44 CALLDATASIZE LT ISZERO PUSH2 0x140F JUMPI PUSH1 0x0 DUP1 REVERT JUMPDEST PUSH2 0x142A PUSH2 0x2710 PUSH2 0x1218 PUSH1 0x3 SLOAD DUP8 PUSH2 0x15A4 SWAP1 SWAP2 SWAP1 PUSH4 0xFFFFFFFF AND JUMP JUMPDEST SWAP3 POP PUSH1 0x4 SLOAD DUP4 GT ISZERO PUSH2 0x143C JUMPI PUSH1 0x4 SLOAD SWAP3 POP JUMPDEST PUSH2 0x144C DUP5 DUP5 PUSH4 0xFFFFFFFF PUSH2 0x161C AND JUMP JUMPDEST PUSH1 0x1 PUSH1 0xA0 PUSH1 0x2 EXP SUB CALLER AND PUSH1 0x0 SWAP1 DUP2 MSTORE PUSH1 0x2 PUSH1 0x20 MSTORE PUSH1 0x40 SWAP1 KECCAK256 SLOAD SWAP1 SWAP3 POP PUSH2 0x1478 SWAP1 DUP6 PUSH4 0xFFFFFFFF PUSH2 0x161C AND JUMP JUMPDEST PUSH1 0x1 PUSH1 0xA0 PUSH1 0x2 EXP SUB CALLER DUP2 AND PUSH1 0x0 SWAP1 DUP2 MSTORE PUSH1 0x2 PUSH1 0x20 MSTORE PUSH1 0x40 DUP1 DUP3 KECCAK256 SWAP4 SWAP1 SWAP4 SSTORE SWAP1 DUP8 AND DUP2 MSTORE KECCAK256 SLOAD PUSH2 0x14AD SWAP1 DUP4 PUSH4 0xFFFFFFFF PUSH2 0x162E AND JUMP JUMPDEST PUSH1 0x1 PUSH1 0xA0 PUSH1 0x2 EXP SUB DUP7 AND PUSH1 0x0 SWAP1 DUP2 MSTORE PUSH1 0x2 PUSH1 0x20 MSTORE PUSH1 0x40 DUP2 KECCAK256 SWAP2 SWAP1 SWAP2 SSTORE DUP4 GT ISZERO PUSH2 0x1556 JUMPI PUSH1 0x0 DUP1 SLOAD PUSH1 0x1 PUSH1 0xA0 PUSH1 0x2 EXP SUB AND DUP2 MSTORE PUSH1 0x2 PUSH1 0x20 MSTORE PUSH1 0x40 SWAP1 KECCAK256 SLOAD PUSH2 0x14F9 SWAP1 DUP5 PUSH4 0xFFFFFFFF PUSH2 0x162E AND JUMP JUMPDEST PUSH1 0x0 DUP1 SLOAD PUSH1 0x1 PUSH1 0xA0 PUSH1 0x2 EXP SUB SWAP1 DUP2 AND DUP3 MSTORE PUSH1 0x2 PUSH1 0x20 MSTORE PUSH1 0x40 DUP1 DUP4 KECCAK256 SWAP4 SWAP1 SWAP4 SSTORE SWAP1 SLOAD DUP2 AND SWAP2 CALLER SWAP1 SWAP2 AND SWAP1 PUSH32 0xDDF252AD1BE2C89B69C2B068FC378DAA952BA7F163C4A11628F55A4DF523B3EF SWAP1 DUP7 SWAP1 MLOAD SWAP1 DUP2 MSTORE PUSH1 0x20 ADD PUSH1 0x40 MLOAD DUP1 SWAP2 SUB SWAP1 LOG3 JUMPDEST DUP5 PUSH1 0x1 PUSH1 0xA0 PUSH1 0x2 EXP SUB AND CALLER PUSH1 0x1 PUSH1 0xA0 PUSH1 0x2 EXP SUB AND PUSH32 0xDDF252AD1BE2C89B69C2B068FC378DAA952BA7F163C4A11628F55A4DF523B3EF DUP5 PUSH1 0x40 MLOAD SWAP1 DUP2 MSTORE PUSH1 0x20 ADD PUSH1 0x40 MLOAD DUP1 SWAP2 SUB SWAP1 LOG3 POP POP POP POP POP JUMP JUMPDEST PUSH1 0x0 DUP1 DUP4 ISZERO ISZERO PUSH2 0x15B7 JUMPI PUSH1 0x0 SWAP2 POP PUSH2 0x15D3 JUMP JUMPDEST POP DUP3 DUP3 MUL DUP3 DUP5 DUP3 DUP2 ISZERO ISZERO PUSH2 0x15C7 JUMPI INVALID JUMPDEST DIV EQ PUSH2 0x15CF JUMPI INVALID JUMPDEST DUP1 SWAP2 POP JUMPDEST POP SWAP3 SWAP2 POP POP JUMP JUMPDEST PUSH1 0x1 PUSH1 0xA0 PUSH1 0x2 EXP SUB SWAP2 DUP3 AND PUSH1 0x0 SWAP1 DUP2 MSTORE PUSH1 0x5 PUSH1 0x20 SWAP1 DUP2 MSTORE PUSH1 0x40 DUP1 DUP4 KECCAK256 SWAP4 SWAP1 SWAP5 AND DUP3 MSTORE SWAP2 SWAP1 SWAP2 MSTORE KECCAK256 SLOAD SWAP1 JUMP JUMPDEST PUSH1 0x0 DUP1 DUP3 DUP5 DUP2 ISZERO ISZERO PUSH2 0x1613 JUMPI INVALID JUMPDEST DIV SWAP5 SWAP4 POP POP POP POP JUMP JUMPDEST PUSH1 0x0 DUP3 DUP3 GT ISZERO PUSH2 0x1628 JUMPI INVALID JUMPDEST POP SWAP1 SUB SWAP1 JUMP JUMPDEST PUSH1 0x0 DUP3 DUP3 ADD DUP4 DUP2 LT ISZERO PUSH2 0x15CF JUMPI INVALID STOP LOG1 PUSH6 0x627A7A723058 KECCAK256 PUSH28 0xBF4C4D334FF45FD7E8F132709CC9862402BF911CFAEB6342A6986A32 0x27 0xb3 0xc STOP 0x29 "
        },
        "gasEstimates": {
          "creation": {
            "codeDepositCost": "1147400",
            "executionCost": "infinite",
            "totalCost": "infinite"
          },
          "external": {
            "MAX_UINT()": "874",
            "_totalSupply()": "675",
            "addBlackList(address)": "22174",
            "allowance(address,address)": "infinite",
            "allowed(address,address)": "975",
            "approve(address,uint256)": "infinite",
            "balanceOf(address)": "infinite",
            "balances(address)": "756",
            "basisPointsRate()": "1005",
            "decimals()": "631",
            "deprecate(address)": "22114",
            "deprecated()": "585",
            "destroyBlackFunds(address)": "infinite",
            "getBlackListStatus(address)": "962",
            "getOwner()": "982",
            "isBlackListed(address)": "1186",
            "issue(uint256)": "43641",
            "maximumFee()": "653",
            "name()": "infinite",
            "owner()": "1004",
            "pause()": "22232",
            "paused()": "849",
            "redeem(uint256)": "43669",
            "removeBlackList(address)": "22696",
            "setParams(uint256,uint256)": "infinite",
            "symbol()": "infinite",
            "totalSupply()": "infinite",
            "transfer(address,uint256)": "infinite",
            "transferFrom(address,address,uint256)": "infinite",
            "transferOwnership(address)": "21631",
            "unpause()": "22056",
            "upgradedAddress()": "740"
          }
        },
        "methodIdentifiers": {
          "MAX_UINT()": "e5b5019a",
          "_totalSupply()": "3eaaf86b",
          "addBlackList(address)": "0ecb93c0",
          "allowance(address,address)": "dd62ed3e",
          "allowed(address,address)": "5c658165",
          "approve(address,uint256)": "095ea7b3",
          "balanceOf(address)": "70a08231",
          "balances(address)": "27e235e3",
          "basisPointsRate()": "dd644f72",
          "decimals()": "313ce567",
          "deprecate(address)": "0753c30c",
          "deprecated()": "0e136b19",
          "destroyBlackFunds(address)": "f3bdc228",
          "getBlackListStatus(address)": "59bf1abe",
          "getOwner()": "893d20e8",
          "isBlackListed(address)": "e47d6060",
          "issue(uint256)": "cc872b66",
          "maximumFee()": "35390714",
          "name()": "06fdde03",
          "owner()": "8da5cb5b",
          "pause()": "8456cb59",
          "paused()": "5c975abb",
          "redeem(uint256)": "db006a75",
          "removeBlackList(address)": "e4997dc5",
          "setParams(uint256,uint256)": "c0324c77",
          "symbol()": "95d89b41",
          "totalSupply()": "18160ddd",
          "transfer(address,uint256)": "a9059cbb",
          "transferFrom(address,address,uint256)": "23b872dd",
          "transferOwnership(address)": "f2fde38b",
          "unpause()": "3f4ba83a",
          "upgradedAddress()": "26976e3f"
        }
      },
      "userdoc": {
        "methods": {
          "getBlackListStatus(address)": {
            "notice": "//// Getters to allow the same blacklist to be used also by other contracts (including upgraded Tether) ///////"
          }
        }
      }
    }
  }
}