{
  "_format": "hh-sol-artifact-1",
  "contractName": "SimplePriceOracle",
  "sourceName": "contracts/SimplePriceOracle.sol",
  "abi": [
    {
      "anonymous": false,
      "inputs": [
        {
          "indexed": true,
          "internalType": "address",
          "name": "previousOwner",
          "type": "address"
        },
        {
          "indexed": true,
          "internalType": "address",
          "name": "newOwner",
          "type": "address"
        }
      ],
      "name": "OwnershipTransferred",
      "type": "event"
    },
    {
      "anonymous": false,
      "inputs": [
        {
          "indexed": false,
          "internalType": "address",
          "name": "asset",
          "type": "address"
        },
        {
          "indexed": false,
          "internalType": "uint256",
          "name": "previousPriceMantissa",
          "type": "uint256"
        },
        {
          "indexed": false,
          "internalType": "uint256",
          "name": "requestedPriceMantissa",
          "type": "uint256"
        },
        {
          "indexed": false,
          "internalType": "uint256",
          "name": "newPriceMantissa",
          "type": "uint256"
        }
      ],
      "name": "PricePosted",
      "type": "event"
    },
    {
      "inputs": [
        {
          "internalType": "address",
          "name": "asset",
          "type": "address"
        }
      ],
      "name": "assetPrices",
      "outputs": [
        {
          "internalType": "uint256",
          "name": "",
          "type": "uint256"
        }
      ],
      "stateMutability": "view",
      "type": "function"
    },
    {
      "inputs": [
        {
          "internalType": "contract CToken",
          "name": "cToken",
          "type": "address"
        }
      ],
      "name": "getUnderlyingPrice",
      "outputs": [
        {
          "internalType": "uint256",
          "name": "",
          "type": "uint256"
        }
      ],
      "stateMutability": "view",
      "type": "function"
    },
    {
      "inputs": [],
      "name": "isPriceOracle",
      "outputs": [
        {
          "internalType": "bool",
          "name": "",
          "type": "bool"
        }
      ],
      "stateMutability": "view",
      "type": "function"
    },
    {
      "inputs": [],
      "name": "owner",
      "outputs": [
        {
          "internalType": "address",
          "name": "",
          "type": "address"
        }
      ],
      "stateMutability": "view",
      "type": "function"
    },
    {
      "inputs": [],
      "name": "renounceOwnership",
      "outputs": [],
      "stateMutability": "nonpayable",
      "type": "function"
    },
    {
      "inputs": [
        {
          "internalType": "address",
          "name": "asset",
          "type": "address"
        },
        {
          "internalType": "uint256",
          "name": "price",
          "type": "uint256"
        }
      ],
      "name": "setDirectPrice",
      "outputs": [],
      "stateMutability": "nonpayable",
      "type": "function"
    },
    {
      "inputs": [
        {
          "internalType": "address[]",
          "name": "tokens",
          "type": "address[]"
        },
        {
          "internalType": "uint256[]",
          "name": "pricesToSet",
          "type": "uint256[]"
        }
      ],
      "name": "setDirectPrices",
      "outputs": [],
      "stateMutability": "nonpayable",
      "type": "function"
    },
    {
      "inputs": [
        {
          "internalType": "contract CToken",
          "name": "cToken",
          "type": "address"
        },
        {
          "internalType": "uint256",
          "name": "underlyingPriceMantissa",
          "type": "uint256"
        }
      ],
      "name": "setUnderlyingPrice",
      "outputs": [],
      "stateMutability": "nonpayable",
      "type": "function"
    },
    {
      "inputs": [
        {
          "internalType": "address",
          "name": "newOwner",
          "type": "address"
        }
      ],
      "name": "transferOwnership",
      "outputs": [],
      "stateMutability": "nonpayable",
      "type": "function"
    }
  ],
  "bytecode": "0x608060405234801561001057600080fd5b5061001a3361001f565b61006f565b600080546001600160a01b038381166001600160a01b0319831681178455604051919092169283917f8be0079c531659141344cd1fd0a4f28419497f9722a3daafe3b4186f6b6457e09190a35050565b6109898061007e6000396000f3fe608060405234801561001057600080fd5b50600436106100935760003560e01c806366331bba1161006657806366331bba1461010f578063715018a6146101275780638da5cb5b1461012f578063f2fde38b1461014a578063fc57d4df1461015d57600080fd5b806309a8acb014610098578063127ffda0146100ad5780631774b39b146100c05780635e9a523c146100d3575b600080fd5b6100ab6100a63660046106ad565b610170565b005b6100ab6100bb3660046106ad565b61021e565b6100ab6100ce366004610725565b6102d0565b6100fc6100e1366004610791565b6001600160a01b031660009081526001602052604090205490565b6040519081526020015b60405180910390f35b610117600181565b6040519015158152602001610106565b6100ab6103c9565b6000546040516001600160a01b039091168152602001610106565b6100ab610158366004610791565b6103ff565b6100fc61016b366004610791565b61049a565b6000546001600160a01b031633146101a35760405162461bcd60e51b815260040161019a906107b5565b60405180910390fd5b6001600160a01b038216600081815260016020908152604091829020548251938452908301528101829052606081018290527fdd71a1d19fcba687442a1d5c58578f1e409af71a79d10fd95a4d66efd8fa9ae79060800160405180910390a16001600160a01b03909116600090815260016020526040902055565b6000546001600160a01b031633146102485760405162461bcd60e51b815260040161019a906107b5565b6000610253836104c9565b6001600160a01b038116600081815260016020908152604091829020548251938452908301528101849052606081018490529091507fdd71a1d19fcba687442a1d5c58578f1e409af71a79d10fd95a4d66efd8fa9ae79060800160405180910390a16001600160a01b031660009081526001602052604090205550565b6000546001600160a01b031633146102fa5760405162461bcd60e51b815260040161019a906107b5565b82811461035d5760405162461bcd60e51b815260206004820152602b60248201527f746f6b656e7320616e6420707269636573206d7573742068617665207468652060448201526a0e6c2daca40d8cadccee8d60ab1b606482015260840161019a565b60005b838110156103c2576103b085858381811061037d5761037d6107ea565b90506020020160208101906103929190610791565b8484848181106103a4576103a46107ea565b90506020020135610170565b806103ba81610800565b915050610360565b5050505050565b6000546001600160a01b031633146103f35760405162461bcd60e51b815260040161019a906107b5565b6103fd60006105e2565b565b6000546001600160a01b031633146104295760405162461bcd60e51b815260040161019a906107b5565b6001600160a01b03811661048e5760405162461bcd60e51b815260206004820152602660248201527f4f776e61626c653a206e6577206f776e657220697320746865207a65726f206160448201526564647265737360d01b606482015260840161019a565b610497816105e2565b50565b6000600160006104a9846104c9565b6001600160a01b0316815260208101919091526040016000205492915050565b600080610557836001600160a01b03166395d89b416040518163ffffffff1660e01b8152600401600060405180830381865afa15801561050d573d6000803e3d6000fd5b505050506040513d6000823e601f3d908101601f19168201604052610535919081019061086d565b604051806040016040528060048152602001630c88aa8960e31b81525061063f565b15610577575073eeeeeeeeeeeeeeeeeeeeeeeeeeeeeeeeeeeeeeee6105dc565b826001600160a01b0316636f307dc36040518163ffffffff1660e01b8152600401602060405180830381865afa1580156105b5573d6000803e3d6000fd5b505050506040513d601f19601f820116820180604052508101906105d9919061091a565b90505b92915050565b600080546001600160a01b0383811673ffffffffffffffffffffffffffffffffffffffff19831681178455604051919092169283917f8be0079c531659141344cd1fd0a4f28419497f9722a3daafe3b4186f6b6457e09190a35050565b6000816040516020016106529190610937565b60405160208183030381529060405280519060200120836040516020016106799190610937565b6040516020818303038152906040528051906020012014905092915050565b6001600160a01b038116811461049757600080fd5b600080604083850312156106c057600080fd5b82356106cb81610698565b946020939093013593505050565b60008083601f8401126106eb57600080fd5b50813567ffffffffffffffff81111561070357600080fd5b6020830191508360208260051b850101111561071e57600080fd5b9250929050565b6000806000806040858703121561073b57600080fd5b843567ffffffffffffffff8082111561075357600080fd5b61075f888389016106d9565b9096509450602087013591508082111561077857600080fd5b50610785878288016106d9565b95989497509550505050565b6000602082840312156107a357600080fd5b81356107ae81610698565b9392505050565b6020808252818101527f4f776e61626c653a2063616c6c6572206973206e6f7420746865206f776e6572604082015260600190565b634e487b7160e01b600052603260045260246000fd5b60006001820161082057634e487b7160e01b600052601160045260246000fd5b5060010190565b634e487b7160e01b600052604160045260246000fd5b60005b83811015610858578181015183820152602001610840565b83811115610867576000848401525b50505050565b60006020828403121561087f57600080fd5b815167ffffffffffffffff8082111561089757600080fd5b818401915084601f8301126108ab57600080fd5b8151818111156108bd576108bd610827565b604051601f8201601f19908116603f011681019083821181831017156108e5576108e5610827565b816040528281528760208487010111156108fe57600080fd5b61090f83602083016020880161083d565b979650505050505050565b60006020828403121561092c57600080fd5b81516107ae81610698565b6000825161094981846020870161083d565b919091019291505056fea2646970667358221220ee4048bdb06165740062382a6f11878f3877c069e985e4b91203ee2537978aef64736f6c634300080d0033",
  "linkReferences": {},
  "deployedLinkReferences": {}
}