{
  "_format": "hh-sol-artifact-1",
  "contractName": "BondRedeemer",
  "sourceName": "contracts/BondRedeemer.sol",
  "abi": [
    {
      "inputs": [],
      "stateMutability": "nonpayable",
      "type": "constructor"
    },
    {
      "anonymous": false,
      "inputs": [
        {
          "indexed": false,
          "internalType": "address",
          "name": "newAdminAdd",
          "type": "address"
        }
      ],
      "name": "NewAdmin",
      "type": "event"
    },
    {
      "anonymous": false,
      "inputs": [
        {
          "indexed": true,
          "internalType": "address",
          "name": "previousOwner",
          "type": "address"
        },
        {
          "indexed": true,
          "internalType": "address",
          "name": "newOwner",
          "type": "address"
        }
      ],
      "name": "OwnershipTransferred",
      "type": "event"
    },
    {
      "anonymous": false,
      "inputs": [
        {
          "indexed": false,
          "internalType": "address",
          "name": "redeemer",
          "type": "address"
        },
        {
          "indexed": false,
          "internalType": "uint256",
          "name": "quantityOfdAMM",
          "type": "uint256"
        },
        {
          "indexed": false,
          "internalType": "uint256",
          "name": "bdAMMRedeemed",
          "type": "uint256"
        },
        {
          "indexed": false,
          "internalType": "uint256",
          "name": "usdcQuantity",
          "type": "uint256"
        }
      ],
      "name": "Redemption",
      "type": "event"
    },
    {
      "anonymous": false,
      "inputs": [
        {
          "indexed": false,
          "internalType": "address",
          "name": "token",
          "type": "address"
        },
        {
          "indexed": false,
          "internalType": "uint256",
          "name": "discountRates",
          "type": "uint256"
        },
        {
          "indexed": false,
          "internalType": "address",
          "name": "oracle",
          "type": "address"
        }
      ],
      "name": "TokenPermitted",
      "type": "event"
    },
    {
      "inputs": [],
      "name": "BDAMM",
      "outputs": [
        {
          "internalType": "address",
          "name": "",
          "type": "address"
        }
      ],
      "stateMutability": "view",
      "type": "function"
    },
    {
      "inputs": [
        {
          "internalType": "address",
          "name": "paymentToken",
          "type": "address"
        },
        {
          "internalType": "uint256",
          "name": "rawbdAMMToRedeem",
          "type": "uint256"
        }
      ],
      "name": "BondRedemption",
      "outputs": [],
      "stateMutability": "nonpayable",
      "type": "function"
    },
    {
      "inputs": [],
      "name": "CHAINLINK_DAMM",
      "outputs": [
        {
          "internalType": "address",
          "name": "",
          "type": "address"
        }
      ],
      "stateMutability": "view",
      "type": "function"
    },
    {
      "inputs": [],
      "name": "DAMM",
      "outputs": [
        {
          "internalType": "address",
          "name": "",
          "type": "address"
        }
      ],
      "stateMutability": "view",
      "type": "function"
    },
    {
      "inputs": [],
      "name": "admin",
      "outputs": [
        {
          "internalType": "address",
          "name": "",
          "type": "address"
        }
      ],
      "stateMutability": "view",
      "type": "function"
    },
    {
      "inputs": [
        {
          "internalType": "address",
          "name": "newAdmin",
          "type": "address"
        }
      ],
      "name": "changeAdmin",
      "outputs": [],
      "stateMutability": "nonpayable",
      "type": "function"
    },
    {
      "inputs": [],
      "name": "dAMMBalance",
      "outputs": [
        {
          "internalType": "uint256",
          "name": "",
          "type": "uint256"
        }
      ],
      "stateMutability": "view",
      "type": "function"
    },
    {
      "inputs": [
        {
          "internalType": "address",
          "name": "token",
          "type": "address"
        }
      ],
      "name": "disableToken",
      "outputs": [
        {
          "internalType": "bool",
          "name": "",
          "type": "bool"
        }
      ],
      "stateMutability": "nonpayable",
      "type": "function"
    },
    {
      "inputs": [
        {
          "internalType": "address",
          "name": "",
          "type": "address"
        }
      ],
      "name": "discountRates",
      "outputs": [
        {
          "internalType": "uint256",
          "name": "",
          "type": "uint256"
        }
      ],
      "stateMutability": "view",
      "type": "function"
    },
    {
      "inputs": [
        {
          "internalType": "address",
          "name": "oracleAdd",
          "type": "address"
        }
      ],
      "name": "getLatestDecimals",
      "outputs": [
        {
          "internalType": "uint8",
          "name": "",
          "type": "uint8"
        }
      ],
      "stateMutability": "view",
      "type": "function"
    },
    {
      "inputs": [
        {
          "internalType": "address",
          "name": "oracleAdd",
          "type": "address"
        }
      ],
      "name": "getLatestPrice",
      "outputs": [
        {
          "internalType": "int256",
          "name": "",
          "type": "int256"
        }
      ],
      "stateMutability": "view",
      "type": "function"
    },
    {
      "inputs": [
        {
          "internalType": "address",
          "name": "",
          "type": "address"
        }
      ],
      "name": "oracles",
      "outputs": [
        {
          "internalType": "address",
          "name": "",
          "type": "address"
        }
      ],
      "stateMutability": "view",
      "type": "function"
    },
    {
      "inputs": [],
      "name": "owner",
      "outputs": [
        {
          "internalType": "address",
          "name": "",
          "type": "address"
        }
      ],
      "stateMutability": "view",
      "type": "function"
    },
    {
      "inputs": [
        {
          "internalType": "address",
          "name": "token",
          "type": "address"
        },
        {
          "internalType": "uint256",
          "name": "discountRate",
          "type": "uint256"
        },
        {
          "internalType": "address",
          "name": "oracle",
          "type": "address"
        }
      ],
      "name": "permitToken",
      "outputs": [],
      "stateMutability": "nonpayable",
      "type": "function"
    },
    {
      "inputs": [],
      "name": "redeemAllowed",
      "outputs": [
        {
          "internalType": "bool",
          "name": "",
          "type": "bool"
        }
      ],
      "stateMutability": "view",
      "type": "function"
    },
    {
      "inputs": [],
      "name": "renounceOwnership",
      "outputs": [],
      "stateMutability": "nonpayable",
      "type": "function"
    },
    {
      "inputs": [
        {
          "internalType": "address",
          "name": "",
          "type": "address"
        }
      ],
      "name": "tokensPermitted",
      "outputs": [
        {
          "internalType": "bool",
          "name": "",
          "type": "bool"
        }
      ],
      "stateMutability": "view",
      "type": "function"
    },
    {
      "inputs": [
        {
          "internalType": "address",
          "name": "newOwner",
          "type": "address"
        }
      ],
      "name": "transferOwnership",
      "outputs": [],
      "stateMutability": "nonpayable",
      "type": "function"
    },
    {
      "inputs": [
        {
          "internalType": "address",
          "name": "token",
          "type": "address"
        }
      ],
      "name": "withdrawTokens",
      "outputs": [],
      "stateMutability": "nonpayable",
      "type": "function"
    }
  ],
  "bytecode": "0x60806040526001805460ff60a01b1916600160a01b17905534801561002357600080fd5b5061002d33610044565b600180546001600160a01b03191633179055610094565b600080546001600160a01b038381166001600160a01b0319831681178455604051919092169283917f8be0079c531659141344cd1fd0a4f28419497f9722a3daafe3b4186f6b6457e09190a35050565b611449806100a36000396000f3fe608060405234801561001057600080fd5b50600436106101215760003560e01c8063715018a6116100ad578063addd509911610071578063addd5099146102a7578063b184177f146102d0578063c7f1978e146102d8578063f2fde38b146102ec578063f851a440146102ff57600080fd5b8063715018a61461023857806374bc01aa146102405780638da5cb5b146102635780638f28397014610274578063a064ed771461028757600080fd5b80632ebb9ac3116100f45780632ebb9ac3146101bd57806348045314146101e257806349df728c146101fd5780634ad1805d14610212578063582202431461022557600080fd5b806304e130eb1461012657806316345f181461015e5780632184a8a51461017f57806323e27a641461019a575b600080fd5b610141732c1d072e956affc0d435cb7ac38ef18d24d9127c81565b6040516001600160a01b0390911681526020015b60405180910390f35b61017161016c366004611095565b610312565b604051908152602001610155565b61014173c4f125f56e10980a26093c5ad22aea1fa93cfd5781565b6101ad6101a8366004611095565b610389565b6040519015158152602001610155565b6101d06101cb366004611095565b61045e565b60405160ff9091168152602001610155565b61014173d9aa9fd99c2c085ce82a7f084a451c2460fcd73e81565b61021061020b366004611095565b6104d0565b005b6102106102203660046110b2565b6106d2565b6102106102333660046110de565b610a94565b610210610b65565b6101ad61024e366004611095565b60026020526000908152604090205460ff1681565b6000546001600160a01b0316610141565b610210610282366004611095565b610b9b565b610171610295366004611095565b60036020526000908152604090205481565b6101416102b5366004611095565b6004602052600090815260409020546001600160a01b031681565b610171610c24565b6001546101ad90600160a01b900460ff1681565b6102106102fa366004611095565b610ca2565b600154610141906001600160a01b031681565b6000808290506000816001600160a01b031663feaf968c6040518163ffffffff1660e01b815260040160a060405180830381865afa158015610358573d6000803e3d6000fd5b505050506040513d601f19601f8201168201806040525081019061037c919061113a565b5091979650505050505050565b600080546001600160a01b031633146103bd5760405162461bcd60e51b81526004016103b49061118a565b60405180910390fd5b6001546001600160a01b031633146103d457600080fd5b6001600160a01b03821660009081526002602052604090205460ff1615156001146104375760405162461bcd60e51b8152602060048201526013602482015272151bdad95b881a5cc81b9bdd081b1a5cdd1959606a1b60448201526064016103b4565b506001600160a01b0381166000908152600260205260408120805460ff191690555b919050565b6000808290506000816001600160a01b031663313ce5676040518163ffffffff1660e01b8152600401602060405180830381865afa1580156104a4573d6000803e3d6000fd5b505050506040513d601f19601f820116820180604052508101906104c891906111bf565b949350505050565b6000546001600160a01b031633146104fa5760405162461bcd60e51b81526004016103b49061118a565b6001546001600160a01b0316331461051157600080fd5b6001600160a01b03811673eeeeeeeeeeeeeeeeeeeeeeeeeeeeeeeeeeeeeeee036105e857600160009054906101000a90046001600160a01b03166001600160a01b0316638da5cb5b6040518163ffffffff1660e01b8152600401602060405180830381865afa158015610588573d6000803e3d6000fd5b505050506040513d601f19601f820116820180604052508101906105ac91906111e2565b6001600160a01b03166108fc479081150290604051600060405180830381858888f193505050501580156105e4573d6000803e3d6000fd5b5050565b6040516370a0823160e01b81523060048201526000906001600160a01b038316906370a0823190602401602060405180830381865afa15801561062f573d6000803e3d6000fd5b505050506040513d601f19601f8201168201806040525081019061065391906111ff565b60015460405163a9059cbb60e01b81526001600160a01b0391821660048201526024810183905291925083169063a9059cbb906044016020604051808303816000875af11580156106a8573d6000803e3d6000fd5b505050506040513d601f19601f820116820180604052508101906106cc9190611218565b50505b50565b60018054600160a01b900460ff1615151461073d5760405162461bcd60e51b815260206004820152602560248201527f4c697175696469747920426f6e64732074656d706f726172696c792064697361604482015264313632b21760d91b60648201526084016103b4565b6001600160a01b03821660009081526002602052604090205460ff1615156001146107b85760405162461bcd60e51b815260206004820152602560248201527f546f6b656e206973206e6f74207065726d697474656420666f7220726564656d604482015264383a34b7b760d91b60648201526084016103b4565b60006107c2610c24565b6001600160a01b038416600090815260036020526040812054919250906107eb90612710611250565b9050600061080c732c1d072e956affc0d435cb7ac38ef18d24d9127c61045e565b61081a9060ff166012611250565b61082590600161134b565b6001600160a01b038087166000908152600460205260408120549293509161084d911661045e565b61085b9060ff166012611250565b61086690600161134b565b732c1d072e956affc0d435cb7ac38ef18d24d9127c600090815260046020527f38e51254c4ea6d8704172f38b34ecf82d596e19254c9b127e08b242df0752d0f549192509083906108bf906001600160a01b0316610312565b6108c99190611357565b6001600160a01b038089166000908152600460205260408120549293509184916108f39116610312565b6108fd9190611357565b9050600061091388670de0b6b3a7640000611357565b9050600061092989670de0b6b3a7640000611357565b9050600061271061093a8987611357565b6109449190611376565b905060006109528583611376565b6040516370a0823160e01b815233600482015290915081906001600160a01b038e16906370a0823190602401602060405180830381865afa15801561099b573d6000803e3d6000fd5b505050506040513d601f19601f820116820180604052508101906109bf91906111ff565b10156109ca57600080fd5b838a10156109d757600080fd5b600154610a059073c4f125f56e10980a26093c5ad22aea1fa93cfd579033906001600160a01b031686610d3a565b600154610a1f908d9033906001600160a01b031684610d3a565b610a3e73d9aa9fd99c2c085ce82a7f084a451c2460fcd73e3386610dab565b60408051338152602081018690529081018c9052606081018290527fdde84b7d9f1e63dc5da295c5bff0bd33e2f49172e0cecbdf8028dcb61a24c83d9060800160405180910390a1505050505050505050505050565b6000546001600160a01b03163314610abe5760405162461bcd60e51b81526004016103b49061118a565b6001546001600160a01b03163314610ad557600080fd5b6001600160a01b038381166000818152600260209081526040808320805460ff191660011790556004825280832080549587166001600160a01b0319909616861790556003825291829020869055815192835282018590528101919091527ff3290e073a6e6bebd1dee37f7be9dab67f226e77a22bb457a18acc5c07fdeda89060600160405180910390a1505050565b6000546001600160a01b03163314610b8f5760405162461bcd60e51b81526004016103b49061118a565b610b996000610ddb565b565b6000546001600160a01b03163314610bc55760405162461bcd60e51b81526004016103b49061118a565b6001546001600160a01b03163314610bdc57600080fd5b610be581610ca2565b6040516001600160a01b03821681527f71614071b88dee5e0b2ae578a9dd7b2ebbe9ae832ba419dc0242cd065a290b6c9060200160405180910390a150565b6040516370a0823160e01b8152306004820152600090819073d9aa9fd99c2c085ce82a7f084a451c2460fcd73e906370a0823190602401602060405180830381865afa158015610c78573d6000803e3d6000fd5b505050506040513d601f19601f82011682018060405250810190610c9c91906111ff565b92915050565b6000546001600160a01b03163314610ccc5760405162461bcd60e51b81526004016103b49061118a565b6001600160a01b038116610d315760405162461bcd60e51b815260206004820152602660248201527f4f776e61626c653a206e6577206f776e657220697320746865207a65726f206160448201526564647265737360d01b60648201526084016103b4565b6106cf81610ddb565b6040516001600160a01b0380851660248301528316604482015260648101829052610da59085906323b872dd60e01b906084015b60408051601f198184030181529190526020810180516001600160e01b03166001600160e01b031990931692909217909152610e2b565b50505050565b6040516001600160a01b0383166024820152604481018290526106cc90849063a9059cbb60e01b90606401610d6e565b600080546001600160a01b038381166001600160a01b0319831681178455604051919092169283917f8be0079c531659141344cd1fd0a4f28419497f9722a3daafe3b4186f6b6457e09190a35050565b6000610e80826040518060400160405280602081526020017f5361666545524332303a206c6f772d6c6576656c2063616c6c206661696c6564815250856001600160a01b0316610efd9092919063ffffffff16565b8051909150156106cc5780806020019051810190610e9e9190611218565b6106cc5760405162461bcd60e51b815260206004820152602a60248201527f5361666545524332303a204552433230206f7065726174696f6e20646964206e6044820152691bdd081cdd58d8d9595960b21b60648201526084016103b4565b6060610f0c8484600085610f16565b90505b9392505050565b606082471015610f775760405162461bcd60e51b815260206004820152602660248201527f416464726573733a20696e73756666696369656e742062616c616e636520666f6044820152651c8818d85b1b60d21b60648201526084016103b4565b6001600160a01b0385163b610fce5760405162461bcd60e51b815260206004820152601d60248201527f416464726573733a2063616c6c20746f206e6f6e2d636f6e747261637400000060448201526064016103b4565b600080866001600160a01b03168587604051610fea91906113c4565b60006040518083038185875af1925050503d8060008114611027576040519150601f19603f3d011682016040523d82523d6000602084013e61102c565b606091505b509150915061103c828286611047565b979650505050505050565b60608315611056575081610f0f565b8251156110665782518084602001fd5b8160405162461bcd60e51b81526004016103b491906113e0565b6001600160a01b03811681146106cf57600080fd5b6000602082840312156110a757600080fd5b8135610f0f81611080565b600080604083850312156110c557600080fd5b82356110d081611080565b946020939093013593505050565b6000806000606084860312156110f357600080fd5b83356110fe81611080565b925060208401359150604084013561111581611080565b809150509250925092565b805169ffffffffffffffffffff8116811461045957600080fd5b600080600080600060a0868803121561115257600080fd5b61115b86611120565b945060208601519350604086015192506060860151915061117e60808701611120565b90509295509295909350565b6020808252818101527f4f776e61626c653a2063616c6c6572206973206e6f7420746865206f776e6572604082015260600190565b6000602082840312156111d157600080fd5b815160ff81168114610f0f57600080fd5b6000602082840312156111f457600080fd5b8151610f0f81611080565b60006020828403121561121157600080fd5b5051919050565b60006020828403121561122a57600080fd5b81518015158114610f0f57600080fd5b634e487b7160e01b600052601160045260246000fd5b6000828210156112625761126261123a565b500390565b600181815b808511156112a25781600019048211156112885761128861123a565b8085161561129557918102915b93841c939080029061126c565b509250929050565b6000826112b957506001610c9c565b816112c657506000610c9c565b81600181146112dc57600281146112e657611302565b6001915050610c9c565b60ff8411156112f7576112f761123a565b50506001821b610c9c565b5060208310610133831016604e8410600b8410161715611325575081810a610c9c565b61132f8383611267565b80600019048211156113435761134361123a565b029392505050565b6000610f0f83836112aa565b60008160001904831182151516156113715761137161123a565b500290565b60008261139357634e487b7160e01b600052601260045260246000fd5b500490565b60005b838110156113b357818101518382015260200161139b565b83811115610da55750506000910152565b600082516113d6818460208701611398565b9190910192915050565b60208152600082518060208401526113ff816040850160208701611398565b601f01601f1916919091016040019291505056fea264697066735822122015c1af78889b0e7ff805e0cd050ceffacc3415be4ca959c6d901a83ccfd6d7a064736f6c634300080d0033",
  "linkReferences": {},
  "deployedLinkReferences": {}
}