{
  "address": "0xf2B1039ba575cBeb126827816Cfa59d748AF3Ae7",
  "abi": [
    {
      "inputs": [
        {
          "internalType": "address",
          "name": "compAddress",
          "type": "address"
        }
      ],
      "stateMutability": "nonpayable",
      "type": "constructor"
    },
    {
      "anonymous": false,
      "inputs": [
        {
          "indexed": false,
          "internalType": "string",
          "name": "action",
          "type": "string"
        },
        {
          "indexed": false,
          "internalType": "bool",
          "name": "pauseState",
          "type": "bool"
        }
      ],
      "name": "ActionPaused",
      "type": "event"
    },
    {
      "anonymous": false,
      "inputs": [
        {
          "indexed": false,
          "internalType": "contract CToken",
          "name": "cToken",
          "type": "address"
        },
        {
          "indexed": false,
          "internalType": "string",
          "name": "action",
          "type": "string"
        },
        {
          "indexed": false,
          "internalType": "bool",
          "name": "pauseState",
          "type": "bool"
        }
      ],
      "name": "ActionPaused",
      "type": "event"
    },
    {
      "anonymous": false,
      "inputs": [
        {
          "indexed": false,
          "internalType": "address",
          "name": "borrower",
          "type": "address"
        },
        {
          "indexed": false,
          "internalType": "uint256",
          "name": "borrowLimit",
          "type": "uint256"
        }
      ],
      "name": "BorrowerLimitChanged",
      "type": "event"
    },
    {
      "anonymous": false,
      "inputs": [
        {
          "indexed": false,
          "internalType": "address",
          "name": "borrower",
          "type": "address"
        }
      ],
      "name": "BorrowerWhitelisted",
      "type": "event"
    },
    {
      "anonymous": false,
      "inputs": [
        {
          "indexed": false,
          "internalType": "address",
          "name": "recipient",
          "type": "address"
        },
        {
          "indexed": false,
          "internalType": "uint256",
          "name": "amount",
          "type": "uint256"
        }
      ],
      "name": "CompGranted",
      "type": "event"
    },
    {
      "anonymous": false,
      "inputs": [
        {
          "indexed": true,
          "internalType": "contract CToken",
          "name": "cToken",
          "type": "address"
        },
        {
          "indexed": false,
          "internalType": "uint256",
          "name": "newSpeed",
          "type": "uint256"
        }
      ],
      "name": "CompSpeedUpdated",
      "type": "event"
    },
    {
      "anonymous": false,
      "inputs": [
        {
          "indexed": true,
          "internalType": "address",
          "name": "contributor",
          "type": "address"
        },
        {
          "indexed": false,
          "internalType": "uint256",
          "name": "newSpeed",
          "type": "uint256"
        }
      ],
      "name": "ContributorCompSpeedUpdated",
      "type": "event"
    },
    {
      "anonymous": false,
      "inputs": [
        {
          "indexed": true,
          "internalType": "contract CToken",
          "name": "cToken",
          "type": "address"
        },
        {
          "indexed": true,
          "internalType": "address",
          "name": "borrower",
          "type": "address"
        },
        {
          "indexed": false,
          "internalType": "uint256",
          "name": "compDelta",
          "type": "uint256"
        },
        {
          "indexed": false,
          "internalType": "uint256",
          "name": "compBorrowIndex",
          "type": "uint256"
        }
      ],
      "name": "DistributedBorrowerComp",
      "type": "event"
    },
    {
      "anonymous": false,
      "inputs": [
        {
          "indexed": true,
          "internalType": "contract CToken",
          "name": "cToken",
          "type": "address"
        },
        {
          "indexed": true,
          "internalType": "address",
          "name": "supplier",
          "type": "address"
        },
        {
          "indexed": false,
          "internalType": "uint256",
          "name": "compDelta",
          "type": "uint256"
        },
        {
          "indexed": false,
          "internalType": "uint256",
          "name": "compSupplyIndex",
          "type": "uint256"
        }
      ],
      "name": "DistributedSupplierComp",
      "type": "event"
    },
    {
      "anonymous": false,
      "inputs": [
        {
          "indexed": false,
          "internalType": "uint256",
          "name": "error",
          "type": "uint256"
        },
        {
          "indexed": false,
          "internalType": "uint256",
          "name": "info",
          "type": "uint256"
        },
        {
          "indexed": false,
          "internalType": "uint256",
          "name": "detail",
          "type": "uint256"
        }
      ],
      "name": "Failure",
      "type": "event"
    },
    {
      "anonymous": false,
      "inputs": [
        {
          "indexed": false,
          "internalType": "contract CToken",
          "name": "cToken",
          "type": "address"
        },
        {
          "indexed": false,
          "internalType": "address",
          "name": "account",
          "type": "address"
        }
      ],
      "name": "MarketEntered",
      "type": "event"
    },
    {
      "anonymous": false,
      "inputs": [
        {
          "indexed": false,
          "internalType": "contract CToken",
          "name": "cToken",
          "type": "address"
        },
        {
          "indexed": false,
          "internalType": "address",
          "name": "account",
          "type": "address"
        }
      ],
      "name": "MarketExited",
      "type": "event"
    },
    {
      "anonymous": false,
      "inputs": [
        {
          "indexed": false,
          "internalType": "contract CToken",
          "name": "cToken",
          "type": "address"
        }
      ],
      "name": "MarketListed",
      "type": "event"
    },
    {
      "anonymous": false,
      "inputs": [
        {
          "indexed": true,
          "internalType": "contract CToken",
          "name": "cToken",
          "type": "address"
        },
        {
          "indexed": false,
          "internalType": "uint256",
          "name": "newBorrowCap",
          "type": "uint256"
        }
      ],
      "name": "NewBorrowCap",
      "type": "event"
    },
    {
      "anonymous": false,
      "inputs": [
        {
          "indexed": false,
          "internalType": "address",
          "name": "oldBorrowCapGuardian",
          "type": "address"
        },
        {
          "indexed": false,
          "internalType": "address",
          "name": "newBorrowCapGuardian",
          "type": "address"
        }
      ],
      "name": "NewBorrowCapGuardian",
      "type": "event"
    },
    {
      "anonymous": false,
      "inputs": [
        {
          "indexed": false,
          "internalType": "uint256",
          "name": "oldCloseFactorMantissa",
          "type": "uint256"
        },
        {
          "indexed": false,
          "internalType": "uint256",
          "name": "newCloseFactorMantissa",
          "type": "uint256"
        }
      ],
      "name": "NewCloseFactor",
      "type": "event"
    },
    {
      "anonymous": false,
      "inputs": [
        {
          "indexed": false,
          "internalType": "contract CToken",
          "name": "cToken",
          "type": "address"
        },
        {
          "indexed": false,
          "internalType": "uint256",
          "name": "oldCollateralFactorMantissa",
          "type": "uint256"
        },
        {
          "indexed": false,
          "internalType": "uint256",
          "name": "newCollateralFactorMantissa",
          "type": "uint256"
        }
      ],
      "name": "NewCollateralFactor",
      "type": "event"
    },
    {
      "anonymous": false,
      "inputs": [
        {
          "indexed": false,
          "internalType": "uint256",
          "name": "oldLiquidationIncentiveMantissa",
          "type": "uint256"
        },
        {
          "indexed": false,
          "internalType": "uint256",
          "name": "newLiquidationIncentiveMantissa",
          "type": "uint256"
        }
      ],
      "name": "NewLiquidationIncentive",
      "type": "event"
    },
    {
      "anonymous": false,
      "inputs": [
        {
          "indexed": false,
          "internalType": "address",
          "name": "oldPauseGuardian",
          "type": "address"
        },
        {
          "indexed": false,
          "internalType": "address",
          "name": "newPauseGuardian",
          "type": "address"
        }
      ],
      "name": "NewPauseGuardian",
      "type": "event"
    },
    {
      "anonymous": false,
      "inputs": [
        {
          "indexed": false,
          "internalType": "contract PriceOracle",
          "name": "oldPriceOracle",
          "type": "address"
        },
        {
          "indexed": false,
          "internalType": "contract PriceOracle",
          "name": "newPriceOracle",
          "type": "address"
        }
      ],
      "name": "NewPriceOracle",
      "type": "event"
    },
    {
      "inputs": [
        {
          "internalType": "contract Unitroller",
          "name": "unitroller",
          "type": "address"
        }
      ],
      "name": "_become",
      "outputs": [],
      "stateMutability": "nonpayable",
      "type": "function"
    },
    {
      "inputs": [],
      "name": "_borrowGuardianPaused",
      "outputs": [
        {
          "internalType": "bool",
          "name": "",
          "type": "bool"
        }
      ],
      "stateMutability": "view",
      "type": "function"
    },
    {
      "inputs": [
        {
          "internalType": "address",
          "name": "recipient",
          "type": "address"
        },
        {
          "internalType": "uint256",
          "name": "amount",
          "type": "uint256"
        }
      ],
      "name": "_grantComp",
      "outputs": [],
      "stateMutability": "nonpayable",
      "type": "function"
    },
    {
      "inputs": [],
      "name": "_mintGuardianPaused",
      "outputs": [
        {
          "internalType": "bool",
          "name": "",
          "type": "bool"
        }
      ],
      "stateMutability": "view",
      "type": "function"
    },
    {
      "inputs": [
        {
          "internalType": "address",
          "name": "newBorrowCapGuardian",
          "type": "address"
        }
      ],
      "name": "_setBorrowCapGuardian",
      "outputs": [],
      "stateMutability": "nonpayable",
      "type": "function"
    },
    {
      "inputs": [
        {
          "internalType": "contract CToken",
          "name": "cToken",
          "type": "address"
        },
        {
          "internalType": "bool",
          "name": "state",
          "type": "bool"
        }
      ],
      "name": "_setBorrowPaused",
      "outputs": [
        {
          "internalType": "bool",
          "name": "",
          "type": "bool"
        }
      ],
      "stateMutability": "nonpayable",
      "type": "function"
    },
    {
      "inputs": [
        {
          "internalType": "uint256",
          "name": "newCloseFactorMantissa",
          "type": "uint256"
        }
      ],
      "name": "_setCloseFactor",
      "outputs": [
        {
          "internalType": "uint256",
          "name": "",
          "type": "uint256"
        }
      ],
      "stateMutability": "nonpayable",
      "type": "function"
    },
    {
      "inputs": [
        {
          "internalType": "contract CToken",
          "name": "cToken",
          "type": "address"
        },
        {
          "internalType": "uint256",
          "name": "newCollateralFactorMantissa",
          "type": "uint256"
        }
      ],
      "name": "_setCollateralFactor",
      "outputs": [
        {
          "internalType": "uint256",
          "name": "",
          "type": "uint256"
        }
      ],
      "stateMutability": "nonpayable",
      "type": "function"
    },
    {
      "inputs": [
        {
          "internalType": "contract CToken",
          "name": "cToken",
          "type": "address"
        },
        {
          "internalType": "uint256",
          "name": "compSpeed",
          "type": "uint256"
        }
      ],
      "name": "_setCompSpeed",
      "outputs": [],
      "stateMutability": "nonpayable",
      "type": "function"
    },
    {
      "inputs": [
        {
          "internalType": "address",
          "name": "contributor",
          "type": "address"
        },
        {
          "internalType": "uint256",
          "name": "compSpeed",
          "type": "uint256"
        }
      ],
      "name": "_setContributorCompSpeed",
      "outputs": [],
      "stateMutability": "nonpayable",
      "type": "function"
    },
    {
      "inputs": [
        {
          "internalType": "uint256",
          "name": "newLiquidationIncentiveMantissa",
          "type": "uint256"
        }
      ],
      "name": "_setLiquidationIncentive",
      "outputs": [
        {
          "internalType": "uint256",
          "name": "",
          "type": "uint256"
        }
      ],
      "stateMutability": "nonpayable",
      "type": "function"
    },
    {
      "inputs": [
        {
          "internalType": "contract CToken[]",
          "name": "cTokens",
          "type": "address[]"
        },
        {
          "internalType": "uint256[]",
          "name": "newBorrowCaps",
          "type": "uint256[]"
        }
      ],
      "name": "_setMarketBorrowCaps",
      "outputs": [],
      "stateMutability": "nonpayable",
      "type": "function"
    },
    {
      "inputs": [
        {
          "internalType": "contract CToken",
          "name": "cToken",
          "type": "address"
        },
        {
          "internalType": "bool",
          "name": "state",
          "type": "bool"
        }
      ],
      "name": "_setMintPaused",
      "outputs": [
        {
          "internalType": "bool",
          "name": "",
          "type": "bool"
        }
      ],
      "stateMutability": "nonpayable",
      "type": "function"
    },
    {
      "inputs": [
        {
          "internalType": "address",
          "name": "newPauseGuardian",
          "type": "address"
        }
      ],
      "name": "_setPauseGuardian",
      "outputs": [
        {
          "internalType": "uint256",
          "name": "",
          "type": "uint256"
        }
      ],
      "stateMutability": "nonpayable",
      "type": "function"
    },
    {
      "inputs": [
        {
          "internalType": "contract PriceOracle",
          "name": "newOracle",
          "type": "address"
        }
      ],
      "name": "_setPriceOracle",
      "outputs": [
        {
          "internalType": "uint256",
          "name": "",
          "type": "uint256"
        }
      ],
      "stateMutability": "nonpayable",
      "type": "function"
    },
    {
      "inputs": [
        {
          "internalType": "bool",
          "name": "state",
          "type": "bool"
        }
      ],
      "name": "_setSeizePaused",
      "outputs": [
        {
          "internalType": "bool",
          "name": "",
          "type": "bool"
        }
      ],
      "stateMutability": "nonpayable",
      "type": "function"
    },
    {
      "inputs": [
        {
          "internalType": "bool",
          "name": "state",
          "type": "bool"
        }
      ],
      "name": "_setTransferPaused",
      "outputs": [
        {
          "internalType": "bool",
          "name": "",
          "type": "bool"
        }
      ],
      "stateMutability": "nonpayable",
      "type": "function"
    },
    {
      "inputs": [
        {
          "internalType": "contract CToken",
          "name": "cToken",
          "type": "address"
        }
      ],
      "name": "_supportMarket",
      "outputs": [
        {
          "internalType": "uint256",
          "name": "",
          "type": "uint256"
        }
      ],
      "stateMutability": "nonpayable",
      "type": "function"
    },
    {
      "inputs": [
        {
          "internalType": "address",
          "name": "",
          "type": "address"
        },
        {
          "internalType": "uint256",
          "name": "",
          "type": "uint256"
        }
      ],
      "name": "accountAssets",
      "outputs": [
        {
          "internalType": "contract CToken",
          "name": "",
          "type": "address"
        }
      ],
      "stateMutability": "view",
      "type": "function"
    },
    {
      "inputs": [],
      "name": "admin",
      "outputs": [
        {
          "internalType": "address",
          "name": "",
          "type": "address"
        }
      ],
      "stateMutability": "view",
      "type": "function"
    },
    {
      "inputs": [
        {
          "internalType": "uint256",
          "name": "",
          "type": "uint256"
        }
      ],
      "name": "allMarkets",
      "outputs": [
        {
          "internalType": "contract CToken",
          "name": "",
          "type": "address"
        }
      ],
      "stateMutability": "view",
      "type": "function"
    },
    {
      "inputs": [
        {
          "internalType": "address",
          "name": "cToken",
          "type": "address"
        },
        {
          "internalType": "address",
          "name": "borrower",
          "type": "address"
        },
        {
          "internalType": "uint256",
          "name": "borrowAmount",
          "type": "uint256"
        }
      ],
      "name": "borrowAllowed",
      "outputs": [
        {
          "internalType": "uint256",
          "name": "",
          "type": "uint256"
        }
      ],
      "stateMutability": "nonpayable",
      "type": "function"
    },
    {
      "inputs": [],
      "name": "borrowCapGuardian",
      "outputs": [
        {
          "internalType": "address",
          "name": "",
          "type": "address"
        }
      ],
      "stateMutability": "view",
      "type": "function"
    },
    {
      "inputs": [
        {
          "internalType": "address",
          "name": "",
          "type": "address"
        }
      ],
      "name": "borrowCaps",
      "outputs": [
        {
          "internalType": "uint256",
          "name": "",
          "type": "uint256"
        }
      ],
      "stateMutability": "view",
      "type": "function"
    },
    {
      "inputs": [
        {
          "internalType": "address",
          "name": "",
          "type": "address"
        }
      ],
      "name": "borrowGuardianPaused",
      "outputs": [
        {
          "internalType": "bool",
          "name": "",
          "type": "bool"
        }
      ],
      "stateMutability": "view",
      "type": "function"
    },
    {
      "inputs": [
        {
          "internalType": "address",
          "name": "",
          "type": "address"
        }
      ],
      "name": "borrowLimit",
      "outputs": [
        {
          "internalType": "uint256",
          "name": "",
          "type": "uint256"
        }
      ],
      "stateMutability": "view",
      "type": "function"
    },
    {
      "inputs": [
        {
          "internalType": "address",
          "name": "cToken",
          "type": "address"
        },
        {
          "internalType": "address",
          "name": "borrower",
          "type": "address"
        },
        {
          "internalType": "uint256",
          "name": "borrowAmount",
          "type": "uint256"
        }
      ],
      "name": "borrowVerify",
      "outputs": [],
      "stateMutability": "nonpayable",
      "type": "function"
    },
    {
      "inputs": [
        {
          "internalType": "address",
          "name": "",
          "type": "address"
        }
      ],
      "name": "borrowerArray",
      "outputs": [
        {
          "internalType": "bool",
          "name": "",
          "type": "bool"
        }
      ],
      "stateMutability": "view",
      "type": "function"
    },
    {
      "inputs": [
        {
          "internalType": "address",
          "name": "account",
          "type": "address"
        },
        {
          "internalType": "contract CToken",
          "name": "cToken",
          "type": "address"
        }
      ],
      "name": "checkMembership",
      "outputs": [
        {
          "internalType": "bool",
          "name": "",
          "type": "bool"
        }
      ],
      "stateMutability": "view",
      "type": "function"
    },
    {
      "inputs": [
        {
          "internalType": "address",
          "name": "holder",
          "type": "address"
        },
        {
          "internalType": "contract CToken[]",
          "name": "cTokens",
          "type": "address[]"
        }
      ],
      "name": "claimComp",
      "outputs": [],
      "stateMutability": "nonpayable",
      "type": "function"
    },
    {
      "inputs": [
        {
          "internalType": "address[]",
          "name": "holders",
          "type": "address[]"
        },
        {
          "internalType": "contract CToken[]",
          "name": "cTokens",
          "type": "address[]"
        },
        {
          "internalType": "bool",
          "name": "borrowers",
          "type": "bool"
        },
        {
          "internalType": "bool",
          "name": "suppliers",
          "type": "bool"
        }
      ],
      "name": "claimComp",
      "outputs": [],
      "stateMutability": "nonpayable",
      "type": "function"
    },
    {
      "inputs": [
        {
          "internalType": "address",
          "name": "holder",
          "type": "address"
        }
      ],
      "name": "claimComp",
      "outputs": [],
      "stateMutability": "nonpayable",
      "type": "function"
    },
    {
      "inputs": [],
      "name": "closeFactorMantissa",
      "outputs": [
        {
          "internalType": "uint256",
          "name": "",
          "type": "uint256"
        }
      ],
      "stateMutability": "view",
      "type": "function"
    },
    {
      "inputs": [
        {
          "internalType": "address",
          "name": "",
          "type": "address"
        }
      ],
      "name": "compAccrued",
      "outputs": [
        {
          "internalType": "uint256",
          "name": "",
          "type": "uint256"
        }
      ],
      "stateMutability": "view",
      "type": "function"
    },
    {
      "inputs": [
        {
          "internalType": "address",
          "name": "",
          "type": "address"
        }
      ],
      "name": "compBorrowState",
      "outputs": [
        {
          "internalType": "uint224",
          "name": "index",
          "type": "uint224"
        },
        {
          "internalType": "uint32",
          "name": "block",
          "type": "uint32"
        }
      ],
      "stateMutability": "view",
      "type": "function"
    },
    {
      "inputs": [
        {
          "internalType": "address",
          "name": "",
          "type": "address"
        },
        {
          "internalType": "address",
          "name": "",
          "type": "address"
        }
      ],
      "name": "compBorrowerIndex",
      "outputs": [
        {
          "internalType": "uint256",
          "name": "",
          "type": "uint256"
        }
      ],
      "stateMutability": "view",
      "type": "function"
    },
    {
      "inputs": [
        {
          "internalType": "address",
          "name": "",
          "type": "address"
        }
      ],
      "name": "compContributorSpeeds",
      "outputs": [
        {
          "internalType": "uint256",
          "name": "",
          "type": "uint256"
        }
      ],
      "stateMutability": "view",
      "type": "function"
    },
    {
      "inputs": [],
      "name": "compInitialIndex",
      "outputs": [
        {
          "internalType": "uint224",
          "name": "",
          "type": "uint224"
        }
      ],
      "stateMutability": "view",
      "type": "function"
    },
    {
      "inputs": [],
      "name": "compRate",
      "outputs": [
        {
          "internalType": "uint256",
          "name": "",
          "type": "uint256"
        }
      ],
      "stateMutability": "view",
      "type": "function"
    },
    {
      "inputs": [
        {
          "internalType": "address",
          "name": "",
          "type": "address"
        }
      ],
      "name": "compSpeeds",
      "outputs": [
        {
          "internalType": "uint256",
          "name": "",
          "type": "uint256"
        }
      ],
      "stateMutability": "view",
      "type": "function"
    },
    {
      "inputs": [
        {
          "internalType": "address",
          "name": "",
          "type": "address"
        },
        {
          "internalType": "address",
          "name": "",
          "type": "address"
        }
      ],
      "name": "compSupplierIndex",
      "outputs": [
        {
          "internalType": "uint256",
          "name": "",
          "type": "uint256"
        }
      ],
      "stateMutability": "view",
      "type": "function"
    },
    {
      "inputs": [
        {
          "internalType": "address",
          "name": "",
          "type": "address"
        }
      ],
      "name": "compSupplyState",
      "outputs": [
        {
          "internalType": "uint224",
          "name": "index",
          "type": "uint224"
        },
        {
          "internalType": "uint32",
          "name": "block",
          "type": "uint32"
        }
      ],
      "stateMutability": "view",
      "type": "function"
    },
    {
      "inputs": [],
      "name": "comptrollerImplementation",
      "outputs": [
        {
          "internalType": "address",
          "name": "",
          "type": "address"
        }
      ],
      "stateMutability": "view",
      "type": "function"
    },
    {
      "inputs": [
        {
          "internalType": "address[]",
          "name": "cTokens",
          "type": "address[]"
        }
      ],
      "name": "enterMarkets",
      "outputs": [
        {
          "internalType": "uint256[]",
          "name": "",
          "type": "uint256[]"
        }
      ],
      "stateMutability": "nonpayable",
      "type": "function"
    },
    {
      "inputs": [
        {
          "internalType": "address",
          "name": "cTokenAddress",
          "type": "address"
        }
      ],
      "name": "exitMarket",
      "outputs": [
        {
          "internalType": "uint256",
          "name": "",
          "type": "uint256"
        }
      ],
      "stateMutability": "nonpayable",
      "type": "function"
    },
    {
      "inputs": [
        {
          "internalType": "address",
          "name": "account",
          "type": "address"
        }
      ],
      "name": "getAccountLiquidity",
      "outputs": [
        {
          "internalType": "uint256",
          "name": "",
          "type": "uint256"
        },
        {
          "internalType": "uint256",
          "name": "",
          "type": "uint256"
        },
        {
          "internalType": "uint256",
          "name": "",
          "type": "uint256"
        }
      ],
      "stateMutability": "view",
      "type": "function"
    },
    {
      "inputs": [],
      "name": "getAllMarkets",
      "outputs": [
        {
          "internalType": "contract CToken[]",
          "name": "",
          "type": "address[]"
        }
      ],
      "stateMutability": "view",
      "type": "function"
    },
    {
      "inputs": [
        {
          "internalType": "address",
          "name": "account",
          "type": "address"
        }
      ],
      "name": "getAssetsIn",
      "outputs": [
        {
          "internalType": "contract CToken[]",
          "name": "",
          "type": "address[]"
        }
      ],
      "stateMutability": "view",
      "type": "function"
    },
    {
      "inputs": [],
      "name": "getBlockNumber",
      "outputs": [
        {
          "internalType": "uint256",
          "name": "",
          "type": "uint256"
        }
      ],
      "stateMutability": "view",
      "type": "function"
    },
    {
      "inputs": [
        {
          "internalType": "address",
          "name": "borrower",
          "type": "address"
        }
      ],
      "name": "getBorrowerLimits",
      "outputs": [
        {
          "internalType": "uint256",
          "name": "",
          "type": "uint256"
        }
      ],
      "stateMutability": "view",
      "type": "function"
    },
    {
      "inputs": [],
      "name": "getCompAddress",
      "outputs": [
        {
          "internalType": "address",
          "name": "",
          "type": "address"
        }
      ],
      "stateMutability": "pure",
      "type": "function"
    },
    {
      "inputs": [
        {
          "internalType": "address",
          "name": "account",
          "type": "address"
        },
        {
          "internalType": "address",
          "name": "cTokenModify",
          "type": "address"
        },
        {
          "internalType": "uint256",
          "name": "redeemTokens",
          "type": "uint256"
        },
        {
          "internalType": "uint256",
          "name": "borrowAmount",
          "type": "uint256"
        }
      ],
      "name": "getHypotheticalAccountLiquidity",
      "outputs": [
        {
          "internalType": "uint256",
          "name": "",
          "type": "uint256"
        },
        {
          "internalType": "uint256",
          "name": "",
          "type": "uint256"
        },
        {
          "internalType": "uint256",
          "name": "",
          "type": "uint256"
        }
      ],
      "stateMutability": "view",
      "type": "function"
    },
    {
      "inputs": [],
      "name": "isComptroller",
      "outputs": [
        {
          "internalType": "bool",
          "name": "",
          "type": "bool"
        }
      ],
      "stateMutability": "view",
      "type": "function"
    },
    {
      "inputs": [
        {
          "internalType": "address",
          "name": "",
          "type": "address"
        }
      ],
      "name": "lastContributorBlock",
      "outputs": [
        {
          "internalType": "uint256",
          "name": "",
          "type": "uint256"
        }
      ],
      "stateMutability": "view",
      "type": "function"
    },
    {
      "inputs": [
        {
          "internalType": "address",
          "name": "cTokenBorrowed",
          "type": "address"
        },
        {
          "internalType": "address",
          "name": "cTokenCollateral",
          "type": "address"
        },
        {
          "internalType": "address",
          "name": "liquidator",
          "type": "address"
        },
        {
          "internalType": "address",
          "name": "borrower",
          "type": "address"
        },
        {
          "internalType": "uint256",
          "name": "repayAmount",
          "type": "uint256"
        }
      ],
      "name": "liquidateBorrowAllowed",
      "outputs": [
        {
          "internalType": "uint256",
          "name": "",
          "type": "uint256"
        }
      ],
      "stateMutability": "nonpayable",
      "type": "function"
    },
    {
      "inputs": [
        {
          "internalType": "address",
          "name": "cTokenBorrowed",
          "type": "address"
        },
        {
          "internalType": "address",
          "name": "cTokenCollateral",
          "type": "address"
        },
        {
          "internalType": "address",
          "name": "liquidator",
          "type": "address"
        },
        {
          "internalType": "address",
          "name": "borrower",
          "type": "address"
        },
        {
          "internalType": "uint256",
          "name": "actualRepayAmount",
          "type": "uint256"
        },
        {
          "internalType": "uint256",
          "name": "seizeTokens",
          "type": "uint256"
        }
      ],
      "name": "liquidateBorrowVerify",
      "outputs": [],
      "stateMutability": "nonpayable",
      "type": "function"
    },
    {
      "inputs": [
        {
          "internalType": "address",
          "name": "cTokenBorrowed",
          "type": "address"
        },
        {
          "internalType": "address",
          "name": "cTokenCollateral",
          "type": "address"
        },
        {
          "internalType": "uint256",
          "name": "actualRepayAmount",
          "type": "uint256"
        }
      ],
      "name": "liquidateCalculateSeizeTokens",
      "outputs": [
        {
          "internalType": "uint256",
          "name": "",
          "type": "uint256"
        },
        {
          "internalType": "uint256",
          "name": "",
          "type": "uint256"
        }
      ],
      "stateMutability": "view",
      "type": "function"
    },
    {
      "inputs": [],
      "name": "liquidationIncentiveMantissa",
      "outputs": [
        {
          "internalType": "uint256",
          "name": "",
          "type": "uint256"
        }
      ],
      "stateMutability": "view",
      "type": "function"
    },
    {
      "inputs": [
        {
          "internalType": "address",
          "name": "",
          "type": "address"
        }
      ],
      "name": "markets",
      "outputs": [
        {
          "internalType": "bool",
          "name": "isListed",
          "type": "bool"
        },
        {
          "internalType": "uint256",
          "name": "collateralFactorMantissa",
          "type": "uint256"
        },
        {
          "internalType": "bool",
          "name": "isComped",
          "type": "bool"
        }
      ],
      "stateMutability": "view",
      "type": "function"
    },
    {
      "inputs": [],
      "name": "maxAssets",
      "outputs": [
        {
          "internalType": "uint256",
          "name": "",
          "type": "uint256"
        }
      ],
      "stateMutability": "view",
      "type": "function"
    },
    {
      "inputs": [
        {
          "internalType": "address",
          "name": "cToken",
          "type": "address"
        },
        {
          "internalType": "address",
          "name": "minter",
          "type": "address"
        },
        {
          "internalType": "uint256",
          "name": "mintAmount",
          "type": "uint256"
        }
      ],
      "name": "mintAllowed",
      "outputs": [
        {
          "internalType": "uint256",
          "name": "",
          "type": "uint256"
        }
      ],
      "stateMutability": "nonpayable",
      "type": "function"
    },
    {
      "inputs": [
        {
          "internalType": "address",
          "name": "",
          "type": "address"
        }
      ],
      "name": "mintGuardianPaused",
      "outputs": [
        {
          "internalType": "bool",
          "name": "",
          "type": "bool"
        }
      ],
      "stateMutability": "view",
      "type": "function"
    },
    {
      "inputs": [
        {
          "internalType": "address",
          "name": "cToken",
          "type": "address"
        },
        {
          "internalType": "address",
          "name": "minter",
          "type": "address"
        },
        {
          "internalType": "uint256",
          "name": "actualMintAmount",
          "type": "uint256"
        },
        {
          "internalType": "uint256",
          "name": "mintTokens",
          "type": "uint256"
        }
      ],
      "name": "mintVerify",
      "outputs": [],
      "stateMutability": "nonpayable",
      "type": "function"
    },
    {
      "inputs": [],
      "name": "oracle",
      "outputs": [
        {
          "internalType": "contract PriceOracle",
          "name": "",
          "type": "address"
        }
      ],
      "stateMutability": "view",
      "type": "function"
    },
    {
      "inputs": [],
      "name": "pauseGuardian",
      "outputs": [
        {
          "internalType": "address",
          "name": "",
          "type": "address"
        }
      ],
      "stateMutability": "view",
      "type": "function"
    },
    {
      "inputs": [],
      "name": "pendingAdmin",
      "outputs": [
        {
          "internalType": "address",
          "name": "",
          "type": "address"
        }
      ],
      "stateMutability": "view",
      "type": "function"
    },
    {
      "inputs": [],
      "name": "pendingComptrollerImplementation",
      "outputs": [
        {
          "internalType": "address",
          "name": "",
          "type": "address"
        }
      ],
      "stateMutability": "view",
      "type": "function"
    },
    {
      "inputs": [
        {
          "internalType": "address",
          "name": "cToken",
          "type": "address"
        },
        {
          "internalType": "address",
          "name": "redeemer",
          "type": "address"
        },
        {
          "internalType": "uint256",
          "name": "redeemTokens",
          "type": "uint256"
        }
      ],
      "name": "redeemAllowed",
      "outputs": [
        {
          "internalType": "uint256",
          "name": "",
          "type": "uint256"
        }
      ],
      "stateMutability": "nonpayable",
      "type": "function"
    },
    {
      "inputs": [
        {
          "internalType": "address",
          "name": "cToken",
          "type": "address"
        },
        {
          "internalType": "address",
          "name": "redeemer",
          "type": "address"
        },
        {
          "internalType": "uint256",
          "name": "redeemAmount",
          "type": "uint256"
        },
        {
          "internalType": "uint256",
          "name": "redeemTokens",
          "type": "uint256"
        }
      ],
      "name": "redeemVerify",
      "outputs": [],
      "stateMutability": "nonpayable",
      "type": "function"
    },
    {
      "inputs": [
        {
          "internalType": "address",
          "name": "cToken",
          "type": "address"
        },
        {
          "internalType": "address",
          "name": "payer",
          "type": "address"
        },
        {
          "internalType": "address",
          "name": "borrower",
          "type": "address"
        },
        {
          "internalType": "uint256",
          "name": "repayAmount",
          "type": "uint256"
        }
      ],
      "name": "repayBorrowAllowed",
      "outputs": [
        {
          "internalType": "uint256",
          "name": "",
          "type": "uint256"
        }
      ],
      "stateMutability": "nonpayable",
      "type": "function"
    },
    {
      "inputs": [
        {
          "internalType": "address",
          "name": "cToken",
          "type": "address"
        },
        {
          "internalType": "address",
          "name": "payer",
          "type": "address"
        },
        {
          "internalType": "address",
          "name": "borrower",
          "type": "address"
        },
        {
          "internalType": "uint256",
          "name": "actualRepayAmount",
          "type": "uint256"
        },
        {
          "internalType": "uint256",
          "name": "borrowerIndex",
          "type": "uint256"
        }
      ],
      "name": "repayBorrowVerify",
      "outputs": [],
      "stateMutability": "nonpayable",
      "type": "function"
    },
    {
      "inputs": [
        {
          "internalType": "address",
          "name": "cTokenCollateral",
          "type": "address"
        },
        {
          "internalType": "address",
          "name": "cTokenBorrowed",
          "type": "address"
        },
        {
          "internalType": "address",
          "name": "liquidator",
          "type": "address"
        },
        {
          "internalType": "address",
          "name": "borrower",
          "type": "address"
        },
        {
          "internalType": "uint256",
          "name": "seizeTokens",
          "type": "uint256"
        }
      ],
      "name": "seizeAllowed",
      "outputs": [
        {
          "internalType": "uint256",
          "name": "",
          "type": "uint256"
        }
      ],
      "stateMutability": "nonpayable",
      "type": "function"
    },
    {
      "inputs": [],
      "name": "seizeGuardianPaused",
      "outputs": [
        {
          "internalType": "bool",
          "name": "",
          "type": "bool"
        }
      ],
      "stateMutability": "view",
      "type": "function"
    },
    {
      "inputs": [
        {
          "internalType": "address",
          "name": "cTokenCollateral",
          "type": "address"
        },
        {
          "internalType": "address",
          "name": "cTokenBorrowed",
          "type": "address"
        },
        {
          "internalType": "address",
          "name": "liquidator",
          "type": "address"
        },
        {
          "internalType": "address",
          "name": "borrower",
          "type": "address"
        },
        {
          "internalType": "uint256",
          "name": "seizeTokens",
          "type": "uint256"
        }
      ],
      "name": "seizeVerify",
      "outputs": [],
      "stateMutability": "nonpayable",
      "type": "function"
    },
    {
      "inputs": [
        {
          "internalType": "address",
          "name": "borrower",
          "type": "address"
        },
        {
          "internalType": "uint256",
          "name": "_borrowLimit",
          "type": "uint256"
        }
      ],
      "name": "setBorrowerLimits",
      "outputs": [
        {
          "internalType": "uint256",
          "name": "",
          "type": "uint256"
        }
      ],
      "stateMutability": "nonpayable",
      "type": "function"
    },
    {
      "inputs": [
        {
          "internalType": "address",
          "name": "cToken",
          "type": "address"
        },
        {
          "internalType": "address",
          "name": "src",
          "type": "address"
        },
        {
          "internalType": "address",
          "name": "dst",
          "type": "address"
        },
        {
          "internalType": "uint256",
          "name": "transferTokens",
          "type": "uint256"
        }
      ],
      "name": "transferAllowed",
      "outputs": [
        {
          "internalType": "uint256",
          "name": "",
          "type": "uint256"
        }
      ],
      "stateMutability": "nonpayable",
      "type": "function"
    },
    {
      "inputs": [],
      "name": "transferGuardianPaused",
      "outputs": [
        {
          "internalType": "bool",
          "name": "",
          "type": "bool"
        }
      ],
      "stateMutability": "view",
      "type": "function"
    },
    {
      "inputs": [
        {
          "internalType": "address",
          "name": "cToken",
          "type": "address"
        },
        {
          "internalType": "address",
          "name": "src",
          "type": "address"
        },
        {
          "internalType": "address",
          "name": "dst",
          "type": "address"
        },
        {
          "internalType": "uint256",
          "name": "transferTokens",
          "type": "uint256"
        }
      ],
      "name": "transferVerify",
      "outputs": [],
      "stateMutability": "nonpayable",
      "type": "function"
    },
    {
      "inputs": [
        {
          "internalType": "address",
          "name": "contributor",
          "type": "address"
        }
      ],
      "name": "updateContributorRewards",
      "outputs": [],
      "stateMutability": "nonpayable",
      "type": "function"
    },
    {
      "inputs": [
        {
          "internalType": "address",
          "name": "borrower",
          "type": "address"
        }
      ],
      "name": "whitelistBorrowerAdd",
      "outputs": [
        {
          "internalType": "uint256",
          "name": "",
          "type": "uint256"
        }
      ],
      "stateMutability": "nonpayable",
      "type": "function"
    }
  ],
  "transactionHash": "0x241058b7709ed8fdda70a12fc8ff36d2e6ec2d5cc4aff954d75dff0346abcf52",
  "args": [
    "0xfa372fF1547fa1a283B5112a4685F1358CE5574d"
  ],
  "numDeployments": 2,
  "solcInputHash": "3ccf21f1aee733277b332d837dbaed4c",
  "bytecode": "0x60806040523480156200001157600080fd5b50604051620052a0380380620052a0833981016040819052620000349162000063565b601b80546001600160a01b039092166001600160a01b0319928316179055600080549091163317905562000095565b6000602082840312156200007657600080fd5b81516001600160a01b03811681146200008e57600080fd5b9392505050565b6151fb80620000a56000396000f3fe608060405234801561001057600080fd5b506004361061047f5760003560e01c80636d35bf9111610257578063b21be7fd11610146578063dce15449116100c3578063e875544611610087578063e875544614610c07578063e9af029214610c10578063eabe7d9114610c23578063ede4edd014610c36578063f851a44014610c4957600080fd5b8063dce1544914610b97578063dcfbc0c714610baa578063de887e1a14610bbd578063e4028eee14610be0578063e6653f3d14610bf357600080fd5b8063c488847b1161010a578063c488847b14610afe578063ca0af04314610b26578063cc7ebdc414610b51578063d02f735114610b71578063da3d454c14610b8457600080fd5b8063b21be7fd14610a6d578063bb82aa5e14610a98578063bdcdc25814610aab578063bea6b8b814610abe578063c299823814610ade57600080fd5b806394b2294b116101d4578063a7f0e23111610198578063a7f0e231146109fa578063aa90075414610a28578063abfceffc14610a31578063ac0b0bb714610a51578063b0772d0b14610a6557600080fd5b806394b2294b14610991578063986ab8381461099a5780639d1b5a0a146109ba578063a5e30400146109d4578063a76b3fda146109e757600080fd5b806387f763031161021b57806387f763031461089e5780638c57804e146108b25780638e8f294b146108ea5780638ebf63641461093d578063929fe9a11461095057600080fd5b80636d35bf9114610834578063731f0c2b14610842578063741b2525146108655780637dc0d1d01461087857806386de666e1461088b57600080fd5b806347ef3b3b116103735780635c778605116102f05780636810dfa6116102b45780636810dfa6146107815780636a56947e146107945780636b79c38d146107a25780636bb49ac8146107fe5780636d154ea51461081157600080fd5b80635c778605146107225780635ec88c79146107355780635f5af1aa146107485780635fc7e71e1461075b578063607ef6c11461076e57600080fd5b80634fd42e17116103375780634fd42e17146106c357806351dff989146106d657806352d84d1e146106e957806355ee1fe1146106fc578063598ee1cb1461070f57600080fd5b806347ef3b3b146106435780634a584432146106595780634ada90af146106795780634e79238f146106825780634ef4c3e1146106b057600080fd5b806327efe3cb116104015780633bcf7ec1116103c55780633bcf7ec1146105ef5780633c94786f1461060257806341c728b91461061657806342cbb15c1461062a578063434caf251461063057600080fd5b806327efe3cb1461058357806328f5f502146105965780632d70db78146105b6578063317b0b77146105c9578063391957d7146105dc57600080fd5b80631ededc91116104485780631ededc911461050a57806321af45691461051f57806324008a621461054a57806324a3d6221461055d578063267822471461057057600080fd5b80627e3dd21461048457806318c882a5146104a15780631c3db2e0146104b45780631d504dc6146104c95780631d7b33d7146104dc575b600080fd5b61048c600181565b60405190151581526020015b60405180910390f35b61048c6104af366004614891565b610c5c565b6104c76104c23660046149a9565b610d9e565b005b6104c76104d73660046149f9565b610e01565b6104fc6104ea3660046149f9565b60116020526000908152604090205481565b604051908152602001610498565b6104c7610518366004614a16565b5050505050565b601754610532906001600160a01b031681565b6040516001600160a01b039091168152602001610498565b6104fc610558366004614a71565b610f7f565b600c54610532906001600160a01b031681565b600154610532906001600160a01b031681565b6104c7610591366004614ac2565b61103d565b6104fc6105a43660046149f9565b600a6020526000908152604090205481565b61048c6105c4366004614aee565b611134565b6104fc6105d7366004614b0b565b611224565b6104c76105ea3660046149f9565b6112cb565b61048c6105fd366004614891565b611395565b600c5461048c90600160a01b900460ff1681565b6104c7610624366004614b24565b50505050565b436104fc565b6104c761063e366004614ac2565b6114bf565b6104c7610651366004614b6a565b505050505050565b6104fc6106673660046149f9565b60186020526000908152604090205481565b6104fc60065481565b610695610690366004614b24565b611521565b60408051938452602084019290925290820152606001610498565b6104fc6106be366004614bd8565b611561565b6104fc6106d1366004614b0b565b611602565b6104c76106e4366004614b24565b61165f565b6105326106f7366004614b0b565b6116ae565b6104fc61070a3660046149f9565b6116d8565b6104c761071d366004614ac2565b611751565b6104c7610730366004614bd8565b505050565b6106956107433660046149f9565b611848565b6104fc6107563660046149f9565b611883565b6104fc610769366004614c19565b6118fc565b6104c761077c366004614cc9565b6119fd565b6104c761078f366004614d99565b611bdb565b6104c7610624366004614a71565b6107da6107b03660046149f9565b6012602052600090815260409020546001600160e01b03811690600160e01b900463ffffffff1682565b604080516001600160e01b03909316835263ffffffff909116602083015201610498565b6104fc61080c3660046149f9565b611eba565b61048c61081f3660046149f9565b600e6020526000908152604090205460ff1681565b6104c7610518366004614c19565b61048c6108503660046149f9565b600d6020526000908152604090205460ff1681565b6104c76108733660046149f9565b611f43565b600454610532906001600160a01b031681565b6104fc610899366004614ac2565b611fef565b600c5461048c90600160b01b900460ff1681565b6107da6108c03660046149f9565b6013602052600090815260409020546001600160e01b03811690600160e01b900463ffffffff1682565b61091e6108f83660046149f9565b600b6020526000908152604090208054600182015460039092015460ff91821692911683565b6040805193151584526020840192909252151590820152606001610498565b61048c61094b366004614aee565b612091565b61048c61095e366004614e22565b6001600160a01b038082166000908152600b60209081526040808320938616835260029093019052205460ff1692915050565b6104fc60075481565b6104fc6109a83660046149f9565b60196020526000908152604090205481565b73fa372ff1547fa1a283b5112a4685f1358ce5574d610532565b6104fc6109e23660046149f9565b612178565b6104fc6109f53660046149f9565b612200565b610a106ec097ce7bc90715b34b9f100000000081565b6040516001600160e01b039091168152602001610498565b6104fc60105481565b610a44610a3f3660046149f9565b612329565b6040516104989190614e50565b600c5461048c90600160b81b900460ff1681565b610a4461239f565b6104fc610a7b366004614e22565b601460209081526000928352604080842090915290825290205481565b600254610532906001600160a01b031681565b6104fc610ab9366004614a71565b612401565b6104fc610acc3660046149f9565b601a6020526000908152604090205481565b610af1610aec366004614e9d565b61248c565b6040516104989190614ed2565b610b11610b0c366004614bd8565b612554565b60408051928352602083019190915201610498565b6104fc610b34366004614e22565b601560209081526000928352604080842090915290825290205481565b6104fc610b5f3660046149f9565b60166020526000908152604090205481565b6104fc610b7f366004614c19565b612772565b6104fc610b92366004614bd8565b612919565b610532610ba5366004614ac2565b612cec565b600354610532906001600160a01b031681565b61048c610bcb3660046149f9565b60096020526000908152604090205460ff1681565b6104fc610bee366004614ac2565b612d24565b600c5461048c90600160a81b900460ff1681565b6104fc60055481565b6104c7610c1e3660046149f9565b612eaf565b6104fc610c31366004614bd8565b612f13565b6104fc610c443660046149f9565b612f4e565b600054610532906001600160a01b031681565b6001600160a01b0382166000908152600b602052604081205460ff16610c9d5760405162461bcd60e51b8152600401610c9490614f0a565b60405180910390fd5b600c546001600160a01b0316331480610cc057506000546001600160a01b031633145b610cdc5760405162461bcd60e51b8152600401610c9490614f52565b6000546001600160a01b0316331480610cf757506001821515145b610d135760405162461bcd60e51b8152600401610c9490614f99565b6001600160a01b0383166000818152600e6020908152604091829020805460ff19168615159081179091558251938452606091840182905260069184019190915265426f72726f7760d01b6080840152908201527f71aec636243f9709bb0007ae15e9afb8150ab01716d75fd7573be5cc096e03b09060a0015b60405180910390a150805b92915050565b604080516001808252818301909252600091602080830190803683370190505090508281600081518110610dd457610dd4614fd0565b60200260200101906001600160a01b031690816001600160a01b0316815250506107308183600180611bdb565b806001600160a01b031663f851a4406040518163ffffffff1660e01b8152600401602060405180830381865afa158015610e3f573d6000803e3d6000fd5b505050506040513d601f19601f82011682018060405250810190610e639190614fe6565b6001600160a01b0316336001600160a01b031614610ed35760405162461bcd60e51b815260206004820152602760248201527f6f6e6c7920756e6974726f6c6c65722061646d696e2063616e206368616e676560448201526620627261696e7360c81b6064820152608401610c94565b806001600160a01b031663c1e803346040518163ffffffff1660e01b81526004016020604051808303816000875af1158015610f13573d6000803e3d6000fd5b505050506040513d601f19601f82011682018060405250810190610f379190615003565b15610f7c5760405162461bcd60e51b815260206004820152601560248201527418da185b99d9481b9bdd08185d5d1a1bdc9a5e9959605a1b6044820152606401610c94565b50565b6001600160a01b0384166000908152600b602052604081205460ff16610fa757506009611035565b60006040518060200160405280876001600160a01b031663aa5af0fd6040518163ffffffff1660e01b8152600401602060405180830381865afa158015610ff2573d6000803e3d6000fd5b505050506040513d601f19601f820116820180604052508101906110169190615003565b9052905061102486826132b3565b61102f868583613513565b60009150505b949350505050565b611045613679565b6110915760405162461bcd60e51b815260206004820152601960248201527f6f6e6c792061646d696e2063616e206772616e7420636f6d70000000000000006044820152606401610c94565b600061109d83836136a2565b905080156110ed5760405162461bcd60e51b815260206004820152601b60248201527f696e73756666696369656e7420636f6d7020666f72206772616e7400000000006044820152606401610c94565b604080516001600160a01b0385168152602081018490527f98b2f82a3a07f223a0be64b3d0f47711c64dccd1feafb94aa28156b38cd9695c910160405180910390a1505050565b600c546000906001600160a01b031633148061115a57506000546001600160a01b031633145b6111765760405162461bcd60e51b8152600401610c9490614f52565b6000546001600160a01b031633148061119157506001821515145b6111ad5760405162461bcd60e51b8152600401610c9490614f99565b600c8054831515600160b81b0260ff60b81b199091161790556040517fef159d9a32b2472e32b098f954f3ce62d232939f1c207070b584df1814de2de0906112189084906040808252600590820152645365697a6560d81b6060820152901515602082015260800190565b60405180910390a15090565b600080546001600160a01b0316331461127f5760405162461bcd60e51b815260206004820152601f60248201527f6f6e6c792061646d696e2063616e2073657420636c6f736520666163746f72006044820152606401610c94565b600580549083905560408051828152602081018590527f3b9670cf975d26958e754b57098eaa2ac914d8d2a31b83257997b9f346110fd991015b60405180910390a160005b9392505050565b6000546001600160a01b031633146113345760405162461bcd60e51b815260206004820152602660248201527f6f6e6c792061646d696e2063616e2073657420626f72726f772063617020677560448201526530b93234b0b760d11b6064820152608401610c94565b601780546001600160a01b038381166001600160a01b031983168117909355604080519190921680825260208201939093527feda98690e518e9a05f8ec6837663e188211b2da8f4906648b323f2c1d4434e29910160405180910390a15050565b6001600160a01b0382166000908152600b602052604081205460ff166113cd5760405162461bcd60e51b8152600401610c9490614f0a565b600c546001600160a01b03163314806113f057506000546001600160a01b031633145b61140c5760405162461bcd60e51b8152600401610c9490614f52565b6000546001600160a01b031633148061142757506001821515145b6114435760405162461bcd60e51b8152600401610c9490614f99565b6001600160a01b0383166000818152600d6020908152604091829020805460ff19168615159081179091558251938452606091840182905260049184019190915263135a5b9d60e21b6080840152908201527f71aec636243f9709bb0007ae15e9afb8150ab01716d75fd7573be5cc096e03b09060a001610d8d565b6114c7613679565b6115135760405162461bcd60e51b815260206004820152601d60248201527f6f6e6c792061646d696e2063616e2073657420636f6d702073706565640000006044820152606401610c94565b61151d82826137c7565b5050565b6000806000806000806115368a8a8a8a613afe565b92509250925082601181111561154e5761154e61501c565b95509093509150505b9450945094915050565b6001600160a01b0383166000908152600d602052604081205460ff16156115bb5760405162461bcd60e51b815260206004820152600e60248201526d1b5a5b9d081a5cc81c185d5cd95960921b6044820152606401610c94565b6001600160a01b0384166000908152600b602052604090205460ff166115e55760095b90506112c4565b6115ee84613e48565b6115f8848461409e565b6000949350505050565b600080546001600160a01b0316331461162157610d986001600b614242565b600680549083905560408051828152602081018590527faeba5a6c40a8ac138134bff1aaa65debf25971188a58804bad717f82f0ec131691016112b9565b8015801561166d5750600082115b156106245760405162461bcd60e51b815260206004820152601160248201527072656465656d546f6b656e73207a65726f60781b6044820152606401610c94565b600f81815481106116be57600080fd5b6000918252602090912001546001600160a01b0316905081565b600080546001600160a01b031633146116f757610d9860016010614242565b600480546001600160a01b038481166001600160a01b031983168117909355604080519190921680825260208201939093527fd52b2b9b7e9ee655fcb95d2e5b9e0c9f69e7ef2b8e9d2d0ea78402d576d22e2291016112b9565b611759613679565b6117a55760405162461bcd60e51b815260206004820152601d60248201527f6f6e6c792061646d696e2063616e2073657420636f6d702073706565640000006044820152606401610c94565b6117ae82611f43565b806000036117d4576001600160a01b0382166000908152601a60205260408120556117ef565b436001600160a01b0383166000908152601a60205260409020555b6001600160a01b03821660008181526019602052604090819020839055517f386537fa92edc3319af95f1f904dcf1900021e4f3f4e08169a577a09076e66b39061183c9084815260200190565b60405180910390a25050565b60008060008060008061185f876000806000613afe565b9250925092508260118111156118775761187761501c565b97919650945092505050565b600080546001600160a01b031633146118a257610d9860016013614242565b600c80546001600160a01b038481166001600160a01b031983168117909355604080519190921680825260208201939093527f0613b6ee6a04f0d09f390e4d9318894b9f6ac7fd83897cd8d18896ba579c401e91016112b9565b6001600160a01b0385166000908152600b602052604081205460ff16158061193d57506001600160a01b0385166000908152600b602052604090205460ff16155b1561194c5760095b90506119f4565b6040516395dd919360e01b81526001600160a01b038481166004830152600091908816906395dd919390602401602060405180830381865afa158015611996573d6000803e3d6000fd5b505050506040513d601f19601f820116820180604052508101906119ba9190615003565b905060006119d86040518060200160405280600554815250836142bb565b9050808411156119ed576011925050506119f4565b6000925050505b95945050505050565b6000546001600160a01b0316331480611a2057506017546001600160a01b031633145b611a8a5760405162461bcd60e51b815260206004820152603560248201527f6f6e6c792061646d696e206f7220626f72726f772063617020677561726469616044820152746e2063616e2073657420626f72726f77206361707360581b6064820152608401610c94565b82818115801590611a9a57508082145b611ad65760405162461bcd60e51b815260206004820152600d60248201526c1a5b9d985b1a59081a5b9c1d5d609a1b6044820152606401610c94565b60005b82811015611bd257848482818110611af357611af3614fd0565b9050602002013560186000898985818110611b1057611b10614fd0565b9050602002016020810190611b2591906149f9565b6001600160a01b03168152602081019190915260400160002055868682818110611b5157611b51614fd0565b9050602002016020810190611b6691906149f9565b6001600160a01b03167f6f1951b2aad10f3fc81b86d91105b413a5b3f847a34bbc5ce1904201b14438f6868684818110611ba257611ba2614fd0565b90506020020135604051611bb891815260200190565b60405180910390a280611bca81615048565b915050611ad9565b50505050505050565b60005b8351811015610518576000848281518110611bfb57611bfb614fd0565b6020908102919091018101516001600160a01b0381166000908152600b90925260409091205490915060ff16611c6b5760405162461bcd60e51b81526020600482015260156024820152741b585c9ad95d081b5d5cdd081899481b1a5cdd1959605a1b6044820152606401610c94565b831515600103611ddb5760006040518060200160405280836001600160a01b031663aa5af0fd6040518163ffffffff1660e01b8152600401602060405180830381865afa158015611cc0573d6000803e3d6000fd5b505050506040513d601f19601f82011682018060405250810190611ce49190615003565b90529050611cf282826132b3565b60005b8751811015611dd857611d2283898381518110611d1457611d14614fd0565b602002602001015184613513565b611d83888281518110611d3757611d37614fd0565b6020026020010151601660008b8581518110611d5557611d55614fd0565b60200260200101516001600160a01b03166001600160a01b03168152602001908152602001600020546136a2565b601660008a8481518110611d9957611d99614fd0565b60200260200101516001600160a01b03166001600160a01b03168152602001908152602001600020819055508080611dd090615048565b915050611cf5565b50505b821515600103611ea757611dee81613e48565b60005b8651811015611ea557611e1d82888381518110611e1057611e10614fd0565b602002602001015161409e565b611e50878281518110611e3257611e32614fd0565b6020026020010151601660008a8581518110611d5557611d55614fd0565b60166000898481518110611e6657611e66614fd0565b60200260200101516001600160a01b03166001600160a01b03168152602001908152602001600020819055508080611e9d90615048565b915050611df1565b505b5080611eb281615048565b915050611bde565b6001600160a01b03811660009081526009602052604081205460ff161515600114611f275760405162461bcd60e51b815260206004820152601f60248201527f41646472657373206e6f74207065726d697474656420746f20626f72726f77006044820152606401610c94565b506001600160a01b03166000908152600a602052604090205490565b6001600160a01b038116600090815260196020908152604080832054601a90925282205490914391611f769083906142d3565b9050600081118015611f885750600083115b15610624576000611f9982856142df565b6001600160a01b03861660009081526016602052604081205491925090611fc090836142eb565b6001600160a01b038716600090815260166020908152604080832093909355601a905220849055505050505050565b600080546001600160a01b03163314158061202857506001600160a01b03831660009081526009602052604090205460ff161515600114155b156120405761203960016014614242565b9050610d98565b6001600160a01b0383166000818152600a6020908152604091829020859055815192835282018490527fe3443d75173e872722db2eea82e110ccd8843f3e0424238f2cd44df9bfbf6c1a9101610d8d565b600c546000906001600160a01b03163314806120b757506000546001600160a01b031633145b6120d35760405162461bcd60e51b8152600401610c9490614f52565b6000546001600160a01b03163314806120ee57506001821515145b61210a5760405162461bcd60e51b8152600401610c9490614f99565b600c8054831515600160b01b0260ff60b01b199091161790556040517fef159d9a32b2472e32b098f954f3ce62d232939f1c207070b584df1814de2de0906112189084906040808252600890820152672a3930b739b332b960c11b6060820152901515602082015260800190565b600080546001600160a01b0316331461219757610d9860016014614242565b6001600160a01b0382166000818152600960209081526040808320805460ff19166001179055600a82528083209290925590519182527f3df9dd335cae22b62876375e06362e2fbe8ab586f724f378560e1aaa06bc00d7910160405180910390a1506000919050565b600080546001600160a01b0316331461221f57610d9860016012614242565b6001600160a01b0382166000908152600b602052604090205460ff161561224c57610d98600a6011614242565b816001600160a01b031663fe9c44ae6040518163ffffffff1660e01b8152600401602060405180830381865afa15801561228a573d6000803e3d6000fd5b505050506040513d601f19601f820116820180604052508101906122ae9190615061565b506001600160a01b0382166000908152600b602052604081208054600160ff19918216811783556003830180549092169091558101919091556122f0836142f7565b6040516001600160a01b03841681527fcf583bb0c569eb967f806b11601c4cb93c10310485c67add5f8362c2f212321f906020016112b9565b6001600160a01b038116600090815260086020908152604080832080548251818502810185019093528083526060949383018282801561239257602002820191906000526020600020905b81546001600160a01b03168152600190910190602001808311612374575b5093979650505050505050565b6060600f8054806020026020016040519081016040528092919081815260200182805480156123f757602002820191906000526020600020905b81546001600160a01b031681526001909101906020018083116123d9575b5050505050905090565b600c54600090600160b01b900460ff16156124535760405162461bcd60e51b81526020600482015260126024820152711d1c985b9cd9995c881a5cc81c185d5cd95960721b6044820152606401610c94565b60006124608686856143df565b9050801561246f579050611035565b61247886613e48565b612482868661409e565b61102f868561409e565b805160609060008167ffffffffffffffff8111156124ac576124ac6148ca565b6040519080825280602002602001820160405280156124d5578160200160208202803683370190505b50905060005b8281101561254c5760008582815181106124f7576124f7614fd0565b6020026020010151905061250b813361443e565b601181111561251c5761251c61501c565b83838151811061252e5761252e614fd0565b6020908102919091010152508061254481615048565b9150506124db565b509392505050565b6004805460405163fc57d4df60e01b81526001600160a01b03868116938201939093526000928392839291169063fc57d4df90602401602060405180830381865afa1580156125a7573d6000803e3d6000fd5b505050506040513d601f19601f820116820180604052508101906125cb9190615003565b6004805460405163fc57d4df60e01b81526001600160a01b038981169382019390935292935060009291169063fc57d4df90602401602060405180830381865afa15801561261d573d6000803e3d6000fd5b505050506040513d601f19601f820116820180604052508101906126419190615003565b905081158061264e575080155b1561266257600d600093509350505061276a565b6000866001600160a01b031663182df0f56040518163ffffffff1660e01b8152600401602060405180830381865afa1580156126a2573d6000803e3d6000fd5b505050506040513d601f19601f820116820180604052508101906126c69190615003565b905060006126e06040518060200160405280600081525090565b60408051602080820183526000808352835180830185529081528351808301855260065481528451928301909452888252919261271c91614532565b9250612744604051806020016040528088815250604051806020016040528088815250614532565b9150612750838361457a565b905061275c818b6142bb565b600099509750505050505050505b935093915050565b600c54600090600160b81b900460ff16156127c15760405162461bcd60e51b815260206004820152600f60248201526e1cd95a5e99481a5cc81c185d5cd959608a1b6044820152606401610c94565b6001600160a01b0386166000908152600b602052604090205460ff16158061280257506001600160a01b0385166000908152600b602052604090205460ff16155b1561280e576009611945565b846001600160a01b0316635fe3b5676040518163ffffffff1660e01b8152600401602060405180830381865afa15801561284c573d6000803e3d6000fd5b505050506040513d601f19601f820116820180604052508101906128709190614fe6565b6001600160a01b0316866001600160a01b0316635fe3b5676040518163ffffffff1660e01b8152600401602060405180830381865afa1580156128b7573d6000803e3d6000fd5b505050506040513d601f19601f820116820180604052508101906128db9190614fe6565b6001600160a01b0316146128f0576002611945565b6128f986613e48565b612903868461409e565b61290d868561409e565b60009695505050505050565b6001600160a01b0383166000908152600e602052604081205460ff16156129755760405162461bcd60e51b815260206004820152601060248201526f189bdc9c9bddc81a5cc81c185d5cd95960821b6044820152606401610c94565b6001600160a01b0384166000908152600b602052604090205460ff1661299c5760096115de565b6001600160a01b038085166000908152600b60209081526040808320938716835260029093019052205460ff16612a9957336001600160a01b03851614612a1d5760405162461bcd60e51b815260206004820152601560248201527439b2b73232b91036bab9ba1031329031aa37b5b2b760591b6044820152606401610c94565b6000612a29338561443e565b90506000816011811115612a3f57612a3f61501c565b14612a5e57806011811115612a5657612a5661501c565b9150506112c4565b6001600160a01b038086166000908152600b60209081526040808320938816835260029093019052205460ff16612a9757612a9761507e565b505b6004805460405163fc57d4df60e01b81526001600160a01b038781169382019390935291169063fc57d4df90602401602060405180830381865afa158015612ae5573d6000803e3d6000fd5b505050506040513d601f19601f82011682018060405250810190612b099190615003565b600003612b1757600d6115de565b6001600160a01b0384166000908152601860205260409020548015612bfc576000856001600160a01b03166347bd37186040518163ffffffff1660e01b8152600401602060405180830381865afa158015612b76573d6000803e3d6000fd5b505050506040513d601f19601f82011682018060405250810190612b9a9190615003565b90506000612ba882866142eb565b9050828110612bf95760405162461bcd60e51b815260206004820152601960248201527f6d61726b657420626f72726f77206361702072656163686564000000000000006044820152606401610c94565b50505b600080612c0c8688600088613afe565b91935090915060009050826011811115612c2857612c2861501c565b14612c4957816011811115612c3f57612c3f61501c565b93505050506112c4565b8015612c56576004612c3f565b60006040518060200160405280896001600160a01b031663aa5af0fd6040518163ffffffff1660e01b8152600401602060405180830381865afa158015612ca1573d6000803e3d6000fd5b505050506040513d601f19601f82011682018060405250810190612cc59190615003565b90529050612cd388826132b3565b612cde888883613513565b600098975050505050505050565b60086020528160005260406000208181548110612d0857600080fd5b6000918252602090912001546001600160a01b03169150829050565b600080546001600160a01b03163314612d435761203960016006614242565b6001600160a01b0383166000908152600b60205260409020805460ff16612d7857612d7060096007614242565b915050610d98565b60408051602080820183528582528251908101909252670c7d713b49da0000825290612da681835190511090565b15612dc157612db760066008614242565b9350505050610d98565b8415801590612e3d57506004805460405163fc57d4df60e01b81526001600160a01b038981169382019390935291169063fc57d4df90602401602060405180830381865afa158015612e17573d6000803e3d6000fd5b505050506040513d601f19601f82011682018060405250810190612e3b9190615003565b155b15612e4e57612db7600d6009614242565b60018301805490869055604080516001600160a01b0389168152602081018390529081018790527f70483e6592cd5182d45ac970e05bc62cdcc90e9d8ef2c2dbe686cf383bcd7fc59060600160405180910390a16000979650505050505050565b610f7c81600f805480602002602001604051908101604052809291908181526020018280548015612f0957602002820191906000526020600020905b81546001600160a01b03168152600190910190602001808311612eeb575b5050505050610d9e565b600080612f218585856143df565b90508015612f305790506112c4565b612f3985613e48565b612f43858561409e565b600095945050505050565b6040516361bfb47160e11b815233600482015260009082908290819081906001600160a01b0385169063c37f68e290602401608060405180830381865afa158015612f9d573d6000803e3d6000fd5b505050506040513d601f19601f82011682018060405250810190612fc19190615094565b50925092509250826000146130265760405162461bcd60e51b815260206004820152602560248201527f657869744d61726b65743a206765744163636f756e74536e617073686f742066604482015264185a5b195960da1b6064820152608401610c94565b801561304257613038600c6002614242565b9695505050505050565b600061304f8733856143df565b9050801561306f57613064600e6003836145b4565b979650505050505050565b6001600160a01b0385166000908152600b60209081526040808320338452600281019092529091205460ff166130ad57600098975050505050505050565b3360009081526002820160209081526040808320805460ff19169055600882528083208054825181850281018501909352808352919290919083018282801561311f57602002820191906000526020600020905b81546001600160a01b03168152600190910190602001808311613101575b5050835193945083925060009150505b8281101561318357896001600160a01b031684828151811061315357613153614fd0565b60200260200101516001600160a01b03160361317157809150613183565b8061317b81615048565b91505061312f565b508181106131935761319361507e565b336000908152600860205260409020805481906131b2906001906150ca565b815481106131c2576131c2614fd0565b9060005260206000200160009054906101000a90046001600160a01b03168183815481106131f2576131f2614fd0565b9060005260206000200160006101000a8154816001600160a01b0302191690836001600160a01b0316021790555080805480613230576132306150e1565b600082815260209020810160001990810180546001600160a01b03191690550190556040517fe699a64c18b07ac5b7301aa273f36a2287239eb9501d81950672794afba29a0d90613299908c9033906001600160a01b0392831681529116602082015260400190565b60405180910390a160009c9b505050505050505050505050565b6001600160a01b0382166000908152601360209081526040808320601190925282205490914383549091506000906132f9908390600160e01b900463ffffffff166142d3565b905060008111801561330b5750600083115b156134b957600061337d876001600160a01b03166347bd37186040518163ffffffff1660e01b8152600401602060405180830381865afa158015613353573d6000803e3d6000fd5b505050506040513d601f19601f820116820180604052508101906133779190615003565b8761462c565b9050600061338b83866142df565b905060008083116133ab57604051806020016040528060008152506133b5565b6133b5828461464a565b604080516020810190915288546001600160e01b031681529091506000906133dd9083614686565b9050604051806040016040528061342d83600001516040518060400160405280601a81526020017f6e657720696e64657820657863656564732032323420626974730000000000008152506146b2565b6001600160e01b03168152602001613468886040518060400160405280601c81526020016000805160206151a68339815191528152506146e1565b63ffffffff9081169091526001600160a01b038c16600090815260136020908152604090912083519390910151909116600160e01b026001600160e01b039092169190911790555061065192505050565b8015610651576134ec826040518060400160405280601c81526020016000805160206151a68339815191528152506146e1565b845463ffffffff91909116600160e01b026001600160e01b03909116178455505050505050565b6001600160a01b0380841660008181526013602090815260408083208151808401835281546001600160e01b0316815282518085018452958552601584528285209689168086528785529285208054875281519390955295909252909155815190929190156106515760006135888383614709565b6040516395dd919360e01b81526001600160a01b0388811660048301529192506000916135d991908a16906395dd919390602401602060405180830381865afa158015613353573d6000803e3d6000fd5b905060006135e78284614735565b6001600160a01b0389166000908152601660205260408120549192509061360e90836142eb565b6001600160a01b038a81166000818152601660209081526040918290208590558a518251888152918201529394509092918d16917f1fc3ecc087d8d2d15e23d0032af5a47059c3892d003d8e139fdcb6bb327c99a6910160405180910390a350505050505050505050565b600080546001600160a01b031633148061369d57506002546001600160a01b031633145b905090565b60008073fa372ff1547fa1a283b5112a4685f1358ce5574d6040516370a0823160e01b81523060048201529091506000906001600160a01b038316906370a0823190602401602060405180830381865afa158015613704573d6000803e3d6000fd5b505050506040513d601f19601f820116820180604052508101906137289190615003565b905060008411801561373a5750808411155b156137be5760405163a9059cbb60e01b81526001600160a01b0386811660048301526024820186905283169063a9059cbb906044016020604051808303816000875af115801561378e573d6000803e3d6000fd5b505050506040513d601f19601f820116820180604052508101906137b29190615061565b50600092505050610d98565b50919392505050565b6001600160a01b03821660009081526011602052604090205480156138725760006040518060200160405280856001600160a01b031663aa5af0fd6040518163ffffffff1660e01b8152600401602060405180830381865afa158015613831573d6000803e3d6000fd5b505050506040513d601f19601f820116820180604052508101906138559190615003565b9052905061386284613e48565b61386c84826132b3565b50613a9d565b8115613a9d576001600160a01b0383166000908152600b60205260409020805460ff1615156001146138e65760405162461bcd60e51b815260206004820152601960248201527f636f6d70206d61726b6574206973206e6f74206c6973746564000000000000006044820152606401610c94565b6001600160a01b0384166000908152601260205260409020546001600160e01b031615801561393857506001600160a01b038416600090815260126020526040902054600160e01b900463ffffffff16155b156139d357604080518082019091526ec097ce7bc90715b34b9f100000000081526020810161398b435b6040518060400160405280601c81526020016000805160206151a68339815191528152506146e1565b63ffffffff9081169091526001600160a01b038616600090815260126020908152604090912083519390910151909116600160e01b026001600160e01b039092169190911790555b6001600160a01b0384166000908152601360205260409020546001600160e01b0316158015613a2557506001600160a01b038416600090815260136020526040902054600160e01b900463ffffffff16155b15613a9b57604080518082019091526ec097ce7bc90715b34b9f1000000000815260208101613a5343613962565b63ffffffff9081169091526001600160a01b038616600090815260136020908152604090912083519390910151909116600160e01b026001600160e01b039092169190911790555b505b818114610730576001600160a01b03831660008181526011602052604090819020849055517f2ab93f65628379309f36cb125e90d7c902454a545c4f8b8cb0794af75c24b80790613af19085815260200190565b60405180910390a2505050565b6000806000613b0b6147cc565b6001600160a01b038816600090815260086020908152604080832080548251818502810185019093528083528493830182828015613b7257602002820191906000526020600020905b81546001600160a01b03168152600190910190602001808311613b54575b5050506001600160a01b038d166000908152600a6020526040812054875292935050505b8151811015613df2576000828281518110613bb357613bb3614fd0565b60209081029190910101516040516361bfb47160e11b81526001600160a01b038e811660048301529192509082169063c37f68e290602401608060405180830381865afa158015613c08573d6000803e3d6000fd5b505050506040513d601f19601f82011682018060405250810190613c2c9190615094565b60808901526060880152604087015293508315613c5857600f6000809750975097505050505050611557565b60408051602080820183526001600160a01b038481166000818152600b845285902060010154845260c08a01939093528351808301855260808a0151815260e08a015260048054855163fc57d4df60e01b815291820194909452935192169263fc57d4df92602480830193928290030181865afa158015613cdd573d6000803e3d6000fd5b505050506040513d601f19601f82011682018060405250810190613d019190615003565b60a08601819052600003613d2457600d6000809750975097505050505050611557565b604080516020810190915260a0860151815261010086015260c085015160e0860151613d5e91613d5391614532565b866101000151614532565b610120860181905260408601518651613d7892919061475f565b855261010085015160608601516020870151613d9592919061475f565b60208601526001600160a01b03808c1690821603613ddf57613dc18561012001518b876020015161475f565b60208601819052610100860151613dd9918b9061475f565b60208601525b5080613dea81615048565b915050613b96565b50602083015183511115613e235760208301518351600091613e13916150ca565b6000955095509550505050611557565b60008084600001518560200151613e3a91906150ca565b955095509550505050611557565b6001600160a01b038116600090815260126020908152604080832060119092528220549091438354909150600090613e8e908390600160e01b900463ffffffff166142d3565b9050600081118015613ea05750600083115b15614045576000856001600160a01b03166318160ddd6040518163ffffffff1660e01b8152600401602060405180830381865afa158015613ee5573d6000803e3d6000fd5b505050506040513d601f19601f82011682018060405250810190613f099190615003565b90506000613f1783866142df565b90506000808311613f375760405180602001604052806000815250613f41565b613f41828461464a565b604080516020810190915288546001600160e01b03168152909150600090613f699083614686565b90506040518060400160405280613fb983600001516040518060400160405280601a81526020017f6e657720696e64657820657863656564732032323420626974730000000000008152506146b2565b6001600160e01b03168152602001613ff4886040518060400160405280601c81526020016000805160206151a68339815191528152506146e1565b63ffffffff9081169091526001600160a01b038b16600090815260126020908152604090912083519390910151909116600160e01b026001600160e01b039092169190911790555061051892505050565b801561051857614078826040518060400160405280601c81526020016000805160206151a68339815191528152506146e1565b845463ffffffff91909116600160e01b026001600160e01b039091161784555050505050565b6001600160a01b0380831660008181526012602090815260408083208151808401835281546001600160e01b031681528251808501845295855260148452828520968816808652878552928520805487528151939095529590925290915581519092919015801561410f5750815115155b15614127576ec097ce7bc90715b34b9f100000000081525b60006141338383614709565b6040516370a0823160e01b81526001600160a01b0387811660048301529192506000918816906370a0823190602401602060405180830381865afa15801561417f573d6000803e3d6000fd5b505050506040513d601f19601f820116820180604052508101906141a39190615003565b905060006141b18284614735565b6001600160a01b038816600090815260166020526040812054919250906141d890836142eb565b6001600160a01b038981166000818152601660209081526040918290208590558a518251888152918201529394509092918c16917f2caecd17d02f56fa897705dcc740da2d237c373f70686f4e0d9bd3bf0400ea7a910160405180910390a3505050505050505050565b60007f45b96fe442630264581b197e84bbada861235052c5a1aadfff9ea4e40a969aa08360118111156142775761427761501c565b8360148111156142895761428961501c565b60408051928352602083019190915260009082015260600160405180910390a18260118111156112c4576112c461501c565b6000806142c88484614780565b9050611035816147a8565b60006112c482846150ca565b60006112c482846150f7565b60006112c48284615116565b60005b600f5481101561438c57816001600160a01b0316600f828154811061432157614321614fd0565b6000918252602090912001546001600160a01b03160361437a5760405162461bcd60e51b81526020600482015260146024820152731b585c9ad95d08185b1c9958591e48185919195960621b6044820152606401610c94565b8061438481615048565b9150506142fa565b50600f80546001810182556000919091527f8d1108e10bcb7c27dddfc02ed9d693a074039d026cf4ea4240b40f7d581ac8020180546001600160a01b0319166001600160a01b0392909216919091179055565b6001600160a01b0383166000908152600b602052604081205460ff166144065760096115de565b6001600160a01b038085166000908152600b60209081526040808320938716835260029093019052205460ff166115f85760006115de565b6001600160a01b0382166000908152600b60205260408120805460ff16614469576009915050610d98565b6001600160a01b038316600090815260028201602052604090205460ff16151560010361449a576000915050610d98565b6001600160a01b03838116600081815260028401602090815260408083208054600160ff199091168117909155600883528184208054918201815584529282902090920180546001600160a01b031916948916948517905581519384528301919091527f3ab23ab0d51cccc0c3085aec51f99228625aa1a922b3a8ca89a26b0f2027a1a5910160405180910390a15060009392505050565b6040805160208101909152600081526040518060200160405280670de0b6b3a7640000614567866000015186600001516142df565b614571919061512e565b90529392505050565b60408051602081019091526000815260405180602001604052806145716145ad8660000151670de0b6b3a76400006142df565b85516147c0565b60007f45b96fe442630264581b197e84bbada861235052c5a1aadfff9ea4e40a969aa08460118111156145e9576145e961501c565b8460148111156145fb576145fb61501c565b604080519283526020830191909152810184905260600160405180910390a18360118111156110355761103561501c565b60006112c461464384670de0b6b3a76400006142df565b83516147c0565b6040805160208101909152600081526040518060200160405280614571614680866ec097ce7bc90715b34b9f10000000006142df565b856147c0565b6040805160208101909152600081526040518060200160405280614571856000015185600001516142eb565b600081600160e01b84106146d95760405162461bcd60e51b8152600401610c949190615150565b509192915050565b60008164010000000084106146d95760405162461bcd60e51b8152600401610c949190615150565b6040805160208101909152600081526040518060200160405280614571856000015185600001516142d3565b60006ec097ce7bc90715b34b9f10000000006147558484600001516142df565b6112c4919061512e565b60008061476c8585614780565b90506119f461477a826147a8565b846142eb565b60408051602081019091526000815260405180602001604052806145718560000151856142df565b8051600090610d9890670de0b6b3a76400009061512e565b60006112c4828461512e565b6040518061014001604052806000815260200160008152602001600081526020016000815260200160008152602001600081526020016148186040518060200160405280600081525090565b81526020016148336040518060200160405280600081525090565b815260200161484e6040518060200160405280600081525090565b81526020016148696040518060200160405280600081525090565b905290565b6001600160a01b0381168114610f7c57600080fd5b8015158114610f7c57600080fd5b600080604083850312156148a457600080fd5b82356148af8161486e565b915060208301356148bf81614883565b809150509250929050565b634e487b7160e01b600052604160045260246000fd5b604051601f8201601f1916810167ffffffffffffffff81118282101715614909576149096148ca565b604052919050565b600067ffffffffffffffff82111561492b5761492b6148ca565b5060051b60200190565b600082601f83011261494657600080fd5b8135602061495b61495683614911565b6148e0565b82815260059290921b8401810191818101908684111561497a57600080fd5b8286015b8481101561499e5780356149918161486e565b835291830191830161497e565b509695505050505050565b600080604083850312156149bc57600080fd5b82356149c78161486e565b9150602083013567ffffffffffffffff8111156149e357600080fd5b6149ef85828601614935565b9150509250929050565b600060208284031215614a0b57600080fd5b81356112c48161486e565b600080600080600060a08688031215614a2e57600080fd5b8535614a398161486e565b94506020860135614a498161486e565b93506040860135614a598161486e565b94979396509394606081013594506080013592915050565b60008060008060808587031215614a8757600080fd5b8435614a928161486e565b93506020850135614aa28161486e565b92506040850135614ab28161486e565b9396929550929360600135925050565b60008060408385031215614ad557600080fd5b8235614ae08161486e565b946020939093013593505050565b600060208284031215614b0057600080fd5b81356112c481614883565b600060208284031215614b1d57600080fd5b5035919050565b60008060008060808587031215614b3a57600080fd5b8435614b458161486e565b93506020850135614b558161486e565b93969395505050506040820135916060013590565b60008060008060008060c08789031215614b8357600080fd5b8635614b8e8161486e565b95506020870135614b9e8161486e565b94506040870135614bae8161486e565b93506060870135614bbe8161486e565b9598949750929560808101359460a0909101359350915050565b600080600060608486031215614bed57600080fd5b8335614bf88161486e565b92506020840135614c088161486e565b929592945050506040919091013590565b600080600080600060a08688031215614c3157600080fd5b8535614c3c8161486e565b94506020860135614c4c8161486e565b93506040860135614c5c8161486e565b92506060860135614c6c8161486e565b949793965091946080013592915050565b60008083601f840112614c8f57600080fd5b50813567ffffffffffffffff811115614ca757600080fd5b6020830191508360208260051b8501011115614cc257600080fd5b9250929050565b60008060008060408587031215614cdf57600080fd5b843567ffffffffffffffff80821115614cf757600080fd5b614d0388838901614c7d565b90965094506020870135915080821115614d1c57600080fd5b50614d2987828801614c7d565b95989497509550505050565b600082601f830112614d4657600080fd5b81356020614d5661495683614911565b82815260059290921b84018101918181019086841115614d7557600080fd5b8286015b8481101561499e578035614d8c8161486e565b8352918301918301614d79565b60008060008060808587031215614daf57600080fd5b843567ffffffffffffffff80821115614dc757600080fd5b614dd388838901614d35565b95506020870135915080821115614de957600080fd5b50614df687828801614935565b9350506040850135614e0781614883565b91506060850135614e1781614883565b939692955090935050565b60008060408385031215614e3557600080fd5b8235614e408161486e565b915060208301356148bf8161486e565b6020808252825182820181905260009190848201906040850190845b81811015614e915783516001600160a01b031683529284019291840191600101614e6c565b50909695505050505050565b600060208284031215614eaf57600080fd5b813567ffffffffffffffff811115614ec657600080fd5b61103584828501614d35565b6020808252825182820181905260009190848201906040850190845b81811015614e9157835183529284019291840191600101614eee565b60208082526028908201527f63616e6e6f742070617573652061206d61726b65742074686174206973206e6f6040820152671d081b1a5cdd195960c21b606082015260800190565b60208082526027908201527f6f6e6c7920706175736520677561726469616e20616e642061646d696e2063616040820152666e20706175736560c81b606082015260800190565b60208082526016908201527f6f6e6c792061646d696e2063616e20756e706175736500000000000000000000604082015260600190565b634e487b7160e01b600052603260045260246000fd5b600060208284031215614ff857600080fd5b81516112c48161486e565b60006020828403121561501557600080fd5b5051919050565b634e487b7160e01b600052602160045260246000fd5b634e487b7160e01b600052601160045260246000fd5b60006001820161505a5761505a615032565b5060010190565b60006020828403121561507357600080fd5b81516112c481614883565b634e487b7160e01b600052600160045260246000fd5b600080600080608085870312156150aa57600080fd5b505082516020840151604085015160609095015191969095509092509050565b6000828210156150dc576150dc615032565b500390565b634e487b7160e01b600052603160045260246000fd5b600081600019048311821515161561511157615111615032565b500290565b6000821982111561512957615129615032565b500190565b60008261514b57634e487b7160e01b600052601260045260246000fd5b500490565b600060208083528351808285015260005b8181101561517d57858101830151858201604001528201615161565b8181111561518f576000604083870101525b50601f01601f191692909201604001939250505056fe626c6f636b206e756d6265722065786365656473203332206269747300000000a26469706673582212207f39fc0c2ab51b946d47127076c4281ff9830ea288581a9201620c084b6a2a1964736f6c634300080d0033",
  "devdoc": {
    "author": "Compound",
    "kind": "dev",
    "methods": {
      "_grantComp(address,uint256)": {
        "details": "Note: If there is not enough COMP, we do not perform the transfer all.",
        "params": {
          "amount": "The amount of COMP to (possibly) transfer",
          "recipient": "The address of the recipient to transfer COMP to"
        }
      },
      "_setBorrowCapGuardian(address)": {
        "params": {
          "newBorrowCapGuardian": "The address of the new Borrow Cap Guardian"
        }
      },
      "_setCloseFactor(uint256)": {
        "details": "Admin function to set closeFactor",
        "params": {
          "newCloseFactorMantissa": "New close factor, scaled by 1e18"
        },
        "returns": {
          "_0": "uint 0=success, otherwise a failure"
        }
      },
      "_setCollateralFactor(address,uint256)": {
        "details": "Admin function to set per-market collateralFactor",
        "params": {
          "cToken": "The market to set the factor on",
          "newCollateralFactorMantissa": "The new collateral factor, scaled by 1e18"
        },
        "returns": {
          "_0": "uint 0=success, otherwise a failure. (See ErrorReporter for details)"
        }
      },
      "_setCompSpeed(address,uint256)": {
        "params": {
          "cToken": "The market whose COMP speed to update",
          "compSpeed": "New COMP speed for market"
        }
      },
      "_setContributorCompSpeed(address,uint256)": {
        "params": {
          "compSpeed": "New COMP speed for contributor",
          "contributor": "The contributor whose COMP speed to update"
        }
      },
      "_setLiquidationIncentive(uint256)": {
        "details": "Admin function to set liquidationIncentive",
        "params": {
          "newLiquidationIncentiveMantissa": "New liquidationIncentive scaled by 1e18"
        },
        "returns": {
          "_0": "uint 0=success, otherwise a failure. (See ErrorReporter for details)"
        }
      },
      "_setMarketBorrowCaps(address[],uint256[])": {
        "details": "Admin or borrowCapGuardian function to set the borrow caps. A borrow cap of 0 corresponds to unlimited borrowing.",
        "params": {
          "cTokens": "The addresses of the markets (tokens) to change the borrow caps for",
          "newBorrowCaps": "The new borrow cap values in underlying to be set. A value of 0 corresponds to unlimited borrowing."
        }
      },
      "_setPauseGuardian(address)": {
        "params": {
          "newPauseGuardian": "The address of the new Pause Guardian"
        },
        "returns": {
          "_0": "uint 0=success, otherwise a failure. (See enum Error for details)"
        }
      },
      "_setPriceOracle(address)": {
        "details": "Admin function to set a new price oracle",
        "returns": {
          "_0": "uint 0=success, otherwise a failure (see ErrorReporter.sol for details)"
        }
      },
      "_supportMarket(address)": {
        "details": "Admin function to set isListed and add support for the market",
        "params": {
          "cToken": "The address of the market (token) to list"
        },
        "returns": {
          "_0": "uint 0=success, otherwise a failure. (See enum Error for details)"
        }
      },
      "borrowAllowed(address,address,uint256)": {
        "params": {
          "borrowAmount": "The amount of underlying the account would borrow",
          "borrower": "The account which would borrow the asset",
          "cToken": "The market to verify the borrow against"
        },
        "returns": {
          "_0": "0 if the borrow is allowed, otherwise a semi-opaque error code (See ErrorReporter.sol)"
        }
      },
      "borrowVerify(address,address,uint256)": {
        "params": {
          "borrowAmount": "The amount of the underlying asset requested to borrow",
          "borrower": "The address borrowing the underlying",
          "cToken": "Asset whose underlying is being borrowed"
        }
      },
      "checkMembership(address,address)": {
        "params": {
          "account": "The address of the account to check",
          "cToken": "The cToken to check"
        },
        "returns": {
          "_0": "True if the account is in the asset, otherwise false."
        }
      },
      "claimComp(address)": {
        "params": {
          "holder": "The address to claim COMP for"
        }
      },
      "claimComp(address,address[])": {
        "params": {
          "cTokens": "The list of markets to claim COMP in",
          "holder": "The address to claim COMP for"
        }
      },
      "claimComp(address[],address[],bool,bool)": {
        "params": {
          "borrowers": "Whether or not to claim COMP earned by borrowing",
          "cTokens": "The list of markets to claim COMP in",
          "holders": "The addresses to claim COMP for",
          "suppliers": "Whether or not to claim COMP earned by supplying"
        }
      },
      "enterMarkets(address[])": {
        "params": {
          "cTokens": "The list of addresses of the cToken markets to be enabled"
        },
        "returns": {
          "_0": "Success indicator for whether each corresponding market was entered"
        }
      },
      "exitMarket(address)": {
        "details": "Sender must not have an outstanding borrow balance in the asset,  or be providing necessary collateral for an outstanding borrow.",
        "params": {
          "cTokenAddress": "The address of the asset to be removed"
        },
        "returns": {
          "_0": "Whether or not the account successfully exited the market"
        }
      },
      "getAccountLiquidity(address)": {
        "returns": {
          "_0": "(possible error code (semi-opaque), account liquidity in excess of collateral requirements,          account shortfall below collateral requirements)"
        }
      },
      "getAllMarkets()": {
        "details": "The automatic getter may be used to access an individual market.",
        "returns": {
          "_0": "The list of market addresses"
        }
      },
      "getAssetsIn(address)": {
        "params": {
          "account": "The address of the account to pull assets for"
        },
        "returns": {
          "_0": "A dynamic list with the assets the account has entered"
        }
      },
      "getCompAddress()": {
        "returns": {
          "_0": "The address of COMP"
        }
      },
      "getHypotheticalAccountLiquidity(address,address,uint256,uint256)": {
        "params": {
          "account": "The account to determine liquidity for",
          "borrowAmount": "The amount of underlying to hypothetically borrow",
          "cTokenModify": "The market to hypothetically redeem/borrow in",
          "redeemTokens": "The number of tokens to hypothetically redeem"
        },
        "returns": {
          "_0": "(possible error code (semi-opaque), hypothetical account liquidity in excess of collateral requirements,          hypothetical account shortfall below collateral requirements)"
        }
      },
      "liquidateBorrowAllowed(address,address,address,address,uint256)": {
        "params": {
          "borrower": "The address of the borrower",
          "cTokenBorrowed": "Asset which was borrowed by the borrower",
          "cTokenCollateral": "Asset which was used as collateral and will be seized",
          "liquidator": "The address repaying the borrow and seizing the collateral",
          "repayAmount": "The amount of underlying being repaid"
        }
      },
      "liquidateBorrowVerify(address,address,address,address,uint256,uint256)": {
        "params": {
          "actualRepayAmount": "The amount of underlying being repaid",
          "borrower": "The address of the borrower",
          "cTokenBorrowed": "Asset which was borrowed by the borrower",
          "cTokenCollateral": "Asset which was used as collateral and will be seized",
          "liquidator": "The address repaying the borrow and seizing the collateral"
        }
      },
      "liquidateCalculateSeizeTokens(address,address,uint256)": {
        "details": "Used in liquidation (called in cToken.liquidateBorrowFresh)",
        "params": {
          "actualRepayAmount": "The amount of cTokenBorrowed underlying to convert into cTokenCollateral tokens",
          "cTokenBorrowed": "The address of the borrowed cToken",
          "cTokenCollateral": "The address of the collateral cToken"
        },
        "returns": {
          "_0": "(errorCode, number of cTokenCollateral tokens to be seized in a liquidation)"
        }
      },
      "mintAllowed(address,address,uint256)": {
        "params": {
          "cToken": "The market to verify the mint against",
          "mintAmount": "The amount of underlying being supplied to the market in exchange for tokens",
          "minter": "The account which would get the minted tokens"
        },
        "returns": {
          "_0": "0 if the mint is allowed, otherwise a semi-opaque error code (See ErrorReporter.sol)"
        }
      },
      "mintVerify(address,address,uint256,uint256)": {
        "params": {
          "actualMintAmount": "The amount of the underlying asset being minted",
          "cToken": "Asset being minted",
          "mintTokens": "The number of tokens being minted",
          "minter": "The address minting the tokens"
        }
      },
      "redeemAllowed(address,address,uint256)": {
        "params": {
          "cToken": "The market to verify the redeem against",
          "redeemTokens": "The number of cTokens to exchange for the underlying asset in the market",
          "redeemer": "The account which would redeem the tokens"
        },
        "returns": {
          "_0": "0 if the redeem is allowed, otherwise a semi-opaque error code (See ErrorReporter.sol)"
        }
      },
      "redeemVerify(address,address,uint256,uint256)": {
        "params": {
          "cToken": "Asset being redeemed",
          "redeemAmount": "The amount of the underlying asset being redeemed",
          "redeemTokens": "The number of tokens being redeemed",
          "redeemer": "The address redeeming the tokens"
        }
      },
      "repayBorrowAllowed(address,address,address,uint256)": {
        "params": {
          "borrower": "The account which would borrowed the asset",
          "cToken": "The market to verify the repay against",
          "payer": "The account which would repay the asset",
          "repayAmount": "The amount of the underlying asset the account would repay"
        },
        "returns": {
          "_0": "0 if the repay is allowed, otherwise a semi-opaque error code (See ErrorReporter.sol)"
        }
      },
      "repayBorrowVerify(address,address,address,uint256,uint256)": {
        "params": {
          "actualRepayAmount": "The amount of underlying being repaid",
          "borrower": "The address of the borrower",
          "cToken": "Asset being repaid",
          "payer": "The address repaying the borrow"
        }
      },
      "seizeAllowed(address,address,address,address,uint256)": {
        "params": {
          "borrower": "The address of the borrower",
          "cTokenBorrowed": "Asset which was borrowed by the borrower",
          "cTokenCollateral": "Asset which was used as collateral and will be seized",
          "liquidator": "The address repaying the borrow and seizing the collateral",
          "seizeTokens": "The number of collateral tokens to seize"
        }
      },
      "seizeVerify(address,address,address,address,uint256)": {
        "params": {
          "borrower": "The address of the borrower",
          "cTokenBorrowed": "Asset which was borrowed by the borrower",
          "cTokenCollateral": "Asset which was used as collateral and will be seized",
          "liquidator": "The address repaying the borrow and seizing the collateral",
          "seizeTokens": "The number of collateral tokens to seize"
        }
      },
      "transferAllowed(address,address,address,uint256)": {
        "params": {
          "cToken": "The market to verify the transfer against",
          "dst": "The account which receives the tokens",
          "src": "The account which sources the tokens",
          "transferTokens": "The number of cTokens to transfer"
        },
        "returns": {
          "_0": "0 if the transfer is allowed, otherwise a semi-opaque error code (See ErrorReporter.sol)"
        }
      },
      "transferVerify(address,address,address,uint256)": {
        "params": {
          "cToken": "Asset being transferred",
          "dst": "The account which receives the tokens",
          "src": "The account which sources the tokens",
          "transferTokens": "The number of cTokens to transfer"
        }
      },
      "updateContributorRewards(address)": {
        "params": {
          "contributor": "The address to calculate contributor rewards for"
        }
      }
    },
    "title": "Compound's Comptroller Contract",
    "version": 1
  },
  "userdoc": {
    "events": {
      "ActionPaused(address,string,bool)": {
        "notice": "Emitted when an action is paused on a market"
      },
      "ActionPaused(string,bool)": {
        "notice": "Emitted when an action is paused globally"
      },
      "BorrowerLimitChanged(address,uint256)": {
        "notice": "Emitted when borrower's limits are changed"
      },
      "BorrowerWhitelisted(address)": {
        "notice": "Emitted when new borrower is whitelisted"
      },
      "CompGranted(address,uint256)": {
        "notice": "Emitted when COMP is granted by admin"
      },
      "CompSpeedUpdated(address,uint256)": {
        "notice": "Emitted when a new COMP speed is calculated for a market"
      },
      "ContributorCompSpeedUpdated(address,uint256)": {
        "notice": "Emitted when a new COMP speed is set for a contributor"
      },
      "DistributedBorrowerComp(address,address,uint256,uint256)": {
        "notice": "Emitted when COMP is distributed to a borrower"
      },
      "DistributedSupplierComp(address,address,uint256,uint256)": {
        "notice": "Emitted when COMP is distributed to a supplier"
      },
      "MarketEntered(address,address)": {
        "notice": "Emitted when an account enters a market"
      },
      "MarketExited(address,address)": {
        "notice": "Emitted when an account exits a market"
      },
      "MarketListed(address)": {
        "notice": "Emitted when an admin supports a market"
      },
      "NewBorrowCap(address,uint256)": {
        "notice": "Emitted when borrow cap for a cToken is changed"
      },
      "NewBorrowCapGuardian(address,address)": {
        "notice": "Emitted when borrow cap guardian is changed"
      },
      "NewCloseFactor(uint256,uint256)": {
        "notice": "Emitted when close factor is changed by admin"
      },
      "NewCollateralFactor(address,uint256,uint256)": {
        "notice": "Emitted when a collateral factor is changed by admin"
      },
      "NewLiquidationIncentive(uint256,uint256)": {
        "notice": "Emitted when liquidation incentive is changed by admin"
      },
      "NewPauseGuardian(address,address)": {
        "notice": "Emitted when pause guardian is changed"
      },
      "NewPriceOracle(address,address)": {
        "notice": "Emitted when price oracle is changed"
      }
    },
    "kind": "user",
    "methods": {
      "_grantComp(address,uint256)": {
        "notice": "Transfer COMP to the recipient"
      },
      "_setBorrowCapGuardian(address)": {
        "notice": "Admin function to change the Borrow Cap Guardian"
      },
      "_setCloseFactor(uint256)": {
        "notice": "Sets the closeFactor used when liquidating borrows"
      },
      "_setCollateralFactor(address,uint256)": {
        "notice": "Sets the collateralFactor for a market"
      },
      "_setCompSpeed(address,uint256)": {
        "notice": "Set COMP speed for a single market"
      },
      "_setContributorCompSpeed(address,uint256)": {
        "notice": "Set COMP speed for a single contributor"
      },
      "_setLiquidationIncentive(uint256)": {
        "notice": "Sets liquidationIncentive"
      },
      "_setMarketBorrowCaps(address[],uint256[])": {
        "notice": "Set the given borrow caps for the given cToken markets. Borrowing that brings total borrows to or above borrow cap will revert."
      },
      "_setPauseGuardian(address)": {
        "notice": "Admin function to change the Pause Guardian"
      },
      "_setPriceOracle(address)": {
        "notice": "Sets a new price oracle for the comptroller"
      },
      "_supportMarket(address)": {
        "notice": "Add the market to the markets mapping and set it as listed"
      },
      "accountAssets(address,uint256)": {
        "notice": "Per-account mapping of \"assets you are in\", capped by maxAssets"
      },
      "admin()": {
        "notice": "Administrator for this contract"
      },
      "allMarkets(uint256)": {
        "notice": "A list of all markets"
      },
      "borrowAllowed(address,address,uint256)": {
        "notice": "Checks if the account should be allowed to borrow the underlying asset of the given market"
      },
      "borrowVerify(address,address,uint256)": {
        "notice": "Validates borrow and reverts on rejection. May emit logs."
      },
      "checkMembership(address,address)": {
        "notice": "Returns whether the given account is entered in the given asset"
      },
      "claimComp(address)": {
        "notice": "Claim all the comp accrued by holder in all markets"
      },
      "claimComp(address,address[])": {
        "notice": "Claim all the comp accrued by holder in the specified markets"
      },
      "claimComp(address[],address[],bool,bool)": {
        "notice": "Claim all comp accrued by the holders"
      },
      "closeFactorMantissa()": {
        "notice": "Multiplier used to calculate the maximum repayAmount when liquidating a borrow"
      },
      "compAccrued(address)": {
        "notice": "The COMP accrued but not yet transferred to each user"
      },
      "compBorrowState(address)": {
        "notice": "The COMP market borrow state for each market"
      },
      "compBorrowerIndex(address,address)": {
        "notice": "The COMP borrow index for each market for each borrower as of the last time they accrued COMP"
      },
      "compContributorSpeeds(address)": {
        "notice": "The portion of COMP that each contributor receives per block"
      },
      "compInitialIndex()": {
        "notice": "The initial COMP index for a market"
      },
      "compRate()": {
        "notice": "The rate at which the flywheel distributes COMP, per block"
      },
      "compSpeeds(address)": {
        "notice": "The portion of compRate that each market currently receives"
      },
      "compSupplierIndex(address,address)": {
        "notice": "The COMP borrow index for each market for each supplier as of the last time they accrued COMP"
      },
      "compSupplyState(address)": {
        "notice": "The COMP market supply state for each market"
      },
      "comptrollerImplementation()": {
        "notice": "Active brains of Unitroller"
      },
      "enterMarkets(address[])": {
        "notice": "Add assets to be included in account liquidity calculation"
      },
      "exitMarket(address)": {
        "notice": "Removes asset from sender's account liquidity calculation"
      },
      "getAccountLiquidity(address)": {
        "notice": "Determine the current account liquidity wrt collateral requirements"
      },
      "getAllMarkets()": {
        "notice": "Return all of the markets"
      },
      "getAssetsIn(address)": {
        "notice": "Returns the assets an account has entered"
      },
      "getCompAddress()": {
        "notice": "Return the address of the COMP token"
      },
      "getHypotheticalAccountLiquidity(address,address,uint256,uint256)": {
        "notice": "Determine what the account liquidity would be if the given amounts were redeemed/borrowed"
      },
      "isComptroller()": {
        "notice": "Indicator that this is a Comptroller contract (for inspection)"
      },
      "lastContributorBlock(address)": {
        "notice": "Last block at which a contributor's COMP rewards have been allocated"
      },
      "liquidateBorrowAllowed(address,address,address,address,uint256)": {
        "notice": "Checks if the liquidation should be allowed to occur"
      },
      "liquidateBorrowVerify(address,address,address,address,uint256,uint256)": {
        "notice": "Validates liquidateBorrow and reverts on rejection. May emit logs."
      },
      "liquidateCalculateSeizeTokens(address,address,uint256)": {
        "notice": "Calculate number of tokens of collateral asset to seize given an underlying amount"
      },
      "liquidationIncentiveMantissa()": {
        "notice": "Multiplier representing the discount on collateral that a liquidator receives"
      },
      "markets(address)": {
        "notice": "Official mapping of cTokens -> Market metadata"
      },
      "maxAssets()": {
        "notice": "Max number of assets a single account can participate in (borrow or use as collateral)"
      },
      "mintAllowed(address,address,uint256)": {
        "notice": "Checks if the account should be allowed to mint tokens in the given market"
      },
      "mintVerify(address,address,uint256,uint256)": {
        "notice": "Validates mint and reverts on rejection. May emit logs."
      },
      "oracle()": {
        "notice": "Oracle which gives the price of any given asset"
      },
      "pauseGuardian()": {
        "notice": "The Pause Guardian can pause certain actions as a safety mechanism.  Actions which allow users to remove their own assets cannot be paused.  Liquidation / seizing / transfer can only be paused globally, not by market."
      },
      "pendingAdmin()": {
        "notice": "Pending administrator for this contract"
      },
      "pendingComptrollerImplementation()": {
        "notice": "Pending brains of Unitroller"
      },
      "redeemAllowed(address,address,uint256)": {
        "notice": "Checks if the account should be allowed to redeem tokens in the given market"
      },
      "redeemVerify(address,address,uint256,uint256)": {
        "notice": "Validates redeem and reverts on rejection. May emit logs."
      },
      "repayBorrowAllowed(address,address,address,uint256)": {
        "notice": "Checks if the account should be allowed to repay a borrow in the given market"
      },
      "repayBorrowVerify(address,address,address,uint256,uint256)": {
        "notice": "Validates repayBorrow and reverts on rejection. May emit logs."
      },
      "seizeAllowed(address,address,address,address,uint256)": {
        "notice": "Checks if the seizing of assets should be allowed to occur"
      },
      "seizeVerify(address,address,address,address,uint256)": {
        "notice": "Validates seize and reverts on rejection. May emit logs."
      },
      "transferAllowed(address,address,address,uint256)": {
        "notice": "Checks if the account should be allowed to transfer tokens in the given market"
      },
      "transferVerify(address,address,address,uint256)": {
        "notice": "Validates transfer and reverts on rejection. May emit logs."
      },
      "updateContributorRewards(address)": {
        "notice": "Calculate additional accrued COMP for a contributor since last accrual"
      }
    },
    "version": 1
  },
  "storageLayout": {
    "storage": [
      {
        "astId": 10048,
        "contract": "contracts/ComptrollerG7.sol:ComptrollerG7",
        "label": "admin",
        "offset": 0,
        "slot": "0",
        "type": "t_address"
      },
      {
        "astId": 10051,
        "contract": "contracts/ComptrollerG7.sol:ComptrollerG7",
        "label": "pendingAdmin",
        "offset": 0,
        "slot": "1",
        "type": "t_address"
      },
      {
        "astId": 10054,
        "contract": "contracts/ComptrollerG7.sol:ComptrollerG7",
        "label": "comptrollerImplementation",
        "offset": 0,
        "slot": "2",
        "type": "t_address"
      },
      {
        "astId": 10057,
        "contract": "contracts/ComptrollerG7.sol:ComptrollerG7",
        "label": "pendingComptrollerImplementation",
        "offset": 0,
        "slot": "3",
        "type": "t_address"
      },
      {
        "astId": 10064,
        "contract": "contracts/ComptrollerG7.sol:ComptrollerG7",
        "label": "oracle",
        "offset": 0,
        "slot": "4",
        "type": "t_contract(PriceOracle)16158"
      },
      {
        "astId": 10067,
        "contract": "contracts/ComptrollerG7.sol:ComptrollerG7",
        "label": "closeFactorMantissa",
        "offset": 0,
        "slot": "5",
        "type": "t_uint256"
      },
      {
        "astId": 10070,
        "contract": "contracts/ComptrollerG7.sol:ComptrollerG7",
        "label": "liquidationIncentiveMantissa",
        "offset": 0,
        "slot": "6",
        "type": "t_uint256"
      },
      {
        "astId": 10073,
        "contract": "contracts/ComptrollerG7.sol:ComptrollerG7",
        "label": "maxAssets",
        "offset": 0,
        "slot": "7",
        "type": "t_uint256"
      },
      {
        "astId": 10080,
        "contract": "contracts/ComptrollerG7.sol:ComptrollerG7",
        "label": "accountAssets",
        "offset": 0,
        "slot": "8",
        "type": "t_mapping(t_address,t_array(t_contract(CToken)5453)dyn_storage)"
      },
      {
        "astId": 10084,
        "contract": "contracts/ComptrollerG7.sol:ComptrollerG7",
        "label": "borrowerArray",
        "offset": 0,
        "slot": "9",
        "type": "t_mapping(t_address,t_bool)"
      },
      {
        "astId": 10088,
        "contract": "contracts/ComptrollerG7.sol:ComptrollerG7",
        "label": "borrowLimit",
        "offset": 0,
        "slot": "10",
        "type": "t_mapping(t_address,t_uint256)"
      },
      {
        "astId": 10108,
        "contract": "contracts/ComptrollerG7.sol:ComptrollerG7",
        "label": "markets",
        "offset": 0,
        "slot": "11",
        "type": "t_mapping(t_address,t_struct(Market)10102_storage)"
      },
      {
        "astId": 10111,
        "contract": "contracts/ComptrollerG7.sol:ComptrollerG7",
        "label": "pauseGuardian",
        "offset": 0,
        "slot": "12",
        "type": "t_address"
      },
      {
        "astId": 10113,
        "contract": "contracts/ComptrollerG7.sol:ComptrollerG7",
        "label": "_mintGuardianPaused",
        "offset": 20,
        "slot": "12",
        "type": "t_bool"
      },
      {
        "astId": 10115,
        "contract": "contracts/ComptrollerG7.sol:ComptrollerG7",
        "label": "_borrowGuardianPaused",
        "offset": 21,
        "slot": "12",
        "type": "t_bool"
      },
      {
        "astId": 10117,
        "contract": "contracts/ComptrollerG7.sol:ComptrollerG7",
        "label": "transferGuardianPaused",
        "offset": 22,
        "slot": "12",
        "type": "t_bool"
      },
      {
        "astId": 10119,
        "contract": "contracts/ComptrollerG7.sol:ComptrollerG7",
        "label": "seizeGuardianPaused",
        "offset": 23,
        "slot": "12",
        "type": "t_bool"
      },
      {
        "astId": 10123,
        "contract": "contracts/ComptrollerG7.sol:ComptrollerG7",
        "label": "mintGuardianPaused",
        "offset": 0,
        "slot": "13",
        "type": "t_mapping(t_address,t_bool)"
      },
      {
        "astId": 10127,
        "contract": "contracts/ComptrollerG7.sol:ComptrollerG7",
        "label": "borrowGuardianPaused",
        "offset": 0,
        "slot": "14",
        "type": "t_mapping(t_address,t_bool)"
      },
      {
        "astId": 10140,
        "contract": "contracts/ComptrollerG7.sol:ComptrollerG7",
        "label": "allMarkets",
        "offset": 0,
        "slot": "15",
        "type": "t_array(t_contract(CToken)5453)dyn_storage"
      },
      {
        "astId": 10143,
        "contract": "contracts/ComptrollerG7.sol:ComptrollerG7",
        "label": "compRate",
        "offset": 0,
        "slot": "16",
        "type": "t_uint256"
      },
      {
        "astId": 10148,
        "contract": "contracts/ComptrollerG7.sol:ComptrollerG7",
        "label": "compSpeeds",
        "offset": 0,
        "slot": "17",
        "type": "t_mapping(t_address,t_uint256)"
      },
      {
        "astId": 10154,
        "contract": "contracts/ComptrollerG7.sol:ComptrollerG7",
        "label": "compSupplyState",
        "offset": 0,
        "slot": "18",
        "type": "t_mapping(t_address,t_struct(CompMarketState)10135_storage)"
      },
      {
        "astId": 10160,
        "contract": "contracts/ComptrollerG7.sol:ComptrollerG7",
        "label": "compBorrowState",
        "offset": 0,
        "slot": "19",
        "type": "t_mapping(t_address,t_struct(CompMarketState)10135_storage)"
      },
      {
        "astId": 10167,
        "contract": "contracts/ComptrollerG7.sol:ComptrollerG7",
        "label": "compSupplierIndex",
        "offset": 0,
        "slot": "20",
        "type": "t_mapping(t_address,t_mapping(t_address,t_uint256))"
      },
      {
        "astId": 10174,
        "contract": "contracts/ComptrollerG7.sol:ComptrollerG7",
        "label": "compBorrowerIndex",
        "offset": 0,
        "slot": "21",
        "type": "t_mapping(t_address,t_mapping(t_address,t_uint256))"
      },
      {
        "astId": 10179,
        "contract": "contracts/ComptrollerG7.sol:ComptrollerG7",
        "label": "compAccrued",
        "offset": 0,
        "slot": "22",
        "type": "t_mapping(t_address,t_uint256)"
      },
      {
        "astId": 10184,
        "contract": "contracts/ComptrollerG7.sol:ComptrollerG7",
        "label": "borrowCapGuardian",
        "offset": 0,
        "slot": "23",
        "type": "t_address"
      },
      {
        "astId": 10188,
        "contract": "contracts/ComptrollerG7.sol:ComptrollerG7",
        "label": "borrowCaps",
        "offset": 0,
        "slot": "24",
        "type": "t_mapping(t_address,t_uint256)"
      },
      {
        "astId": 10196,
        "contract": "contracts/ComptrollerG7.sol:ComptrollerG7",
        "label": "compContributorSpeeds",
        "offset": 0,
        "slot": "25",
        "type": "t_mapping(t_address,t_uint256)"
      },
      {
        "astId": 10201,
        "contract": "contracts/ComptrollerG7.sol:ComptrollerG7",
        "label": "lastContributorBlock",
        "offset": 0,
        "slot": "26",
        "type": "t_mapping(t_address,t_uint256)"
      },
      {
        "astId": 6149,
        "contract": "contracts/ComptrollerG7.sol:ComptrollerG7",
        "label": "_compAddress",
        "offset": 0,
        "slot": "27",
        "type": "t_address"
      }
    ],
    "types": {
      "t_address": {
        "encoding": "inplace",
        "label": "address",
        "numberOfBytes": "20"
      },
      "t_array(t_contract(CToken)5453)dyn_storage": {
        "base": "t_contract(CToken)5453",
        "encoding": "dynamic_array",
        "label": "contract CToken[]",
        "numberOfBytes": "32"
      },
      "t_bool": {
        "encoding": "inplace",
        "label": "bool",
        "numberOfBytes": "1"
      },
      "t_contract(CToken)5453": {
        "encoding": "inplace",
        "label": "contract CToken",
        "numberOfBytes": "20"
      },
      "t_contract(PriceOracle)16158": {
        "encoding": "inplace",
        "label": "contract PriceOracle",
        "numberOfBytes": "20"
      },
      "t_mapping(t_address,t_array(t_contract(CToken)5453)dyn_storage)": {
        "encoding": "mapping",
        "key": "t_address",
        "label": "mapping(address => contract CToken[])",
        "numberOfBytes": "32",
        "value": "t_array(t_contract(CToken)5453)dyn_storage"
      },
      "t_mapping(t_address,t_bool)": {
        "encoding": "mapping",
        "key": "t_address",
        "label": "mapping(address => bool)",
        "numberOfBytes": "32",
        "value": "t_bool"
      },
      "t_mapping(t_address,t_mapping(t_address,t_uint256))": {
        "encoding": "mapping",
        "key": "t_address",
        "label": "mapping(address => mapping(address => uint256))",
        "numberOfBytes": "32",
        "value": "t_mapping(t_address,t_uint256)"
      },
      "t_mapping(t_address,t_struct(CompMarketState)10135_storage)": {
        "encoding": "mapping",
        "key": "t_address",
        "label": "mapping(address => struct ComptrollerV3Storage.CompMarketState)",
        "numberOfBytes": "32",
        "value": "t_struct(CompMarketState)10135_storage"
      },
      "t_mapping(t_address,t_struct(Market)10102_storage)": {
        "encoding": "mapping",
        "key": "t_address",
        "label": "mapping(address => struct ComptrollerV2Storage.Market)",
        "numberOfBytes": "32",
        "value": "t_struct(Market)10102_storage"
      },
      "t_mapping(t_address,t_uint256)": {
        "encoding": "mapping",
        "key": "t_address",
        "label": "mapping(address => uint256)",
        "numberOfBytes": "32",
        "value": "t_uint256"
      },
      "t_struct(CompMarketState)10135_storage": {
        "encoding": "inplace",
        "label": "struct ComptrollerV3Storage.CompMarketState",
        "members": [
          {
            "astId": 10132,
            "contract": "contracts/ComptrollerG7.sol:ComptrollerG7",
            "label": "index",
            "offset": 0,
            "slot": "0",
            "type": "t_uint224"
          },
          {
            "astId": 10134,
            "contract": "contracts/ComptrollerG7.sol:ComptrollerG7",
            "label": "block",
            "offset": 28,
            "slot": "0",
            "type": "t_uint32"
          }
        ],
        "numberOfBytes": "32"
      },
      "t_struct(Market)10102_storage": {
        "encoding": "inplace",
        "label": "struct ComptrollerV2Storage.Market",
        "members": [
          {
            "astId": 10093,
            "contract": "contracts/ComptrollerG7.sol:ComptrollerG7",
            "label": "isListed",
            "offset": 0,
            "slot": "0",
            "type": "t_bool"
          },
          {
            "astId": 10095,
            "contract": "contracts/ComptrollerG7.sol:ComptrollerG7",
            "label": "collateralFactorMantissa",
            "offset": 0,
            "slot": "1",
            "type": "t_uint256"
          },
          {
            "astId": 10099,
            "contract": "contracts/ComptrollerG7.sol:ComptrollerG7",
            "label": "accountMembership",
            "offset": 0,
            "slot": "2",
            "type": "t_mapping(t_address,t_bool)"
          },
          {
            "astId": 10101,
            "contract": "contracts/ComptrollerG7.sol:ComptrollerG7",
            "label": "isComped",
            "offset": 0,
            "slot": "3",
            "type": "t_bool"
          }
        ],
        "numberOfBytes": "128"
      },
      "t_uint224": {
        "encoding": "inplace",
        "label": "uint224",
        "numberOfBytes": "28"
      },
      "t_uint256": {
        "encoding": "inplace",
        "label": "uint256",
        "numberOfBytes": "32"
      },
      "t_uint32": {
        "encoding": "inplace",
        "label": "uint32",
        "numberOfBytes": "4"
      }
    }
  }
}