{
  "address": "0x483606E92C7F723C11CBD11952C45DF1579f88fb",
  "abi": [
    {
      "inputs": [
        {
          "internalType": "address",
          "name": "compAddress",
          "type": "address"
        }
      ],
      "stateMutability": "nonpayable",
      "type": "constructor"
    },
    {
      "anonymous": false,
      "inputs": [
        {
          "indexed": false,
          "internalType": "string",
          "name": "action",
          "type": "string"
        },
        {
          "indexed": false,
          "internalType": "bool",
          "name": "pauseState",
          "type": "bool"
        }
      ],
      "name": "ActionPaused",
      "type": "event"
    },
    {
      "anonymous": false,
      "inputs": [
        {
          "indexed": false,
          "internalType": "contract CToken",
          "name": "cToken",
          "type": "address"
        },
        {
          "indexed": false,
          "internalType": "string",
          "name": "action",
          "type": "string"
        },
        {
          "indexed": false,
          "internalType": "bool",
          "name": "pauseState",
          "type": "bool"
        }
      ],
      "name": "ActionPaused",
      "type": "event"
    },
    {
      "anonymous": false,
      "inputs": [
        {
          "indexed": false,
          "internalType": "address",
          "name": "borrower",
          "type": "address"
        },
        {
          "indexed": false,
          "internalType": "uint256",
          "name": "borrowLimit",
          "type": "uint256"
        }
      ],
      "name": "BorrowerLimitChanged",
      "type": "event"
    },
    {
      "anonymous": false,
      "inputs": [
        {
          "indexed": false,
          "internalType": "address",
          "name": "borrower",
          "type": "address"
        }
      ],
      "name": "BorrowerWhitelisted",
      "type": "event"
    },
    {
      "anonymous": false,
      "inputs": [
        {
          "indexed": false,
          "internalType": "address",
          "name": "recipient",
          "type": "address"
        },
        {
          "indexed": false,
          "internalType": "uint256",
          "name": "amount",
          "type": "uint256"
        }
      ],
      "name": "CompGranted",
      "type": "event"
    },
    {
      "anonymous": false,
      "inputs": [
        {
          "indexed": true,
          "internalType": "contract CToken",
          "name": "cToken",
          "type": "address"
        },
        {
          "indexed": false,
          "internalType": "uint256",
          "name": "newSpeed",
          "type": "uint256"
        }
      ],
      "name": "CompSpeedUpdated",
      "type": "event"
    },
    {
      "anonymous": false,
      "inputs": [
        {
          "indexed": true,
          "internalType": "address",
          "name": "contributor",
          "type": "address"
        },
        {
          "indexed": false,
          "internalType": "uint256",
          "name": "newSpeed",
          "type": "uint256"
        }
      ],
      "name": "ContributorCompSpeedUpdated",
      "type": "event"
    },
    {
      "anonymous": false,
      "inputs": [
        {
          "indexed": true,
          "internalType": "contract CToken",
          "name": "cToken",
          "type": "address"
        },
        {
          "indexed": true,
          "internalType": "address",
          "name": "borrower",
          "type": "address"
        },
        {
          "indexed": false,
          "internalType": "uint256",
          "name": "compDelta",
          "type": "uint256"
        },
        {
          "indexed": false,
          "internalType": "uint256",
          "name": "compBorrowIndex",
          "type": "uint256"
        }
      ],
      "name": "DistributedBorrowerComp",
      "type": "event"
    },
    {
      "anonymous": false,
      "inputs": [
        {
          "indexed": true,
          "internalType": "contract CToken",
          "name": "cToken",
          "type": "address"
        },
        {
          "indexed": true,
          "internalType": "address",
          "name": "supplier",
          "type": "address"
        },
        {
          "indexed": false,
          "internalType": "uint256",
          "name": "compDelta",
          "type": "uint256"
        },
        {
          "indexed": false,
          "internalType": "uint256",
          "name": "compSupplyIndex",
          "type": "uint256"
        }
      ],
      "name": "DistributedSupplierComp",
      "type": "event"
    },
    {
      "anonymous": false,
      "inputs": [
        {
          "indexed": false,
          "internalType": "uint256",
          "name": "error",
          "type": "uint256"
        },
        {
          "indexed": false,
          "internalType": "uint256",
          "name": "info",
          "type": "uint256"
        },
        {
          "indexed": false,
          "internalType": "uint256",
          "name": "detail",
          "type": "uint256"
        }
      ],
      "name": "Failure",
      "type": "event"
    },
    {
      "anonymous": false,
      "inputs": [
        {
          "indexed": false,
          "internalType": "contract CToken",
          "name": "cToken",
          "type": "address"
        },
        {
          "indexed": false,
          "internalType": "address",
          "name": "account",
          "type": "address"
        }
      ],
      "name": "MarketEntered",
      "type": "event"
    },
    {
      "anonymous": false,
      "inputs": [
        {
          "indexed": false,
          "internalType": "contract CToken",
          "name": "cToken",
          "type": "address"
        },
        {
          "indexed": false,
          "internalType": "address",
          "name": "account",
          "type": "address"
        }
      ],
      "name": "MarketExited",
      "type": "event"
    },
    {
      "anonymous": false,
      "inputs": [
        {
          "indexed": false,
          "internalType": "contract CToken",
          "name": "cToken",
          "type": "address"
        }
      ],
      "name": "MarketListed",
      "type": "event"
    },
    {
      "anonymous": false,
      "inputs": [
        {
          "indexed": true,
          "internalType": "contract CToken",
          "name": "cToken",
          "type": "address"
        },
        {
          "indexed": false,
          "internalType": "uint256",
          "name": "newBorrowCap",
          "type": "uint256"
        }
      ],
      "name": "NewBorrowCap",
      "type": "event"
    },
    {
      "anonymous": false,
      "inputs": [
        {
          "indexed": false,
          "internalType": "address",
          "name": "oldBorrowCapGuardian",
          "type": "address"
        },
        {
          "indexed": false,
          "internalType": "address",
          "name": "newBorrowCapGuardian",
          "type": "address"
        }
      ],
      "name": "NewBorrowCapGuardian",
      "type": "event"
    },
    {
      "anonymous": false,
      "inputs": [
        {
          "indexed": false,
          "internalType": "uint256",
          "name": "oldCloseFactorMantissa",
          "type": "uint256"
        },
        {
          "indexed": false,
          "internalType": "uint256",
          "name": "newCloseFactorMantissa",
          "type": "uint256"
        }
      ],
      "name": "NewCloseFactor",
      "type": "event"
    },
    {
      "anonymous": false,
      "inputs": [
        {
          "indexed": false,
          "internalType": "contract CToken",
          "name": "cToken",
          "type": "address"
        },
        {
          "indexed": false,
          "internalType": "uint256",
          "name": "oldCollateralFactorMantissa",
          "type": "uint256"
        },
        {
          "indexed": false,
          "internalType": "uint256",
          "name": "newCollateralFactorMantissa",
          "type": "uint256"
        }
      ],
      "name": "NewCollateralFactor",
      "type": "event"
    },
    {
      "anonymous": false,
      "inputs": [
        {
          "indexed": false,
          "internalType": "uint256",
          "name": "oldLiquidationIncentiveMantissa",
          "type": "uint256"
        },
        {
          "indexed": false,
          "internalType": "uint256",
          "name": "newLiquidationIncentiveMantissa",
          "type": "uint256"
        }
      ],
      "name": "NewLiquidationIncentive",
      "type": "event"
    },
    {
      "anonymous": false,
      "inputs": [
        {
          "indexed": false,
          "internalType": "address",
          "name": "oldPauseGuardian",
          "type": "address"
        },
        {
          "indexed": false,
          "internalType": "address",
          "name": "newPauseGuardian",
          "type": "address"
        }
      ],
      "name": "NewPauseGuardian",
      "type": "event"
    },
    {
      "anonymous": false,
      "inputs": [
        {
          "indexed": false,
          "internalType": "contract PriceOracle",
          "name": "oldPriceOracle",
          "type": "address"
        },
        {
          "indexed": false,
          "internalType": "contract PriceOracle",
          "name": "newPriceOracle",
          "type": "address"
        }
      ],
      "name": "NewPriceOracle",
      "type": "event"
    },
    {
      "inputs": [
        {
          "internalType": "contract DammtrollerProxy",
          "name": "unitroller",
          "type": "address"
        }
      ],
      "name": "_become",
      "outputs": [],
      "stateMutability": "nonpayable",
      "type": "function"
    },
    {
      "inputs": [],
      "name": "_borrowGuardianPaused",
      "outputs": [
        {
          "internalType": "bool",
          "name": "",
          "type": "bool"
        }
      ],
      "stateMutability": "view",
      "type": "function"
    },
    {
      "inputs": [
        {
          "internalType": "address",
          "name": "recipient",
          "type": "address"
        },
        {
          "internalType": "uint256",
          "name": "amount",
          "type": "uint256"
        }
      ],
      "name": "_grantComp",
      "outputs": [],
      "stateMutability": "nonpayable",
      "type": "function"
    },
    {
      "inputs": [],
      "name": "_mintGuardianPaused",
      "outputs": [
        {
          "internalType": "bool",
          "name": "",
          "type": "bool"
        }
      ],
      "stateMutability": "view",
      "type": "function"
    },
    {
      "inputs": [
        {
          "internalType": "address",
          "name": "newBorrowCapGuardian",
          "type": "address"
        }
      ],
      "name": "_setBorrowCapGuardian",
      "outputs": [],
      "stateMutability": "nonpayable",
      "type": "function"
    },
    {
      "inputs": [
        {
          "internalType": "contract CToken",
          "name": "cToken",
          "type": "address"
        },
        {
          "internalType": "bool",
          "name": "state",
          "type": "bool"
        }
      ],
      "name": "_setBorrowPaused",
      "outputs": [
        {
          "internalType": "bool",
          "name": "",
          "type": "bool"
        }
      ],
      "stateMutability": "nonpayable",
      "type": "function"
    },
    {
      "inputs": [
        {
          "internalType": "uint256",
          "name": "newCloseFactorMantissa",
          "type": "uint256"
        }
      ],
      "name": "_setCloseFactor",
      "outputs": [
        {
          "internalType": "uint256",
          "name": "",
          "type": "uint256"
        }
      ],
      "stateMutability": "nonpayable",
      "type": "function"
    },
    {
      "inputs": [
        {
          "internalType": "contract CToken",
          "name": "cToken",
          "type": "address"
        },
        {
          "internalType": "uint256",
          "name": "newCollateralFactorMantissa",
          "type": "uint256"
        }
      ],
      "name": "_setCollateralFactor",
      "outputs": [
        {
          "internalType": "uint256",
          "name": "",
          "type": "uint256"
        }
      ],
      "stateMutability": "nonpayable",
      "type": "function"
    },
    {
      "inputs": [
        {
          "internalType": "contract CToken",
          "name": "cToken",
          "type": "address"
        },
        {
          "internalType": "uint256",
          "name": "compSpeed",
          "type": "uint256"
        }
      ],
      "name": "_setCompSpeed",
      "outputs": [],
      "stateMutability": "nonpayable",
      "type": "function"
    },
    {
      "inputs": [
        {
          "internalType": "address",
          "name": "contributor",
          "type": "address"
        },
        {
          "internalType": "uint256",
          "name": "compSpeed",
          "type": "uint256"
        }
      ],
      "name": "_setContributorCompSpeed",
      "outputs": [],
      "stateMutability": "nonpayable",
      "type": "function"
    },
    {
      "inputs": [
        {
          "internalType": "uint256",
          "name": "newLiquidationIncentiveMantissa",
          "type": "uint256"
        }
      ],
      "name": "_setLiquidationIncentive",
      "outputs": [
        {
          "internalType": "uint256",
          "name": "",
          "type": "uint256"
        }
      ],
      "stateMutability": "nonpayable",
      "type": "function"
    },
    {
      "inputs": [
        {
          "internalType": "contract CToken[]",
          "name": "cTokens",
          "type": "address[]"
        },
        {
          "internalType": "uint256[]",
          "name": "newBorrowCaps",
          "type": "uint256[]"
        }
      ],
      "name": "_setMarketBorrowCaps",
      "outputs": [],
      "stateMutability": "nonpayable",
      "type": "function"
    },
    {
      "inputs": [
        {
          "internalType": "contract CToken",
          "name": "cToken",
          "type": "address"
        },
        {
          "internalType": "bool",
          "name": "state",
          "type": "bool"
        }
      ],
      "name": "_setMintPaused",
      "outputs": [
        {
          "internalType": "bool",
          "name": "",
          "type": "bool"
        }
      ],
      "stateMutability": "nonpayable",
      "type": "function"
    },
    {
      "inputs": [
        {
          "internalType": "address",
          "name": "newPauseGuardian",
          "type": "address"
        }
      ],
      "name": "_setPauseGuardian",
      "outputs": [
        {
          "internalType": "uint256",
          "name": "",
          "type": "uint256"
        }
      ],
      "stateMutability": "nonpayable",
      "type": "function"
    },
    {
      "inputs": [
        {
          "internalType": "contract PriceOracle",
          "name": "newOracle",
          "type": "address"
        }
      ],
      "name": "_setPriceOracle",
      "outputs": [
        {
          "internalType": "uint256",
          "name": "",
          "type": "uint256"
        }
      ],
      "stateMutability": "nonpayable",
      "type": "function"
    },
    {
      "inputs": [
        {
          "internalType": "bool",
          "name": "state",
          "type": "bool"
        }
      ],
      "name": "_setSeizePaused",
      "outputs": [
        {
          "internalType": "bool",
          "name": "",
          "type": "bool"
        }
      ],
      "stateMutability": "nonpayable",
      "type": "function"
    },
    {
      "inputs": [
        {
          "internalType": "bool",
          "name": "state",
          "type": "bool"
        }
      ],
      "name": "_setTransferPaused",
      "outputs": [
        {
          "internalType": "bool",
          "name": "",
          "type": "bool"
        }
      ],
      "stateMutability": "nonpayable",
      "type": "function"
    },
    {
      "inputs": [
        {
          "internalType": "contract CToken",
          "name": "cToken",
          "type": "address"
        }
      ],
      "name": "_supportMarket",
      "outputs": [
        {
          "internalType": "uint256",
          "name": "",
          "type": "uint256"
        }
      ],
      "stateMutability": "nonpayable",
      "type": "function"
    },
    {
      "inputs": [
        {
          "internalType": "address",
          "name": "",
          "type": "address"
        },
        {
          "internalType": "uint256",
          "name": "",
          "type": "uint256"
        }
      ],
      "name": "accountAssets",
      "outputs": [
        {
          "internalType": "contract CToken",
          "name": "",
          "type": "address"
        }
      ],
      "stateMutability": "view",
      "type": "function"
    },
    {
      "inputs": [],
      "name": "admin",
      "outputs": [
        {
          "internalType": "address",
          "name": "",
          "type": "address"
        }
      ],
      "stateMutability": "view",
      "type": "function"
    },
    {
      "inputs": [
        {
          "internalType": "uint256",
          "name": "",
          "type": "uint256"
        }
      ],
      "name": "allMarkets",
      "outputs": [
        {
          "internalType": "contract CToken",
          "name": "",
          "type": "address"
        }
      ],
      "stateMutability": "view",
      "type": "function"
    },
    {
      "inputs": [
        {
          "internalType": "address",
          "name": "cToken",
          "type": "address"
        },
        {
          "internalType": "address",
          "name": "borrower",
          "type": "address"
        },
        {
          "internalType": "uint256",
          "name": "borrowAmount",
          "type": "uint256"
        }
      ],
      "name": "borrowAllowed",
      "outputs": [
        {
          "internalType": "uint256",
          "name": "",
          "type": "uint256"
        }
      ],
      "stateMutability": "nonpayable",
      "type": "function"
    },
    {
      "inputs": [],
      "name": "borrowCapGuardian",
      "outputs": [
        {
          "internalType": "address",
          "name": "",
          "type": "address"
        }
      ],
      "stateMutability": "view",
      "type": "function"
    },
    {
      "inputs": [
        {
          "internalType": "address",
          "name": "",
          "type": "address"
        }
      ],
      "name": "borrowCaps",
      "outputs": [
        {
          "internalType": "uint256",
          "name": "",
          "type": "uint256"
        }
      ],
      "stateMutability": "view",
      "type": "function"
    },
    {
      "inputs": [
        {
          "internalType": "address",
          "name": "",
          "type": "address"
        }
      ],
      "name": "borrowGuardianPaused",
      "outputs": [
        {
          "internalType": "bool",
          "name": "",
          "type": "bool"
        }
      ],
      "stateMutability": "view",
      "type": "function"
    },
    {
      "inputs": [
        {
          "internalType": "address",
          "name": "",
          "type": "address"
        }
      ],
      "name": "borrowLimit",
      "outputs": [
        {
          "internalType": "uint256",
          "name": "",
          "type": "uint256"
        }
      ],
      "stateMutability": "view",
      "type": "function"
    },
    {
      "inputs": [
        {
          "internalType": "address",
          "name": "cToken",
          "type": "address"
        },
        {
          "internalType": "address",
          "name": "borrower",
          "type": "address"
        },
        {
          "internalType": "uint256",
          "name": "borrowAmount",
          "type": "uint256"
        }
      ],
      "name": "borrowVerify",
      "outputs": [],
      "stateMutability": "nonpayable",
      "type": "function"
    },
    {
      "inputs": [
        {
          "internalType": "address",
          "name": "",
          "type": "address"
        }
      ],
      "name": "borrowerArray",
      "outputs": [
        {
          "internalType": "bool",
          "name": "",
          "type": "bool"
        }
      ],
      "stateMutability": "view",
      "type": "function"
    },
    {
      "inputs": [
        {
          "internalType": "address",
          "name": "account",
          "type": "address"
        },
        {
          "internalType": "contract CToken",
          "name": "cToken",
          "type": "address"
        }
      ],
      "name": "checkMembership",
      "outputs": [
        {
          "internalType": "bool",
          "name": "",
          "type": "bool"
        }
      ],
      "stateMutability": "view",
      "type": "function"
    },
    {
      "inputs": [
        {
          "internalType": "address",
          "name": "holder",
          "type": "address"
        },
        {
          "internalType": "contract CToken[]",
          "name": "cTokens",
          "type": "address[]"
        }
      ],
      "name": "claimComp",
      "outputs": [],
      "stateMutability": "nonpayable",
      "type": "function"
    },
    {
      "inputs": [
        {
          "internalType": "address[]",
          "name": "holders",
          "type": "address[]"
        },
        {
          "internalType": "contract CToken[]",
          "name": "cTokens",
          "type": "address[]"
        },
        {
          "internalType": "bool",
          "name": "borrowers",
          "type": "bool"
        },
        {
          "internalType": "bool",
          "name": "suppliers",
          "type": "bool"
        }
      ],
      "name": "claimComp",
      "outputs": [],
      "stateMutability": "nonpayable",
      "type": "function"
    },
    {
      "inputs": [
        {
          "internalType": "address",
          "name": "holder",
          "type": "address"
        }
      ],
      "name": "claimComp",
      "outputs": [],
      "stateMutability": "nonpayable",
      "type": "function"
    },
    {
      "inputs": [],
      "name": "closeFactorMantissa",
      "outputs": [
        {
          "internalType": "uint256",
          "name": "",
          "type": "uint256"
        }
      ],
      "stateMutability": "view",
      "type": "function"
    },
    {
      "inputs": [
        {
          "internalType": "address",
          "name": "",
          "type": "address"
        }
      ],
      "name": "compAccrued",
      "outputs": [
        {
          "internalType": "uint256",
          "name": "",
          "type": "uint256"
        }
      ],
      "stateMutability": "view",
      "type": "function"
    },
    {
      "inputs": [
        {
          "internalType": "address",
          "name": "",
          "type": "address"
        }
      ],
      "name": "compBorrowState",
      "outputs": [
        {
          "internalType": "uint224",
          "name": "index",
          "type": "uint224"
        },
        {
          "internalType": "uint32",
          "name": "block",
          "type": "uint32"
        }
      ],
      "stateMutability": "view",
      "type": "function"
    },
    {
      "inputs": [
        {
          "internalType": "address",
          "name": "",
          "type": "address"
        },
        {
          "internalType": "address",
          "name": "",
          "type": "address"
        }
      ],
      "name": "compBorrowerIndex",
      "outputs": [
        {
          "internalType": "uint256",
          "name": "",
          "type": "uint256"
        }
      ],
      "stateMutability": "view",
      "type": "function"
    },
    {
      "inputs": [
        {
          "internalType": "address",
          "name": "",
          "type": "address"
        }
      ],
      "name": "compContributorSpeeds",
      "outputs": [
        {
          "internalType": "uint256",
          "name": "",
          "type": "uint256"
        }
      ],
      "stateMutability": "view",
      "type": "function"
    },
    {
      "inputs": [],
      "name": "compInitialIndex",
      "outputs": [
        {
          "internalType": "uint224",
          "name": "",
          "type": "uint224"
        }
      ],
      "stateMutability": "view",
      "type": "function"
    },
    {
      "inputs": [],
      "name": "compRate",
      "outputs": [
        {
          "internalType": "uint256",
          "name": "",
          "type": "uint256"
        }
      ],
      "stateMutability": "view",
      "type": "function"
    },
    {
      "inputs": [
        {
          "internalType": "address",
          "name": "",
          "type": "address"
        }
      ],
      "name": "compSpeeds",
      "outputs": [
        {
          "internalType": "uint256",
          "name": "",
          "type": "uint256"
        }
      ],
      "stateMutability": "view",
      "type": "function"
    },
    {
      "inputs": [
        {
          "internalType": "address",
          "name": "",
          "type": "address"
        },
        {
          "internalType": "address",
          "name": "",
          "type": "address"
        }
      ],
      "name": "compSupplierIndex",
      "outputs": [
        {
          "internalType": "uint256",
          "name": "",
          "type": "uint256"
        }
      ],
      "stateMutability": "view",
      "type": "function"
    },
    {
      "inputs": [
        {
          "internalType": "address",
          "name": "",
          "type": "address"
        }
      ],
      "name": "compSupplyState",
      "outputs": [
        {
          "internalType": "uint224",
          "name": "index",
          "type": "uint224"
        },
        {
          "internalType": "uint32",
          "name": "block",
          "type": "uint32"
        }
      ],
      "stateMutability": "view",
      "type": "function"
    },
    {
      "inputs": [],
      "name": "comptrollerImplementation",
      "outputs": [
        {
          "internalType": "address",
          "name": "",
          "type": "address"
        }
      ],
      "stateMutability": "view",
      "type": "function"
    },
    {
      "inputs": [
        {
          "internalType": "address[]",
          "name": "cTokens",
          "type": "address[]"
        }
      ],
      "name": "enterMarkets",
      "outputs": [
        {
          "internalType": "uint256[]",
          "name": "",
          "type": "uint256[]"
        }
      ],
      "stateMutability": "nonpayable",
      "type": "function"
    },
    {
      "inputs": [
        {
          "internalType": "address",
          "name": "cTokenAddress",
          "type": "address"
        }
      ],
      "name": "exitMarket",
      "outputs": [
        {
          "internalType": "uint256",
          "name": "",
          "type": "uint256"
        }
      ],
      "stateMutability": "nonpayable",
      "type": "function"
    },
    {
      "inputs": [
        {
          "internalType": "address",
          "name": "account",
          "type": "address"
        }
      ],
      "name": "getAccountLiquidity",
      "outputs": [
        {
          "internalType": "uint256",
          "name": "",
          "type": "uint256"
        },
        {
          "internalType": "uint256",
          "name": "",
          "type": "uint256"
        },
        {
          "internalType": "uint256",
          "name": "",
          "type": "uint256"
        }
      ],
      "stateMutability": "view",
      "type": "function"
    },
    {
      "inputs": [],
      "name": "getAllMarkets",
      "outputs": [
        {
          "internalType": "contract CToken[]",
          "name": "",
          "type": "address[]"
        }
      ],
      "stateMutability": "view",
      "type": "function"
    },
    {
      "inputs": [
        {
          "internalType": "address",
          "name": "account",
          "type": "address"
        }
      ],
      "name": "getAssetsIn",
      "outputs": [
        {
          "internalType": "contract CToken[]",
          "name": "",
          "type": "address[]"
        }
      ],
      "stateMutability": "view",
      "type": "function"
    },
    {
      "inputs": [],
      "name": "getBlockNumber",
      "outputs": [
        {
          "internalType": "uint256",
          "name": "",
          "type": "uint256"
        }
      ],
      "stateMutability": "view",
      "type": "function"
    },
    {
      "inputs": [
        {
          "internalType": "address",
          "name": "borrower",
          "type": "address"
        }
      ],
      "name": "getBorrowerLimits",
      "outputs": [
        {
          "internalType": "uint256",
          "name": "",
          "type": "uint256"
        }
      ],
      "stateMutability": "view",
      "type": "function"
    },
    {
      "inputs": [],
      "name": "getCompAddress",
      "outputs": [
        {
          "internalType": "address",
          "name": "",
          "type": "address"
        }
      ],
      "stateMutability": "view",
      "type": "function"
    },
    {
      "inputs": [
        {
          "internalType": "address",
          "name": "account",
          "type": "address"
        },
        {
          "internalType": "address",
          "name": "cTokenModify",
          "type": "address"
        },
        {
          "internalType": "uint256",
          "name": "redeemTokens",
          "type": "uint256"
        },
        {
          "internalType": "uint256",
          "name": "borrowAmount",
          "type": "uint256"
        }
      ],
      "name": "getHypotheticalAccountLiquidity",
      "outputs": [
        {
          "internalType": "uint256",
          "name": "",
          "type": "uint256"
        },
        {
          "internalType": "uint256",
          "name": "",
          "type": "uint256"
        },
        {
          "internalType": "uint256",
          "name": "",
          "type": "uint256"
        }
      ],
      "stateMutability": "view",
      "type": "function"
    },
    {
      "inputs": [],
      "name": "isComptroller",
      "outputs": [
        {
          "internalType": "bool",
          "name": "",
          "type": "bool"
        }
      ],
      "stateMutability": "view",
      "type": "function"
    },
    {
      "inputs": [
        {
          "internalType": "address",
          "name": "",
          "type": "address"
        }
      ],
      "name": "lastContributorBlock",
      "outputs": [
        {
          "internalType": "uint256",
          "name": "",
          "type": "uint256"
        }
      ],
      "stateMutability": "view",
      "type": "function"
    },
    {
      "inputs": [
        {
          "internalType": "address",
          "name": "cTokenBorrowed",
          "type": "address"
        },
        {
          "internalType": "address",
          "name": "cTokenCollateral",
          "type": "address"
        },
        {
          "internalType": "address",
          "name": "liquidator",
          "type": "address"
        },
        {
          "internalType": "address",
          "name": "borrower",
          "type": "address"
        },
        {
          "internalType": "uint256",
          "name": "repayAmount",
          "type": "uint256"
        }
      ],
      "name": "liquidateBorrowAllowed",
      "outputs": [
        {
          "internalType": "uint256",
          "name": "",
          "type": "uint256"
        }
      ],
      "stateMutability": "nonpayable",
      "type": "function"
    },
    {
      "inputs": [
        {
          "internalType": "address",
          "name": "cTokenBorrowed",
          "type": "address"
        },
        {
          "internalType": "address",
          "name": "cTokenCollateral",
          "type": "address"
        },
        {
          "internalType": "address",
          "name": "liquidator",
          "type": "address"
        },
        {
          "internalType": "address",
          "name": "borrower",
          "type": "address"
        },
        {
          "internalType": "uint256",
          "name": "actualRepayAmount",
          "type": "uint256"
        },
        {
          "internalType": "uint256",
          "name": "seizeTokens",
          "type": "uint256"
        }
      ],
      "name": "liquidateBorrowVerify",
      "outputs": [],
      "stateMutability": "nonpayable",
      "type": "function"
    },
    {
      "inputs": [
        {
          "internalType": "address",
          "name": "cTokenBorrowed",
          "type": "address"
        },
        {
          "internalType": "address",
          "name": "cTokenCollateral",
          "type": "address"
        },
        {
          "internalType": "uint256",
          "name": "actualRepayAmount",
          "type": "uint256"
        }
      ],
      "name": "liquidateCalculateSeizeTokens",
      "outputs": [
        {
          "internalType": "uint256",
          "name": "",
          "type": "uint256"
        },
        {
          "internalType": "uint256",
          "name": "",
          "type": "uint256"
        }
      ],
      "stateMutability": "view",
      "type": "function"
    },
    {
      "inputs": [],
      "name": "liquidationIncentiveMantissa",
      "outputs": [
        {
          "internalType": "uint256",
          "name": "",
          "type": "uint256"
        }
      ],
      "stateMutability": "view",
      "type": "function"
    },
    {
      "inputs": [
        {
          "internalType": "address",
          "name": "",
          "type": "address"
        }
      ],
      "name": "markets",
      "outputs": [
        {
          "internalType": "bool",
          "name": "isListed",
          "type": "bool"
        },
        {
          "internalType": "uint256",
          "name": "collateralFactorMantissa",
          "type": "uint256"
        },
        {
          "internalType": "bool",
          "name": "isComped",
          "type": "bool"
        }
      ],
      "stateMutability": "view",
      "type": "function"
    },
    {
      "inputs": [],
      "name": "maxAssets",
      "outputs": [
        {
          "internalType": "uint256",
          "name": "",
          "type": "uint256"
        }
      ],
      "stateMutability": "view",
      "type": "function"
    },
    {
      "inputs": [
        {
          "internalType": "address",
          "name": "cToken",
          "type": "address"
        },
        {
          "internalType": "address",
          "name": "minter",
          "type": "address"
        },
        {
          "internalType": "uint256",
          "name": "mintAmount",
          "type": "uint256"
        }
      ],
      "name": "mintAllowed",
      "outputs": [
        {
          "internalType": "uint256",
          "name": "",
          "type": "uint256"
        }
      ],
      "stateMutability": "nonpayable",
      "type": "function"
    },
    {
      "inputs": [
        {
          "internalType": "address",
          "name": "",
          "type": "address"
        }
      ],
      "name": "mintGuardianPaused",
      "outputs": [
        {
          "internalType": "bool",
          "name": "",
          "type": "bool"
        }
      ],
      "stateMutability": "view",
      "type": "function"
    },
    {
      "inputs": [
        {
          "internalType": "address",
          "name": "cToken",
          "type": "address"
        },
        {
          "internalType": "address",
          "name": "minter",
          "type": "address"
        },
        {
          "internalType": "uint256",
          "name": "actualMintAmount",
          "type": "uint256"
        },
        {
          "internalType": "uint256",
          "name": "mintTokens",
          "type": "uint256"
        }
      ],
      "name": "mintVerify",
      "outputs": [],
      "stateMutability": "nonpayable",
      "type": "function"
    },
    {
      "inputs": [],
      "name": "oracle",
      "outputs": [
        {
          "internalType": "contract PriceOracle",
          "name": "",
          "type": "address"
        }
      ],
      "stateMutability": "view",
      "type": "function"
    },
    {
      "inputs": [],
      "name": "pauseGuardian",
      "outputs": [
        {
          "internalType": "address",
          "name": "",
          "type": "address"
        }
      ],
      "stateMutability": "view",
      "type": "function"
    },
    {
      "inputs": [],
      "name": "pendingAdmin",
      "outputs": [
        {
          "internalType": "address",
          "name": "",
          "type": "address"
        }
      ],
      "stateMutability": "view",
      "type": "function"
    },
    {
      "inputs": [],
      "name": "pendingComptrollerImplementation",
      "outputs": [
        {
          "internalType": "address",
          "name": "",
          "type": "address"
        }
      ],
      "stateMutability": "view",
      "type": "function"
    },
    {
      "inputs": [
        {
          "internalType": "address",
          "name": "cToken",
          "type": "address"
        },
        {
          "internalType": "address",
          "name": "redeemer",
          "type": "address"
        },
        {
          "internalType": "uint256",
          "name": "redeemTokens",
          "type": "uint256"
        }
      ],
      "name": "redeemAllowed",
      "outputs": [
        {
          "internalType": "uint256",
          "name": "",
          "type": "uint256"
        }
      ],
      "stateMutability": "nonpayable",
      "type": "function"
    },
    {
      "inputs": [
        {
          "internalType": "address",
          "name": "cToken",
          "type": "address"
        },
        {
          "internalType": "address",
          "name": "redeemer",
          "type": "address"
        },
        {
          "internalType": "uint256",
          "name": "redeemAmount",
          "type": "uint256"
        },
        {
          "internalType": "uint256",
          "name": "redeemTokens",
          "type": "uint256"
        }
      ],
      "name": "redeemVerify",
      "outputs": [],
      "stateMutability": "nonpayable",
      "type": "function"
    },
    {
      "inputs": [
        {
          "internalType": "address",
          "name": "cToken",
          "type": "address"
        },
        {
          "internalType": "address",
          "name": "payer",
          "type": "address"
        },
        {
          "internalType": "address",
          "name": "borrower",
          "type": "address"
        },
        {
          "internalType": "uint256",
          "name": "repayAmount",
          "type": "uint256"
        }
      ],
      "name": "repayBorrowAllowed",
      "outputs": [
        {
          "internalType": "uint256",
          "name": "",
          "type": "uint256"
        }
      ],
      "stateMutability": "nonpayable",
      "type": "function"
    },
    {
      "inputs": [
        {
          "internalType": "address",
          "name": "cToken",
          "type": "address"
        },
        {
          "internalType": "address",
          "name": "payer",
          "type": "address"
        },
        {
          "internalType": "address",
          "name": "borrower",
          "type": "address"
        },
        {
          "internalType": "uint256",
          "name": "actualRepayAmount",
          "type": "uint256"
        },
        {
          "internalType": "uint256",
          "name": "borrowerIndex",
          "type": "uint256"
        }
      ],
      "name": "repayBorrowVerify",
      "outputs": [],
      "stateMutability": "nonpayable",
      "type": "function"
    },
    {
      "inputs": [
        {
          "internalType": "address",
          "name": "cTokenCollateral",
          "type": "address"
        },
        {
          "internalType": "address",
          "name": "cTokenBorrowed",
          "type": "address"
        },
        {
          "internalType": "address",
          "name": "liquidator",
          "type": "address"
        },
        {
          "internalType": "address",
          "name": "borrower",
          "type": "address"
        },
        {
          "internalType": "uint256",
          "name": "seizeTokens",
          "type": "uint256"
        }
      ],
      "name": "seizeAllowed",
      "outputs": [
        {
          "internalType": "uint256",
          "name": "",
          "type": "uint256"
        }
      ],
      "stateMutability": "nonpayable",
      "type": "function"
    },
    {
      "inputs": [],
      "name": "seizeGuardianPaused",
      "outputs": [
        {
          "internalType": "bool",
          "name": "",
          "type": "bool"
        }
      ],
      "stateMutability": "view",
      "type": "function"
    },
    {
      "inputs": [
        {
          "internalType": "address",
          "name": "cTokenCollateral",
          "type": "address"
        },
        {
          "internalType": "address",
          "name": "cTokenBorrowed",
          "type": "address"
        },
        {
          "internalType": "address",
          "name": "liquidator",
          "type": "address"
        },
        {
          "internalType": "address",
          "name": "borrower",
          "type": "address"
        },
        {
          "internalType": "uint256",
          "name": "seizeTokens",
          "type": "uint256"
        }
      ],
      "name": "seizeVerify",
      "outputs": [],
      "stateMutability": "nonpayable",
      "type": "function"
    },
    {
      "inputs": [
        {
          "internalType": "address",
          "name": "borrower",
          "type": "address"
        },
        {
          "internalType": "uint256",
          "name": "_borrowLimit",
          "type": "uint256"
        }
      ],
      "name": "setBorrowerLimits",
      "outputs": [
        {
          "internalType": "uint256",
          "name": "",
          "type": "uint256"
        }
      ],
      "stateMutability": "nonpayable",
      "type": "function"
    },
    {
      "inputs": [
        {
          "internalType": "address",
          "name": "cToken",
          "type": "address"
        },
        {
          "internalType": "address",
          "name": "src",
          "type": "address"
        },
        {
          "internalType": "address",
          "name": "dst",
          "type": "address"
        },
        {
          "internalType": "uint256",
          "name": "transferTokens",
          "type": "uint256"
        }
      ],
      "name": "transferAllowed",
      "outputs": [
        {
          "internalType": "uint256",
          "name": "",
          "type": "uint256"
        }
      ],
      "stateMutability": "nonpayable",
      "type": "function"
    },
    {
      "inputs": [],
      "name": "transferGuardianPaused",
      "outputs": [
        {
          "internalType": "bool",
          "name": "",
          "type": "bool"
        }
      ],
      "stateMutability": "view",
      "type": "function"
    },
    {
      "inputs": [
        {
          "internalType": "address",
          "name": "cToken",
          "type": "address"
        },
        {
          "internalType": "address",
          "name": "src",
          "type": "address"
        },
        {
          "internalType": "address",
          "name": "dst",
          "type": "address"
        },
        {
          "internalType": "uint256",
          "name": "transferTokens",
          "type": "uint256"
        }
      ],
      "name": "transferVerify",
      "outputs": [],
      "stateMutability": "nonpayable",
      "type": "function"
    },
    {
      "inputs": [
        {
          "internalType": "address",
          "name": "contributor",
          "type": "address"
        }
      ],
      "name": "updateContributorRewards",
      "outputs": [],
      "stateMutability": "nonpayable",
      "type": "function"
    },
    {
      "inputs": [
        {
          "internalType": "address",
          "name": "borrower",
          "type": "address"
        }
      ],
      "name": "whitelistBorrowerAdd",
      "outputs": [
        {
          "internalType": "uint256",
          "name": "",
          "type": "uint256"
        }
      ],
      "stateMutability": "nonpayable",
      "type": "function"
    }
  ],
  "transactionHash": "0xa83f0bfe4c0d83bdb232ed09d74af8016d74f9ac86931fee1f16011785bcb268",
  "args": [
    "0x8623C22c571F6fe9494Fe80277848a4901aDD8ba"
  ],
  "numDeployments": 1,
  "solcInputHash": "70af829d0c8190b30499f71a47a94af4",
  "bytecode": "0x60806040523480156200001157600080fd5b506040516200528f3803806200528f833981016040819052620000349162000063565b600480546001600160a01b039092166001600160a01b0319928316179055600080549091163317905562000095565b6000602082840312156200007657600080fd5b81516001600160a01b03811681146200008e57600080fd5b9392505050565b6151ea80620000a56000396000f3fe608060405234801561001057600080fd5b506004361061047f5760003560e01c80636d35bf9111610257578063b21be7fd11610146578063dce15449116100c3578063e875544611610087578063e875544614610bfe578063e9af029214610c07578063eabe7d9114610c1a578063ede4edd014610c2d578063f851a44014610c4057600080fd5b8063dce1544914610b8e578063dcfbc0c714610ba1578063de887e1a14610bb4578063e4028eee14610bd7578063e6653f3d14610bea57600080fd5b8063c488847b1161010a578063c488847b14610af5578063ca0af04314610b1d578063cc7ebdc414610b48578063d02f735114610b68578063da3d454c14610b7b57600080fd5b8063b21be7fd14610a64578063bb82aa5e14610a8f578063bdcdc25814610aa2578063bea6b8b814610ab5578063c299823814610ad557600080fd5b806394b2294b116101d4578063a7f0e23111610198578063a7f0e231146109f1578063aa90075414610a1f578063abfceffc14610a28578063ac0b0bb714610a48578063b0772d0b14610a5c57600080fd5b806394b2294b14610991578063986ab8381461099a5780639d1b5a0a146109ba578063a5e30400146109cb578063a76b3fda146109de57600080fd5b806387f763031161021b57806387f763031461089e5780638c57804e146108b25780638e8f294b146108ea5780638ebf63641461093d578063929fe9a11461095057600080fd5b80636d35bf9114610834578063731f0c2b14610842578063741b2525146108655780637dc0d1d01461087857806386de666e1461088b57600080fd5b806347ef3b3b116103735780635c778605116102f05780636810dfa6116102b45780636810dfa6146107815780636a56947e146107945780636b79c38d146107a25780636bb49ac8146107fe5780636d154ea51461081157600080fd5b80635c778605146107225780635ec88c79146107355780635f5af1aa146107485780635fc7e71e1461075b578063607ef6c11461076e57600080fd5b80634fd42e17116103375780634fd42e17146106c357806351dff989146106d657806352d84d1e146106e957806355ee1fe1146106fc578063598ee1cb1461070f57600080fd5b806347ef3b3b146106435780634a584432146106595780634ada90af146106795780634e79238f146106825780634ef4c3e1146106b057600080fd5b806327efe3cb116104015780633bcf7ec1116103c55780633bcf7ec1146105ef5780633c94786f1461060257806341c728b91461061657806342cbb15c1461062a578063434caf251461063057600080fd5b806327efe3cb1461058357806328f5f502146105965780632d70db78146105b6578063317b0b77146105c9578063391957d7146105dc57600080fd5b80631ededc91116104485780631ededc911461050a57806321af45691461051f57806324008a621461054a57806324a3d6221461055d578063267822471461057057600080fd5b80627e3dd21461048457806318c882a5146104a15780631c3db2e0146104b45780631d504dc6146104c95780631d7b33d7146104dc575b600080fd5b61048c600181565b60405190151581526020015b60405180910390f35b61048c6104af366004614880565b610c53565b6104c76104c2366004614998565b610d95565b005b6104c76104d73660046149e8565b610df8565b6104fc6104ea3660046149e8565b60126020526000908152604090205481565b604051908152602001610498565b6104c7610518366004614a05565b5050505050565b601854610532906001600160a01b031681565b6040516001600160a01b039091168152602001610498565b6104fc610558366004614a60565b610f76565b600d54610532906001600160a01b031681565b600154610532906001600160a01b031681565b6104c7610591366004614ab1565b611034565b6104fc6105a43660046149e8565b600b6020526000908152604090205481565b61048c6105c4366004614add565b61112b565b6104fc6105d7366004614afa565b61121b565b6104c76105ea3660046149e8565b6112c2565b61048c6105fd366004614880565b61138c565b600d5461048c90600160a01b900460ff1681565b6104c7610624366004614b13565b50505050565b436104fc565b6104c761063e366004614ab1565b6114b6565b6104c7610651366004614b59565b505050505050565b6104fc6106673660046149e8565b60196020526000908152604090205481565b6104fc60075481565b610695610690366004614b13565b611518565b60408051938452602084019290925290820152606001610498565b6104fc6106be366004614bc7565b611558565b6104fc6106d1366004614afa565b6115f9565b6104c76106e4366004614b13565b611656565b6105326106f7366004614afa565b6116a5565b6104fc61070a3660046149e8565b6116cf565b6104c761071d366004614ab1565b611748565b6104c7610730366004614bc7565b505050565b6106956107433660046149e8565b61183f565b6104fc6107563660046149e8565b61187a565b6104fc610769366004614c08565b6118f3565b6104c761077c366004614cb8565b6119f4565b6104c761078f366004614d88565b611bd2565b6104c7610624366004614a60565b6107da6107b03660046149e8565b6013602052600090815260409020546001600160e01b03811690600160e01b900463ffffffff1682565b604080516001600160e01b03909316835263ffffffff909116602083015201610498565b6104fc61080c3660046149e8565b611eb1565b61048c61081f3660046149e8565b600f6020526000908152604090205460ff1681565b6104c7610518366004614c08565b61048c6108503660046149e8565b600e6020526000908152604090205460ff1681565b6104c76108733660046149e8565b611f3a565b600554610532906001600160a01b031681565b6104fc610899366004614ab1565b611fe6565b600d5461048c90600160b01b900460ff1681565b6107da6108c03660046149e8565b6014602052600090815260409020546001600160e01b03811690600160e01b900463ffffffff1682565b61091e6108f83660046149e8565b600c6020526000908152604090208054600182015460039092015460ff91821692911683565b6040805193151584526020840192909252151590820152606001610498565b61048c61094b366004614add565b612088565b61048c61095e366004614e11565b6001600160a01b038082166000908152600c60209081526040808320938616835260029093019052205460ff1692915050565b6104fc60085481565b6104fc6109a83660046149e8565b601a6020526000908152604090205481565b6004546001600160a01b0316610532565b6104fc6109d93660046149e8565b61216f565b6104fc6109ec3660046149e8565b6121f7565b610a076ec097ce7bc90715b34b9f100000000081565b6040516001600160e01b039091168152602001610498565b6104fc60115481565b610a3b610a363660046149e8565b612320565b6040516104989190614e3f565b600d5461048c90600160b81b900460ff1681565b610a3b612396565b6104fc610a72366004614e11565b601560209081526000928352604080842090915290825290205481565b600254610532906001600160a01b031681565b6104fc610ab0366004614a60565b6123f8565b6104fc610ac33660046149e8565b601b6020526000908152604090205481565b610ae8610ae3366004614e8c565b612483565b6040516104989190614ec1565b610b08610b03366004614bc7565b61254b565b60408051928352602083019190915201610498565b6104fc610b2b366004614e11565b601660209081526000928352604080842090915290825290205481565b6104fc610b563660046149e8565b60176020526000908152604090205481565b6104fc610b76366004614c08565b612765565b6104fc610b89366004614bc7565b61290c565b610532610b9c366004614ab1565b612cdd565b600354610532906001600160a01b031681565b61048c610bc23660046149e8565b600a6020526000908152604090205460ff1681565b6104fc610be5366004614ab1565b612d15565b600d5461048c90600160a81b900460ff1681565b6104fc60065481565b6104c7610c153660046149e8565b612e9e565b6104fc610c28366004614bc7565b612f02565b6104fc610c3b3660046149e8565b612f3d565b600054610532906001600160a01b031681565b6001600160a01b0382166000908152600c602052604081205460ff16610c945760405162461bcd60e51b8152600401610c8b90614ef9565b60405180910390fd5b600d546001600160a01b0316331480610cb757506000546001600160a01b031633145b610cd35760405162461bcd60e51b8152600401610c8b90614f41565b6000546001600160a01b0316331480610cee57506001821515145b610d0a5760405162461bcd60e51b8152600401610c8b90614f88565b6001600160a01b0383166000818152600f6020908152604091829020805460ff19168615159081179091558251938452606091840182905260069184019190915265426f72726f7760d01b6080840152908201527f71aec636243f9709bb0007ae15e9afb8150ab01716d75fd7573be5cc096e03b09060a0015b60405180910390a150805b92915050565b604080516001808252818301909252600091602080830190803683370190505090508281600081518110610dcb57610dcb614fbf565b60200260200101906001600160a01b031690816001600160a01b0316815250506107308183600180611bd2565b806001600160a01b031663f851a4406040518163ffffffff1660e01b8152600401602060405180830381865afa158015610e36573d6000803e3d6000fd5b505050506040513d601f19601f82011682018060405250810190610e5a9190614fd5565b6001600160a01b0316336001600160a01b031614610eca5760405162461bcd60e51b815260206004820152602760248201527f6f6e6c7920756e6974726f6c6c65722061646d696e2063616e206368616e676560448201526620627261696e7360c81b6064820152608401610c8b565b806001600160a01b031663c1e803346040518163ffffffff1660e01b81526004016020604051808303816000875af1158015610f0a573d6000803e3d6000fd5b505050506040513d601f19601f82011682018060405250810190610f2e9190614ff2565b15610f735760405162461bcd60e51b815260206004820152601560248201527418da185b99d9481b9bdd08185d5d1a1bdc9a5e9959605a1b6044820152606401610c8b565b50565b6001600160a01b0384166000908152600c602052604081205460ff16610f9e5750600961102c565b60006040518060200160405280876001600160a01b031663aa5af0fd6040518163ffffffff1660e01b8152600401602060405180830381865afa158015610fe9573d6000803e3d6000fd5b505050506040513d601f19601f8201168201806040525081019061100d9190614ff2565b9052905061101b86826132a2565b611026868583613502565b60009150505b949350505050565b61103c613668565b6110885760405162461bcd60e51b815260206004820152601960248201527f6f6e6c792061646d696e2063616e206772616e7420636f6d70000000000000006044820152606401610c8b565b60006110948383613691565b905080156110e45760405162461bcd60e51b815260206004820152601b60248201527f696e73756666696369656e7420636f6d7020666f72206772616e7400000000006044820152606401610c8b565b604080516001600160a01b0385168152602081018490527f98b2f82a3a07f223a0be64b3d0f47711c64dccd1feafb94aa28156b38cd9695c910160405180910390a1505050565b600d546000906001600160a01b031633148061115157506000546001600160a01b031633145b61116d5760405162461bcd60e51b8152600401610c8b90614f41565b6000546001600160a01b031633148061118857506001821515145b6111a45760405162461bcd60e51b8152600401610c8b90614f88565b600d8054831515600160b81b0260ff60b81b199091161790556040517fef159d9a32b2472e32b098f954f3ce62d232939f1c207070b584df1814de2de09061120f9084906040808252600590820152645365697a6560d81b6060820152901515602082015260800190565b60405180910390a15090565b600080546001600160a01b031633146112765760405162461bcd60e51b815260206004820152601f60248201527f6f6e6c792061646d696e2063616e2073657420636c6f736520666163746f72006044820152606401610c8b565b600680549083905560408051828152602081018590527f3b9670cf975d26958e754b57098eaa2ac914d8d2a31b83257997b9f346110fd991015b60405180910390a160005b9392505050565b6000546001600160a01b0316331461132b5760405162461bcd60e51b815260206004820152602660248201527f6f6e6c792061646d696e2063616e2073657420626f72726f772063617020677560448201526530b93234b0b760d11b6064820152608401610c8b565b601880546001600160a01b038381166001600160a01b031983168117909355604080519190921680825260208201939093527feda98690e518e9a05f8ec6837663e188211b2da8f4906648b323f2c1d4434e29910160405180910390a15050565b6001600160a01b0382166000908152600c602052604081205460ff166113c45760405162461bcd60e51b8152600401610c8b90614ef9565b600d546001600160a01b03163314806113e757506000546001600160a01b031633145b6114035760405162461bcd60e51b8152600401610c8b90614f41565b6000546001600160a01b031633148061141e57506001821515145b61143a5760405162461bcd60e51b8152600401610c8b90614f88565b6001600160a01b0383166000818152600e6020908152604091829020805460ff19168615159081179091558251938452606091840182905260049184019190915263135a5b9d60e21b6080840152908201527f71aec636243f9709bb0007ae15e9afb8150ab01716d75fd7573be5cc096e03b09060a001610d84565b6114be613668565b61150a5760405162461bcd60e51b815260206004820152601d60248201527f6f6e6c792061646d696e2063616e2073657420636f6d702073706565640000006044820152606401610c8b565b61151482826137b3565b5050565b60008060008060008061152d8a8a8a8a613aea565b9250925092508260118111156115455761154561500b565b95509093509150505b9450945094915050565b6001600160a01b0383166000908152600e602052604081205460ff16156115b25760405162461bcd60e51b815260206004820152600e60248201526d1b5a5b9d081a5cc81c185d5cd95960921b6044820152606401610c8b565b6001600160a01b0384166000908152600c602052604090205460ff166115dc5760095b90506112bb565b6115e584613e37565b6115ef848461408d565b6000949350505050565b600080546001600160a01b0316331461161857610d8f6001600b614231565b600780549083905560408051828152602081018590527faeba5a6c40a8ac138134bff1aaa65debf25971188a58804bad717f82f0ec131691016112b0565b801580156116645750600082115b156106245760405162461bcd60e51b815260206004820152601160248201527072656465656d546f6b656e73207a65726f60781b6044820152606401610c8b565b601081815481106116b557600080fd5b6000918252602090912001546001600160a01b0316905081565b600080546001600160a01b031633146116ee57610d8f60016010614231565b600580546001600160a01b038481166001600160a01b031983168117909355604080519190921680825260208201939093527fd52b2b9b7e9ee655fcb95d2e5b9e0c9f69e7ef2b8e9d2d0ea78402d576d22e2291016112b0565b611750613668565b61179c5760405162461bcd60e51b815260206004820152601d60248201527f6f6e6c792061646d696e2063616e2073657420636f6d702073706565640000006044820152606401610c8b565b6117a582611f3a565b806000036117cb576001600160a01b0382166000908152601b60205260408120556117e6565b436001600160a01b0383166000908152601b60205260409020555b6001600160a01b0382166000818152601a602052604090819020839055517f386537fa92edc3319af95f1f904dcf1900021e4f3f4e08169a577a09076e66b3906118339084815260200190565b60405180910390a25050565b600080600080600080611856876000806000613aea565b92509250925082601181111561186e5761186e61500b565b97919650945092505050565b600080546001600160a01b0316331461189957610d8f60016013614231565b600d80546001600160a01b038481166001600160a01b031983168117909355604080519190921680825260208201939093527f0613b6ee6a04f0d09f390e4d9318894b9f6ac7fd83897cd8d18896ba579c401e91016112b0565b6001600160a01b0385166000908152600c602052604081205460ff16158061193457506001600160a01b0385166000908152600c602052604090205460ff16155b156119435760095b90506119eb565b6040516395dd919360e01b81526001600160a01b038481166004830152600091908816906395dd919390602401602060405180830381865afa15801561198d573d6000803e3d6000fd5b505050506040513d601f19601f820116820180604052508101906119b19190614ff2565b905060006119cf6040518060200160405280600654815250836142aa565b9050808411156119e4576011925050506119eb565b6000925050505b95945050505050565b6000546001600160a01b0316331480611a1757506018546001600160a01b031633145b611a815760405162461bcd60e51b815260206004820152603560248201527f6f6e6c792061646d696e206f7220626f72726f772063617020677561726469616044820152746e2063616e2073657420626f72726f77206361707360581b6064820152608401610c8b565b82818115801590611a9157508082145b611acd5760405162461bcd60e51b815260206004820152600d60248201526c1a5b9d985b1a59081a5b9c1d5d609a1b6044820152606401610c8b565b60005b82811015611bc957848482818110611aea57611aea614fbf565b9050602002013560196000898985818110611b0757611b07614fbf565b9050602002016020810190611b1c91906149e8565b6001600160a01b03168152602081019190915260400160002055868682818110611b4857611b48614fbf565b9050602002016020810190611b5d91906149e8565b6001600160a01b03167f6f1951b2aad10f3fc81b86d91105b413a5b3f847a34bbc5ce1904201b14438f6868684818110611b9957611b99614fbf565b90506020020135604051611baf91815260200190565b60405180910390a280611bc181615037565b915050611ad0565b50505050505050565b60005b8351811015610518576000848281518110611bf257611bf2614fbf565b6020908102919091018101516001600160a01b0381166000908152600c90925260409091205490915060ff16611c625760405162461bcd60e51b81526020600482015260156024820152741b585c9ad95d081b5d5cdd081899481b1a5cdd1959605a1b6044820152606401610c8b565b831515600103611dd25760006040518060200160405280836001600160a01b031663aa5af0fd6040518163ffffffff1660e01b8152600401602060405180830381865afa158015611cb7573d6000803e3d6000fd5b505050506040513d601f19601f82011682018060405250810190611cdb9190614ff2565b90529050611ce982826132a2565b60005b8751811015611dcf57611d1983898381518110611d0b57611d0b614fbf565b602002602001015184613502565b611d7a888281518110611d2e57611d2e614fbf565b6020026020010151601760008b8581518110611d4c57611d4c614fbf565b60200260200101516001600160a01b03166001600160a01b0316815260200190815260200160002054613691565b601760008a8481518110611d9057611d90614fbf565b60200260200101516001600160a01b03166001600160a01b03168152602001908152602001600020819055508080611dc790615037565b915050611cec565b50505b821515600103611e9e57611de581613e37565b60005b8651811015611e9c57611e1482888381518110611e0757611e07614fbf565b602002602001015161408d565b611e47878281518110611e2957611e29614fbf565b6020026020010151601760008a8581518110611d4c57611d4c614fbf565b60176000898481518110611e5d57611e5d614fbf565b60200260200101516001600160a01b03166001600160a01b03168152602001908152602001600020819055508080611e9490615037565b915050611de8565b505b5080611ea981615037565b915050611bd5565b6001600160a01b0381166000908152600a602052604081205460ff161515600114611f1e5760405162461bcd60e51b815260206004820152601f60248201527f41646472657373206e6f74207065726d697474656420746f20626f72726f77006044820152606401610c8b565b506001600160a01b03166000908152600b602052604090205490565b6001600160a01b0381166000908152601a6020908152604080832054601b90925282205490914391611f6d9083906142c2565b9050600081118015611f7f5750600083115b15610624576000611f9082856142ce565b6001600160a01b03861660009081526017602052604081205491925090611fb790836142da565b6001600160a01b038716600090815260176020908152604080832093909355601b905220849055505050505050565b600080546001600160a01b03163314158061201f57506001600160a01b0383166000908152600a602052604090205460ff161515600114155b156120375761203060016014614231565b9050610d8f565b6001600160a01b0383166000818152600b6020908152604091829020859055815192835282018490527fe3443d75173e872722db2eea82e110ccd8843f3e0424238f2cd44df9bfbf6c1a9101610d84565b600d546000906001600160a01b03163314806120ae57506000546001600160a01b031633145b6120ca5760405162461bcd60e51b8152600401610c8b90614f41565b6000546001600160a01b03163314806120e557506001821515145b6121015760405162461bcd60e51b8152600401610c8b90614f88565b600d8054831515600160b01b0260ff60b01b199091161790556040517fef159d9a32b2472e32b098f954f3ce62d232939f1c207070b584df1814de2de09061120f9084906040808252600890820152672a3930b739b332b960c11b6060820152901515602082015260800190565b600080546001600160a01b0316331461218e57610d8f60016014614231565b6001600160a01b0382166000818152600a60209081526040808320805460ff19166001179055600b82528083209290925590519182527f3df9dd335cae22b62876375e06362e2fbe8ab586f724f378560e1aaa06bc00d7910160405180910390a1506000919050565b600080546001600160a01b0316331461221657610d8f60016012614231565b6001600160a01b0382166000908152600c602052604090205460ff161561224357610d8f600a6011614231565b816001600160a01b031663fe9c44ae6040518163ffffffff1660e01b8152600401602060405180830381865afa158015612281573d6000803e3d6000fd5b505050506040513d601f19601f820116820180604052508101906122a59190615050565b506001600160a01b0382166000908152600c602052604081208054600160ff19918216811783556003830180549092169091558101919091556122e7836142e6565b6040516001600160a01b03841681527fcf583bb0c569eb967f806b11601c4cb93c10310485c67add5f8362c2f212321f906020016112b0565b6001600160a01b038116600090815260096020908152604080832080548251818502810185019093528083526060949383018282801561238957602002820191906000526020600020905b81546001600160a01b0316815260019091019060200180831161236b575b5093979650505050505050565b606060108054806020026020016040519081016040528092919081815260200182805480156123ee57602002820191906000526020600020905b81546001600160a01b031681526001909101906020018083116123d0575b5050505050905090565b600d54600090600160b01b900460ff161561244a5760405162461bcd60e51b81526020600482015260126024820152711d1c985b9cd9995c881a5cc81c185d5cd95960721b6044820152606401610c8b565b60006124578686856143ce565b9050801561246657905061102c565b61246f86613e37565b612479868661408d565b611026868561408d565b805160609060008167ffffffffffffffff8111156124a3576124a36148b9565b6040519080825280602002602001820160405280156124cc578160200160208202803683370190505b50905060005b828110156125435760008582815181106124ee576124ee614fbf565b60200260200101519050612502813361442d565b60118111156125135761251361500b565b83838151811061252557612525614fbf565b6020908102919091010152508061253b81615037565b9150506124d2565b509392505050565b60055460405163fc57d4df60e01b81526001600160a01b038581166004830152600092839283929091169063fc57d4df90602401602060405180830381865afa15801561259c573d6000803e3d6000fd5b505050506040513d601f19601f820116820180604052508101906125c09190614ff2565b60055460405163fc57d4df60e01b81526001600160a01b0388811660048301529293506000929091169063fc57d4df90602401602060405180830381865afa158015612610573d6000803e3d6000fd5b505050506040513d601f19601f820116820180604052508101906126349190614ff2565b9050811580612641575080155b1561265557600d600093509350505061275d565b6000866001600160a01b031663182df0f56040518163ffffffff1660e01b8152600401602060405180830381865afa158015612695573d6000803e3d6000fd5b505050506040513d601f19601f820116820180604052508101906126b99190614ff2565b905060006126d36040518060200160405280600081525090565b60408051602080820183526000808352835180830185529081528351808301855260075481528451928301909452888252919261270f91614521565b9250612737604051806020016040528088815250604051806020016040528088815250614521565b91506127438383614569565b905061274f818b6142aa565b600099509750505050505050505b935093915050565b600d54600090600160b81b900460ff16156127b45760405162461bcd60e51b815260206004820152600f60248201526e1cd95a5e99481a5cc81c185d5cd959608a1b6044820152606401610c8b565b6001600160a01b0386166000908152600c602052604090205460ff1615806127f557506001600160a01b0385166000908152600c602052604090205460ff16155b1561280157600961193c565b846001600160a01b0316635fe3b5676040518163ffffffff1660e01b8152600401602060405180830381865afa15801561283f573d6000803e3d6000fd5b505050506040513d601f19601f820116820180604052508101906128639190614fd5565b6001600160a01b0316866001600160a01b0316635fe3b5676040518163ffffffff1660e01b8152600401602060405180830381865afa1580156128aa573d6000803e3d6000fd5b505050506040513d601f19601f820116820180604052508101906128ce9190614fd5565b6001600160a01b0316146128e357600261193c565b6128ec86613e37565b6128f6868461408d565b612900868561408d565b60009695505050505050565b6001600160a01b0383166000908152600f602052604081205460ff16156129685760405162461bcd60e51b815260206004820152601060248201526f189bdc9c9bddc81a5cc81c185d5cd95960821b6044820152606401610c8b565b6001600160a01b0384166000908152600c602052604090205460ff1661298f5760096115d5565b6001600160a01b038085166000908152600c60209081526040808320938716835260029093019052205460ff16612a8c57336001600160a01b03851614612a105760405162461bcd60e51b815260206004820152601560248201527439b2b73232b91036bab9ba1031329031aa37b5b2b760591b6044820152606401610c8b565b6000612a1c338561442d565b90506000816011811115612a3257612a3261500b565b14612a5157806011811115612a4957612a4961500b565b9150506112bb565b6001600160a01b038086166000908152600c60209081526040808320938816835260029093019052205460ff16612a8a57612a8a61506d565b505b60055460405163fc57d4df60e01b81526001600160a01b0386811660048301529091169063fc57d4df90602401602060405180830381865afa158015612ad6573d6000803e3d6000fd5b505050506040513d601f19601f82011682018060405250810190612afa9190614ff2565b600003612b0857600d6115d5565b6001600160a01b0384166000908152601960205260409020548015612bed576000856001600160a01b03166347bd37186040518163ffffffff1660e01b8152600401602060405180830381865afa158015612b67573d6000803e3d6000fd5b505050506040513d601f19601f82011682018060405250810190612b8b9190614ff2565b90506000612b9982866142da565b9050828110612bea5760405162461bcd60e51b815260206004820152601960248201527f6d61726b657420626f72726f77206361702072656163686564000000000000006044820152606401610c8b565b50505b600080612bfd8688600088613aea565b91935090915060009050826011811115612c1957612c1961500b565b14612c3a57816011811115612c3057612c3061500b565b93505050506112bb565b8015612c47576004612c30565b60006040518060200160405280896001600160a01b031663aa5af0fd6040518163ffffffff1660e01b8152600401602060405180830381865afa158015612c92573d6000803e3d6000fd5b505050506040513d601f19601f82011682018060405250810190612cb69190614ff2565b90529050612cc488826132a2565b612ccf888883613502565b600098975050505050505050565b60096020528160005260406000208181548110612cf957600080fd5b6000918252602090912001546001600160a01b03169150829050565b600080546001600160a01b03163314612d345761203060016006614231565b6001600160a01b0383166000908152600c60205260409020805460ff16612d6957612d6160096007614231565b915050610d8f565b60408051602080820183528582528251908101909252670c7d713b49da0000825290612d9781835190511090565b15612db257612da860066008614231565b9350505050610d8f565b8415801590612e2c575060055460405163fc57d4df60e01b81526001600160a01b0388811660048301529091169063fc57d4df90602401602060405180830381865afa158015612e06573d6000803e3d6000fd5b505050506040513d601f19601f82011682018060405250810190612e2a9190614ff2565b155b15612e3d57612da8600d6009614231565b60018301805490869055604080516001600160a01b0389168152602081018390529081018790527f70483e6592cd5182d45ac970e05bc62cdcc90e9d8ef2c2dbe686cf383bcd7fc59060600160405180910390a16000979650505050505050565b610f73816010805480602002602001604051908101604052809291908181526020018280548015612ef857602002820191906000526020600020905b81546001600160a01b03168152600190910190602001808311612eda575b5050505050610d95565b600080612f108585856143ce565b90508015612f1f5790506112bb565b612f2885613e37565b612f32858561408d565b600095945050505050565b6040516361bfb47160e11b815233600482015260009082908290819081906001600160a01b0385169063c37f68e290602401608060405180830381865afa158015612f8c573d6000803e3d6000fd5b505050506040513d601f19601f82011682018060405250810190612fb09190615083565b50925092509250826000146130155760405162461bcd60e51b815260206004820152602560248201527f657869744d61726b65743a206765744163636f756e74536e617073686f742066604482015264185a5b195960da1b6064820152608401610c8b565b801561303157613027600c6002614231565b9695505050505050565b600061303e8733856143ce565b9050801561305e57613053600e6003836145a3565b979650505050505050565b6001600160a01b0385166000908152600c60209081526040808320338452600281019092529091205460ff1661309c57600098975050505050505050565b3360009081526002820160209081526040808320805460ff19169055600982528083208054825181850281018501909352808352919290919083018282801561310e57602002820191906000526020600020905b81546001600160a01b031681526001909101906020018083116130f0575b5050835193945083925060009150505b8281101561317257896001600160a01b031684828151811061314257613142614fbf565b60200260200101516001600160a01b03160361316057809150613172565b8061316a81615037565b91505061311e565b508181106131825761318261506d565b336000908152600960205260409020805481906131a1906001906150b9565b815481106131b1576131b1614fbf565b9060005260206000200160009054906101000a90046001600160a01b03168183815481106131e1576131e1614fbf565b9060005260206000200160006101000a8154816001600160a01b0302191690836001600160a01b031602179055508080548061321f5761321f6150d0565b600082815260209020810160001990810180546001600160a01b03191690550190556040517fe699a64c18b07ac5b7301aa273f36a2287239eb9501d81950672794afba29a0d90613288908c9033906001600160a01b0392831681529116602082015260400190565b60405180910390a160009c9b505050505050505050505050565b6001600160a01b0382166000908152601460209081526040808320601290925282205490914383549091506000906132e8908390600160e01b900463ffffffff166142c2565b90506000811180156132fa5750600083115b156134a857600061336c876001600160a01b03166347bd37186040518163ffffffff1660e01b8152600401602060405180830381865afa158015613342573d6000803e3d6000fd5b505050506040513d601f19601f820116820180604052508101906133669190614ff2565b8761461b565b9050600061337a83866142ce565b9050600080831161339a57604051806020016040528060008152506133a4565b6133a48284614639565b604080516020810190915288546001600160e01b031681529091506000906133cc9083614675565b9050604051806040016040528061341c83600001516040518060400160405280601a81526020017f6e657720696e64657820657863656564732032323420626974730000000000008152506146a1565b6001600160e01b03168152602001613457886040518060400160405280601c81526020016000805160206151958339815191528152506146d0565b63ffffffff9081169091526001600160a01b038c16600090815260146020908152604090912083519390910151909116600160e01b026001600160e01b039092169190911790555061065192505050565b8015610651576134db826040518060400160405280601c81526020016000805160206151958339815191528152506146d0565b845463ffffffff91909116600160e01b026001600160e01b03909116178455505050505050565b6001600160a01b0380841660008181526014602090815260408083208151808401835281546001600160e01b03168152825180850184529585526016845282852096891680865287855292852080548752815193909552959092529091558151909291901561065157600061357783836146f8565b6040516395dd919360e01b81526001600160a01b0388811660048301529192506000916135c891908a16906395dd919390602401602060405180830381865afa158015613342573d6000803e3d6000fd5b905060006135d68284614724565b6001600160a01b038916600090815260176020526040812054919250906135fd90836142da565b6001600160a01b038a81166000818152601760209081526040918290208590558a518251888152918201529394509092918d16917f1fc3ecc087d8d2d15e23d0032af5a47059c3892d003d8e139fdcb6bb327c99a6910160405180910390a350505050505050505050565b600080546001600160a01b031633148061368c57506002546001600160a01b031633145b905090565b6000806136a66004546001600160a01b031690565b6040516370a0823160e01b81523060048201529091506000906001600160a01b038316906370a0823190602401602060405180830381865afa1580156136f0573d6000803e3d6000fd5b505050506040513d601f19601f820116820180604052508101906137149190614ff2565b90506000841180156137265750808411155b156137aa5760405163a9059cbb60e01b81526001600160a01b0386811660048301526024820186905283169063a9059cbb906044016020604051808303816000875af115801561377a573d6000803e3d6000fd5b505050506040513d601f19601f8201168201806040525081019061379e9190615050565b50600092505050610d8f565b50919392505050565b6001600160a01b038216600090815260126020526040902054801561385e5760006040518060200160405280856001600160a01b031663aa5af0fd6040518163ffffffff1660e01b8152600401602060405180830381865afa15801561381d573d6000803e3d6000fd5b505050506040513d601f19601f820116820180604052508101906138419190614ff2565b9052905061384e84613e37565b61385884826132a2565b50613a89565b8115613a89576001600160a01b0383166000908152600c60205260409020805460ff1615156001146138d25760405162461bcd60e51b815260206004820152601960248201527f636f6d70206d61726b6574206973206e6f74206c6973746564000000000000006044820152606401610c8b565b6001600160a01b0384166000908152601360205260409020546001600160e01b031615801561392457506001600160a01b038416600090815260136020526040902054600160e01b900463ffffffff16155b156139bf57604080518082019091526ec097ce7bc90715b34b9f1000000000815260208101613977435b6040518060400160405280601c81526020016000805160206151958339815191528152506146d0565b63ffffffff9081169091526001600160a01b038616600090815260136020908152604090912083519390910151909116600160e01b026001600160e01b039092169190911790555b6001600160a01b0384166000908152601460205260409020546001600160e01b0316158015613a1157506001600160a01b038416600090815260146020526040902054600160e01b900463ffffffff16155b15613a8757604080518082019091526ec097ce7bc90715b34b9f1000000000815260208101613a3f4361394e565b63ffffffff9081169091526001600160a01b038616600090815260146020908152604090912083519390910151909116600160e01b026001600160e01b039092169190911790555b505b818114610730576001600160a01b03831660008181526012602052604090819020849055517f2ab93f65628379309f36cb125e90d7c902454a545c4f8b8cb0794af75c24b80790613add9085815260200190565b60405180910390a2505050565b6000806000613af76147bb565b6001600160a01b038816600090815260096020908152604080832080548251818502810185019093528083528493830182828015613b5e57602002820191906000526020600020905b81546001600160a01b03168152600190910190602001808311613b40575b5050506001600160a01b038d166000908152600b6020526040812054875292935050505b8151811015613de1576000828281518110613b9f57613b9f614fbf565b60209081029190910101516040516361bfb47160e11b81526001600160a01b038e811660048301529192509082169063c37f68e290602401608060405180830381865afa158015613bf4573d6000803e3d6000fd5b505050506040513d601f19601f82011682018060405250810190613c189190615083565b60808901526060880152604087015293508315613c4457600f600080975097509750505050505061154e565b60408051602080820183526001600160a01b038481166000818152600c845285902060010154845260c08a0193909352835191820184526080890151825260e0890191909152600554925163fc57d4df60e01b81526004810192909252919091169063fc57d4df90602401602060405180830381865afa158015613ccc573d6000803e3d6000fd5b505050506040513d601f19601f82011682018060405250810190613cf09190614ff2565b60a08601819052600003613d1357600d600080975097509750505050505061154e565b604080516020810190915260a0860151815261010086015260c085015160e0860151613d4d91613d4291614521565b866101000151614521565b610120860181905260408601518651613d6792919061474e565b855261010085015160608601516020870151613d8492919061474e565b60208601526001600160a01b03808c1690821603613dce57613db08561012001518b876020015161474e565b60208601819052610100860151613dc8918b9061474e565b60208601525b5080613dd981615037565b915050613b82565b50602083015183511115613e125760208301518351600091613e02916150b9565b600095509550955050505061154e565b60008084600001518560200151613e2991906150b9565b95509550955050505061154e565b6001600160a01b038116600090815260136020908152604080832060129092528220549091438354909150600090613e7d908390600160e01b900463ffffffff166142c2565b9050600081118015613e8f5750600083115b15614034576000856001600160a01b03166318160ddd6040518163ffffffff1660e01b8152600401602060405180830381865afa158015613ed4573d6000803e3d6000fd5b505050506040513d601f19601f82011682018060405250810190613ef89190614ff2565b90506000613f0683866142ce565b90506000808311613f265760405180602001604052806000815250613f30565b613f308284614639565b604080516020810190915288546001600160e01b03168152909150600090613f589083614675565b90506040518060400160405280613fa883600001516040518060400160405280601a81526020017f6e657720696e64657820657863656564732032323420626974730000000000008152506146a1565b6001600160e01b03168152602001613fe3886040518060400160405280601c81526020016000805160206151958339815191528152506146d0565b63ffffffff9081169091526001600160a01b038b16600090815260136020908152604090912083519390910151909116600160e01b026001600160e01b039092169190911790555061051892505050565b801561051857614067826040518060400160405280601c81526020016000805160206151958339815191528152506146d0565b845463ffffffff91909116600160e01b026001600160e01b039091161784555050505050565b6001600160a01b0380831660008181526013602090815260408083208151808401835281546001600160e01b03168152825180850184529585526015845282852096881680865287855292852080548752815193909552959092529091558151909291901580156140fe5750815115155b15614116576ec097ce7bc90715b34b9f100000000081525b600061412283836146f8565b6040516370a0823160e01b81526001600160a01b0387811660048301529192506000918816906370a0823190602401602060405180830381865afa15801561416e573d6000803e3d6000fd5b505050506040513d601f19601f820116820180604052508101906141929190614ff2565b905060006141a08284614724565b6001600160a01b038816600090815260176020526040812054919250906141c790836142da565b6001600160a01b038981166000818152601760209081526040918290208590558a518251888152918201529394509092918c16917f2caecd17d02f56fa897705dcc740da2d237c373f70686f4e0d9bd3bf0400ea7a910160405180910390a3505050505050505050565b60007f45b96fe442630264581b197e84bbada861235052c5a1aadfff9ea4e40a969aa08360118111156142665761426661500b565b8360148111156142785761427861500b565b60408051928352602083019190915260009082015260600160405180910390a18260118111156112bb576112bb61500b565b6000806142b7848461476f565b905061102c81614797565b60006112bb82846150b9565b60006112bb82846150e6565b60006112bb8284615105565b60005b60105481101561437b57816001600160a01b03166010828154811061431057614310614fbf565b6000918252602090912001546001600160a01b0316036143695760405162461bcd60e51b81526020600482015260146024820152731b585c9ad95d08185b1c9958591e48185919195960621b6044820152606401610c8b565b8061437381615037565b9150506142e9565b50601080546001810182556000919091527f1b6847dc741a1b0cd08d278845f9d819d87b734759afb55fe2de5cb82a9ae6720180546001600160a01b0319166001600160a01b0392909216919091179055565b6001600160a01b0383166000908152600c602052604081205460ff166143f55760096115d5565b6001600160a01b038085166000908152600c60209081526040808320938716835260029093019052205460ff166115ef5760006115d5565b6001600160a01b0382166000908152600c60205260408120805460ff16614458576009915050610d8f565b6001600160a01b038316600090815260028201602052604090205460ff161515600103614489576000915050610d8f565b6001600160a01b03838116600081815260028401602090815260408083208054600160ff199091168117909155600983528184208054918201815584529282902090920180546001600160a01b031916948916948517905581519384528301919091527f3ab23ab0d51cccc0c3085aec51f99228625aa1a922b3a8ca89a26b0f2027a1a5910160405180910390a15060009392505050565b6040805160208101909152600081526040518060200160405280670de0b6b3a7640000614556866000015186600001516142ce565b614560919061511d565b90529392505050565b604080516020810190915260008152604051806020016040528061456061459c8660000151670de0b6b3a76400006142ce565b85516147af565b60007f45b96fe442630264581b197e84bbada861235052c5a1aadfff9ea4e40a969aa08460118111156145d8576145d861500b565b8460148111156145ea576145ea61500b565b604080519283526020830191909152810184905260600160405180910390a183601181111561102c5761102c61500b565b60006112bb61463284670de0b6b3a76400006142ce565b83516147af565b604080516020810190915260008152604051806020016040528061456061466f866ec097ce7bc90715b34b9f10000000006142ce565b856147af565b6040805160208101909152600081526040518060200160405280614560856000015185600001516142da565b600081600160e01b84106146c85760405162461bcd60e51b8152600401610c8b919061513f565b509192915050565b60008164010000000084106146c85760405162461bcd60e51b8152600401610c8b919061513f565b6040805160208101909152600081526040518060200160405280614560856000015185600001516142c2565b60006ec097ce7bc90715b34b9f10000000006147448484600001516142ce565b6112bb919061511d565b60008061475b858561476f565b90506119eb61476982614797565b846142da565b60408051602081019091526000815260405180602001604052806145608560000151856142ce565b8051600090610d8f90670de0b6b3a76400009061511d565b60006112bb828461511d565b6040518061014001604052806000815260200160008152602001600081526020016000815260200160008152602001600081526020016148076040518060200160405280600081525090565b81526020016148226040518060200160405280600081525090565b815260200161483d6040518060200160405280600081525090565b81526020016148586040518060200160405280600081525090565b905290565b6001600160a01b0381168114610f7357600080fd5b8015158114610f7357600080fd5b6000806040838503121561489357600080fd5b823561489e8161485d565b915060208301356148ae81614872565b809150509250929050565b634e487b7160e01b600052604160045260246000fd5b604051601f8201601f1916810167ffffffffffffffff811182821017156148f8576148f86148b9565b604052919050565b600067ffffffffffffffff82111561491a5761491a6148b9565b5060051b60200190565b600082601f83011261493557600080fd5b8135602061494a61494583614900565b6148cf565b82815260059290921b8401810191818101908684111561496957600080fd5b8286015b8481101561498d5780356149808161485d565b835291830191830161496d565b509695505050505050565b600080604083850312156149ab57600080fd5b82356149b68161485d565b9150602083013567ffffffffffffffff8111156149d257600080fd5b6149de85828601614924565b9150509250929050565b6000602082840312156149fa57600080fd5b81356112bb8161485d565b600080600080600060a08688031215614a1d57600080fd5b8535614a288161485d565b94506020860135614a388161485d565b93506040860135614a488161485d565b94979396509394606081013594506080013592915050565b60008060008060808587031215614a7657600080fd5b8435614a818161485d565b93506020850135614a918161485d565b92506040850135614aa18161485d565b9396929550929360600135925050565b60008060408385031215614ac457600080fd5b8235614acf8161485d565b946020939093013593505050565b600060208284031215614aef57600080fd5b81356112bb81614872565b600060208284031215614b0c57600080fd5b5035919050565b60008060008060808587031215614b2957600080fd5b8435614b348161485d565b93506020850135614b448161485d565b93969395505050506040820135916060013590565b60008060008060008060c08789031215614b7257600080fd5b8635614b7d8161485d565b95506020870135614b8d8161485d565b94506040870135614b9d8161485d565b93506060870135614bad8161485d565b9598949750929560808101359460a0909101359350915050565b600080600060608486031215614bdc57600080fd5b8335614be78161485d565b92506020840135614bf78161485d565b929592945050506040919091013590565b600080600080600060a08688031215614c2057600080fd5b8535614c2b8161485d565b94506020860135614c3b8161485d565b93506040860135614c4b8161485d565b92506060860135614c5b8161485d565b949793965091946080013592915050565b60008083601f840112614c7e57600080fd5b50813567ffffffffffffffff811115614c9657600080fd5b6020830191508360208260051b8501011115614cb157600080fd5b9250929050565b60008060008060408587031215614cce57600080fd5b843567ffffffffffffffff80821115614ce657600080fd5b614cf288838901614c6c565b90965094506020870135915080821115614d0b57600080fd5b50614d1887828801614c6c565b95989497509550505050565b600082601f830112614d3557600080fd5b81356020614d4561494583614900565b82815260059290921b84018101918181019086841115614d6457600080fd5b8286015b8481101561498d578035614d7b8161485d565b8352918301918301614d68565b60008060008060808587031215614d9e57600080fd5b843567ffffffffffffffff80821115614db657600080fd5b614dc288838901614d24565b95506020870135915080821115614dd857600080fd5b50614de587828801614924565b9350506040850135614df681614872565b91506060850135614e0681614872565b939692955090935050565b60008060408385031215614e2457600080fd5b8235614e2f8161485d565b915060208301356148ae8161485d565b6020808252825182820181905260009190848201906040850190845b81811015614e805783516001600160a01b031683529284019291840191600101614e5b565b50909695505050505050565b600060208284031215614e9e57600080fd5b813567ffffffffffffffff811115614eb557600080fd5b61102c84828501614d24565b6020808252825182820181905260009190848201906040850190845b81811015614e8057835183529284019291840191600101614edd565b60208082526028908201527f63616e6e6f742070617573652061206d61726b65742074686174206973206e6f6040820152671d081b1a5cdd195960c21b606082015260800190565b60208082526027908201527f6f6e6c7920706175736520677561726469616e20616e642061646d696e2063616040820152666e20706175736560c81b606082015260800190565b60208082526016908201527f6f6e6c792061646d696e2063616e20756e706175736500000000000000000000604082015260600190565b634e487b7160e01b600052603260045260246000fd5b600060208284031215614fe757600080fd5b81516112bb8161485d565b60006020828403121561500457600080fd5b5051919050565b634e487b7160e01b600052602160045260246000fd5b634e487b7160e01b600052601160045260246000fd5b60006001820161504957615049615021565b5060010190565b60006020828403121561506257600080fd5b81516112bb81614872565b634e487b7160e01b600052600160045260246000fd5b6000806000806080858703121561509957600080fd5b505082516020840151604085015160609095015191969095509092509050565b6000828210156150cb576150cb615021565b500390565b634e487b7160e01b600052603160045260246000fd5b600081600019048311821515161561510057615100615021565b500290565b6000821982111561511857615118615021565b500190565b60008261513a57634e487b7160e01b600052601260045260246000fd5b500490565b600060208083528351808285015260005b8181101561516c57858101830151858201604001528201615150565b8181111561517e576000604083870101525b50601f01601f191692909201604001939250505056fe626c6f636b206e756d6265722065786365656473203332206269747300000000a264697066735822122009f6435cb6d35d44c8cf7e061b6c593d54db7d41cd7e5a09223b844b7d5f876064736f6c634300080d0033",
  "devdoc": {
    "author": "Compound",
    "kind": "dev",
    "methods": {
      "_grantComp(address,uint256)": {
        "details": "Note: If there is not enough COMP, we do not perform the transfer all.",
        "params": {
          "amount": "The amount of COMP to (possibly) transfer",
          "recipient": "The address of the recipient to transfer COMP to"
        }
      },
      "_setBorrowCapGuardian(address)": {
        "params": {
          "newBorrowCapGuardian": "The address of the new Borrow Cap Guardian"
        }
      },
      "_setCloseFactor(uint256)": {
        "details": "Admin function to set closeFactor",
        "params": {
          "newCloseFactorMantissa": "New close factor, scaled by 1e18"
        },
        "returns": {
          "_0": "uint 0=success, otherwise a failure"
        }
      },
      "_setCollateralFactor(address,uint256)": {
        "details": "Admin function to set per-market collateralFactor",
        "params": {
          "cToken": "The market to set the factor on",
          "newCollateralFactorMantissa": "The new collateral factor, scaled by 1e18"
        },
        "returns": {
          "_0": "uint 0=success, otherwise a failure. (See ErrorReporter for details)"
        }
      },
      "_setCompSpeed(address,uint256)": {
        "params": {
          "cToken": "The market whose COMP speed to update",
          "compSpeed": "New COMP speed for market"
        }
      },
      "_setContributorCompSpeed(address,uint256)": {
        "params": {
          "compSpeed": "New COMP speed for contributor",
          "contributor": "The contributor whose COMP speed to update"
        }
      },
      "_setLiquidationIncentive(uint256)": {
        "details": "Admin function to set liquidationIncentive",
        "params": {
          "newLiquidationIncentiveMantissa": "New liquidationIncentive scaled by 1e18"
        },
        "returns": {
          "_0": "uint 0=success, otherwise a failure. (See ErrorReporter for details)"
        }
      },
      "_setMarketBorrowCaps(address[],uint256[])": {
        "details": "Admin or borrowCapGuardian function to set the borrow caps. A borrow cap of 0 corresponds to unlimited borrowing.",
        "params": {
          "cTokens": "The addresses of the markets (tokens) to change the borrow caps for",
          "newBorrowCaps": "The new borrow cap values in underlying to be set. A value of 0 corresponds to unlimited borrowing."
        }
      },
      "_setPauseGuardian(address)": {
        "params": {
          "newPauseGuardian": "The address of the new Pause Guardian"
        },
        "returns": {
          "_0": "uint 0=success, otherwise a failure. (See enum Error for details)"
        }
      },
      "_setPriceOracle(address)": {
        "details": "Admin function to set a new price oracle",
        "returns": {
          "_0": "uint 0=success, otherwise a failure (see ErrorReporter.sol for details)"
        }
      },
      "_supportMarket(address)": {
        "details": "Admin function to set isListed and add support for the market",
        "params": {
          "cToken": "The address of the market (token) to list"
        },
        "returns": {
          "_0": "uint 0=success, otherwise a failure. (See enum Error for details)"
        }
      },
      "borrowAllowed(address,address,uint256)": {
        "params": {
          "borrowAmount": "The amount of underlying the account would borrow",
          "borrower": "The account which would borrow the asset",
          "cToken": "The market to verify the borrow against"
        },
        "returns": {
          "_0": "0 if the borrow is allowed, otherwise a semi-opaque error code (See ErrorReporter.sol)"
        }
      },
      "borrowVerify(address,address,uint256)": {
        "params": {
          "borrowAmount": "The amount of the underlying asset requested to borrow",
          "borrower": "The address borrowing the underlying",
          "cToken": "Asset whose underlying is being borrowed"
        }
      },
      "checkMembership(address,address)": {
        "params": {
          "account": "The address of the account to check",
          "cToken": "The cToken to check"
        },
        "returns": {
          "_0": "True if the account is in the asset, otherwise false."
        }
      },
      "claimComp(address)": {
        "params": {
          "holder": "The address to claim COMP for"
        }
      },
      "claimComp(address,address[])": {
        "params": {
          "cTokens": "The list of markets to claim COMP in",
          "holder": "The address to claim COMP for"
        }
      },
      "claimComp(address[],address[],bool,bool)": {
        "params": {
          "borrowers": "Whether or not to claim COMP earned by borrowing",
          "cTokens": "The list of markets to claim COMP in",
          "holders": "The addresses to claim COMP for",
          "suppliers": "Whether or not to claim COMP earned by supplying"
        }
      },
      "enterMarkets(address[])": {
        "params": {
          "cTokens": "The list of addresses of the cToken markets to be enabled"
        },
        "returns": {
          "_0": "Success indicator for whether each corresponding market was entered"
        }
      },
      "exitMarket(address)": {
        "details": "Sender must not have an outstanding borrow balance in the asset,  or be providing necessary collateral for an outstanding borrow.",
        "params": {
          "cTokenAddress": "The address of the asset to be removed"
        },
        "returns": {
          "_0": "Whether or not the account successfully exited the market"
        }
      },
      "getAccountLiquidity(address)": {
        "returns": {
          "_0": "(possible error code (semi-opaque), account liquidity in excess of collateral requirements,          account shortfall below collateral requirements)"
        }
      },
      "getAllMarkets()": {
        "details": "The automatic getter may be used to access an individual market.",
        "returns": {
          "_0": "The list of market addresses"
        }
      },
      "getAssetsIn(address)": {
        "params": {
          "account": "The address of the account to pull assets for"
        },
        "returns": {
          "_0": "A dynamic list with the assets the account has entered"
        }
      },
      "getCompAddress()": {
        "returns": {
          "_0": "The address of COMP"
        }
      },
      "getHypotheticalAccountLiquidity(address,address,uint256,uint256)": {
        "params": {
          "account": "The account to determine liquidity for",
          "borrowAmount": "The amount of underlying to hypothetically borrow",
          "cTokenModify": "The market to hypothetically redeem/borrow in",
          "redeemTokens": "The number of tokens to hypothetically redeem"
        },
        "returns": {
          "_0": "(possible error code (semi-opaque), hypothetical account liquidity in excess of collateral requirements,          hypothetical account shortfall below collateral requirements)"
        }
      },
      "liquidateBorrowAllowed(address,address,address,address,uint256)": {
        "params": {
          "borrower": "The address of the borrower",
          "cTokenBorrowed": "Asset which was borrowed by the borrower",
          "cTokenCollateral": "Asset which was used as collateral and will be seized",
          "liquidator": "The address repaying the borrow and seizing the collateral",
          "repayAmount": "The amount of underlying being repaid"
        }
      },
      "liquidateBorrowVerify(address,address,address,address,uint256,uint256)": {
        "params": {
          "actualRepayAmount": "The amount of underlying being repaid",
          "borrower": "The address of the borrower",
          "cTokenBorrowed": "Asset which was borrowed by the borrower",
          "cTokenCollateral": "Asset which was used as collateral and will be seized",
          "liquidator": "The address repaying the borrow and seizing the collateral"
        }
      },
      "liquidateCalculateSeizeTokens(address,address,uint256)": {
        "details": "Used in liquidation (called in cToken.liquidateBorrowFresh)",
        "params": {
          "actualRepayAmount": "The amount of cTokenBorrowed underlying to convert into cTokenCollateral tokens",
          "cTokenBorrowed": "The address of the borrowed cToken",
          "cTokenCollateral": "The address of the collateral cToken"
        },
        "returns": {
          "_0": "(errorCode, number of cTokenCollateral tokens to be seized in a liquidation)"
        }
      },
      "mintAllowed(address,address,uint256)": {
        "params": {
          "cToken": "The market to verify the mint against",
          "mintAmount": "The amount of underlying being supplied to the market in exchange for tokens",
          "minter": "The account which would get the minted tokens"
        },
        "returns": {
          "_0": "0 if the mint is allowed, otherwise a semi-opaque error code (See ErrorReporter.sol)"
        }
      },
      "mintVerify(address,address,uint256,uint256)": {
        "params": {
          "actualMintAmount": "The amount of the underlying asset being minted",
          "cToken": "Asset being minted",
          "mintTokens": "The number of tokens being minted",
          "minter": "The address minting the tokens"
        }
      },
      "redeemAllowed(address,address,uint256)": {
        "params": {
          "cToken": "The market to verify the redeem against",
          "redeemTokens": "The number of cTokens to exchange for the underlying asset in the market",
          "redeemer": "The account which would redeem the tokens"
        },
        "returns": {
          "_0": "0 if the redeem is allowed, otherwise a semi-opaque error code (See ErrorReporter.sol)"
        }
      },
      "redeemVerify(address,address,uint256,uint256)": {
        "params": {
          "cToken": "Asset being redeemed",
          "redeemAmount": "The amount of the underlying asset being redeemed",
          "redeemTokens": "The number of tokens being redeemed",
          "redeemer": "The address redeeming the tokens"
        }
      },
      "repayBorrowAllowed(address,address,address,uint256)": {
        "params": {
          "borrower": "The account which would borrowed the asset",
          "cToken": "The market to verify the repay against",
          "payer": "The account which would repay the asset",
          "repayAmount": "The amount of the underlying asset the account would repay"
        },
        "returns": {
          "_0": "0 if the repay is allowed, otherwise a semi-opaque error code (See ErrorReporter.sol)"
        }
      },
      "repayBorrowVerify(address,address,address,uint256,uint256)": {
        "params": {
          "actualRepayAmount": "The amount of underlying being repaid",
          "borrower": "The address of the borrower",
          "cToken": "Asset being repaid",
          "payer": "The address repaying the borrow"
        }
      },
      "seizeAllowed(address,address,address,address,uint256)": {
        "params": {
          "borrower": "The address of the borrower",
          "cTokenBorrowed": "Asset which was borrowed by the borrower",
          "cTokenCollateral": "Asset which was used as collateral and will be seized",
          "liquidator": "The address repaying the borrow and seizing the collateral",
          "seizeTokens": "The number of collateral tokens to seize"
        }
      },
      "seizeVerify(address,address,address,address,uint256)": {
        "params": {
          "borrower": "The address of the borrower",
          "cTokenBorrowed": "Asset which was borrowed by the borrower",
          "cTokenCollateral": "Asset which was used as collateral and will be seized",
          "liquidator": "The address repaying the borrow and seizing the collateral",
          "seizeTokens": "The number of collateral tokens to seize"
        }
      },
      "transferAllowed(address,address,address,uint256)": {
        "params": {
          "cToken": "The market to verify the transfer against",
          "dst": "The account which receives the tokens",
          "src": "The account which sources the tokens",
          "transferTokens": "The number of cTokens to transfer"
        },
        "returns": {
          "_0": "0 if the transfer is allowed, otherwise a semi-opaque error code (See ErrorReporter.sol)"
        }
      },
      "transferVerify(address,address,address,uint256)": {
        "params": {
          "cToken": "Asset being transferred",
          "dst": "The account which receives the tokens",
          "src": "The account which sources the tokens",
          "transferTokens": "The number of cTokens to transfer"
        }
      },
      "updateContributorRewards(address)": {
        "params": {
          "contributor": "The address to calculate contributor rewards for"
        }
      }
    },
    "title": "Compound's Comptroller Contract",
    "version": 1
  },
  "userdoc": {
    "events": {
      "ActionPaused(address,string,bool)": {
        "notice": "Emitted when an action is paused on a market"
      },
      "ActionPaused(string,bool)": {
        "notice": "Emitted when an action is paused globally"
      },
      "BorrowerLimitChanged(address,uint256)": {
        "notice": "Emitted when borrower's limits are changed"
      },
      "BorrowerWhitelisted(address)": {
        "notice": "Emitted when new borrower is whitelisted"
      },
      "CompGranted(address,uint256)": {
        "notice": "Emitted when COMP is granted by admin"
      },
      "CompSpeedUpdated(address,uint256)": {
        "notice": "Emitted when a new COMP speed is calculated for a market"
      },
      "ContributorCompSpeedUpdated(address,uint256)": {
        "notice": "Emitted when a new COMP speed is set for a contributor"
      },
      "DistributedBorrowerComp(address,address,uint256,uint256)": {
        "notice": "Emitted when COMP is distributed to a borrower"
      },
      "DistributedSupplierComp(address,address,uint256,uint256)": {
        "notice": "Emitted when COMP is distributed to a supplier"
      },
      "MarketEntered(address,address)": {
        "notice": "Emitted when an account enters a market"
      },
      "MarketExited(address,address)": {
        "notice": "Emitted when an account exits a market"
      },
      "MarketListed(address)": {
        "notice": "Emitted when an admin supports a market"
      },
      "NewBorrowCap(address,uint256)": {
        "notice": "Emitted when borrow cap for a cToken is changed"
      },
      "NewBorrowCapGuardian(address,address)": {
        "notice": "Emitted when borrow cap guardian is changed"
      },
      "NewCloseFactor(uint256,uint256)": {
        "notice": "Emitted when close factor is changed by admin"
      },
      "NewCollateralFactor(address,uint256,uint256)": {
        "notice": "Emitted when a collateral factor is changed by admin"
      },
      "NewLiquidationIncentive(uint256,uint256)": {
        "notice": "Emitted when liquidation incentive is changed by admin"
      },
      "NewPauseGuardian(address,address)": {
        "notice": "Emitted when pause guardian is changed"
      },
      "NewPriceOracle(address,address)": {
        "notice": "Emitted when price oracle is changed"
      }
    },
    "kind": "user",
    "methods": {
      "_grantComp(address,uint256)": {
        "notice": "Transfer COMP to the recipient"
      },
      "_setBorrowCapGuardian(address)": {
        "notice": "Admin function to change the Borrow Cap Guardian"
      },
      "_setCloseFactor(uint256)": {
        "notice": "Sets the closeFactor used when liquidating borrows"
      },
      "_setCollateralFactor(address,uint256)": {
        "notice": "Sets the collateralFactor for a market"
      },
      "_setCompSpeed(address,uint256)": {
        "notice": "Set COMP speed for a single market"
      },
      "_setContributorCompSpeed(address,uint256)": {
        "notice": "Set COMP speed for a single contributor"
      },
      "_setLiquidationIncentive(uint256)": {
        "notice": "Sets liquidationIncentive"
      },
      "_setMarketBorrowCaps(address[],uint256[])": {
        "notice": "Set the given borrow caps for the given cToken markets. Borrowing that brings total borrows to or above borrow cap will revert."
      },
      "_setPauseGuardian(address)": {
        "notice": "Admin function to change the Pause Guardian"
      },
      "_setPriceOracle(address)": {
        "notice": "Sets a new price oracle for the comptroller"
      },
      "_supportMarket(address)": {
        "notice": "Add the market to the markets mapping and set it as listed"
      },
      "accountAssets(address,uint256)": {
        "notice": "Per-account mapping of \"assets you are in\", capped by maxAssets"
      },
      "admin()": {
        "notice": "Administrator for this contract"
      },
      "allMarkets(uint256)": {
        "notice": "A list of all markets"
      },
      "borrowAllowed(address,address,uint256)": {
        "notice": "Checks if the account should be allowed to borrow the underlying asset of the given market"
      },
      "borrowVerify(address,address,uint256)": {
        "notice": "Validates borrow and reverts on rejection. May emit logs."
      },
      "checkMembership(address,address)": {
        "notice": "Returns whether the given account is entered in the given asset"
      },
      "claimComp(address)": {
        "notice": "Claim all the comp accrued by holder in all markets"
      },
      "claimComp(address,address[])": {
        "notice": "Claim all the comp accrued by holder in the specified markets"
      },
      "claimComp(address[],address[],bool,bool)": {
        "notice": "Claim all comp accrued by the holders"
      },
      "closeFactorMantissa()": {
        "notice": "Multiplier used to calculate the maximum repayAmount when liquidating a borrow"
      },
      "compAccrued(address)": {
        "notice": "The COMP accrued but not yet transferred to each user"
      },
      "compBorrowState(address)": {
        "notice": "The COMP market borrow state for each market"
      },
      "compBorrowerIndex(address,address)": {
        "notice": "The COMP borrow index for each market for each borrower as of the last time they accrued COMP"
      },
      "compContributorSpeeds(address)": {
        "notice": "The portion of COMP that each contributor receives per block"
      },
      "compInitialIndex()": {
        "notice": "The initial COMP index for a market"
      },
      "compRate()": {
        "notice": "The rate at which the flywheel distributes COMP, per block"
      },
      "compSpeeds(address)": {
        "notice": "The portion of compRate that each market currently receives"
      },
      "compSupplierIndex(address,address)": {
        "notice": "The COMP borrow index for each market for each supplier as of the last time they accrued COMP"
      },
      "compSupplyState(address)": {
        "notice": "The COMP market supply state for each market"
      },
      "comptrollerImplementation()": {
        "notice": "Active brains of Unitroller"
      },
      "enterMarkets(address[])": {
        "notice": "Add assets to be included in account liquidity calculation"
      },
      "exitMarket(address)": {
        "notice": "Removes asset from sender's account liquidity calculation"
      },
      "getAccountLiquidity(address)": {
        "notice": "Determine the current account liquidity wrt collateral requirements"
      },
      "getAllMarkets()": {
        "notice": "Return all of the markets"
      },
      "getAssetsIn(address)": {
        "notice": "Returns the assets an account has entered"
      },
      "getCompAddress()": {
        "notice": "Return the address of the COMP token"
      },
      "getHypotheticalAccountLiquidity(address,address,uint256,uint256)": {
        "notice": "Determine what the account liquidity would be if the given amounts were redeemed/borrowed"
      },
      "isComptroller()": {
        "notice": "Indicator that this is a Comptroller contract (for inspection)"
      },
      "lastContributorBlock(address)": {
        "notice": "Last block at which a contributor's COMP rewards have been allocated"
      },
      "liquidateBorrowAllowed(address,address,address,address,uint256)": {
        "notice": "Checks if the liquidation should be allowed to occur"
      },
      "liquidateBorrowVerify(address,address,address,address,uint256,uint256)": {
        "notice": "Validates liquidateBorrow and reverts on rejection. May emit logs."
      },
      "liquidateCalculateSeizeTokens(address,address,uint256)": {
        "notice": "Calculate number of tokens of collateral asset to seize given an underlying amount"
      },
      "liquidationIncentiveMantissa()": {
        "notice": "Multiplier representing the discount on collateral that a liquidator receives"
      },
      "markets(address)": {
        "notice": "Official mapping of cTokens -> Market metadata"
      },
      "maxAssets()": {
        "notice": "Max number of assets a single account can participate in (borrow or use as collateral)"
      },
      "mintAllowed(address,address,uint256)": {
        "notice": "Checks if the account should be allowed to mint tokens in the given market"
      },
      "mintVerify(address,address,uint256,uint256)": {
        "notice": "Validates mint and reverts on rejection. May emit logs."
      },
      "oracle()": {
        "notice": "Oracle which gives the price of any given asset"
      },
      "pauseGuardian()": {
        "notice": "The Pause Guardian can pause certain actions as a safety mechanism.  Actions which allow users to remove their own assets cannot be paused.  Liquidation / seizing / transfer can only be paused globally, not by market."
      },
      "pendingAdmin()": {
        "notice": "Pending administrator for this contract"
      },
      "pendingComptrollerImplementation()": {
        "notice": "Pending brains of Unitroller"
      },
      "redeemAllowed(address,address,uint256)": {
        "notice": "Checks if the account should be allowed to redeem tokens in the given market"
      },
      "redeemVerify(address,address,uint256,uint256)": {
        "notice": "Validates redeem and reverts on rejection. May emit logs."
      },
      "repayBorrowAllowed(address,address,address,uint256)": {
        "notice": "Checks if the account should be allowed to repay a borrow in the given market"
      },
      "repayBorrowVerify(address,address,address,uint256,uint256)": {
        "notice": "Validates repayBorrow and reverts on rejection. May emit logs."
      },
      "seizeAllowed(address,address,address,address,uint256)": {
        "notice": "Checks if the seizing of assets should be allowed to occur"
      },
      "seizeVerify(address,address,address,address,uint256)": {
        "notice": "Validates seize and reverts on rejection. May emit logs."
      },
      "transferAllowed(address,address,address,uint256)": {
        "notice": "Checks if the account should be allowed to transfer tokens in the given market"
      },
      "transferVerify(address,address,address,uint256)": {
        "notice": "Validates transfer and reverts on rejection. May emit logs."
      },
      "updateContributorRewards(address)": {
        "notice": "Calculate additional accrued COMP for a contributor since last accrual"
      }
    },
    "version": 1
  },
  "storageLayout": {
    "storage": [
      {
        "astId": 10724,
        "contract": "contracts/Dammtroller/Dammtroller.sol:Dammtroller",
        "label": "admin",
        "offset": 0,
        "slot": "0",
        "type": "t_address"
      },
      {
        "astId": 10727,
        "contract": "contracts/Dammtroller/Dammtroller.sol:Dammtroller",
        "label": "pendingAdmin",
        "offset": 0,
        "slot": "1",
        "type": "t_address"
      },
      {
        "astId": 10730,
        "contract": "contracts/Dammtroller/Dammtroller.sol:Dammtroller",
        "label": "comptrollerImplementation",
        "offset": 0,
        "slot": "2",
        "type": "t_address"
      },
      {
        "astId": 10733,
        "contract": "contracts/Dammtroller/Dammtroller.sol:Dammtroller",
        "label": "pendingComptrollerImplementation",
        "offset": 0,
        "slot": "3",
        "type": "t_address"
      },
      {
        "astId": 10735,
        "contract": "contracts/Dammtroller/Dammtroller.sol:Dammtroller",
        "label": "_compAddress",
        "offset": 0,
        "slot": "4",
        "type": "t_address"
      },
      {
        "astId": 10742,
        "contract": "contracts/Dammtroller/Dammtroller.sol:Dammtroller",
        "label": "oracle",
        "offset": 0,
        "slot": "5",
        "type": "t_contract(PriceOracle)21157"
      },
      {
        "astId": 10745,
        "contract": "contracts/Dammtroller/Dammtroller.sol:Dammtroller",
        "label": "closeFactorMantissa",
        "offset": 0,
        "slot": "6",
        "type": "t_uint256"
      },
      {
        "astId": 10748,
        "contract": "contracts/Dammtroller/Dammtroller.sol:Dammtroller",
        "label": "liquidationIncentiveMantissa",
        "offset": 0,
        "slot": "7",
        "type": "t_uint256"
      },
      {
        "astId": 10751,
        "contract": "contracts/Dammtroller/Dammtroller.sol:Dammtroller",
        "label": "maxAssets",
        "offset": 0,
        "slot": "8",
        "type": "t_uint256"
      },
      {
        "astId": 10758,
        "contract": "contracts/Dammtroller/Dammtroller.sol:Dammtroller",
        "label": "accountAssets",
        "offset": 0,
        "slot": "9",
        "type": "t_mapping(t_address,t_array(t_contract(CToken)5453)dyn_storage)"
      },
      {
        "astId": 10762,
        "contract": "contracts/Dammtroller/Dammtroller.sol:Dammtroller",
        "label": "borrowerArray",
        "offset": 0,
        "slot": "10",
        "type": "t_mapping(t_address,t_bool)"
      },
      {
        "astId": 10766,
        "contract": "contracts/Dammtroller/Dammtroller.sol:Dammtroller",
        "label": "borrowLimit",
        "offset": 0,
        "slot": "11",
        "type": "t_mapping(t_address,t_uint256)"
      },
      {
        "astId": 10786,
        "contract": "contracts/Dammtroller/Dammtroller.sol:Dammtroller",
        "label": "markets",
        "offset": 0,
        "slot": "12",
        "type": "t_mapping(t_address,t_struct(Market)10780_storage)"
      },
      {
        "astId": 10789,
        "contract": "contracts/Dammtroller/Dammtroller.sol:Dammtroller",
        "label": "pauseGuardian",
        "offset": 0,
        "slot": "13",
        "type": "t_address"
      },
      {
        "astId": 10791,
        "contract": "contracts/Dammtroller/Dammtroller.sol:Dammtroller",
        "label": "_mintGuardianPaused",
        "offset": 20,
        "slot": "13",
        "type": "t_bool"
      },
      {
        "astId": 10793,
        "contract": "contracts/Dammtroller/Dammtroller.sol:Dammtroller",
        "label": "_borrowGuardianPaused",
        "offset": 21,
        "slot": "13",
        "type": "t_bool"
      },
      {
        "astId": 10795,
        "contract": "contracts/Dammtroller/Dammtroller.sol:Dammtroller",
        "label": "transferGuardianPaused",
        "offset": 22,
        "slot": "13",
        "type": "t_bool"
      },
      {
        "astId": 10797,
        "contract": "contracts/Dammtroller/Dammtroller.sol:Dammtroller",
        "label": "seizeGuardianPaused",
        "offset": 23,
        "slot": "13",
        "type": "t_bool"
      },
      {
        "astId": 10801,
        "contract": "contracts/Dammtroller/Dammtroller.sol:Dammtroller",
        "label": "mintGuardianPaused",
        "offset": 0,
        "slot": "14",
        "type": "t_mapping(t_address,t_bool)"
      },
      {
        "astId": 10805,
        "contract": "contracts/Dammtroller/Dammtroller.sol:Dammtroller",
        "label": "borrowGuardianPaused",
        "offset": 0,
        "slot": "15",
        "type": "t_mapping(t_address,t_bool)"
      },
      {
        "astId": 10818,
        "contract": "contracts/Dammtroller/Dammtroller.sol:Dammtroller",
        "label": "allMarkets",
        "offset": 0,
        "slot": "16",
        "type": "t_array(t_contract(CToken)5453)dyn_storage"
      },
      {
        "astId": 10821,
        "contract": "contracts/Dammtroller/Dammtroller.sol:Dammtroller",
        "label": "compRate",
        "offset": 0,
        "slot": "17",
        "type": "t_uint256"
      },
      {
        "astId": 10826,
        "contract": "contracts/Dammtroller/Dammtroller.sol:Dammtroller",
        "label": "compSpeeds",
        "offset": 0,
        "slot": "18",
        "type": "t_mapping(t_address,t_uint256)"
      },
      {
        "astId": 10832,
        "contract": "contracts/Dammtroller/Dammtroller.sol:Dammtroller",
        "label": "compSupplyState",
        "offset": 0,
        "slot": "19",
        "type": "t_mapping(t_address,t_struct(CompMarketState)10813_storage)"
      },
      {
        "astId": 10838,
        "contract": "contracts/Dammtroller/Dammtroller.sol:Dammtroller",
        "label": "compBorrowState",
        "offset": 0,
        "slot": "20",
        "type": "t_mapping(t_address,t_struct(CompMarketState)10813_storage)"
      },
      {
        "astId": 10845,
        "contract": "contracts/Dammtroller/Dammtroller.sol:Dammtroller",
        "label": "compSupplierIndex",
        "offset": 0,
        "slot": "21",
        "type": "t_mapping(t_address,t_mapping(t_address,t_uint256))"
      },
      {
        "astId": 10852,
        "contract": "contracts/Dammtroller/Dammtroller.sol:Dammtroller",
        "label": "compBorrowerIndex",
        "offset": 0,
        "slot": "22",
        "type": "t_mapping(t_address,t_mapping(t_address,t_uint256))"
      },
      {
        "astId": 10857,
        "contract": "contracts/Dammtroller/Dammtroller.sol:Dammtroller",
        "label": "compAccrued",
        "offset": 0,
        "slot": "23",
        "type": "t_mapping(t_address,t_uint256)"
      },
      {
        "astId": 10862,
        "contract": "contracts/Dammtroller/Dammtroller.sol:Dammtroller",
        "label": "borrowCapGuardian",
        "offset": 0,
        "slot": "24",
        "type": "t_address"
      },
      {
        "astId": 10866,
        "contract": "contracts/Dammtroller/Dammtroller.sol:Dammtroller",
        "label": "borrowCaps",
        "offset": 0,
        "slot": "25",
        "type": "t_mapping(t_address,t_uint256)"
      },
      {
        "astId": 10874,
        "contract": "contracts/Dammtroller/Dammtroller.sol:Dammtroller",
        "label": "compContributorSpeeds",
        "offset": 0,
        "slot": "26",
        "type": "t_mapping(t_address,t_uint256)"
      },
      {
        "astId": 10879,
        "contract": "contracts/Dammtroller/Dammtroller.sol:Dammtroller",
        "label": "lastContributorBlock",
        "offset": 0,
        "slot": "27",
        "type": "t_mapping(t_address,t_uint256)"
      }
    ],
    "types": {
      "t_address": {
        "encoding": "inplace",
        "label": "address",
        "numberOfBytes": "20"
      },
      "t_array(t_contract(CToken)5453)dyn_storage": {
        "base": "t_contract(CToken)5453",
        "encoding": "dynamic_array",
        "label": "contract CToken[]",
        "numberOfBytes": "32"
      },
      "t_bool": {
        "encoding": "inplace",
        "label": "bool",
        "numberOfBytes": "1"
      },
      "t_contract(CToken)5453": {
        "encoding": "inplace",
        "label": "contract CToken",
        "numberOfBytes": "20"
      },
      "t_contract(PriceOracle)21157": {
        "encoding": "inplace",
        "label": "contract PriceOracle",
        "numberOfBytes": "20"
      },
      "t_mapping(t_address,t_array(t_contract(CToken)5453)dyn_storage)": {
        "encoding": "mapping",
        "key": "t_address",
        "label": "mapping(address => contract CToken[])",
        "numberOfBytes": "32",
        "value": "t_array(t_contract(CToken)5453)dyn_storage"
      },
      "t_mapping(t_address,t_bool)": {
        "encoding": "mapping",
        "key": "t_address",
        "label": "mapping(address => bool)",
        "numberOfBytes": "32",
        "value": "t_bool"
      },
      "t_mapping(t_address,t_mapping(t_address,t_uint256))": {
        "encoding": "mapping",
        "key": "t_address",
        "label": "mapping(address => mapping(address => uint256))",
        "numberOfBytes": "32",
        "value": "t_mapping(t_address,t_uint256)"
      },
      "t_mapping(t_address,t_struct(CompMarketState)10813_storage)": {
        "encoding": "mapping",
        "key": "t_address",
        "label": "mapping(address => struct ComptrollerV3Storage.CompMarketState)",
        "numberOfBytes": "32",
        "value": "t_struct(CompMarketState)10813_storage"
      },
      "t_mapping(t_address,t_struct(Market)10780_storage)": {
        "encoding": "mapping",
        "key": "t_address",
        "label": "mapping(address => struct ComptrollerV2Storage.Market)",
        "numberOfBytes": "32",
        "value": "t_struct(Market)10780_storage"
      },
      "t_mapping(t_address,t_uint256)": {
        "encoding": "mapping",
        "key": "t_address",
        "label": "mapping(address => uint256)",
        "numberOfBytes": "32",
        "value": "t_uint256"
      },
      "t_struct(CompMarketState)10813_storage": {
        "encoding": "inplace",
        "label": "struct ComptrollerV3Storage.CompMarketState",
        "members": [
          {
            "astId": 10810,
            "contract": "contracts/Dammtroller/Dammtroller.sol:Dammtroller",
            "label": "index",
            "offset": 0,
            "slot": "0",
            "type": "t_uint224"
          },
          {
            "astId": 10812,
            "contract": "contracts/Dammtroller/Dammtroller.sol:Dammtroller",
            "label": "block",
            "offset": 28,
            "slot": "0",
            "type": "t_uint32"
          }
        ],
        "numberOfBytes": "32"
      },
      "t_struct(Market)10780_storage": {
        "encoding": "inplace",
        "label": "struct ComptrollerV2Storage.Market",
        "members": [
          {
            "astId": 10771,
            "contract": "contracts/Dammtroller/Dammtroller.sol:Dammtroller",
            "label": "isListed",
            "offset": 0,
            "slot": "0",
            "type": "t_bool"
          },
          {
            "astId": 10773,
            "contract": "contracts/Dammtroller/Dammtroller.sol:Dammtroller",
            "label": "collateralFactorMantissa",
            "offset": 0,
            "slot": "1",
            "type": "t_uint256"
          },
          {
            "astId": 10777,
            "contract": "contracts/Dammtroller/Dammtroller.sol:Dammtroller",
            "label": "accountMembership",
            "offset": 0,
            "slot": "2",
            "type": "t_mapping(t_address,t_bool)"
          },
          {
            "astId": 10779,
            "contract": "contracts/Dammtroller/Dammtroller.sol:Dammtroller",
            "label": "isComped",
            "offset": 0,
            "slot": "3",
            "type": "t_bool"
          }
        ],
        "numberOfBytes": "128"
      },
      "t_uint224": {
        "encoding": "inplace",
        "label": "uint224",
        "numberOfBytes": "28"
      },
      "t_uint256": {
        "encoding": "inplace",
        "label": "uint256",
        "numberOfBytes": "32"
      },
      "t_uint32": {
        "encoding": "inplace",
        "label": "uint32",
        "numberOfBytes": "4"
      }
    }
  }
}