{
  "address": "0xf61f30d7C10fef0eB37e0dE263865162a9590170",
  "abi": [
    {
      "inputs": [
        {
          "internalType": "contract CToken",
          "name": "cToken",
          "type": "address"
        },
        {
          "internalType": "address payable",
          "name": "account",
          "type": "address"
        }
      ],
      "name": "cTokenBalances",
      "outputs": [
        {
          "components": [
            {
              "internalType": "address",
              "name": "cToken",
              "type": "address"
            },
            {
              "internalType": "uint256",
              "name": "balanceOf",
              "type": "uint256"
            },
            {
              "internalType": "uint256",
              "name": "borrowBalanceCurrent",
              "type": "uint256"
            },
            {
              "internalType": "uint256",
              "name": "balanceOfUnderlying",
              "type": "uint256"
            },
            {
              "internalType": "uint256",
              "name": "tokenBalance",
              "type": "uint256"
            },
            {
              "internalType": "uint256",
              "name": "tokenAllowance",
              "type": "uint256"
            }
          ],
          "internalType": "struct CompoundLens.CTokenBalances",
          "name": "",
          "type": "tuple"
        }
      ],
      "stateMutability": "nonpayable",
      "type": "function"
    },
    {
      "inputs": [
        {
          "internalType": "contract CToken[]",
          "name": "cTokens",
          "type": "address[]"
        },
        {
          "internalType": "address payable",
          "name": "account",
          "type": "address"
        }
      ],
      "name": "cTokenBalancesAll",
      "outputs": [
        {
          "components": [
            {
              "internalType": "address",
              "name": "cToken",
              "type": "address"
            },
            {
              "internalType": "uint256",
              "name": "balanceOf",
              "type": "uint256"
            },
            {
              "internalType": "uint256",
              "name": "borrowBalanceCurrent",
              "type": "uint256"
            },
            {
              "internalType": "uint256",
              "name": "balanceOfUnderlying",
              "type": "uint256"
            },
            {
              "internalType": "uint256",
              "name": "tokenBalance",
              "type": "uint256"
            },
            {
              "internalType": "uint256",
              "name": "tokenAllowance",
              "type": "uint256"
            }
          ],
          "internalType": "struct CompoundLens.CTokenBalances[]",
          "name": "",
          "type": "tuple[]"
        }
      ],
      "stateMutability": "nonpayable",
      "type": "function"
    },
    {
      "inputs": [
        {
          "internalType": "contract CToken",
          "name": "cToken",
          "type": "address"
        }
      ],
      "name": "cTokenMetadata",
      "outputs": [
        {
          "components": [
            {
              "internalType": "address",
              "name": "cToken",
              "type": "address"
            },
            {
              "internalType": "uint256",
              "name": "exchangeRateCurrent",
              "type": "uint256"
            },
            {
              "internalType": "uint256",
              "name": "supplyRatePerBlock",
              "type": "uint256"
            },
            {
              "internalType": "uint256",
              "name": "borrowRatePerBlock",
              "type": "uint256"
            },
            {
              "internalType": "uint256",
              "name": "reserveFactorMantissa",
              "type": "uint256"
            },
            {
              "internalType": "uint256",
              "name": "totalBorrows",
              "type": "uint256"
            },
            {
              "internalType": "uint256",
              "name": "totalReserves",
              "type": "uint256"
            },
            {
              "internalType": "uint256",
              "name": "totalSupply",
              "type": "uint256"
            },
            {
              "internalType": "uint256",
              "name": "totalCash",
              "type": "uint256"
            },
            {
              "internalType": "bool",
              "name": "isListed",
              "type": "bool"
            },
            {
              "internalType": "uint256",
              "name": "collateralFactorMantissa",
              "type": "uint256"
            },
            {
              "internalType": "address",
              "name": "underlyingAssetAddress",
              "type": "address"
            },
            {
              "internalType": "uint256",
              "name": "cTokenDecimals",
              "type": "uint256"
            },
            {
              "internalType": "uint256",
              "name": "underlyingDecimals",
              "type": "uint256"
            },
            {
              "internalType": "uint256",
              "name": "compSupplySpeed",
              "type": "uint256"
            },
            {
              "internalType": "uint256",
              "name": "compBorrowSpeed",
              "type": "uint256"
            },
            {
              "internalType": "uint256",
              "name": "borrowCap",
              "type": "uint256"
            }
          ],
          "internalType": "struct CompoundLens.CTokenMetadata",
          "name": "",
          "type": "tuple"
        }
      ],
      "stateMutability": "nonpayable",
      "type": "function"
    },
    {
      "inputs": [
        {
          "internalType": "contract CToken[]",
          "name": "cTokens",
          "type": "address[]"
        }
      ],
      "name": "cTokenMetadataAll",
      "outputs": [
        {
          "components": [
            {
              "internalType": "address",
              "name": "cToken",
              "type": "address"
            },
            {
              "internalType": "uint256",
              "name": "exchangeRateCurrent",
              "type": "uint256"
            },
            {
              "internalType": "uint256",
              "name": "supplyRatePerBlock",
              "type": "uint256"
            },
            {
              "internalType": "uint256",
              "name": "borrowRatePerBlock",
              "type": "uint256"
            },
            {
              "internalType": "uint256",
              "name": "reserveFactorMantissa",
              "type": "uint256"
            },
            {
              "internalType": "uint256",
              "name": "totalBorrows",
              "type": "uint256"
            },
            {
              "internalType": "uint256",
              "name": "totalReserves",
              "type": "uint256"
            },
            {
              "internalType": "uint256",
              "name": "totalSupply",
              "type": "uint256"
            },
            {
              "internalType": "uint256",
              "name": "totalCash",
              "type": "uint256"
            },
            {
              "internalType": "bool",
              "name": "isListed",
              "type": "bool"
            },
            {
              "internalType": "uint256",
              "name": "collateralFactorMantissa",
              "type": "uint256"
            },
            {
              "internalType": "address",
              "name": "underlyingAssetAddress",
              "type": "address"
            },
            {
              "internalType": "uint256",
              "name": "cTokenDecimals",
              "type": "uint256"
            },
            {
              "internalType": "uint256",
              "name": "underlyingDecimals",
              "type": "uint256"
            },
            {
              "internalType": "uint256",
              "name": "compSupplySpeed",
              "type": "uint256"
            },
            {
              "internalType": "uint256",
              "name": "compBorrowSpeed",
              "type": "uint256"
            },
            {
              "internalType": "uint256",
              "name": "borrowCap",
              "type": "uint256"
            }
          ],
          "internalType": "struct CompoundLens.CTokenMetadata[]",
          "name": "",
          "type": "tuple[]"
        }
      ],
      "stateMutability": "nonpayable",
      "type": "function"
    },
    {
      "inputs": [
        {
          "internalType": "contract CToken",
          "name": "cToken",
          "type": "address"
        }
      ],
      "name": "cTokenUnderlyingPrice",
      "outputs": [
        {
          "components": [
            {
              "internalType": "address",
              "name": "cToken",
              "type": "address"
            },
            {
              "internalType": "uint256",
              "name": "underlyingPrice",
              "type": "uint256"
            }
          ],
          "internalType": "struct CompoundLens.CTokenUnderlyingPrice",
          "name": "",
          "type": "tuple"
        }
      ],
      "stateMutability": "nonpayable",
      "type": "function"
    },
    {
      "inputs": [
        {
          "internalType": "contract CToken[]",
          "name": "cTokens",
          "type": "address[]"
        }
      ],
      "name": "cTokenUnderlyingPriceAll",
      "outputs": [
        {
          "components": [
            {
              "internalType": "address",
              "name": "cToken",
              "type": "address"
            },
            {
              "internalType": "uint256",
              "name": "underlyingPrice",
              "type": "uint256"
            }
          ],
          "internalType": "struct CompoundLens.CTokenUnderlyingPrice[]",
          "name": "",
          "type": "tuple[]"
        }
      ],
      "stateMutability": "nonpayable",
      "type": "function"
    },
    {
      "inputs": [
        {
          "internalType": "contract ComptrollerLensInterface",
          "name": "comptroller",
          "type": "address"
        },
        {
          "internalType": "address",
          "name": "account",
          "type": "address"
        }
      ],
      "name": "getAccountLimits",
      "outputs": [
        {
          "components": [
            {
              "internalType": "contract CToken[]",
              "name": "markets",
              "type": "address[]"
            },
            {
              "internalType": "uint256",
              "name": "liquidity",
              "type": "uint256"
            },
            {
              "internalType": "uint256",
              "name": "shortfall",
              "type": "uint256"
            }
          ],
          "internalType": "struct CompoundLens.AccountLimits",
          "name": "",
          "type": "tuple"
        }
      ],
      "stateMutability": "nonpayable",
      "type": "function"
    },
    {
      "inputs": [
        {
          "internalType": "contract Comp",
          "name": "comp",
          "type": "address"
        },
        {
          "internalType": "address",
          "name": "account",
          "type": "address"
        }
      ],
      "name": "getCompBalanceMetadata",
      "outputs": [
        {
          "components": [
            {
              "internalType": "uint256",
              "name": "balance",
              "type": "uint256"
            },
            {
              "internalType": "uint256",
              "name": "votes",
              "type": "uint256"
            },
            {
              "internalType": "address",
              "name": "delegate",
              "type": "address"
            }
          ],
          "internalType": "struct CompoundLens.CompBalanceMetadata",
          "name": "",
          "type": "tuple"
        }
      ],
      "stateMutability": "view",
      "type": "function"
    },
    {
      "inputs": [
        {
          "internalType": "contract Comp",
          "name": "comp",
          "type": "address"
        },
        {
          "internalType": "contract ComptrollerLensInterface",
          "name": "comptroller",
          "type": "address"
        },
        {
          "internalType": "address",
          "name": "account",
          "type": "address"
        }
      ],
      "name": "getCompBalanceMetadataExt",
      "outputs": [
        {
          "components": [
            {
              "internalType": "uint256",
              "name": "balance",
              "type": "uint256"
            },
            {
              "internalType": "uint256",
              "name": "votes",
              "type": "uint256"
            },
            {
              "internalType": "address",
              "name": "delegate",
              "type": "address"
            },
            {
              "internalType": "uint256",
              "name": "allocated",
              "type": "uint256"
            }
          ],
          "internalType": "struct CompoundLens.CompBalanceMetadataExt",
          "name": "",
          "type": "tuple"
        }
      ],
      "stateMutability": "nonpayable",
      "type": "function"
    },
    {
      "inputs": [
        {
          "internalType": "contract Comp",
          "name": "comp",
          "type": "address"
        },
        {
          "internalType": "address",
          "name": "account",
          "type": "address"
        },
        {
          "internalType": "uint32[]",
          "name": "blockNumbers",
          "type": "uint32[]"
        }
      ],
      "name": "getCompVotes",
      "outputs": [
        {
          "components": [
            {
              "internalType": "uint256",
              "name": "blockNumber",
              "type": "uint256"
            },
            {
              "internalType": "uint256",
              "name": "votes",
              "type": "uint256"
            }
          ],
          "internalType": "struct CompoundLens.CompVotes[]",
          "name": "",
          "type": "tuple[]"
        }
      ],
      "stateMutability": "view",
      "type": "function"
    },
    {
      "inputs": [
        {
          "internalType": "contract GovernorBravoInterface",
          "name": "governor",
          "type": "address"
        },
        {
          "internalType": "uint256[]",
          "name": "proposalIds",
          "type": "uint256[]"
        }
      ],
      "name": "getGovBravoProposals",
      "outputs": [
        {
          "components": [
            {
              "internalType": "uint256",
              "name": "proposalId",
              "type": "uint256"
            },
            {
              "internalType": "address",
              "name": "proposer",
              "type": "address"
            },
            {
              "internalType": "uint256",
              "name": "eta",
              "type": "uint256"
            },
            {
              "internalType": "address[]",
              "name": "targets",
              "type": "address[]"
            },
            {
              "internalType": "uint256[]",
              "name": "values",
              "type": "uint256[]"
            },
            {
              "internalType": "string[]",
              "name": "signatures",
              "type": "string[]"
            },
            {
              "internalType": "bytes[]",
              "name": "calldatas",
              "type": "bytes[]"
            },
            {
              "internalType": "uint256",
              "name": "startBlock",
              "type": "uint256"
            },
            {
              "internalType": "uint256",
              "name": "endBlock",
              "type": "uint256"
            },
            {
              "internalType": "uint256",
              "name": "forVotes",
              "type": "uint256"
            },
            {
              "internalType": "uint256",
              "name": "againstVotes",
              "type": "uint256"
            },
            {
              "internalType": "uint256",
              "name": "abstainVotes",
              "type": "uint256"
            },
            {
              "internalType": "bool",
              "name": "canceled",
              "type": "bool"
            },
            {
              "internalType": "bool",
              "name": "executed",
              "type": "bool"
            }
          ],
          "internalType": "struct CompoundLens.GovBravoProposal[]",
          "name": "",
          "type": "tuple[]"
        }
      ],
      "stateMutability": "view",
      "type": "function"
    },
    {
      "inputs": [
        {
          "internalType": "contract GovernorBravoInterface",
          "name": "governor",
          "type": "address"
        },
        {
          "internalType": "address",
          "name": "voter",
          "type": "address"
        },
        {
          "internalType": "uint256[]",
          "name": "proposalIds",
          "type": "uint256[]"
        }
      ],
      "name": "getGovBravoReceipts",
      "outputs": [
        {
          "components": [
            {
              "internalType": "uint256",
              "name": "proposalId",
              "type": "uint256"
            },
            {
              "internalType": "bool",
              "name": "hasVoted",
              "type": "bool"
            },
            {
              "internalType": "uint8",
              "name": "support",
              "type": "uint8"
            },
            {
              "internalType": "uint96",
              "name": "votes",
              "type": "uint96"
            }
          ],
          "internalType": "struct CompoundLens.GovBravoReceipt[]",
          "name": "",
          "type": "tuple[]"
        }
      ],
      "stateMutability": "view",
      "type": "function"
    },
    {
      "inputs": [
        {
          "internalType": "contract GovernorAlpha",
          "name": "governor",
          "type": "address"
        },
        {
          "internalType": "uint256[]",
          "name": "proposalIds",
          "type": "uint256[]"
        }
      ],
      "name": "getGovProposals",
      "outputs": [
        {
          "components": [
            {
              "internalType": "uint256",
              "name": "proposalId",
              "type": "uint256"
            },
            {
              "internalType": "address",
              "name": "proposer",
              "type": "address"
            },
            {
              "internalType": "uint256",
              "name": "eta",
              "type": "uint256"
            },
            {
              "internalType": "address[]",
              "name": "targets",
              "type": "address[]"
            },
            {
              "internalType": "uint256[]",
              "name": "values",
              "type": "uint256[]"
            },
            {
              "internalType": "string[]",
              "name": "signatures",
              "type": "string[]"
            },
            {
              "internalType": "bytes[]",
              "name": "calldatas",
              "type": "bytes[]"
            },
            {
              "internalType": "uint256",
              "name": "startBlock",
              "type": "uint256"
            },
            {
              "internalType": "uint256",
              "name": "endBlock",
              "type": "uint256"
            },
            {
              "internalType": "uint256",
              "name": "forVotes",
              "type": "uint256"
            },
            {
              "internalType": "uint256",
              "name": "againstVotes",
              "type": "uint256"
            },
            {
              "internalType": "bool",
              "name": "canceled",
              "type": "bool"
            },
            {
              "internalType": "bool",
              "name": "executed",
              "type": "bool"
            }
          ],
          "internalType": "struct CompoundLens.GovProposal[]",
          "name": "",
          "type": "tuple[]"
        }
      ],
      "stateMutability": "view",
      "type": "function"
    },
    {
      "inputs": [
        {
          "internalType": "contract GovernorAlpha",
          "name": "governor",
          "type": "address"
        },
        {
          "internalType": "address",
          "name": "voter",
          "type": "address"
        },
        {
          "internalType": "uint256[]",
          "name": "proposalIds",
          "type": "uint256[]"
        }
      ],
      "name": "getGovReceipts",
      "outputs": [
        {
          "components": [
            {
              "internalType": "uint256",
              "name": "proposalId",
              "type": "uint256"
            },
            {
              "internalType": "bool",
              "name": "hasVoted",
              "type": "bool"
            },
            {
              "internalType": "bool",
              "name": "support",
              "type": "bool"
            },
            {
              "internalType": "uint96",
              "name": "votes",
              "type": "uint96"
            }
          ],
          "internalType": "struct CompoundLens.GovReceipt[]",
          "name": "",
          "type": "tuple[]"
        }
      ],
      "stateMutability": "view",
      "type": "function"
    }
  ],
  "transactionHash": "0x100012c630fd4249fc7be5920e1744441e33ac42e72faca72fa7af93cb9101f6",
  "args": [],
  "numDeployments": 1,
  "solcInputHash": "7c055324d5fa21e6624c337957dc0210",
  "bytecode": "0x608060405234801561001057600080fd5b50613a60806100206000396000f3fe608060405234801561001057600080fd5b50600436106100ea5760003560e01c8063595642191161008c57806396994869116100665780639699486914610285578063995ed99f146102a5578063bdf950c9146102c5578063c5ae5934146102e557600080fd5b8063595642191461022557806375d80e90146102455780637dd8f6d91461026557600080fd5b80632b2d5ed6116100c85780632b2d5ed614610187578063416405d7146101a757806343c811cc146101e55780634b70d84b1461020557600080fd5b80630972bf8b146100ef578063158eca8b146101185780631ea6374114610138575b600080fd5b6101026100fd36600461283d565b610305565b60405161010f91906128d6565b60405180910390f35b61012b610126366004612924565b61040f565b60405161010f9190612a0d565b61014b610146366004612a1c565b610baf565b60405161010f919081518152602080830151908201526040808301516001600160a01b0316908201526060918201519181019190915260800190565b61019a610195366004612a5c565b610f10565b60405161010f9190612a9d565b6101ba6101b5366004612afd565b610fe5565b604080518251815260208084015190820152918101516001600160a01b03169082015260600161010f565b6101f86101f3366004612c55565b611186565b60405161010f9190612cb6565b610218610213366004612a5c565b611328565b60405161010f9190612d1b565b610238610233366004612d5e565b6113e6565b60405161010f9190612dc2565b610258610253366004612e04565b611582565b60405161010f9190612f70565b610278610273366004612afd565b6117e3565b60405161010f91906130aa565b610298610293366004612e04565b61191d565b60405161010f9190613119565b6102b86102b3366004612c55565b611b67565b60405161010f919061323a565b6102d86102d3366004612afd565b611d08565b60405161010f919061329e565b6102f86102f3366004612924565b61208b565b60405161010f91906132ac565b6060826000816001600160401b0381111561032257610322612b36565b60405190808252806020026020018201604052801561039557816020015b6103826040518060c0016040528060006001600160a01b0316815260200160008152602001600081526020016000815260200160008152602001600081525090565b8152602001906001900390816103405790505b50905060005b82811015610403576103d38787838181106103b8576103b86132cc565b90506020020160208101906103cd9190612924565b86611d08565b8282815181106103e5576103e56132cc565b602002602001018190525080806103fb906132f8565b91505061039b565b509150505b9392505050565b610417612749565b6000826001600160a01b031663bd6d894d6040518163ffffffff1660e01b81526004016020604051808303816000875af1158015610459573d6000803e3d6000fd5b505050506040513d601f19601f8201168201806040525081019061047d9190613311565b90506000836001600160a01b0316635fe3b5676040518163ffffffff1660e01b8152600401602060405180830381865afa1580156104bf573d6000803e3d6000fd5b505050506040513d601f19601f820116820180604052508101906104e3919061332a565b604051638e8f294b60e01b81526001600160a01b038681166004830152919250600091829190841690638e8f294b906024016040805180830381865afa158015610531573d6000803e3d6000fd5b505050506040513d601f19601f82011682018060405250810190610555919061335c565b915091506000806105e7886001600160a01b03166395d89b416040518163ffffffff1660e01b8152600401600060405180830381865afa15801561059d573d6000803e3d6000fd5b505050506040513d6000823e601f3d908101601f191682016040526105c591908101906133f6565b604051806040016040528060048152602001630c88aa8960e31b8152506121f5565b156105f8575060009050601261072b565b6000889050806001600160a01b0316636f307dc36040518163ffffffff1660e01b8152600401602060405180830381865afa15801561063b573d6000803e3d6000fd5b505050506040513d601f19601f8201168201806040525081019061065f919061332a565b9250806001600160a01b0316636f307dc36040518163ffffffff1660e01b8152600401602060405180830381865afa15801561069f573d6000803e3d6000fd5b505050506040513d601f19601f820116820180604052508101906106c3919061332a565b6001600160a01b031663313ce5676040518163ffffffff1660e01b8152600401602060405180830381865afa158015610700573d6000803e3d6000fd5b505050506040513d601f19601f82011682018060405250810190610724919061344e565b60ff169150505b600080610738878b61224e565b9150915060008080896001600160a01b0316634a58443260e01b8e60405160200161077291906001600160a01b0391909116815260200190565b60408051601f19818403018152908290526107909291602001613469565b60408051601f19818403018152908290526107aa9161349a565b6000604051808303816000865af19150503d80600081146107e7576040519150601f19603f3d011682016040523d82523d6000602084013e6107ec565b606091505b5091509150811561080e578080602001905181019061080b9190613311565b92505b6040518061022001604052808e6001600160a01b031681526020018c81526020018e6001600160a01b031663ae9d70b06040518163ffffffff1660e01b8152600401602060405180830381865afa15801561086d573d6000803e3d6000fd5b505050506040513d601f19601f820116820180604052508101906108919190613311565b81526020018e6001600160a01b031663f8f9da286040518163ffffffff1660e01b8152600401602060405180830381865afa1580156108d4573d6000803e3d6000fd5b505050506040513d601f19601f820116820180604052508101906108f89190613311565b81526020018e6001600160a01b031663173b99046040518163ffffffff1660e01b8152600401602060405180830381865afa15801561093b573d6000803e3d6000fd5b505050506040513d601f19601f8201168201806040525081019061095f9190613311565b81526020018e6001600160a01b03166347bd37186040518163ffffffff1660e01b8152600401602060405180830381865afa1580156109a2573d6000803e3d6000fd5b505050506040513d601f19601f820116820180604052508101906109c69190613311565b81526020018e6001600160a01b0316638f840ddd6040518163ffffffff1660e01b8152600401602060405180830381865afa158015610a09573d6000803e3d6000fd5b505050506040513d601f19601f82011682018060405250810190610a2d9190613311565b81526020018e6001600160a01b03166318160ddd6040518163ffffffff1660e01b8152600401602060405180830381865afa158015610a70573d6000803e3d6000fd5b505050506040513d601f19601f82011682018060405250810190610a949190613311565b81526020018e6001600160a01b0316633b1d21a26040518163ffffffff1660e01b8152600401602060405180830381865afa158015610ad7573d6000803e3d6000fd5b505050506040513d601f19601f82011682018060405250810190610afb9190613311565b81526020018a15158152602001898152602001886001600160a01b031681526020018e6001600160a01b031663313ce5676040518163ffffffff1660e01b8152600401602060405180830381865afa158015610b5b573d6000803e3d6000fd5b505050506040513d601f19601f82011682018060405250810190610b7f919061344e565b60ff168152602001878152602001868152602001858152602001848152509b505050505050505050505050919050565b610be36040518060800160405280600081526020016000815260200160006001600160a01b03168152602001600081525090565b6040516370a0823160e01b81526001600160a01b038381166004830152600091908616906370a0823190602401602060405180830381865afa158015610c2d573d6000803e3d6000fd5b505050506040513d601f19601f82011682018060405250810190610c519190613311565b6040516374d7814960e11b81526001600160a01b0385811660048301529192509085169063e9af029290602401600060405180830381600087803b158015610c9857600080fd5b505af1158015610cac573d6000803e3d6000fd5b50506040516370a0823160e01b81526001600160a01b03868116600483015260009350881691506370a0823190602401602060405180830381865afa158015610cf9573d6000803e3d6000fd5b505050506040513d601f19601f82011682018060405250810190610d1d9190613311565b60405163331faf7160e21b81526001600160a01b03868116600483015291925060009187169063cc7ebdc490602401602060405180830381865afa158015610d69573d6000803e3d6000fd5b505050506040513d601f19601f82011682018060405250810190610d8d9190613311565b90506000610dc282846040518060400160405280600e81526020016d1cdd5b4818dbdb5c081d1bdd185b60921b8152506124d1565b90506000610df682866040518060400160405280600d81526020016c1cdd5888185b1b1bd8d85d1959609a1b81525061250b565b60408051608081018252878152905163b4b5ea5760e01b81526001600160a01b038a8116600483015292935090916020830191908c169063b4b5ea5790602401602060405180830381865afa158015610e53573d6000803e3d6000fd5b505050506040513d601f19601f82011682018060405250810190610e7791906134cd565b6001600160601b03168152604051632c3e6f0f60e11b81526001600160a01b038a811660048301526020909201918c169063587cde1e90602401602060405180830381865afa158015610ece573d6000803e3d6000fd5b505050506040513d601f19601f82011682018060405250810190610ef2919061332a565b6001600160a01b031681526020019190915298975050505050505050565b6060816000816001600160401b03811115610f2d57610f2d612b36565b604051908082528060200260200182016040528015610f7257816020015b6040805180820190915260008082526020820152815260200190600190039081610f4b5790505b50905060005b82811015610fda57610faa868683818110610f9557610f956132cc565b90506020020160208101906102f39190612924565b828281518110610fbc57610fbc6132cc565b60200260200101819052508080610fd2906132f8565b915050610f78565b509150505b92915050565b6110126040518060600160405280600081526020016000815260200160006001600160a01b031681525090565b6040805160608101918290526370a0823160e01b9091526001600160a01b038381166064830152819085166370a0823160848301602060405180830381865afa158015611063573d6000803e3d6000fd5b505050506040513d601f19601f820116820180604052508101906110879190613311565b815260405163b4b5ea5760e01b81526001600160a01b03858116600483015260209092019186169063b4b5ea5790602401602060405180830381865afa1580156110d5573d6000803e3d6000fd5b505050506040513d601f19601f820116820180604052508101906110f991906134cd565b6001600160601b03168152604051632c3e6f0f60e11b81526001600160a01b03858116600483015260209092019186169063587cde1e90602401602060405180830381865afa158015611150573d6000803e3d6000fd5b505050506040513d601f19601f82011682018060405250810190611174919061332a565b6001600160a01b031690529392505050565b80516060906000816001600160401b038111156111a5576111a5612b36565b6040519080825280602002602001820160405280156111f757816020015b6040805160808101825260008082526020808301829052928201819052606082015282526000199092019101816111c35790505b50905060005b82811015610403576000876001600160a01b031663e23a9a52878481518110611228576112286132cc565b6020026020010151896040518363ffffffff1660e01b81526004016112609291909182526001600160a01b0316602082015260400190565b606060405180830381865afa15801561127d573d6000803e3d6000fd5b505050506040513d601f19601f820116820180604052508101906112a191906134e8565b905060405180608001604052808784815181106112c0576112c06132cc565b60200260200101518152602001826000015115158152602001826020015160ff16815260200182604001516001600160601b0316815250838381518110611309576113096132cc565b6020026020010181905250508080611320906132f8565b9150506111fd565b6060816000816001600160401b0381111561134557611345612b36565b60405190808252806020026020018201604052801561137e57816020015b61136b612749565b8152602001906001900390816113635790505b50905060005b82811015610fda576113b68686838181106113a1576113a16132cc565b90506020020160208101906101269190612924565b8282815181106113c8576113c86132cc565b602002602001018190525080806113de906132f8565b915050611384565b60606000826001600160401b0381111561140257611402612b36565b60405190808252806020026020018201604052801561144757816020015b60408051808201909152600080825260208201528152602001906001900390816114205790505b50905060005b83811015611578576040518060400160405280868684818110611472576114726132cc565b90506020020160208101906114879190613536565b63ffffffff168152602001886001600160a01b031663782d6fe1898989878181106114b4576114b46132cc565b90506020020160208101906114c99190613536565b6040516001600160e01b031960e085901b1681526001600160a01b03909216600483015263ffffffff166024820152604401602060405180830381865afa158015611518573d6000803e3d6000fd5b505050506040513d601f19601f8201168201806040525081019061153c91906134cd565b6001600160601b031681525082828151811061155a5761155a6132cc565b60200260200101819052508080611570906132f8565b91505061144d565b5095945050505050565b60606000826001600160401b0381111561159e5761159e612b36565b60405190808252806020026020018201604052801561164e57816020015b61163b604051806101c001604052806000815260200160006001600160a01b03168152602001600081526020016060815260200160608152602001606081526020016060815260200160008152602001600081526020016000815260200160008152602001600081526020016000151581526020016000151581525090565b8152602001906001900390816115bc5790505b50905060005b838110156117da57600080600080896001600160a01b031663328dd9828a8a88818110611683576116836132cc565b905060200201356040518263ffffffff1660e01b81526004016116a891815260200190565b600060405180830381865afa1580156116c5573d6000803e3d6000fd5b505050506040513d6000823e601f3d908101601f191682016040526116ed91908101906136ca565b9350935093509350604051806101c001604052806000815260200160006001600160a01b031681526020016000815260200185815260200184815260200183815260200182815260200160008152602001600081526020016000815260200160008152602001600081526020016000151581526020016000151581525086868151811061177c5761177c6132cc565b60200260200101819052506117c386868151811061179c5761179c6132cc565b60200260200101518b8b8b898181106117b7576117b76132cc565b90506020020135612545565b5050505080806117d2906132f8565b915050611654565b50949350505050565b61180760405180606001604052806060815260200160008152602001600081525090565b604051635ec88c7960e01b81526001600160a01b0383811660048301526000918291829190871690635ec88c7990602401606060405180830381865afa158015611855573d6000803e3d6000fd5b505050506040513d601f19601f8201168201806040525081019061187991906137d7565b9250925092508260001461188c57600080fd5b604080516060810191829052632aff3bff60e21b9091526001600160a01b0386811660648301528190881663abfceffc60848301600060405180830381865afa1580156118dd573d6000803e3d6000fd5b505050506040513d6000823e601f3d908101601f191682016040526119059190810190613805565b81526020810193909352604090920152949350505050565b60606000826001600160401b0381111561193957611939612b36565b6040519080825280602002602001820160405280156119e257816020015b6119cf604051806101a001604052806000815260200160006001600160a01b031681526020016000815260200160608152602001606081526020016060815260200160608152602001600081526020016000815260200160008152602001600081526020016000151581526020016000151581525090565b8152602001906001900390816119575790505b50905060005b838110156117da57600080600080896001600160a01b031663328dd9828a8a88818110611a1757611a176132cc565b905060200201356040518263ffffffff1660e01b8152600401611a3c91815260200190565b600060405180830381865afa158015611a59573d6000803e3d6000fd5b505050506040513d6000823e601f3d908101601f19168201604052611a8191908101906136ca565b9350935093509350604051806101a001604052806000815260200160006001600160a01b03168152602001600081526020018581526020018481526020018381526020018281526020016000815260200160008152602001600081526020016000815260200160001515815260200160001515815250868681518110611b0957611b096132cc565b6020026020010181905250611b50868681518110611b2957611b296132cc565b60200260200101518b8b8b89818110611b4457611b446132cc565b90506020020135612630565b505050508080611b5f906132f8565b9150506119e8565b80516060906000816001600160401b03811115611b8657611b86612b36565b604051908082528060200260200182016040528015611bd857816020015b604080516080810182526000808252602080830182905292820181905260608201528252600019909201910181611ba45790505b50905060005b82811015610403576000876001600160a01b031663e23a9a52878481518110611c0957611c096132cc565b6020026020010151896040518363ffffffff1660e01b8152600401611c419291909182526001600160a01b0316602082015260400190565b606060405180830381865afa158015611c5e573d6000803e3d6000fd5b505050506040513d601f19601f82011682018060405250810190611c82919061389e565b90506040518060800160405280878481518110611ca157611ca16132cc565b6020026020010151815260200182600001511515815260200182602001511515815260200182604001516001600160601b0316815250838381518110611ce957611ce96132cc565b6020026020010181905250508080611d00906132f8565b915050611bde565b611d4a6040518060c0016040528060006001600160a01b0316815260200160008152602001600081526020016000815260200160008152602001600081525090565b6040516370a0823160e01b81526001600160a01b038381166004830152600091908516906370a0823190602401602060405180830381865afa158015611d94573d6000803e3d6000fd5b505050506040513d601f19601f82011682018060405250810190611db89190613311565b6040516305eff7ef60e21b81526001600160a01b0385811660048301529192506000918616906317bfdfbc906024016020604051808303816000875af1158015611e06573d6000803e3d6000fd5b505050506040513d601f19601f82011682018060405250810190611e2a9190613311565b604051633af9e66960e01b81526001600160a01b038681166004830152919250600091871690633af9e669906024016020604051808303816000875af1158015611e78573d6000803e3d6000fd5b505050506040513d601f19601f82011682018060405250810190611e9c9190613311565b9050600080611ee2886001600160a01b03166395d89b416040518163ffffffff1660e01b8152600401600060405180830381865afa15801561059d573d6000803e3d6000fd5b15611efc5750506001600160a01b0385168031903161204e565b60008890506000816001600160a01b0316636f307dc36040518163ffffffff1660e01b8152600401602060405180830381865afa158015611f41573d6000803e3d6000fd5b505050506040513d601f19601f82011682018060405250810190611f65919061332a565b6040516370a0823160e01b81526001600160a01b038b81166004830152919250908216906370a0823190602401602060405180830381865afa158015611faf573d6000803e3d6000fd5b505050506040513d601f19601f82011682018060405250810190611fd39190613311565b604051636eb1769f60e11b81526001600160a01b038b811660048301528c811660248301529195509082169063dd62ed3e90604401602060405180830381865afa158015612025573d6000803e3d6000fd5b505050506040513d601f19601f820116820180604052508101906120499190613311565b925050505b6040805160c0810182526001600160a01b039990991689526020890195909552938701929092526060860152608085015260a08401525090919050565b60408051808201909152600080825260208201526000826001600160a01b0316635fe3b5676040518163ffffffff1660e01b8152600401602060405180830381865afa1580156120df573d6000803e3d6000fd5b505050506040513d601f19601f82011682018060405250810190612103919061332a565b90506000816001600160a01b0316637dc0d1d06040518163ffffffff1660e01b8152600401602060405180830381865afa158015612145573d6000803e3d6000fd5b505050506040513d601f19601f82011682018060405250810190612169919061332a565b6040805180820182526001600160a01b03808816808352925163fc57d4df60e01b815260048101939093529293509160208301919084169063fc57d4df90602401602060405180830381865afa1580156121c7573d6000803e3d6000fd5b505050506040513d601f19601f820116820180604052508101906121eb9190613311565b9052949350505050565b600081604051602001612208919061349a565b604051602081830303815290604052805190602001208360405160200161222f919061349a565b6040516020818303038152906040528051906020012014905092915050565b60008060008080866001600160a01b0316636aa875b560e01b8760405160200161228791906001600160a01b0391909116815260200190565b60408051601f19818403018152908290526122a59291602001613469565b60408051601f19818403018152908290526122bf9161349a565b6000604051808303816000865af19150503d80600081146122fc576040519150601f19603f3d011682016040523d82523d6000602084013e612301565b606091505b5091509150811561232357808060200190518101906123209190613311565b92505b604080516001600160a01b038881166020830152600092839283928c16916303d290cf60e61b910160408051601f19818403018152908290526123699291602001613469565b60408051601f19818403018152908290526123839161349a565b6000604051808303816000865af19150503d80600081146123c0576040519150601f19603f3d011682016040523d82523d6000602084013e6123c5565b606091505b509150915081156123e757808060200190518101906123e49190613311565b92505b8415806123f2575081155b156124c057604080516001600160a01b038b811660208301526000928392918e1691631d7b33d760e01b910160408051601f198184030181529082905261243c9291602001613469565b60408051601f19818403018152908290526124569161349a565b6000604051808303816000865af19150503d8060008114612493576040519150601f19603f3d011682016040523d82523d6000602084013e612498565b606091505b509150915081156124bd57808060200190518101906124b79190613311565b94508497505b50505b5093955093505050505b9250929050565b6000806124de84866138cf565b905082858210156117da5760405162461bcd60e51b815260040161250291906138e7565b60405180910390fd5b6000818484111561252f5760405162461bcd60e51b815260040161250291906138e7565b50600061253c84866138fa565b95945050505050565b60405163013cf08b60e01b8152600481018290526000906001600160a01b0384169063013cf08b9060240161014060405180830381865afa15801561258e573d6000803e3d6000fd5b505050506040513d601f19601f820116820180604052508101906125b29190613911565b918452506020808201516001600160a01b03169084015260408082015190840152606081015160e08085019190915260808201516101008086019190915260a08301516101208087019190915260c0840151610140870152918301516101608601528201511515610180850152015115156101a09092019190915250565b600080600080600080600080896001600160a01b031663013cf08b8a6040518263ffffffff1660e01b815260040161266a91815260200190565b61012060405180830381865afa158015612688573d6000803e3d6000fd5b505050506040513d601f19601f820116820180604052508101906126ac91906139a8565b9850985098509850985098509850985050888b6000018181525050878b602001906001600160a01b031690816001600160a01b031681525050868b6040018181525050858b60e0018181525050848b610100018181525050838b610120018181525050828b610140018181525050818b610160019015159081151581525050808b6101800190151590811515815250505050505050505050505050565b60405180610220016040528060006001600160a01b0316815260200160008152602001600081526020016000815260200160008152602001600081526020016000815260200160008152602001600081526020016000151581526020016000815260200160006001600160a01b0316815260200160008152602001600081526020016000815260200160008152602001600081525090565b60008083601f8401126127f357600080fd5b5081356001600160401b0381111561280a57600080fd5b6020830191508360208260051b85010111156124ca57600080fd5b6001600160a01b038116811461283a57600080fd5b50565b60008060006040848603121561285257600080fd5b83356001600160401b0381111561286857600080fd5b612874868287016127e1565b909450925050602084013561288881612825565b809150509250925092565b6001600160a01b0381511682526020810151602083015260408101516040830152606081015160608301526080810151608083015260a081015160a08301525050565b6020808252825182820181905260009190848201906040850190845b8181101561291857612905838551612893565b9284019260c092909201916001016128f2565b50909695505050505050565b60006020828403121561293657600080fd5b813561040881612825565b80516001600160a01b031682526020810151602083015260408101516040830152606081015160608301526080810151608083015260a081015160a083015260c081015160c083015260e081015160e0830152610100808201518184015250610120808201516129b48285018215159052565b50506101408181015190830152610160808201516001600160a01b03169083015261018080820151908301526101a080820151908301526101c080820151908301526101e0808201519083015261020090810151910152565b6102208101610fdf8284612941565b600080600060608486031215612a3157600080fd5b8335612a3c81612825565b92506020840135612a4c81612825565b9150604084013561288881612825565b60008060208385031215612a6f57600080fd5b82356001600160401b03811115612a8557600080fd5b612a91858286016127e1565b90969095509350505050565b602080825282518282018190526000919060409081850190868401855b82811015612af057612ae084835180516001600160a01b03168252602090810151910152565b9284019290850190600101612aba565b5091979650505050505050565b60008060408385031215612b1057600080fd5b8235612b1b81612825565b91506020830135612b2b81612825565b809150509250929050565b634e487b7160e01b600052604160045260246000fd5b604051606081016001600160401b0381118282101715612b6e57612b6e612b36565b60405290565b60405161014081016001600160401b0381118282101715612b6e57612b6e612b36565b604051601f8201601f191681016001600160401b0381118282101715612bbf57612bbf612b36565b604052919050565b60006001600160401b03821115612be057612be0612b36565b5060051b60200190565b600082601f830112612bfb57600080fd5b81356020612c10612c0b83612bc7565b612b97565b82815260059290921b84018101918181019086841115612c2f57600080fd5b8286015b84811015612c4a5780358352918301918301612c33565b509695505050505050565b600080600060608486031215612c6a57600080fd5b8335612c7581612825565b92506020840135612c8581612825565b915060408401356001600160401b03811115612ca057600080fd5b612cac86828701612bea565b9150509250925092565b602080825282518282018190526000919060409081850190868401855b82811015612af057815180518552868101511515878601528581015160ff16868601526060908101516001600160601b03169085015260809093019290850190600101612cd3565b6020808252825182820181905260009190848201906040850190845b8181101561291857612d4a838551612941565b928401926102209290920191600101612d37565b60008060008060608587031215612d7457600080fd5b8435612d7f81612825565b93506020850135612d8f81612825565b925060408501356001600160401b03811115612daa57600080fd5b612db6878288016127e1565b95989497509550505050565b602080825282518282018190526000919060409081850190868401855b82811015612af057815180518552860151868501529284019290850190600101612ddf565b600080600060408486031215612e1957600080fd5b8335612e2481612825565b925060208401356001600160401b03811115612e3f57600080fd5b612e4b868287016127e1565b9497909650939450505050565b600081518084526020808501945080840160005b83811015612e915781516001600160a01b031687529582019590820190600101612e6c565b509495945050505050565b600081518084526020808501945080840160005b83811015612e9157815187529582019590820190600101612eb0565b60005b83811015612ee7578181015183820152602001612ecf565b83811115612ef6576000848401525b50505050565b60008151808452612f14816020860160208601612ecc565b601f01601f19169290920160200192915050565b600081518084526020808501808196508360051b8101915082860160005b85811015612af0578284038952612f5e848351612efc565b98850198935090840190600101612f46565b60006020808301818452808551808352604092508286019150828160051b87010184880160005b8381101561309c57888303603f19018552815180518452878101516001600160a01b038116898601526101c0905087820151888601526060808301518282880152612fe483880182612e58565b9250505060808083015186830382880152612fff8382612e9c565b9250505060a0808301518683038288015261301a8382612f28565b9250505060c080830151868303828801526130358382612f28565b60e085810151908901526101008086015190890152610120808601519089015261014080860151908901526101608086015190890152610180808601511515908901526101a094850151151594909701939093525050509386019390860190600101612f97565b509098975050505050505050565b6020808252825160608383015280516080840181905260009291820190839060a08601905b808310156130f85783516001600160a01b031682529284019260019290920191908401906130cf565b50838701516040870152604087015160608701528094505050505092915050565b60006020808301818452808551808352604092508286019150828160051b87010184880160005b8381101561309c57888303603f19018552815180518452878101516001600160a01b038116898601526101a090508782015188860152606080830151828288015261318d83880182612e58565b92505050608080830151868303828801526131a88382612e9c565b9250505060a080830151868303828801526131c38382612f28565b9250505060c080830151868303828801526131de8382612f28565b60e085810151908901526101008086015190890152610120808601519089015261014080860151908901526101608086015115159089015261018094850151151594909701939093525050509386019390860190600101613140565b602080825282518282018190526000919060409081850190868401855b82811015612af05781518051855286810151151587860152858101511515868601526060908101516001600160601b03169085015260809093019290850190600101613257565b60c08101610fdf8284612893565b81516001600160a01b031681526020808301519082015260408101610fdf565b634e487b7160e01b600052603260045260246000fd5b634e487b7160e01b600052601160045260246000fd5b60006001820161330a5761330a6132e2565b5060010190565b60006020828403121561332357600080fd5b5051919050565b60006020828403121561333c57600080fd5b815161040881612825565b8051801515811461335757600080fd5b919050565b6000806040838503121561336f57600080fd5b61337883613347565b9150602083015190509250929050565b60006001600160401b038311156133a1576133a1612b36565b6133b4601f8401601f1916602001612b97565b90508281528383830111156133c857600080fd5b610408836020830184612ecc565b600082601f8301126133e757600080fd5b61040883835160208501613388565b60006020828403121561340857600080fd5b81516001600160401b0381111561341e57600080fd5b61342a848285016133d6565b949350505050565b805161335781612825565b805160ff8116811461335757600080fd5b60006020828403121561346057600080fd5b6104088261343d565b6001600160e01b031983168152815160009061348c816004850160208701612ecc565b919091016004019392505050565b600082516134ac818460208701612ecc565b9190910192915050565b80516001600160601b038116811461335757600080fd5b6000602082840312156134df57600080fd5b610408826134b6565b6000606082840312156134fa57600080fd5b613502612b4c565b61350b83613347565b81526135196020840161343d565b602082015261352a604084016134b6565b60408201529392505050565b60006020828403121561354857600080fd5b813563ffffffff8116811461040857600080fd5b600082601f83011261356d57600080fd5b8151602061357d612c0b83612bc7565b82815260059290921b8401810191818101908684111561359c57600080fd5b8286015b84811015612c4a57805183529183019183016135a0565b600082601f8301126135c857600080fd5b815160206135d8612c0b83612bc7565b82815260059290921b840181019181810190868411156135f757600080fd5b8286015b84811015612c4a5780516001600160401b0381111561361a5760008081fd5b6136288986838b01016133d6565b8452509183019183016135fb565b600082601f83011261364757600080fd5b81516020613657612c0b83612bc7565b82815260059290921b8401810191818101908684111561367657600080fd5b8286015b84811015612c4a5780516001600160401b038111156136995760008081fd5b8701603f810189136136ab5760008081fd5b6136bc898683015160408401613388565b84525091830191830161367a565b600080600080608085870312156136e057600080fd5b84516001600160401b03808211156136f757600080fd5b818701915087601f83011261370b57600080fd5b8151602061371b612c0b83612bc7565b82815260059290921b8401810191818101908b84111561373a57600080fd5b948201945b8386101561376157855161375281612825565b8252948201949082019061373f565b918a015191985090935050508082111561377a57600080fd5b6137868883890161355c565b9450604087015191508082111561379c57600080fd5b6137a8888389016135b7565b935060608701519150808211156137be57600080fd5b506137cb87828801613636565b91505092959194509250565b6000806000606084860312156137ec57600080fd5b8351925060208401519150604084015190509250925092565b6000602080838503121561381857600080fd5b82516001600160401b0381111561382e57600080fd5b8301601f8101851361383f57600080fd5b805161384d612c0b82612bc7565b81815260059190911b8201830190838101908783111561386c57600080fd5b928401925b8284101561389357835161388481612825565b82529284019290840190613871565b979650505050505050565b6000606082840312156138b057600080fd5b6138b8612b4c565b6138c183613347565b815261351960208401613347565b600082198211156138e2576138e26132e2565b500190565b6020815260006104086020830184612efc565b60008282101561390c5761390c6132e2565b500390565b6000610140828403121561392457600080fd5b61392c612b74565b8251815261393c60208401613432565b602082015260408301516040820152606083015160608201526080830151608082015260a083015160a082015260c083015160c082015260e083015160e082015261010061398b818501613347565b9082015261012061399d848201613347565b908201529392505050565b60008060008060008060008060006101208a8c0312156139c757600080fd5b8951985060208a01516139d981612825565b8098505060408a0151965060608a0151955060808a0151945060a08a0151935060c08a01519250613a0c60e08b01613347565b9150613a1b6101008b01613347565b9050929598509295985092959856fea2646970667358221220a881d534ff9d031ff0d30128b3dba9b4c779636feb5791b68b35cdbb8bc61eac64736f6c634300080d0033",
  "devdoc": {
    "kind": "dev",
    "methods": {},
    "version": 1
  },
  "userdoc": {
    "kind": "user",
    "methods": {},
    "version": 1
  },
  "storageLayout": {
    "storage": [],
    "types": null
  }
}