{
  "address": "0xC966d49db49d8a6887dd6e6d48f60D754c273Ea7",
  "abi": [
    {
      "inputs": [
        {
          "internalType": "contract CToken",
          "name": "cToken",
          "type": "address"
        },
        {
          "internalType": "address payable",
          "name": "account",
          "type": "address"
        }
      ],
      "name": "cTokenBalances",
      "outputs": [
        {
          "components": [
            {
              "internalType": "address",
              "name": "cToken",
              "type": "address"
            },
            {
              "internalType": "uint256",
              "name": "balanceOf",
              "type": "uint256"
            },
            {
              "internalType": "uint256",
              "name": "borrowBalanceCurrent",
              "type": "uint256"
            },
            {
              "internalType": "uint256",
              "name": "balanceOfUnderlying",
              "type": "uint256"
            },
            {
              "internalType": "uint256",
              "name": "tokenBalance",
              "type": "uint256"
            },
            {
              "internalType": "uint256",
              "name": "tokenAllowance",
              "type": "uint256"
            }
          ],
          "internalType": "struct CompoundLens.CTokenBalances",
          "name": "",
          "type": "tuple"
        }
      ],
      "stateMutability": "nonpayable",
      "type": "function"
    },
    {
      "inputs": [
        {
          "internalType": "contract CToken[]",
          "name": "cTokens",
          "type": "address[]"
        },
        {
          "internalType": "address payable",
          "name": "account",
          "type": "address"
        }
      ],
      "name": "cTokenBalancesAll",
      "outputs": [
        {
          "components": [
            {
              "internalType": "address",
              "name": "cToken",
              "type": "address"
            },
            {
              "internalType": "uint256",
              "name": "balanceOf",
              "type": "uint256"
            },
            {
              "internalType": "uint256",
              "name": "borrowBalanceCurrent",
              "type": "uint256"
            },
            {
              "internalType": "uint256",
              "name": "balanceOfUnderlying",
              "type": "uint256"
            },
            {
              "internalType": "uint256",
              "name": "tokenBalance",
              "type": "uint256"
            },
            {
              "internalType": "uint256",
              "name": "tokenAllowance",
              "type": "uint256"
            }
          ],
          "internalType": "struct CompoundLens.CTokenBalances[]",
          "name": "",
          "type": "tuple[]"
        }
      ],
      "stateMutability": "nonpayable",
      "type": "function"
    },
    {
      "inputs": [
        {
          "internalType": "contract CToken",
          "name": "cToken",
          "type": "address"
        }
      ],
      "name": "cTokenMetadata",
      "outputs": [
        {
          "components": [
            {
              "internalType": "address",
              "name": "cToken",
              "type": "address"
            },
            {
              "internalType": "uint256",
              "name": "exchangeRateCurrent",
              "type": "uint256"
            },
            {
              "internalType": "uint256",
              "name": "supplyRatePerBlock",
              "type": "uint256"
            },
            {
              "internalType": "uint256",
              "name": "borrowRatePerBlock",
              "type": "uint256"
            },
            {
              "internalType": "uint256",
              "name": "reserveFactorMantissa",
              "type": "uint256"
            },
            {
              "internalType": "uint256",
              "name": "totalBorrows",
              "type": "uint256"
            },
            {
              "internalType": "uint256",
              "name": "totalReserves",
              "type": "uint256"
            },
            {
              "internalType": "uint256",
              "name": "totalSupply",
              "type": "uint256"
            },
            {
              "internalType": "uint256",
              "name": "totalCash",
              "type": "uint256"
            },
            {
              "internalType": "bool",
              "name": "isListed",
              "type": "bool"
            },
            {
              "internalType": "uint256",
              "name": "collateralFactorMantissa",
              "type": "uint256"
            },
            {
              "internalType": "address",
              "name": "underlyingAssetAddress",
              "type": "address"
            },
            {
              "internalType": "uint256",
              "name": "cTokenDecimals",
              "type": "uint256"
            },
            {
              "internalType": "uint256",
              "name": "underlyingDecimals",
              "type": "uint256"
            },
            {
              "internalType": "uint256",
              "name": "compSupplySpeed",
              "type": "uint256"
            },
            {
              "internalType": "uint256",
              "name": "compBorrowSpeed",
              "type": "uint256"
            },
            {
              "internalType": "uint256",
              "name": "borrowCap",
              "type": "uint256"
            }
          ],
          "internalType": "struct CompoundLens.CTokenMetadata",
          "name": "",
          "type": "tuple"
        }
      ],
      "stateMutability": "nonpayable",
      "type": "function"
    },
    {
      "inputs": [
        {
          "internalType": "contract CToken[]",
          "name": "cTokens",
          "type": "address[]"
        }
      ],
      "name": "cTokenMetadataAll",
      "outputs": [
        {
          "components": [
            {
              "internalType": "address",
              "name": "cToken",
              "type": "address"
            },
            {
              "internalType": "uint256",
              "name": "exchangeRateCurrent",
              "type": "uint256"
            },
            {
              "internalType": "uint256",
              "name": "supplyRatePerBlock",
              "type": "uint256"
            },
            {
              "internalType": "uint256",
              "name": "borrowRatePerBlock",
              "type": "uint256"
            },
            {
              "internalType": "uint256",
              "name": "reserveFactorMantissa",
              "type": "uint256"
            },
            {
              "internalType": "uint256",
              "name": "totalBorrows",
              "type": "uint256"
            },
            {
              "internalType": "uint256",
              "name": "totalReserves",
              "type": "uint256"
            },
            {
              "internalType": "uint256",
              "name": "totalSupply",
              "type": "uint256"
            },
            {
              "internalType": "uint256",
              "name": "totalCash",
              "type": "uint256"
            },
            {
              "internalType": "bool",
              "name": "isListed",
              "type": "bool"
            },
            {
              "internalType": "uint256",
              "name": "collateralFactorMantissa",
              "type": "uint256"
            },
            {
              "internalType": "address",
              "name": "underlyingAssetAddress",
              "type": "address"
            },
            {
              "internalType": "uint256",
              "name": "cTokenDecimals",
              "type": "uint256"
            },
            {
              "internalType": "uint256",
              "name": "underlyingDecimals",
              "type": "uint256"
            },
            {
              "internalType": "uint256",
              "name": "compSupplySpeed",
              "type": "uint256"
            },
            {
              "internalType": "uint256",
              "name": "compBorrowSpeed",
              "type": "uint256"
            },
            {
              "internalType": "uint256",
              "name": "borrowCap",
              "type": "uint256"
            }
          ],
          "internalType": "struct CompoundLens.CTokenMetadata[]",
          "name": "",
          "type": "tuple[]"
        }
      ],
      "stateMutability": "nonpayable",
      "type": "function"
    },
    {
      "inputs": [
        {
          "internalType": "contract CToken",
          "name": "cToken",
          "type": "address"
        }
      ],
      "name": "cTokenUnderlyingPrice",
      "outputs": [
        {
          "components": [
            {
              "internalType": "address",
              "name": "cToken",
              "type": "address"
            },
            {
              "internalType": "uint256",
              "name": "underlyingPrice",
              "type": "uint256"
            }
          ],
          "internalType": "struct CompoundLens.CTokenUnderlyingPrice",
          "name": "",
          "type": "tuple"
        }
      ],
      "stateMutability": "nonpayable",
      "type": "function"
    },
    {
      "inputs": [
        {
          "internalType": "contract CToken[]",
          "name": "cTokens",
          "type": "address[]"
        }
      ],
      "name": "cTokenUnderlyingPriceAll",
      "outputs": [
        {
          "components": [
            {
              "internalType": "address",
              "name": "cToken",
              "type": "address"
            },
            {
              "internalType": "uint256",
              "name": "underlyingPrice",
              "type": "uint256"
            }
          ],
          "internalType": "struct CompoundLens.CTokenUnderlyingPrice[]",
          "name": "",
          "type": "tuple[]"
        }
      ],
      "stateMutability": "nonpayable",
      "type": "function"
    },
    {
      "inputs": [
        {
          "internalType": "contract ComptrollerLensInterface",
          "name": "comptroller",
          "type": "address"
        },
        {
          "internalType": "address",
          "name": "account",
          "type": "address"
        }
      ],
      "name": "getAccountLimits",
      "outputs": [
        {
          "components": [
            {
              "internalType": "contract CToken[]",
              "name": "markets",
              "type": "address[]"
            },
            {
              "internalType": "uint256",
              "name": "liquidity",
              "type": "uint256"
            },
            {
              "internalType": "uint256",
              "name": "shortfall",
              "type": "uint256"
            }
          ],
          "internalType": "struct CompoundLens.AccountLimits",
          "name": "",
          "type": "tuple"
        }
      ],
      "stateMutability": "nonpayable",
      "type": "function"
    },
    {
      "inputs": [
        {
          "internalType": "contract Comp",
          "name": "comp",
          "type": "address"
        },
        {
          "internalType": "contract ComptrollerLens2Interface",
          "name": "comptroller",
          "type": "address"
        },
        {
          "internalType": "address",
          "name": "account",
          "type": "address"
        },
        {
          "internalType": "contract CToken[]",
          "name": "markets",
          "type": "address[]"
        }
      ],
      "name": "getClaimMarketData",
      "outputs": [
        {
          "internalType": "uint256[]",
          "name": "",
          "type": "uint256[]"
        }
      ],
      "stateMutability": "nonpayable",
      "type": "function"
    },
    {
      "inputs": [
        {
          "internalType": "contract Comp",
          "name": "comp",
          "type": "address"
        },
        {
          "internalType": "address",
          "name": "account",
          "type": "address"
        }
      ],
      "name": "getCompBalanceMetadata",
      "outputs": [
        {
          "components": [
            {
              "internalType": "uint256",
              "name": "balance",
              "type": "uint256"
            },
            {
              "internalType": "uint256",
              "name": "votes",
              "type": "uint256"
            },
            {
              "internalType": "address",
              "name": "delegate",
              "type": "address"
            }
          ],
          "internalType": "struct CompoundLens.CompBalanceMetadata",
          "name": "",
          "type": "tuple"
        }
      ],
      "stateMutability": "view",
      "type": "function"
    },
    {
      "inputs": [
        {
          "internalType": "contract Comp",
          "name": "comp",
          "type": "address"
        },
        {
          "internalType": "contract ComptrollerLensInterface",
          "name": "comptroller",
          "type": "address"
        },
        {
          "internalType": "address",
          "name": "account",
          "type": "address"
        }
      ],
      "name": "getCompBalanceMetadataExt",
      "outputs": [
        {
          "components": [
            {
              "internalType": "uint256",
              "name": "balance",
              "type": "uint256"
            },
            {
              "internalType": "uint256",
              "name": "votes",
              "type": "uint256"
            },
            {
              "internalType": "address",
              "name": "delegate",
              "type": "address"
            },
            {
              "internalType": "uint256",
              "name": "allocated",
              "type": "uint256"
            }
          ],
          "internalType": "struct CompoundLens.CompBalanceMetadataExt",
          "name": "",
          "type": "tuple"
        }
      ],
      "stateMutability": "nonpayable",
      "type": "function"
    },
    {
      "inputs": [
        {
          "internalType": "contract Comp",
          "name": "comp",
          "type": "address"
        },
        {
          "internalType": "address",
          "name": "account",
          "type": "address"
        },
        {
          "internalType": "uint32[]",
          "name": "blockNumbers",
          "type": "uint32[]"
        }
      ],
      "name": "getCompVotes",
      "outputs": [
        {
          "components": [
            {
              "internalType": "uint256",
              "name": "blockNumber",
              "type": "uint256"
            },
            {
              "internalType": "uint256",
              "name": "votes",
              "type": "uint256"
            }
          ],
          "internalType": "struct CompoundLens.CompVotes[]",
          "name": "",
          "type": "tuple[]"
        }
      ],
      "stateMutability": "view",
      "type": "function"
    },
    {
      "inputs": [
        {
          "internalType": "contract GovernorBravoInterface",
          "name": "governor",
          "type": "address"
        },
        {
          "internalType": "uint256[]",
          "name": "proposalIds",
          "type": "uint256[]"
        }
      ],
      "name": "getGovBravoProposals",
      "outputs": [
        {
          "components": [
            {
              "internalType": "uint256",
              "name": "proposalId",
              "type": "uint256"
            },
            {
              "internalType": "address",
              "name": "proposer",
              "type": "address"
            },
            {
              "internalType": "uint256",
              "name": "eta",
              "type": "uint256"
            },
            {
              "internalType": "address[]",
              "name": "targets",
              "type": "address[]"
            },
            {
              "internalType": "uint256[]",
              "name": "values",
              "type": "uint256[]"
            },
            {
              "internalType": "string[]",
              "name": "signatures",
              "type": "string[]"
            },
            {
              "internalType": "bytes[]",
              "name": "calldatas",
              "type": "bytes[]"
            },
            {
              "internalType": "uint256",
              "name": "startBlock",
              "type": "uint256"
            },
            {
              "internalType": "uint256",
              "name": "endBlock",
              "type": "uint256"
            },
            {
              "internalType": "uint256",
              "name": "forVotes",
              "type": "uint256"
            },
            {
              "internalType": "uint256",
              "name": "againstVotes",
              "type": "uint256"
            },
            {
              "internalType": "uint256",
              "name": "abstainVotes",
              "type": "uint256"
            },
            {
              "internalType": "bool",
              "name": "canceled",
              "type": "bool"
            },
            {
              "internalType": "bool",
              "name": "executed",
              "type": "bool"
            }
          ],
          "internalType": "struct CompoundLens.GovBravoProposal[]",
          "name": "",
          "type": "tuple[]"
        }
      ],
      "stateMutability": "view",
      "type": "function"
    },
    {
      "inputs": [
        {
          "internalType": "contract GovernorBravoInterface",
          "name": "governor",
          "type": "address"
        },
        {
          "internalType": "address",
          "name": "voter",
          "type": "address"
        },
        {
          "internalType": "uint256[]",
          "name": "proposalIds",
          "type": "uint256[]"
        }
      ],
      "name": "getGovBravoReceipts",
      "outputs": [
        {
          "components": [
            {
              "internalType": "uint256",
              "name": "proposalId",
              "type": "uint256"
            },
            {
              "internalType": "bool",
              "name": "hasVoted",
              "type": "bool"
            },
            {
              "internalType": "uint8",
              "name": "support",
              "type": "uint8"
            },
            {
              "internalType": "uint96",
              "name": "votes",
              "type": "uint96"
            }
          ],
          "internalType": "struct CompoundLens.GovBravoReceipt[]",
          "name": "",
          "type": "tuple[]"
        }
      ],
      "stateMutability": "view",
      "type": "function"
    },
    {
      "inputs": [
        {
          "internalType": "contract GovernorAlpha",
          "name": "governor",
          "type": "address"
        },
        {
          "internalType": "uint256[]",
          "name": "proposalIds",
          "type": "uint256[]"
        }
      ],
      "name": "getGovProposals",
      "outputs": [
        {
          "components": [
            {
              "internalType": "uint256",
              "name": "proposalId",
              "type": "uint256"
            },
            {
              "internalType": "address",
              "name": "proposer",
              "type": "address"
            },
            {
              "internalType": "uint256",
              "name": "eta",
              "type": "uint256"
            },
            {
              "internalType": "address[]",
              "name": "targets",
              "type": "address[]"
            },
            {
              "internalType": "uint256[]",
              "name": "values",
              "type": "uint256[]"
            },
            {
              "internalType": "string[]",
              "name": "signatures",
              "type": "string[]"
            },
            {
              "internalType": "bytes[]",
              "name": "calldatas",
              "type": "bytes[]"
            },
            {
              "internalType": "uint256",
              "name": "startBlock",
              "type": "uint256"
            },
            {
              "internalType": "uint256",
              "name": "endBlock",
              "type": "uint256"
            },
            {
              "internalType": "uint256",
              "name": "forVotes",
              "type": "uint256"
            },
            {
              "internalType": "uint256",
              "name": "againstVotes",
              "type": "uint256"
            },
            {
              "internalType": "bool",
              "name": "canceled",
              "type": "bool"
            },
            {
              "internalType": "bool",
              "name": "executed",
              "type": "bool"
            }
          ],
          "internalType": "struct CompoundLens.GovProposal[]",
          "name": "",
          "type": "tuple[]"
        }
      ],
      "stateMutability": "view",
      "type": "function"
    },
    {
      "inputs": [
        {
          "internalType": "contract GovernorAlpha",
          "name": "governor",
          "type": "address"
        },
        {
          "internalType": "address",
          "name": "voter",
          "type": "address"
        },
        {
          "internalType": "uint256[]",
          "name": "proposalIds",
          "type": "uint256[]"
        }
      ],
      "name": "getGovReceipts",
      "outputs": [
        {
          "components": [
            {
              "internalType": "uint256",
              "name": "proposalId",
              "type": "uint256"
            },
            {
              "internalType": "bool",
              "name": "hasVoted",
              "type": "bool"
            },
            {
              "internalType": "bool",
              "name": "support",
              "type": "bool"
            },
            {
              "internalType": "uint96",
              "name": "votes",
              "type": "uint96"
            }
          ],
          "internalType": "struct CompoundLens.GovReceipt[]",
          "name": "",
          "type": "tuple[]"
        }
      ],
      "stateMutability": "view",
      "type": "function"
    }
  ],
  "transactionHash": "0xd078fd45573a422c56c0cd28685d8ace84a1c77379895bcbe59e8c40a3b9b5de",
  "args": [],
  "numDeployments": 1,
  "solcInputHash": "937343f9f4adc47ddb4908e4d621c044",
  "bytecode": "0x608060405234801561001057600080fd5b50613f64806100206000396000f3fe608060405234801561001057600080fd5b50600436106100f55760003560e01c80635956421911610097578063995ed99f11610066578063995ed99f146102b0578063bdf950c9146102d0578063c5ae5934146102f0578063e26aed3e1461031057600080fd5b8063595642191461023057806375d80e90146102505780637dd8f6d914610270578063969948691461029057600080fd5b80632b2d5ed6116100d35780632b2d5ed614610192578063416405d7146101b257806343c811cc146101f05780634b70d84b1461021057600080fd5b80630972bf8b146100fa578063158eca8b146101235780631ea6374114610143575b600080fd5b61010d610108366004612c65565b610330565b60405161011a9190612cfe565b60405180910390f35b610136610131366004612d4c565b61043a565b60405161011a9190612e35565b610156610151366004612e44565b610bda565b60405161011a919081518152602080830151908201526040808301516001600160a01b0316908201526060918201519181019190915260800190565b6101a56101a0366004612e84565b610f3b565b60405161011a9190612ec5565b6101c56101c0366004612f25565b611010565b604080518251815260208084015190820152918101516001600160a01b03169082015260600161011a565b6102036101fe36600461307d565b6111b1565b60405161011a91906130de565b61022361021e366004612e84565b611353565b60405161011a9190613143565b61024361023e366004613186565b611411565b60405161011a91906131ea565b61026361025e36600461322c565b6115ad565b60405161011a9190613398565b61028361027e366004612f25565b61180e565b60405161011a91906134d2565b6102a361029e36600461322c565b611948565b60405161011a919061350e565b6102c36102be36600461307d565b611b92565b60405161011a919061362f565b6102e36102de366004612f25565b611d33565b60405161011a9190613693565b6103036102fe366004612d4c565b6120b6565b60405161011a91906136a1565b61032361031e3660046136c1565b612220565b60405161011a919061373c565b6060826000816001600160401b0381111561034d5761034d612f5e565b6040519080825280602002602001820160405280156103c057816020015b6103ad6040518060c0016040528060006001600160a01b0316815260200160008152602001600081526020016000815260200160008152602001600081525090565b81526020019060019003908161036b5790505b50905060005b8281101561042e576103fe8787838181106103e3576103e361374f565b90506020020160208101906103f89190612d4c565b86611d33565b8282815181106104105761041061374f565b602002602001018190525080806104269061377b565b9150506103c6565b509150505b9392505050565b610442612b71565b6000826001600160a01b031663bd6d894d6040518163ffffffff1660e01b81526004016020604051808303816000875af1158015610484573d6000803e3d6000fd5b505050506040513d601f19601f820116820180604052508101906104a89190613794565b90506000836001600160a01b0316635fe3b5676040518163ffffffff1660e01b8152600401602060405180830381865afa1580156104ea573d6000803e3d6000fd5b505050506040513d601f19601f8201168201806040525081019061050e91906137ad565b604051638e8f294b60e01b81526001600160a01b038681166004830152919250600091829190841690638e8f294b906024016040805180830381865afa15801561055c573d6000803e3d6000fd5b505050506040513d601f19601f8201168201806040525081019061058091906137df565b91509150600080610612886001600160a01b03166395d89b416040518163ffffffff1660e01b8152600401600060405180830381865afa1580156105c8573d6000803e3d6000fd5b505050506040513d6000823e601f3d908101601f191682016040526105f09190810190613879565b604051806040016040528060048152602001630c88aa8960e31b81525061261d565b156106235750600090506012610756565b6000889050806001600160a01b0316636f307dc36040518163ffffffff1660e01b8152600401602060405180830381865afa158015610666573d6000803e3d6000fd5b505050506040513d601f19601f8201168201806040525081019061068a91906137ad565b9250806001600160a01b0316636f307dc36040518163ffffffff1660e01b8152600401602060405180830381865afa1580156106ca573d6000803e3d6000fd5b505050506040513d601f19601f820116820180604052508101906106ee91906137ad565b6001600160a01b031663313ce5676040518163ffffffff1660e01b8152600401602060405180830381865afa15801561072b573d6000803e3d6000fd5b505050506040513d601f19601f8201168201806040525081019061074f91906138d1565b60ff169150505b600080610763878b612676565b9150915060008080896001600160a01b0316634a58443260e01b8e60405160200161079d91906001600160a01b0391909116815260200190565b60408051601f19818403018152908290526107bb92916020016138ec565b60408051601f19818403018152908290526107d59161391d565b6000604051808303816000865af19150503d8060008114610812576040519150601f19603f3d011682016040523d82523d6000602084013e610817565b606091505b5091509150811561083957808060200190518101906108369190613794565b92505b6040518061022001604052808e6001600160a01b031681526020018c81526020018e6001600160a01b031663ae9d70b06040518163ffffffff1660e01b8152600401602060405180830381865afa158015610898573d6000803e3d6000fd5b505050506040513d601f19601f820116820180604052508101906108bc9190613794565b81526020018e6001600160a01b031663f8f9da286040518163ffffffff1660e01b8152600401602060405180830381865afa1580156108ff573d6000803e3d6000fd5b505050506040513d601f19601f820116820180604052508101906109239190613794565b81526020018e6001600160a01b031663173b99046040518163ffffffff1660e01b8152600401602060405180830381865afa158015610966573d6000803e3d6000fd5b505050506040513d601f19601f8201168201806040525081019061098a9190613794565b81526020018e6001600160a01b03166347bd37186040518163ffffffff1660e01b8152600401602060405180830381865afa1580156109cd573d6000803e3d6000fd5b505050506040513d601f19601f820116820180604052508101906109f19190613794565b81526020018e6001600160a01b0316638f840ddd6040518163ffffffff1660e01b8152600401602060405180830381865afa158015610a34573d6000803e3d6000fd5b505050506040513d601f19601f82011682018060405250810190610a589190613794565b81526020018e6001600160a01b03166318160ddd6040518163ffffffff1660e01b8152600401602060405180830381865afa158015610a9b573d6000803e3d6000fd5b505050506040513d601f19601f82011682018060405250810190610abf9190613794565b81526020018e6001600160a01b0316633b1d21a26040518163ffffffff1660e01b8152600401602060405180830381865afa158015610b02573d6000803e3d6000fd5b505050506040513d601f19601f82011682018060405250810190610b269190613794565b81526020018a15158152602001898152602001886001600160a01b031681526020018e6001600160a01b031663313ce5676040518163ffffffff1660e01b8152600401602060405180830381865afa158015610b86573d6000803e3d6000fd5b505050506040513d601f19601f82011682018060405250810190610baa91906138d1565b60ff168152602001878152602001868152602001858152602001848152509b505050505050505050505050919050565b610c0e6040518060800160405280600081526020016000815260200160006001600160a01b03168152602001600081525090565b6040516370a0823160e01b81526001600160a01b038381166004830152600091908616906370a0823190602401602060405180830381865afa158015610c58573d6000803e3d6000fd5b505050506040513d601f19601f82011682018060405250810190610c7c9190613794565b6040516374d7814960e11b81526001600160a01b0385811660048301529192509085169063e9af029290602401600060405180830381600087803b158015610cc357600080fd5b505af1158015610cd7573d6000803e3d6000fd5b50506040516370a0823160e01b81526001600160a01b03868116600483015260009350881691506370a0823190602401602060405180830381865afa158015610d24573d6000803e3d6000fd5b505050506040513d601f19601f82011682018060405250810190610d489190613794565b60405163331faf7160e21b81526001600160a01b03868116600483015291925060009187169063cc7ebdc490602401602060405180830381865afa158015610d94573d6000803e3d6000fd5b505050506040513d601f19601f82011682018060405250810190610db89190613794565b90506000610ded82846040518060400160405280600e81526020016d1cdd5b4818dbdb5c081d1bdd185b60921b8152506128f9565b90506000610e2182866040518060400160405280600d81526020016c1cdd5888185b1b1bd8d85d1959609a1b815250612933565b60408051608081018252878152905163b4b5ea5760e01b81526001600160a01b038a8116600483015292935090916020830191908c169063b4b5ea5790602401602060405180830381865afa158015610e7e573d6000803e3d6000fd5b505050506040513d601f19601f82011682018060405250810190610ea29190613950565b6001600160601b03168152604051632c3e6f0f60e11b81526001600160a01b038a811660048301526020909201918c169063587cde1e90602401602060405180830381865afa158015610ef9573d6000803e3d6000fd5b505050506040513d601f19601f82011682018060405250810190610f1d91906137ad565b6001600160a01b031681526020019190915298975050505050505050565b6060816000816001600160401b03811115610f5857610f58612f5e565b604051908082528060200260200182016040528015610f9d57816020015b6040805180820190915260008082526020820152815260200190600190039081610f765790505b50905060005b8281101561100557610fd5868683818110610fc057610fc061374f565b90506020020160208101906102fe9190612d4c565b828281518110610fe757610fe761374f565b60200260200101819052508080610ffd9061377b565b915050610fa3565b509150505b92915050565b61103d6040518060600160405280600081526020016000815260200160006001600160a01b031681525090565b6040805160608101918290526370a0823160e01b9091526001600160a01b038381166064830152819085166370a0823160848301602060405180830381865afa15801561108e573d6000803e3d6000fd5b505050506040513d601f19601f820116820180604052508101906110b29190613794565b815260405163b4b5ea5760e01b81526001600160a01b03858116600483015260209092019186169063b4b5ea5790602401602060405180830381865afa158015611100573d6000803e3d6000fd5b505050506040513d601f19601f820116820180604052508101906111249190613950565b6001600160601b03168152604051632c3e6f0f60e11b81526001600160a01b03858116600483015260209092019186169063587cde1e90602401602060405180830381865afa15801561117b573d6000803e3d6000fd5b505050506040513d601f19601f8201168201806040525081019061119f91906137ad565b6001600160a01b031690529392505050565b80516060906000816001600160401b038111156111d0576111d0612f5e565b60405190808252806020026020018201604052801561122257816020015b6040805160808101825260008082526020808301829052928201819052606082015282526000199092019101816111ee5790505b50905060005b8281101561042e576000876001600160a01b031663e23a9a528784815181106112535761125361374f565b6020026020010151896040518363ffffffff1660e01b815260040161128b9291909182526001600160a01b0316602082015260400190565b606060405180830381865afa1580156112a8573d6000803e3d6000fd5b505050506040513d601f19601f820116820180604052508101906112cc919061396b565b905060405180608001604052808784815181106112eb576112eb61374f565b60200260200101518152602001826000015115158152602001826020015160ff16815260200182604001516001600160601b03168152508383815181106113345761133461374f565b602002602001018190525050808061134b9061377b565b915050611228565b6060816000816001600160401b0381111561137057611370612f5e565b6040519080825280602002602001820160405280156113a957816020015b611396612b71565b81526020019060019003908161138e5790505b50905060005b82811015611005576113e18686838181106113cc576113cc61374f565b90506020020160208101906101319190612d4c565b8282815181106113f3576113f361374f565b602002602001018190525080806114099061377b565b9150506113af565b60606000826001600160401b0381111561142d5761142d612f5e565b60405190808252806020026020018201604052801561147257816020015b604080518082019091526000808252602082015281526020019060019003908161144b5790505b50905060005b838110156115a357604051806040016040528086868481811061149d5761149d61374f565b90506020020160208101906114b291906139b9565b63ffffffff168152602001886001600160a01b031663782d6fe1898989878181106114df576114df61374f565b90506020020160208101906114f491906139b9565b6040516001600160e01b031960e085901b1681526001600160a01b03909216600483015263ffffffff166024820152604401602060405180830381865afa158015611543573d6000803e3d6000fd5b505050506040513d601f19601f820116820180604052508101906115679190613950565b6001600160601b03168152508282815181106115855761158561374f565b6020026020010181905250808061159b9061377b565b915050611478565b5095945050505050565b60606000826001600160401b038111156115c9576115c9612f5e565b60405190808252806020026020018201604052801561167957816020015b611666604051806101c001604052806000815260200160006001600160a01b03168152602001600081526020016060815260200160608152602001606081526020016060815260200160008152602001600081526020016000815260200160008152602001600081526020016000151581526020016000151581525090565b8152602001906001900390816115e75790505b50905060005b8381101561180557600080600080896001600160a01b031663328dd9828a8a888181106116ae576116ae61374f565b905060200201356040518263ffffffff1660e01b81526004016116d391815260200190565b600060405180830381865afa1580156116f0573d6000803e3d6000fd5b505050506040513d6000823e601f3d908101601f191682016040526117189190810190613b4d565b9350935093509350604051806101c001604052806000815260200160006001600160a01b03168152602001600081526020018581526020018481526020018381526020018281526020016000815260200160008152602001600081526020016000815260200160008152602001600015158152602001600015158152508686815181106117a7576117a761374f565b60200260200101819052506117ee8686815181106117c7576117c761374f565b60200260200101518b8b8b898181106117e2576117e261374f565b9050602002013561296d565b5050505080806117fd9061377b565b91505061167f565b50949350505050565b61183260405180606001604052806060815260200160008152602001600081525090565b604051635ec88c7960e01b81526001600160a01b0383811660048301526000918291829190871690635ec88c7990602401606060405180830381865afa158015611880573d6000803e3d6000fd5b505050506040513d601f19601f820116820180604052508101906118a49190613c5a565b925092509250826000146118b757600080fd5b604080516060810191829052632aff3bff60e21b9091526001600160a01b0386811660648301528190881663abfceffc60848301600060405180830381865afa158015611908573d6000803e3d6000fd5b505050506040513d6000823e601f3d908101601f191682016040526119309190810190613c88565b81526020810193909352604090920152949350505050565b60606000826001600160401b0381111561196457611964612f5e565b604051908082528060200260200182016040528015611a0d57816020015b6119fa604051806101a001604052806000815260200160006001600160a01b031681526020016000815260200160608152602001606081526020016060815260200160608152602001600081526020016000815260200160008152602001600081526020016000151581526020016000151581525090565b8152602001906001900390816119825790505b50905060005b8381101561180557600080600080896001600160a01b031663328dd9828a8a88818110611a4257611a4261374f565b905060200201356040518263ffffffff1660e01b8152600401611a6791815260200190565b600060405180830381865afa158015611a84573d6000803e3d6000fd5b505050506040513d6000823e601f3d908101601f19168201604052611aac9190810190613b4d565b9350935093509350604051806101a001604052806000815260200160006001600160a01b03168152602001600081526020018581526020018481526020018381526020018281526020016000815260200160008152602001600081526020016000815260200160001515815260200160001515815250868681518110611b3457611b3461374f565b6020026020010181905250611b7b868681518110611b5457611b5461374f565b60200260200101518b8b8b89818110611b6f57611b6f61374f565b90506020020135612a58565b505050508080611b8a9061377b565b915050611a13565b80516060906000816001600160401b03811115611bb157611bb1612f5e565b604051908082528060200260200182016040528015611c0357816020015b604080516080810182526000808252602080830182905292820181905260608201528252600019909201910181611bcf5790505b50905060005b8281101561042e576000876001600160a01b031663e23a9a52878481518110611c3457611c3461374f565b6020026020010151896040518363ffffffff1660e01b8152600401611c6c9291909182526001600160a01b0316602082015260400190565b606060405180830381865afa158015611c89573d6000803e3d6000fd5b505050506040513d601f19601f82011682018060405250810190611cad9190613d21565b90506040518060800160405280878481518110611ccc57611ccc61374f565b6020026020010151815260200182600001511515815260200182602001511515815260200182604001516001600160601b0316815250838381518110611d1457611d1461374f565b6020026020010181905250508080611d2b9061377b565b915050611c09565b611d756040518060c0016040528060006001600160a01b0316815260200160008152602001600081526020016000815260200160008152602001600081525090565b6040516370a0823160e01b81526001600160a01b038381166004830152600091908516906370a0823190602401602060405180830381865afa158015611dbf573d6000803e3d6000fd5b505050506040513d601f19601f82011682018060405250810190611de39190613794565b6040516305eff7ef60e21b81526001600160a01b0385811660048301529192506000918616906317bfdfbc906024016020604051808303816000875af1158015611e31573d6000803e3d6000fd5b505050506040513d601f19601f82011682018060405250810190611e559190613794565b604051633af9e66960e01b81526001600160a01b038681166004830152919250600091871690633af9e669906024016020604051808303816000875af1158015611ea3573d6000803e3d6000fd5b505050506040513d601f19601f82011682018060405250810190611ec79190613794565b9050600080611f0d886001600160a01b03166395d89b416040518163ffffffff1660e01b8152600401600060405180830381865afa1580156105c8573d6000803e3d6000fd5b15611f275750506001600160a01b03851680319031612079565b60008890506000816001600160a01b0316636f307dc36040518163ffffffff1660e01b8152600401602060405180830381865afa158015611f6c573d6000803e3d6000fd5b505050506040513d601f19601f82011682018060405250810190611f9091906137ad565b6040516370a0823160e01b81526001600160a01b038b81166004830152919250908216906370a0823190602401602060405180830381865afa158015611fda573d6000803e3d6000fd5b505050506040513d601f19601f82011682018060405250810190611ffe9190613794565b604051636eb1769f60e11b81526001600160a01b038b811660048301528c811660248301529195509082169063dd62ed3e90604401602060405180830381865afa158015612050573d6000803e3d6000fd5b505050506040513d601f19601f820116820180604052508101906120749190613794565b925050505b6040805160c0810182526001600160a01b039990991689526020890195909552938701929092526060860152608085015260a08401525090919050565b60408051808201909152600080825260208201526000826001600160a01b0316635fe3b5676040518163ffffffff1660e01b8152600401602060405180830381865afa15801561210a573d6000803e3d6000fd5b505050506040513d601f19601f8201168201806040525081019061212e91906137ad565b90506000816001600160a01b0316637dc0d1d06040518163ffffffff1660e01b8152600401602060405180830381865afa158015612170573d6000803e3d6000fd5b505050506040513d601f19601f8201168201806040525081019061219491906137ad565b6040805180820182526001600160a01b03808816808352925163fc57d4df60e01b815260048101939093529293509160208301919084169063fc57d4df90602401602060405180830381865afa1580156121f2573d6000803e3d6000fd5b505050506040513d601f19601f820116820180604052508101906122169190613794565b9052949350505050565b60606000826001600160401b0381111561223c5761223c612f5e565b604051908082528060200260200182016040528015612265578160200160208202803683370190505b5060405163331faf7160e21b81526001600160a01b03878116600483015291925060009188169063cc7ebdc490602401602060405180830381865afa1580156122b2573d6000803e3d6000fd5b505050506040513d601f19601f820116820180604052508101906122d69190613794565b6040516370a0823160e01b81526001600160a01b03888116600483015291925060009161236a91908b16906370a0823190602401602060405180830381865afa158015612327573d6000803e3d6000fd5b505050506040513d601f19601f8201168201806040525081019061234b9190613794565b83604051806060016040528060218152602001613f0e602191396128f9565b604080516001808252818301909252919250600091906020808301908036833701905050905087816000815181106123a4576123a461374f565b60200260200101906001600160a01b031690816001600160a01b03168152505060005b8681101561260e57604080516001808252818301909252600091602080830190803683370190505090508888838181106124035761240361374f565b90506020020160208101906124189190612d4c565b8160008151811061242b5761242b61374f565b6001600160a01b0392831660209182029290920101526040516334086fd360e11b8152908c1690636810dfa69061246e9086908590600090600190600401613d52565b600060405180830381600087803b15801561248857600080fd5b505af115801561249c573d6000803e3d6000fd5b50506040516370a0823160e01b81526001600160a01b038d81166004830152600093506125b692508f16906370a0823190602401602060405180830381865afa1580156124ed573d6000803e3d6000fd5b505050506040513d601f19601f820116820180604052508101906125119190613794565b60405163331faf7160e21b81526001600160a01b038e811660048301528f169063cc7ebdc490602401602060405180830381865afa158015612557573d6000803e3d6000fd5b505050506040513d601f19601f8201168201806040525081019061257b9190613794565b6040518060400160405280601981526020017f6572726f722067657474696e67206e65772062616c616e6365000000000000008152506128f9565b90506125db8186604051806060016040528060228152602001613eec60229139612933565b8784815181106125ed576125ed61374f565b602090810291909101015293508190506126068161377b565b9150506123c7565b50929998505050505050505050565b600081604051602001612630919061391d565b6040516020818303038152906040528051906020012083604051602001612657919061391d565b6040516020818303038152906040528051906020012014905092915050565b60008060008080866001600160a01b0316636aa875b560e01b876040516020016126af91906001600160a01b0391909116815260200190565b60408051601f19818403018152908290526126cd92916020016138ec565b60408051601f19818403018152908290526126e79161391d565b6000604051808303816000865af19150503d8060008114612724576040519150601f19603f3d011682016040523d82523d6000602084013e612729565b606091505b5091509150811561274b57808060200190518101906127489190613794565b92505b604080516001600160a01b038881166020830152600092839283928c16916303d290cf60e61b910160408051601f198184030181529082905261279192916020016138ec565b60408051601f19818403018152908290526127ab9161391d565b6000604051808303816000865af19150503d80600081146127e8576040519150601f19603f3d011682016040523d82523d6000602084013e6127ed565b606091505b5091509150811561280f578080602001905181019061280c9190613794565b92505b84158061281a575081155b156128e857604080516001600160a01b038b811660208301526000928392918e1691631d7b33d760e01b910160408051601f198184030181529082905261286492916020016138ec565b60408051601f198184030181529082905261287e9161391d565b6000604051808303816000865af19150503d80600081146128bb576040519150601f19603f3d011682016040523d82523d6000602084013e6128c0565b606091505b509150915081156128e557808060200190518101906128df9190613794565b94508497505b50505b5093955093505050505b9250929050565b6000806129068486613d90565b905082858210156118055760405162461bcd60e51b815260040161292a9190613da8565b60405180910390fd5b600081848411156129575760405162461bcd60e51b815260040161292a9190613da8565b5060006129648486613dbb565b95945050505050565b60405163013cf08b60e01b8152600481018290526000906001600160a01b0384169063013cf08b9060240161014060405180830381865afa1580156129b6573d6000803e3d6000fd5b505050506040513d601f19601f820116820180604052508101906129da9190613dd2565b918452506020808201516001600160a01b03169084015260408082015190840152606081015160e08085019190915260808201516101008086019190915260a08301516101208087019190915260c0840151610140870152918301516101608601528201511515610180850152015115156101a09092019190915250565b600080600080600080600080896001600160a01b031663013cf08b8a6040518263ffffffff1660e01b8152600401612a9291815260200190565b61012060405180830381865afa158015612ab0573d6000803e3d6000fd5b505050506040513d601f19601f82011682018060405250810190612ad49190613e69565b9850985098509850985098509850985050888b6000018181525050878b602001906001600160a01b031690816001600160a01b031681525050868b6040018181525050858b60e0018181525050848b610100018181525050838b610120018181525050828b610140018181525050818b610160019015159081151581525050808b6101800190151590811515815250505050505050505050505050565b60405180610220016040528060006001600160a01b0316815260200160008152602001600081526020016000815260200160008152602001600081526020016000815260200160008152602001600081526020016000151581526020016000815260200160006001600160a01b0316815260200160008152602001600081526020016000815260200160008152602001600081525090565b60008083601f840112612c1b57600080fd5b5081356001600160401b03811115612c3257600080fd5b6020830191508360208260051b85010111156128f257600080fd5b6001600160a01b0381168114612c6257600080fd5b50565b600080600060408486031215612c7a57600080fd5b83356001600160401b03811115612c9057600080fd5b612c9c86828701612c09565b9094509250506020840135612cb081612c4d565b809150509250925092565b6001600160a01b0381511682526020810151602083015260408101516040830152606081015160608301526080810151608083015260a081015160a08301525050565b6020808252825182820181905260009190848201906040850190845b81811015612d4057612d2d838551612cbb565b9284019260c09290920191600101612d1a565b50909695505050505050565b600060208284031215612d5e57600080fd5b813561043381612c4d565b80516001600160a01b031682526020810151602083015260408101516040830152606081015160608301526080810151608083015260a081015160a083015260c081015160c083015260e081015160e083015261010080820151818401525061012080820151612ddc8285018215159052565b50506101408181015190830152610160808201516001600160a01b03169083015261018080820151908301526101a080820151908301526101c080820151908301526101e0808201519083015261020090810151910152565b610220810161100a8284612d69565b600080600060608486031215612e5957600080fd5b8335612e6481612c4d565b92506020840135612e7481612c4d565b91506040840135612cb081612c4d565b60008060208385031215612e9757600080fd5b82356001600160401b03811115612ead57600080fd5b612eb985828601612c09565b90969095509350505050565b602080825282518282018190526000919060409081850190868401855b82811015612f1857612f0884835180516001600160a01b03168252602090810151910152565b9284019290850190600101612ee2565b5091979650505050505050565b60008060408385031215612f3857600080fd5b8235612f4381612c4d565b91506020830135612f5381612c4d565b809150509250929050565b634e487b7160e01b600052604160045260246000fd5b604051606081016001600160401b0381118282101715612f9657612f96612f5e565b60405290565b60405161014081016001600160401b0381118282101715612f9657612f96612f5e565b604051601f8201601f191681016001600160401b0381118282101715612fe757612fe7612f5e565b604052919050565b60006001600160401b0382111561300857613008612f5e565b5060051b60200190565b600082601f83011261302357600080fd5b8135602061303861303383612fef565b612fbf565b82815260059290921b8401810191818101908684111561305757600080fd5b8286015b84811015613072578035835291830191830161305b565b509695505050505050565b60008060006060848603121561309257600080fd5b833561309d81612c4d565b925060208401356130ad81612c4d565b915060408401356001600160401b038111156130c857600080fd5b6130d486828701613012565b9150509250925092565b602080825282518282018190526000919060409081850190868401855b82811015612f1857815180518552868101511515878601528581015160ff16868601526060908101516001600160601b031690850152608090930192908501906001016130fb565b6020808252825182820181905260009190848201906040850190845b81811015612d4057613172838551612d69565b92840192610220929092019160010161315f565b6000806000806060858703121561319c57600080fd5b84356131a781612c4d565b935060208501356131b781612c4d565b925060408501356001600160401b038111156131d257600080fd5b6131de87828801612c09565b95989497509550505050565b602080825282518282018190526000919060409081850190868401855b82811015612f1857815180518552860151868501529284019290850190600101613207565b60008060006040848603121561324157600080fd5b833561324c81612c4d565b925060208401356001600160401b0381111561326757600080fd5b61327386828701612c09565b9497909650939450505050565b600081518084526020808501945080840160005b838110156132b95781516001600160a01b031687529582019590820190600101613294565b509495945050505050565b600081518084526020808501945080840160005b838110156132b9578151875295820195908201906001016132d8565b60005b8381101561330f5781810151838201526020016132f7565b8381111561331e576000848401525b50505050565b6000815180845261333c8160208601602086016132f4565b601f01601f19169290920160200192915050565b600081518084526020808501808196508360051b8101915082860160005b85811015612f18578284038952613386848351613324565b9885019893509084019060010161336e565b60006020808301818452808551808352604092508286019150828160051b87010184880160005b838110156134c457888303603f19018552815180518452878101516001600160a01b038116898601526101c090508782015188860152606080830151828288015261340c83880182613280565b925050506080808301518683038288015261342783826132c4565b9250505060a080830151868303828801526134428382613350565b9250505060c0808301518683038288015261345d8382613350565b60e085810151908901526101008086015190890152610120808601519089015261014080860151908901526101608086015190890152610180808601511515908901526101a0948501511515949097019390935250505093860193908601906001016133bf565b509098975050505050505050565b6020815260008251606060208401526134ee6080840182613280565b905060208401516040840152604084015160608401528091505092915050565b60006020808301818452808551808352604092508286019150828160051b87010184880160005b838110156134c457888303603f19018552815180518452878101516001600160a01b038116898601526101a090508782015188860152606080830151828288015261358283880182613280565b925050506080808301518683038288015261359d83826132c4565b9250505060a080830151868303828801526135b88382613350565b9250505060c080830151868303828801526135d38382613350565b60e085810151908901526101008086015190890152610120808601519089015261014080860151908901526101608086015115159089015261018094850151151594909701939093525050509386019390860190600101613535565b602080825282518282018190526000919060409081850190868401855b82811015612f185781518051855286810151151587860152858101511515868601526060908101516001600160601b0316908501526080909301929085019060010161364c565b60c0810161100a8284612cbb565b81516001600160a01b03168152602080830151908201526040810161100a565b6000806000806000608086880312156136d957600080fd5b85356136e481612c4d565b945060208601356136f481612c4d565b9350604086013561370481612c4d565b925060608601356001600160401b0381111561371f57600080fd5b61372b88828901612c09565b969995985093965092949392505050565b60208152600061043360208301846132c4565b634e487b7160e01b600052603260045260246000fd5b634e487b7160e01b600052601160045260246000fd5b60006001820161378d5761378d613765565b5060010190565b6000602082840312156137a657600080fd5b5051919050565b6000602082840312156137bf57600080fd5b815161043381612c4d565b805180151581146137da57600080fd5b919050565b600080604083850312156137f257600080fd5b6137fb836137ca565b9150602083015190509250929050565b60006001600160401b0383111561382457613824612f5e565b613837601f8401601f1916602001612fbf565b905082815283838301111561384b57600080fd5b6104338360208301846132f4565b600082601f83011261386a57600080fd5b6104338383516020850161380b565b60006020828403121561388b57600080fd5b81516001600160401b038111156138a157600080fd5b6138ad84828501613859565b949350505050565b80516137da81612c4d565b805160ff811681146137da57600080fd5b6000602082840312156138e357600080fd5b610433826138c0565b6001600160e01b031983168152815160009061390f8160048501602087016132f4565b919091016004019392505050565b6000825161392f8184602087016132f4565b9190910192915050565b80516001600160601b03811681146137da57600080fd5b60006020828403121561396257600080fd5b61043382613939565b60006060828403121561397d57600080fd5b613985612f74565b61398e836137ca565b815261399c602084016138c0565b60208201526139ad60408401613939565b60408201529392505050565b6000602082840312156139cb57600080fd5b813563ffffffff8116811461043357600080fd5b600082601f8301126139f057600080fd5b81516020613a0061303383612fef565b82815260059290921b84018101918181019086841115613a1f57600080fd5b8286015b848110156130725780518352918301918301613a23565b600082601f830112613a4b57600080fd5b81516020613a5b61303383612fef565b82815260059290921b84018101918181019086841115613a7a57600080fd5b8286015b848110156130725780516001600160401b03811115613a9d5760008081fd5b613aab8986838b0101613859565b845250918301918301613a7e565b600082601f830112613aca57600080fd5b81516020613ada61303383612fef565b82815260059290921b84018101918181019086841115613af957600080fd5b8286015b848110156130725780516001600160401b03811115613b1c5760008081fd5b8701603f81018913613b2e5760008081fd5b613b3f89868301516040840161380b565b845250918301918301613afd565b60008060008060808587031215613b6357600080fd5b84516001600160401b0380821115613b7a57600080fd5b818701915087601f830112613b8e57600080fd5b81516020613b9e61303383612fef565b82815260059290921b8401810191818101908b841115613bbd57600080fd5b948201945b83861015613be4578551613bd581612c4d565b82529482019490820190613bc2565b918a0151919850909350505080821115613bfd57600080fd5b613c09888389016139df565b94506040870151915080821115613c1f57600080fd5b613c2b88838901613a3a565b93506060870151915080821115613c4157600080fd5b50613c4e87828801613ab9565b91505092959194509250565b600080600060608486031215613c6f57600080fd5b8351925060208401519150604084015190509250925092565b60006020808385031215613c9b57600080fd5b82516001600160401b03811115613cb157600080fd5b8301601f81018513613cc257600080fd5b8051613cd061303382612fef565b81815260059190911b82018301908381019087831115613cef57600080fd5b928401925b82841015613d16578351613d0781612c4d565b82529284019290840190613cf4565b979650505050505050565b600060608284031215613d3357600080fd5b613d3b612f74565b613d44836137ca565b815261399c602084016137ca565b608081526000613d656080830187613280565b8281036020840152613d778187613280565b9415156040840152505090151560609091015292915050565b60008219821115613da357613da3613765565b500190565b6020815260006104336020830184613324565b600082821015613dcd57613dcd613765565b500390565b60006101408284031215613de557600080fd5b613ded612f9c565b82518152613dfd602084016138b5565b602082015260408301516040820152606083015160608201526080830151608082015260a083015160a082015260c083015160c082015260e083015160e0820152610100613e4c8185016137ca565b90820152610120613e5e8482016137ca565b908201529392505050565b60008060008060008060008060006101208a8c031215613e8857600080fd5b8951985060208a0151613e9a81612c4d565b8098505060408a0151965060608a0151955060808a0151945060a08a0151935060c08a01519250613ecd60e08b016137ca565b9150613edc6101008b016137ca565b9050929598509295985092959856fe6765742074686520646966666572656e6365206f6620636f6d702062616c616e6365696e697469616c2062616c616e636520776974682062617365206163637275616ca2646970667358221220920d8a0dc32894a8135ffcbdee0a798ea15ecfd3cb26f72e91ef2ad9fa8ddbd164736f6c634300080d0033",
  "devdoc": {
    "kind": "dev",
    "methods": {},
    "version": 1
  },
  "userdoc": {
    "kind": "user",
    "methods": {},
    "version": 1
  },
  "storageLayout": {
    "storage": [],
    "types": null
  }
}