{
  "address": "0x45a9972D93Ae4f60a1aAa3B18c139Dd709d03A91",
  "abi": [
    {
      "inputs": [
        {
          "internalType": "contract ERC20",
          "name": "addressBDAMM",
          "type": "address"
        },
        {
          "internalType": "contract ERC20",
          "name": "addressDAMM",
          "type": "address"
        },
        {
          "internalType": "contract ERC20",
          "name": "addressUSDC",
          "type": "address"
        },
        {
          "internalType": "address",
          "name": "addressOwner",
          "type": "address"
        },
        {
          "internalType": "address",
          "name": "addressTreasury",
          "type": "address"
        },
        {
          "internalType": "uint256",
          "name": "_redemptionUSDCPrice",
          "type": "uint256"
        }
      ],
      "stateMutability": "nonpayable",
      "type": "constructor"
    },
    {
      "anonymous": false,
      "inputs": [
        {
          "indexed": true,
          "internalType": "address",
          "name": "from",
          "type": "address"
        },
        {
          "indexed": false,
          "internalType": "uint256",
          "name": "amount",
          "type": "uint256"
        },
        {
          "indexed": false,
          "internalType": "uint256",
          "name": "redemptionFee",
          "type": "uint256"
        }
      ],
      "name": "BdammRedemption",
      "type": "event"
    },
    {
      "anonymous": false,
      "inputs": [
        {
          "indexed": true,
          "internalType": "address",
          "name": "previousOwner",
          "type": "address"
        },
        {
          "indexed": true,
          "internalType": "address",
          "name": "newOwner",
          "type": "address"
        }
      ],
      "name": "OwnershipTransferred",
      "type": "event"
    },
    {
      "anonymous": false,
      "inputs": [
        {
          "indexed": false,
          "internalType": "uint256",
          "name": "oldPrice",
          "type": "uint256"
        },
        {
          "indexed": false,
          "internalType": "uint256",
          "name": "newPrice",
          "type": "uint256"
        }
      ],
      "name": "RedemptionUSDCPriceUpdated",
      "type": "event"
    },
    {
      "inputs": [],
      "name": "owner",
      "outputs": [
        {
          "internalType": "address",
          "name": "",
          "type": "address"
        }
      ],
      "stateMutability": "view",
      "type": "function"
    },
    {
      "inputs": [
        {
          "internalType": "uint256",
          "name": "amount",
          "type": "uint256"
        },
        {
          "internalType": "uint256",
          "name": "redemptionFee",
          "type": "uint256"
        }
      ],
      "name": "redeem",
      "outputs": [],
      "stateMutability": "nonpayable",
      "type": "function"
    },
    {
      "inputs": [],
      "name": "redemptionUSDCPrice",
      "outputs": [
        {
          "internalType": "uint256",
          "name": "",
          "type": "uint256"
        }
      ],
      "stateMutability": "view",
      "type": "function"
    },
    {
      "inputs": [],
      "name": "renounceOwnership",
      "outputs": [],
      "stateMutability": "nonpayable",
      "type": "function"
    },
    {
      "inputs": [
        {
          "internalType": "contract ERC20",
          "name": "token",
          "type": "address"
        }
      ],
      "name": "sweepToken",
      "outputs": [],
      "stateMutability": "nonpayable",
      "type": "function"
    },
    {
      "inputs": [],
      "name": "totalRedemptions",
      "outputs": [
        {
          "internalType": "uint256",
          "name": "",
          "type": "uint256"
        }
      ],
      "stateMutability": "view",
      "type": "function"
    },
    {
      "inputs": [],
      "name": "totalUSDCFees",
      "outputs": [
        {
          "internalType": "uint256",
          "name": "",
          "type": "uint256"
        }
      ],
      "stateMutability": "view",
      "type": "function"
    },
    {
      "inputs": [
        {
          "internalType": "address",
          "name": "newOwner",
          "type": "address"
        }
      ],
      "name": "transferOwnership",
      "outputs": [],
      "stateMutability": "nonpayable",
      "type": "function"
    },
    {
      "inputs": [],
      "name": "treasury",
      "outputs": [
        {
          "internalType": "address",
          "name": "",
          "type": "address"
        }
      ],
      "stateMutability": "view",
      "type": "function"
    },
    {
      "inputs": [
        {
          "internalType": "uint256",
          "name": "_redemptionUSDCPrice",
          "type": "uint256"
        }
      ],
      "name": "updateRedemptionUSDCPrice",
      "outputs": [],
      "stateMutability": "nonpayable",
      "type": "function"
    },
    {
      "inputs": [],
      "name": "withdrawDAMM",
      "outputs": [],
      "stateMutability": "nonpayable",
      "type": "function"
    }
  ],
  "transactionHash": "0x25d3cf1d9b4dff6ed0c4e8ae88743d9d6f6ba375afff1d68ec931cdc641cb37d",
  "args": [
    "0xf9e126C5E047a0Af0aA8EBa426103c1656b6386f",
    "0x7770d4bd31387Cd5dCb5B45d7Bd2930e62a57A32",
    "0x8623C22c571F6fe9494Fe80277848a4901aDD8ba",
    "0xc8693923643D93877A8E5609EE119C6De6cb4F8A",
    "0xc8693923643D93877A8E5609EE119C6De6cb4F8A",
    "300000"
  ],
  "numDeployments": 2,
  "solcInputHash": "204bada24e4f10b0e00898134bfbecae",
  "bytecode": "0x60806040523480156200001157600080fd5b50604051620010ff380380620010ff833981016040819052620000349162000174565b6200003f33620000ca565b60018055600280546001600160a01b03199081166001600160a01b0389811691909117909255600380548216888416179055600480549091169186169190911790556200009883620000ca602090811b62000cd117901c565b600580546001600160a01b0319166001600160a01b038416179055620000be816200011a565b505050505050620001fc565b600080546001600160a01b038381166001600160a01b0319831681178455604051919092169283917f8be0079c531659141344cd1fd0a4f28419497f9722a3daafe3b4186f6b6457e09190a35050565b60065460408051918252602082018390527f9c672c9f53cab91e279ccc66bc5055930e38b33d1c84ae0cc8cf0e3a1cb20376910160405180910390a1600655565b6001600160a01b03811681146200017157600080fd5b50565b60008060008060008060c087890312156200018e57600080fd5b86516200019b816200015b565b6020880151909650620001ae816200015b565b6040880151909550620001c1816200015b565b6060880151909450620001d4816200015b565b6080880151909350620001e7816200015b565b8092505060a087015190509295509295509295565b610ef3806200020c6000396000f3fe608060405234801561001057600080fd5b50600436106100a95760003560e01c8063715018a611610071578063715018a6146101255780637cbc23731461012d57806381064b251461014057806387169bd8146101495780638da5cb5b14610152578063f2fde38b1461016357600080fd5b8063080affa4146100ae5780631be19560146100b857806355c6df69146100cb57806359e6771d146100e757806361d027b3146100fa575b600080fd5b6100b6610176565b005b6100b66100c6366004610d84565b61035e565b6100d460065481565b6040519081526020015b60405180910390f35b6100b66100f5366004610da8565b610527565b60055461010d906001600160a01b031681565b6040516001600160a01b0390911681526020016100de565b6100b661055a565b6100b661013b366004610dc1565b6105cc565b6100d460075481565b6100d460085481565b6000546001600160a01b031661010d565b6100b6610171366004610d84565b610c5f565b6000546001600160a01b031633146101a95760405162461bcd60e51b81526004016101a090610de3565b60405180910390fd5b6003546040516370a0823160e01b81523060048201526000916001600160a01b0316906370a0823190602401602060405180830381865afa1580156101f2573d6000803e3d6000fd5b505050506040513d601f19601f820116820180604052508101906102169190610e18565b9050600360009054906101000a90046001600160a01b03166001600160a01b031663a9059cbb306001600160a01b0316638da5cb5b6040518163ffffffff1660e01b8152600401602060405180830381865afa15801561027a573d6000803e3d6000fd5b505050506040513d601f19601f8201168201806040525081019061029e9190610e31565b6040516001600160e01b031960e084901b1681526001600160a01b039091166004820152602481018490526044016020604051808303816000875af11580156102eb573d6000803e3d6000fd5b505050506040513d601f19601f8201168201806040525081019061030f9190610e4e565b61035b5760405162461bcd60e51b815260206004820152601d60248201527f41646d696e20636f756c64206e6f742077697468647261772044414d4d00000060448201526064016101a0565b50565b6000546001600160a01b031633146103885760405162461bcd60e51b81526004016101a090610de3565b6040516370a0823160e01b81523060048201526000906001600160a01b038316906370a0823190602401602060405180830381865afa1580156103cf573d6000803e3d6000fd5b505050506040513d601f19601f820116820180604052508101906103f39190610e18565b9050816001600160a01b031663a9059cbb306001600160a01b0316638da5cb5b6040518163ffffffff1660e01b8152600401602060405180830381865afa158015610442573d6000803e3d6000fd5b505050506040513d601f19601f820116820180604052508101906104669190610e31565b6040516001600160e01b031960e084901b1681526001600160a01b039091166004820152602481018490526044016020604051808303816000875af11580156104b3573d6000803e3d6000fd5b505050506040513d601f19601f820116820180604052508101906104d79190610e4e565b6105235760405162461bcd60e51b815260206004820152601e60248201527f41646d696e20636f756c64206e6f7420776974686472617720746f6b656e000060448201526064016101a0565b5050565b6000546001600160a01b031633146105515760405162461bcd60e51b81526004016101a090610de3565b61035b81610d2e565b6000546001600160a01b031633146105845760405162461bcd60e51b81526004016101a090610de3565b60405162461bcd60e51b815260206004820152601f60248201527f4f776e65722063616e6e6f742072656e6f756e6365206f776e6572736869700060448201526064016101a0565b60026001540361061e5760405162461bcd60e51b815260206004820152601f60248201527f5265656e7472616e637947756172643a207265656e7472616e742063616c6c0060448201526064016101a0565b6002600181905554604051636eb1769f60e11b81523360048201819052306024830152916000916001600160a01b039091169063dd62ed3e90604401602060405180830381865afa158015610677573d6000803e3d6000fd5b505050506040513d601f19601f8201168201806040525081019061069b9190610e18565b9050808411156107135760405162461bcd60e51b815260206004820152603960248201527f5573657220686173206e6f7420676976656e207377617020636f6e747261637460448201527f207370656e6420617070726f76616c20666f72204244414d4d0000000000000060648201526084016101a0565b6000600654856107239190610e86565b90508061073885670de0b6b3a7640000610e86565b146107905760405162461bcd60e51b815260206004820152602260248201527f496e636f7272656374205553444320726564656d7074696f6e206665652073656044820152611b9d60f21b60648201526084016101a0565b60048054604051636eb1769f60e11b81526001600160a01b03868116938201939093523060248201526000929091169063dd62ed3e90604401602060405180830381865afa1580156107e6573d6000803e3d6000fd5b505050506040513d601f19601f8201168201806040525081019061080a9190610e18565b9050808511156108825760405162461bcd60e51b815260206004820152603860248201527f5573657220686173206e6f7420676976656e207377617020636f6e747261637460448201527f207370656e6420617070726f76616c20666f722055534443000000000000000060648201526084016101a0565b6003546040516370a0823160e01b81523060048201526000916001600160a01b0316906370a0823190602401602060405180830381865afa1580156108cb573d6000803e3d6000fd5b505050506040513d601f19601f820116820180604052508101906108ef9190610e18565b9050808711156109415760405162461bcd60e51b815260206004820152601960248201527f4e6f7420656e6f7567682044414d4d206c69717569646974790000000000000060448201526064016101a0565b85600860008282546109539190610ea5565b92505081905550866007600082825461096c9190610ea5565b909155505060408051888152602081018890526001600160a01b038716917ff881854744b013d3410b97d9445b11ee090315c4a2eda6183feef5130d77aa48910160405180910390a26002546005546040516323b872dd60e01b81526001600160a01b0388811660048301529182166024820152604481018a90529116906323b872dd906064016020604051808303816000875af1158015610a12573d6000803e3d6000fd5b505050506040513d601f19601f82011682018060405250810190610a369190610e4e565b610a965760405162461bcd60e51b815260206004820152602b60248201527f436f756c64206e6f74207472616e7366657220757365722773204244414d4d2060448201526a746f20747265617375727960a81b60648201526084016101a0565b600480546005546040516323b872dd60e01b81526001600160a01b03898116948201949094529083166024820152604481018990529116906323b872dd906064016020604051808303816000875af1158015610af6573d6000803e3d6000fd5b505050506040513d601f19601f82011682018060405250810190610b1a9190610e4e565b610b795760405162461bcd60e51b815260206004820152602a60248201527f436f756c64206e6f74207472616e7366657220757365722773205553444320746044820152696f20747265617375727960b01b60648201526084016101a0565b60035460405163a9059cbb60e01b81526001600160a01b038781166004830152602482018a90529091169063a9059cbb906044016020604051808303816000875af1158015610bcc573d6000803e3d6000fd5b505050506040513d601f19601f82011682018060405250810190610bf09190610e4e565b610c525760405162461bcd60e51b815260206004820152602d60248201527f5377617020636f6e747261637420636f756c64206e6f74207472616e7366657260448201526c102220a6a6903a37903ab9b2b960991b60648201526084016101a0565b5050600180555050505050565b6000546001600160a01b03163314610c895760405162461bcd60e51b81526004016101a090610de3565b60405162461bcd60e51b815260206004820152601f60248201527f4f776e65722063616e6e6f74207472616e73666572206f776e6572736869700060448201526064016101a0565b600080546001600160a01b0383811673ffffffffffffffffffffffffffffffffffffffff19831681178455604051919092169283917f8be0079c531659141344cd1fd0a4f28419497f9722a3daafe3b4186f6b6457e09190a35050565b60065460408051918252602082018390527f9c672c9f53cab91e279ccc66bc5055930e38b33d1c84ae0cc8cf0e3a1cb20376910160405180910390a1600655565b6001600160a01b038116811461035b57600080fd5b600060208284031215610d9657600080fd5b8135610da181610d6f565b9392505050565b600060208284031215610dba57600080fd5b5035919050565b60008060408385031215610dd457600080fd5b50508035926020909101359150565b6020808252818101527f4f776e61626c653a2063616c6c6572206973206e6f7420746865206f776e6572604082015260600190565b600060208284031215610e2a57600080fd5b5051919050565b600060208284031215610e4357600080fd5b8151610da181610d6f565b600060208284031215610e6057600080fd5b81518015158114610da157600080fd5b634e487b7160e01b600052601160045260246000fd5b6000816000190483118215151615610ea057610ea0610e70565b500290565b60008219821115610eb857610eb8610e70565b50019056fea2646970667358221220bf49514cf6d8cfd71604eb22623bddcede566803d6ae541a6e5e046193b4faac64736f6c634300080d0033",
  "devdoc": {
    "kind": "dev",
    "methods": {
      "owner()": {
        "details": "Returns the address of the current owner."
      },
      "renounceOwnership()": {
        "details": "Leaves the contract without owner. It will not be possible to call `onlyOwner` functions anymore. Can only be called by the current owner. NOTE: Renouncing ownership will leave the contract without an owner, thereby removing any functionality that is only available to the owner."
      },
      "transferOwnership(address)": {
        "details": "Transfers ownership of the contract to a new account (`newOwner`). Can only be called by the current owner."
      }
    },
    "version": 1
  },
  "userdoc": {
    "kind": "user",
    "methods": {},
    "version": 1
  },
  "storageLayout": {
    "storage": [
      {
        "astId": 20082,
        "contract": "contracts/DAMM/Redemption.sol:Redemption",
        "label": "_owner",
        "offset": 0,
        "slot": "0",
        "type": "t_address"
      },
      {
        "astId": 20298,
        "contract": "contracts/DAMM/Redemption.sol:Redemption",
        "label": "_status",
        "offset": 0,
        "slot": "1",
        "type": "t_uint256"
      },
      {
        "astId": 10252,
        "contract": "contracts/DAMM/Redemption.sol:Redemption",
        "label": "BDAMM",
        "offset": 0,
        "slot": "2",
        "type": "t_contract(ERC20)19173"
      },
      {
        "astId": 10255,
        "contract": "contracts/DAMM/Redemption.sol:Redemption",
        "label": "DAMM",
        "offset": 0,
        "slot": "3",
        "type": "t_contract(ERC20)19173"
      },
      {
        "astId": 10258,
        "contract": "contracts/DAMM/Redemption.sol:Redemption",
        "label": "USDC",
        "offset": 0,
        "slot": "4",
        "type": "t_contract(ERC20)19173"
      },
      {
        "astId": 10260,
        "contract": "contracts/DAMM/Redemption.sol:Redemption",
        "label": "treasury",
        "offset": 0,
        "slot": "5",
        "type": "t_address"
      },
      {
        "astId": 10262,
        "contract": "contracts/DAMM/Redemption.sol:Redemption",
        "label": "redemptionUSDCPrice",
        "offset": 0,
        "slot": "6",
        "type": "t_uint256"
      },
      {
        "astId": 10264,
        "contract": "contracts/DAMM/Redemption.sol:Redemption",
        "label": "totalRedemptions",
        "offset": 0,
        "slot": "7",
        "type": "t_uint256"
      },
      {
        "astId": 10266,
        "contract": "contracts/DAMM/Redemption.sol:Redemption",
        "label": "totalUSDCFees",
        "offset": 0,
        "slot": "8",
        "type": "t_uint256"
      }
    ],
    "types": {
      "t_address": {
        "encoding": "inplace",
        "label": "address",
        "numberOfBytes": "20"
      },
      "t_contract(ERC20)19173": {
        "encoding": "inplace",
        "label": "contract ERC20",
        "numberOfBytes": "20"
      },
      "t_uint256": {
        "encoding": "inplace",
        "label": "uint256",
        "numberOfBytes": "32"
      }
    }
  }
}