{
  "address": "0xDb5AB5398fF4A3E680b570E5d1FFafbbE29331A2",
  "abi": [
    {
      "inputs": [
        {
          "internalType": "contract ERC20",
          "name": "fromToken",
          "type": "address"
        },
        {
          "internalType": "contract ERC20",
          "name": "toToken",
          "type": "address"
        }
      ],
      "stateMutability": "nonpayable",
      "type": "constructor"
    },
    {
      "anonymous": false,
      "inputs": [
        {
          "indexed": true,
          "internalType": "address",
          "name": "previousOwner",
          "type": "address"
        },
        {
          "indexed": true,
          "internalType": "address",
          "name": "newOwner",
          "type": "address"
        }
      ],
      "name": "OwnershipTransferred",
      "type": "event"
    },
    {
      "inputs": [],
      "name": "owner",
      "outputs": [
        {
          "internalType": "address",
          "name": "",
          "type": "address"
        }
      ],
      "stateMutability": "view",
      "type": "function"
    },
    {
      "inputs": [],
      "name": "renounceOwnership",
      "outputs": [],
      "stateMutability": "nonpayable",
      "type": "function"
    },
    {
      "inputs": [
        {
          "internalType": "uint256",
          "name": "amount",
          "type": "uint256"
        }
      ],
      "name": "swap",
      "outputs": [],
      "stateMutability": "nonpayable",
      "type": "function"
    },
    {
      "inputs": [
        {
          "internalType": "address",
          "name": "newOwner",
          "type": "address"
        }
      ],
      "name": "transferOwnership",
      "outputs": [],
      "stateMutability": "nonpayable",
      "type": "function"
    },
    {
      "inputs": [],
      "name": "withdrawFrom",
      "outputs": [],
      "stateMutability": "nonpayable",
      "type": "function"
    },
    {
      "inputs": [],
      "name": "withdrawTo",
      "outputs": [],
      "stateMutability": "nonpayable",
      "type": "function"
    }
  ],
  "transactionHash": "0xb8e8209217169e5dbc4043c941ba0a218a75166e03e042606b4da3313cc8d8e9",
  "args": [
    "0xf9e126C5E047a0Af0aA8EBa426103c1656b6386f",
    "0x7770d4bd31387Cd5dCb5B45d7Bd2930e62a57A32"
  ],
  "numDeployments": 1,
  "solcInputHash": "12960a0c9db3945c00affcb33d1127fe",
  "bytecode": "0x608060405234801561001057600080fd5b50604051610a6e380380610a6e83398101604081905261002f916100d9565b6100383361006d565b60018055600280546001600160a01b039384166001600160a01b0319918216179091556003805492909316911617905561010c565b600080546001600160a01b038381166001600160a01b0319831681178455604051919092169283917f8be0079c531659141344cd1fd0a4f28419497f9722a3daafe3b4186f6b6457e09190a35050565b80516001600160a01b03811681146100d457600080fd5b919050565b600080604083850312156100ec57600080fd5b6100f5836100bd565b9150610103602084016100bd565b90509250929050565b6109538061011b6000396000f3fe608060405234801561001057600080fd5b50600436106100625760003560e01c8063715018a6146100675780638bcd3e93146100715780638da5cb5b1461007957806394b918de14610098578063b914d2e2146100ab578063f2fde38b146100b3575b600080fd5b61006f6100c6565b005b61006f61016d565b600054604080516001600160a01b039092168252519081900360200190f35b61006f6100a6366004610873565b610331565b61006f610620565b61006f6100c13660046108a1565b61074b565b6000546001600160a01b031633146101255760405162461bcd60e51b815260206004820181905260248201527f4f776e61626c653a2063616c6c6572206973206e6f7420746865206f776e657260448201526064015b60405180910390fd5b60405162461bcd60e51b815260206004820152601f60248201527f4f776e65722063616e6e6f742072656e6f756e6365206f776e65727368697000604482015260640161011c565b6000546001600160a01b031633146101c75760405162461bcd60e51b815260206004820181905260248201527f4f776e61626c653a2063616c6c6572206973206e6f7420746865206f776e6572604482015260640161011c565b6003546040516370a0823160e01b81523060048201526000916001600160a01b0316906370a0823190602401602060405180830381865afa158015610210573d6000803e3d6000fd5b505050506040513d601f19601f8201168201806040525081019061023491906108c5565b9050600360009054906101000a90046001600160a01b03166001600160a01b031663a9059cbb306001600160a01b0316638da5cb5b6040518163ffffffff1660e01b8152600401602060405180830381865afa158015610298573d6000803e3d6000fd5b505050506040513d601f19601f820116820180604052508101906102bc91906108de565b6040516001600160e01b031960e084901b1681526001600160a01b039091166004820152602481018490526044016020604051808303816000875af1158015610309573d6000803e3d6000fd5b505050506040513d601f19601f8201168201806040525081019061032d91906108fb565b5050565b6002600154036103835760405162461bcd60e51b815260206004820152601f60248201527f5265656e7472616e637947756172643a207265656e7472616e742063616c6c00604482015260640161011c565b6002600181905554604051636eb1769f60e11b81523360048201819052306024830152916000916001600160a01b039091169063dd62ed3e90604401602060405180830381865afa1580156103dc573d6000803e3d6000fd5b505050506040513d601f19601f8201168201806040525081019061040091906108c5565b90508083111561046a5760405162461bcd60e51b815260206004820152602f60248201527f5573657220686173206e6f7420676976656e207377617020636f6e747261637460448201526e081cdc195b9908185c1c1c9bdd985b608a1b606482015260840161011c565b6003546040516370a0823160e01b81523060048201526000916001600160a01b0316906370a0823190602401602060405180830381865afa1580156104b3573d6000803e3d6000fd5b505050506040513d601f19601f820116820180604052508101906104d791906108c5565b9050808411156105205760405162461bcd60e51b81526020600482015260146024820152734e6f7420656e6f756768206c697175696469747960601b604482015260640161011c565b6002546040516323b872dd60e01b81526001600160a01b03858116600483015230602483015260448201879052909116906323b872dd906064016020604051808303816000875af1158015610579573d6000803e3d6000fd5b505050506040513d601f19601f8201168201806040525081019061059d91906108fb565b5060035460405163a9059cbb60e01b81526001600160a01b038581166004830152602482018790529091169063a9059cbb906044016020604051808303816000875af11580156105f1573d6000803e3d6000fd5b505050506040513d601f19601f8201168201806040525081019061061591906108fb565b505060018055505050565b6000546001600160a01b0316331461067a5760405162461bcd60e51b815260206004820181905260248201527f4f776e61626c653a2063616c6c6572206973206e6f7420746865206f776e6572604482015260640161011c565b6002546040516370a0823160e01b81523060048201526000916001600160a01b0316906370a0823190602401602060405180830381865afa1580156106c3573d6000803e3d6000fd5b505050506040513d601f19601f820116820180604052508101906106e791906108c5565b9050600260009054906101000a90046001600160a01b03166001600160a01b031663a9059cbb306001600160a01b0316638da5cb5b6040518163ffffffff1660e01b8152600401602060405180830381865afa158015610298573d6000803e3d6000fd5b6000546001600160a01b031633146107a55760405162461bcd60e51b815260206004820181905260248201527f4f776e61626c653a2063616c6c6572206973206e6f7420746865206f776e6572604482015260640161011c565b6001600160a01b03811661080a5760405162461bcd60e51b815260206004820152602660248201527f4f776e61626c653a206e6577206f776e657220697320746865207a65726f206160448201526564647265737360d01b606482015260840161011c565b61081381610816565b50565b600080546001600160a01b0383811673ffffffffffffffffffffffffffffffffffffffff19831681178455604051919092169283917f8be0079c531659141344cd1fd0a4f28419497f9722a3daafe3b4186f6b6457e09190a35050565b60006020828403121561088557600080fd5b5035919050565b6001600160a01b038116811461081357600080fd5b6000602082840312156108b357600080fd5b81356108be8161088c565b9392505050565b6000602082840312156108d757600080fd5b5051919050565b6000602082840312156108f057600080fd5b81516108be8161088c565b60006020828403121561090d57600080fd5b815180151581146108be57600080fdfea2646970667358221220ed807eb9b1590b62be4c9863528038c69c5e2c4ae6452e201ebb63fc6edfec2164736f6c634300080d0033",
  "devdoc": {
    "kind": "dev",
    "methods": {
      "owner()": {
        "details": "Returns the address of the current owner."
      },
      "renounceOwnership()": {
        "details": "Leaves the contract without owner. It will not be possible to call `onlyOwner` functions anymore. Can only be called by the current owner. NOTE: Renouncing ownership will leave the contract without an owner, thereby removing any functionality that is only available to the owner."
      },
      "transferOwnership(address)": {
        "details": "Transfers ownership of the contract to a new account (`newOwner`). Can only be called by the current owner."
      }
    },
    "version": 1
  },
  "userdoc": {
    "kind": "user",
    "methods": {},
    "version": 1
  },
  "storageLayout": {
    "storage": [
      {
        "astId": 19752,
        "contract": "contracts/DAMM/Swap.sol:Swap",
        "label": "_owner",
        "offset": 0,
        "slot": "0",
        "type": "t_address"
      },
      {
        "astId": 19968,
        "contract": "contracts/DAMM/Swap.sol:Swap",
        "label": "_status",
        "offset": 0,
        "slot": "1",
        "type": "t_uint256"
      },
      {
        "astId": 10238,
        "contract": "contracts/DAMM/Swap.sol:Swap",
        "label": "_fromToken",
        "offset": 0,
        "slot": "2",
        "type": "t_contract(ERC20)18843"
      },
      {
        "astId": 10241,
        "contract": "contracts/DAMM/Swap.sol:Swap",
        "label": "_toToken",
        "offset": 0,
        "slot": "3",
        "type": "t_contract(ERC20)18843"
      }
    ],
    "types": {
      "t_address": {
        "encoding": "inplace",
        "label": "address",
        "numberOfBytes": "20"
      },
      "t_contract(ERC20)18843": {
        "encoding": "inplace",
        "label": "contract ERC20",
        "numberOfBytes": "20"
      },
      "t_uint256": {
        "encoding": "inplace",
        "label": "uint256",
        "numberOfBytes": "32"
      }
    }
  }
}