{
  "_format": "hh-sol-artifact-1",
  "contractName": "GovernorBravoDelegate",
  "sourceName": "contracts/Governance/GovernorBravoDelegate.sol",
  "abi": [
    {
      "anonymous": false,
      "inputs": [
        {
          "indexed": false,
          "internalType": "address",
          "name": "oldAdmin",
          "type": "address"
        },
        {
          "indexed": false,
          "internalType": "address",
          "name": "newAdmin",
          "type": "address"
        }
      ],
      "name": "NewAdmin",
      "type": "event"
    },
    {
      "anonymous": false,
      "inputs": [
        {
          "indexed": false,
          "internalType": "address",
          "name": "oldImplementation",
          "type": "address"
        },
        {
          "indexed": false,
          "internalType": "address",
          "name": "newImplementation",
          "type": "address"
        }
      ],
      "name": "NewImplementation",
      "type": "event"
    },
    {
      "anonymous": false,
      "inputs": [
        {
          "indexed": false,
          "internalType": "address",
          "name": "oldPendingAdmin",
          "type": "address"
        },
        {
          "indexed": false,
          "internalType": "address",
          "name": "newPendingAdmin",
          "type": "address"
        }
      ],
      "name": "NewPendingAdmin",
      "type": "event"
    },
    {
      "anonymous": false,
      "inputs": [
        {
          "indexed": false,
          "internalType": "uint256",
          "name": "id",
          "type": "uint256"
        }
      ],
      "name": "ProposalCanceled",
      "type": "event"
    },
    {
      "anonymous": false,
      "inputs": [
        {
          "indexed": false,
          "internalType": "uint256",
          "name": "id",
          "type": "uint256"
        },
        {
          "indexed": false,
          "internalType": "address",
          "name": "proposer",
          "type": "address"
        },
        {
          "indexed": false,
          "internalType": "address[]",
          "name": "targets",
          "type": "address[]"
        },
        {
          "indexed": false,
          "internalType": "uint256[]",
          "name": "values",
          "type": "uint256[]"
        },
        {
          "indexed": false,
          "internalType": "string[]",
          "name": "signatures",
          "type": "string[]"
        },
        {
          "indexed": false,
          "internalType": "bytes[]",
          "name": "calldatas",
          "type": "bytes[]"
        },
        {
          "indexed": false,
          "internalType": "uint256",
          "name": "startBlock",
          "type": "uint256"
        },
        {
          "indexed": false,
          "internalType": "uint256",
          "name": "endBlock",
          "type": "uint256"
        },
        {
          "indexed": false,
          "internalType": "string",
          "name": "description",
          "type": "string"
        }
      ],
      "name": "ProposalCreated",
      "type": "event"
    },
    {
      "anonymous": false,
      "inputs": [
        {
          "indexed": false,
          "internalType": "uint256",
          "name": "id",
          "type": "uint256"
        }
      ],
      "name": "ProposalExecuted",
      "type": "event"
    },
    {
      "anonymous": false,
      "inputs": [
        {
          "indexed": false,
          "internalType": "uint256",
          "name": "id",
          "type": "uint256"
        },
        {
          "indexed": false,
          "internalType": "uint256",
          "name": "eta",
          "type": "uint256"
        }
      ],
      "name": "ProposalQueued",
      "type": "event"
    },
    {
      "anonymous": false,
      "inputs": [
        {
          "indexed": false,
          "internalType": "uint256",
          "name": "oldProposalThreshold",
          "type": "uint256"
        },
        {
          "indexed": false,
          "internalType": "uint256",
          "name": "newProposalThreshold",
          "type": "uint256"
        }
      ],
      "name": "ProposalThresholdSet",
      "type": "event"
    },
    {
      "anonymous": false,
      "inputs": [
        {
          "indexed": true,
          "internalType": "address",
          "name": "voter",
          "type": "address"
        },
        {
          "indexed": false,
          "internalType": "uint256",
          "name": "proposalId",
          "type": "uint256"
        },
        {
          "indexed": false,
          "internalType": "uint8",
          "name": "support",
          "type": "uint8"
        },
        {
          "indexed": false,
          "internalType": "uint256",
          "name": "votes",
          "type": "uint256"
        },
        {
          "indexed": false,
          "internalType": "string",
          "name": "reason",
          "type": "string"
        }
      ],
      "name": "VoteCast",
      "type": "event"
    },
    {
      "anonymous": false,
      "inputs": [
        {
          "indexed": false,
          "internalType": "uint256",
          "name": "oldVotingDelay",
          "type": "uint256"
        },
        {
          "indexed": false,
          "internalType": "uint256",
          "name": "newVotingDelay",
          "type": "uint256"
        }
      ],
      "name": "VotingDelaySet",
      "type": "event"
    },
    {
      "anonymous": false,
      "inputs": [
        {
          "indexed": false,
          "internalType": "uint256",
          "name": "oldVotingPeriod",
          "type": "uint256"
        },
        {
          "indexed": false,
          "internalType": "uint256",
          "name": "newVotingPeriod",
          "type": "uint256"
        }
      ],
      "name": "VotingPeriodSet",
      "type": "event"
    },
    {
      "anonymous": false,
      "inputs": [
        {
          "indexed": false,
          "internalType": "address",
          "name": "account",
          "type": "address"
        },
        {
          "indexed": false,
          "internalType": "uint256",
          "name": "expiration",
          "type": "uint256"
        }
      ],
      "name": "WhitelistAccountExpirationSet",
      "type": "event"
    },
    {
      "anonymous": false,
      "inputs": [
        {
          "indexed": false,
          "internalType": "address",
          "name": "oldGuardian",
          "type": "address"
        },
        {
          "indexed": false,
          "internalType": "address",
          "name": "newGuardian",
          "type": "address"
        }
      ],
      "name": "WhitelistGuardianSet",
      "type": "event"
    },
    {
      "inputs": [],
      "name": "BALLOT_TYPEHASH",
      "outputs": [
        {
          "internalType": "bytes32",
          "name": "",
          "type": "bytes32"
        }
      ],
      "stateMutability": "view",
      "type": "function"
    },
    {
      "inputs": [],
      "name": "DOMAIN_TYPEHASH",
      "outputs": [
        {
          "internalType": "bytes32",
          "name": "",
          "type": "bytes32"
        }
      ],
      "stateMutability": "view",
      "type": "function"
    },
    {
      "inputs": [],
      "name": "MAX_PROPOSAL_THRESHOLD",
      "outputs": [
        {
          "internalType": "uint256",
          "name": "",
          "type": "uint256"
        }
      ],
      "stateMutability": "view",
      "type": "function"
    },
    {
      "inputs": [],
      "name": "MAX_VOTING_DELAY",
      "outputs": [
        {
          "internalType": "uint256",
          "name": "",
          "type": "uint256"
        }
      ],
      "stateMutability": "view",
      "type": "function"
    },
    {
      "inputs": [],
      "name": "MAX_VOTING_PERIOD",
      "outputs": [
        {
          "internalType": "uint256",
          "name": "",
          "type": "uint256"
        }
      ],
      "stateMutability": "view",
      "type": "function"
    },
    {
      "inputs": [],
      "name": "MIN_PROPOSAL_THRESHOLD",
      "outputs": [
        {
          "internalType": "uint256",
          "name": "",
          "type": "uint256"
        }
      ],
      "stateMutability": "view",
      "type": "function"
    },
    {
      "inputs": [],
      "name": "MIN_VOTING_DELAY",
      "outputs": [
        {
          "internalType": "uint256",
          "name": "",
          "type": "uint256"
        }
      ],
      "stateMutability": "view",
      "type": "function"
    },
    {
      "inputs": [],
      "name": "MIN_VOTING_PERIOD",
      "outputs": [
        {
          "internalType": "uint256",
          "name": "",
          "type": "uint256"
        }
      ],
      "stateMutability": "view",
      "type": "function"
    },
    {
      "inputs": [],
      "name": "_acceptAdmin",
      "outputs": [],
      "stateMutability": "nonpayable",
      "type": "function"
    },
    {
      "inputs": [
        {
          "internalType": "address",
          "name": "governorAlpha",
          "type": "address"
        }
      ],
      "name": "_initiate",
      "outputs": [],
      "stateMutability": "nonpayable",
      "type": "function"
    },
    {
      "inputs": [
        {
          "internalType": "address",
          "name": "newPendingAdmin",
          "type": "address"
        }
      ],
      "name": "_setPendingAdmin",
      "outputs": [],
      "stateMutability": "nonpayable",
      "type": "function"
    },
    {
      "inputs": [
        {
          "internalType": "uint256",
          "name": "newProposalThreshold",
          "type": "uint256"
        }
      ],
      "name": "_setProposalThreshold",
      "outputs": [],
      "stateMutability": "nonpayable",
      "type": "function"
    },
    {
      "inputs": [
        {
          "internalType": "uint256",
          "name": "newVotingDelay",
          "type": "uint256"
        }
      ],
      "name": "_setVotingDelay",
      "outputs": [],
      "stateMutability": "nonpayable",
      "type": "function"
    },
    {
      "inputs": [
        {
          "internalType": "uint256",
          "name": "newVotingPeriod",
          "type": "uint256"
        }
      ],
      "name": "_setVotingPeriod",
      "outputs": [],
      "stateMutability": "nonpayable",
      "type": "function"
    },
    {
      "inputs": [
        {
          "internalType": "address",
          "name": "account",
          "type": "address"
        },
        {
          "internalType": "uint256",
          "name": "expiration",
          "type": "uint256"
        }
      ],
      "name": "_setWhitelistAccountExpiration",
      "outputs": [],
      "stateMutability": "nonpayable",
      "type": "function"
    },
    {
      "inputs": [
        {
          "internalType": "address",
          "name": "account",
          "type": "address"
        }
      ],
      "name": "_setWhitelistGuardian",
      "outputs": [],
      "stateMutability": "nonpayable",
      "type": "function"
    },
    {
      "inputs": [],
      "name": "admin",
      "outputs": [
        {
          "internalType": "address",
          "name": "",
          "type": "address"
        }
      ],
      "stateMutability": "view",
      "type": "function"
    },
    {
      "inputs": [
        {
          "internalType": "uint256",
          "name": "proposalId",
          "type": "uint256"
        }
      ],
      "name": "cancel",
      "outputs": [],
      "stateMutability": "nonpayable",
      "type": "function"
    },
    {
      "inputs": [
        {
          "internalType": "uint256",
          "name": "proposalId",
          "type": "uint256"
        },
        {
          "internalType": "uint8",
          "name": "support",
          "type": "uint8"
        }
      ],
      "name": "castVote",
      "outputs": [],
      "stateMutability": "nonpayable",
      "type": "function"
    },
    {
      "inputs": [
        {
          "internalType": "uint256",
          "name": "proposalId",
          "type": "uint256"
        },
        {
          "internalType": "uint8",
          "name": "support",
          "type": "uint8"
        },
        {
          "internalType": "uint8",
          "name": "v",
          "type": "uint8"
        },
        {
          "internalType": "bytes32",
          "name": "r",
          "type": "bytes32"
        },
        {
          "internalType": "bytes32",
          "name": "s",
          "type": "bytes32"
        }
      ],
      "name": "castVoteBySig",
      "outputs": [],
      "stateMutability": "nonpayable",
      "type": "function"
    },
    {
      "inputs": [
        {
          "internalType": "uint256",
          "name": "proposalId",
          "type": "uint256"
        },
        {
          "internalType": "uint8",
          "name": "support",
          "type": "uint8"
        },
        {
          "internalType": "string",
          "name": "reason",
          "type": "string"
        }
      ],
      "name": "castVoteWithReason",
      "outputs": [],
      "stateMutability": "nonpayable",
      "type": "function"
    },
    {
      "inputs": [],
      "name": "comp",
      "outputs": [
        {
          "internalType": "contract CompInterface",
          "name": "",
          "type": "address"
        }
      ],
      "stateMutability": "view",
      "type": "function"
    },
    {
      "inputs": [
        {
          "internalType": "uint256",
          "name": "proposalId",
          "type": "uint256"
        }
      ],
      "name": "execute",
      "outputs": [],
      "stateMutability": "payable",
      "type": "function"
    },
    {
      "inputs": [
        {
          "internalType": "uint256",
          "name": "proposalId",
          "type": "uint256"
        }
      ],
      "name": "getActions",
      "outputs": [
        {
          "internalType": "address[]",
          "name": "targets",
          "type": "address[]"
        },
        {
          "internalType": "uint256[]",
          "name": "values",
          "type": "uint256[]"
        },
        {
          "internalType": "string[]",
          "name": "signatures",
          "type": "string[]"
        },
        {
          "internalType": "bytes[]",
          "name": "calldatas",
          "type": "bytes[]"
        }
      ],
      "stateMutability": "view",
      "type": "function"
    },
    {
      "inputs": [
        {
          "internalType": "uint256",
          "name": "proposalId",
          "type": "uint256"
        },
        {
          "internalType": "address",
          "name": "voter",
          "type": "address"
        }
      ],
      "name": "getReceipt",
      "outputs": [
        {
          "components": [
            {
              "internalType": "bool",
              "name": "hasVoted",
              "type": "bool"
            },
            {
              "internalType": "uint8",
              "name": "support",
              "type": "uint8"
            },
            {
              "internalType": "uint96",
              "name": "votes",
              "type": "uint96"
            }
          ],
          "internalType": "struct GovernorBravoDelegateStorageV1.Receipt",
          "name": "",
          "type": "tuple"
        }
      ],
      "stateMutability": "view",
      "type": "function"
    },
    {
      "inputs": [],
      "name": "implementation",
      "outputs": [
        {
          "internalType": "address",
          "name": "",
          "type": "address"
        }
      ],
      "stateMutability": "view",
      "type": "function"
    },
    {
      "inputs": [],
      "name": "initialProposalId",
      "outputs": [
        {
          "internalType": "uint256",
          "name": "",
          "type": "uint256"
        }
      ],
      "stateMutability": "view",
      "type": "function"
    },
    {
      "inputs": [
        {
          "internalType": "address",
          "name": "timelock_",
          "type": "address"
        },
        {
          "internalType": "address",
          "name": "comp_",
          "type": "address"
        },
        {
          "internalType": "uint256",
          "name": "votingPeriod_",
          "type": "uint256"
        },
        {
          "internalType": "uint256",
          "name": "votingDelay_",
          "type": "uint256"
        },
        {
          "internalType": "uint256",
          "name": "proposalThreshold_",
          "type": "uint256"
        }
      ],
      "name": "initialize",
      "outputs": [],
      "stateMutability": "nonpayable",
      "type": "function"
    },
    {
      "inputs": [
        {
          "internalType": "address",
          "name": "account",
          "type": "address"
        }
      ],
      "name": "isWhitelisted",
      "outputs": [
        {
          "internalType": "bool",
          "name": "",
          "type": "bool"
        }
      ],
      "stateMutability": "view",
      "type": "function"
    },
    {
      "inputs": [
        {
          "internalType": "address",
          "name": "",
          "type": "address"
        }
      ],
      "name": "latestProposalIds",
      "outputs": [
        {
          "internalType": "uint256",
          "name": "",
          "type": "uint256"
        }
      ],
      "stateMutability": "view",
      "type": "function"
    },
    {
      "inputs": [],
      "name": "name",
      "outputs": [
        {
          "internalType": "string",
          "name": "",
          "type": "string"
        }
      ],
      "stateMutability": "view",
      "type": "function"
    },
    {
      "inputs": [],
      "name": "pendingAdmin",
      "outputs": [
        {
          "internalType": "address",
          "name": "",
          "type": "address"
        }
      ],
      "stateMutability": "view",
      "type": "function"
    },
    {
      "inputs": [],
      "name": "proposalCount",
      "outputs": [
        {
          "internalType": "uint256",
          "name": "",
          "type": "uint256"
        }
      ],
      "stateMutability": "view",
      "type": "function"
    },
    {
      "inputs": [],
      "name": "proposalMaxOperations",
      "outputs": [
        {
          "internalType": "uint256",
          "name": "",
          "type": "uint256"
        }
      ],
      "stateMutability": "view",
      "type": "function"
    },
    {
      "inputs": [],
      "name": "proposalThreshold",
      "outputs": [
        {
          "internalType": "uint256",
          "name": "",
          "type": "uint256"
        }
      ],
      "stateMutability": "view",
      "type": "function"
    },
    {
      "inputs": [
        {
          "internalType": "uint256",
          "name": "",
          "type": "uint256"
        }
      ],
      "name": "proposals",
      "outputs": [
        {
          "internalType": "uint256",
          "name": "id",
          "type": "uint256"
        },
        {
          "internalType": "address",
          "name": "proposer",
          "type": "address"
        },
        {
          "internalType": "uint256",
          "name": "eta",
          "type": "uint256"
        },
        {
          "internalType": "uint256",
          "name": "startBlock",
          "type": "uint256"
        },
        {
          "internalType": "uint256",
          "name": "endBlock",
          "type": "uint256"
        },
        {
          "internalType": "uint256",
          "name": "forVotes",
          "type": "uint256"
        },
        {
          "internalType": "uint256",
          "name": "againstVotes",
          "type": "uint256"
        },
        {
          "internalType": "uint256",
          "name": "abstainVotes",
          "type": "uint256"
        },
        {
          "internalType": "bool",
          "name": "canceled",
          "type": "bool"
        },
        {
          "internalType": "bool",
          "name": "executed",
          "type": "bool"
        }
      ],
      "stateMutability": "view",
      "type": "function"
    },
    {
      "inputs": [
        {
          "internalType": "address[]",
          "name": "targets",
          "type": "address[]"
        },
        {
          "internalType": "uint256[]",
          "name": "values",
          "type": "uint256[]"
        },
        {
          "internalType": "string[]",
          "name": "signatures",
          "type": "string[]"
        },
        {
          "internalType": "bytes[]",
          "name": "calldatas",
          "type": "bytes[]"
        },
        {
          "internalType": "string",
          "name": "description",
          "type": "string"
        }
      ],
      "name": "propose",
      "outputs": [
        {
          "internalType": "uint256",
          "name": "",
          "type": "uint256"
        }
      ],
      "stateMutability": "nonpayable",
      "type": "function"
    },
    {
      "inputs": [
        {
          "internalType": "uint256",
          "name": "proposalId",
          "type": "uint256"
        }
      ],
      "name": "queue",
      "outputs": [],
      "stateMutability": "nonpayable",
      "type": "function"
    },
    {
      "inputs": [],
      "name": "quorumVotes",
      "outputs": [
        {
          "internalType": "uint256",
          "name": "",
          "type": "uint256"
        }
      ],
      "stateMutability": "view",
      "type": "function"
    },
    {
      "inputs": [
        {
          "internalType": "uint256",
          "name": "proposalId",
          "type": "uint256"
        }
      ],
      "name": "state",
      "outputs": [
        {
          "internalType": "enum GovernorBravoDelegateStorageV1.ProposalState",
          "name": "",
          "type": "uint8"
        }
      ],
      "stateMutability": "view",
      "type": "function"
    },
    {
      "inputs": [],
      "name": "timelock",
      "outputs": [
        {
          "internalType": "contract TimelockInterface",
          "name": "",
          "type": "address"
        }
      ],
      "stateMutability": "view",
      "type": "function"
    },
    {
      "inputs": [],
      "name": "votingDelay",
      "outputs": [
        {
          "internalType": "uint256",
          "name": "",
          "type": "uint256"
        }
      ],
      "stateMutability": "view",
      "type": "function"
    },
    {
      "inputs": [],
      "name": "votingPeriod",
      "outputs": [
        {
          "internalType": "uint256",
          "name": "",
          "type": "uint256"
        }
      ],
      "stateMutability": "view",
      "type": "function"
    },
    {
      "inputs": [
        {
          "internalType": "address",
          "name": "",
          "type": "address"
        }
      ],
      "name": "whitelistAccountExpirations",
      "outputs": [
        {
          "internalType": "uint256",
          "name": "",
          "type": "uint256"
        }
      ],
      "stateMutability": "view",
      "type": "function"
    },
    {
      "inputs": [],
      "name": "whitelistGuardian",
      "outputs": [
        {
          "internalType": "address",
          "name": "",
          "type": "address"
        }
      ],
      "stateMutability": "view",
      "type": "function"
    }
  ],
  "bytecode": "0x608060405234801561001057600080fd5b50614089806100206000396000f3fe6080604052600436106102725760003560e01c80635c60da1b1161014f578063d33219b4116100c1578063e48083fe1161007a578063e48083fe14610942578063e9c714f214610957578063f851a4401461096c578063f9d28b801461098c578063fc4eee42146109ac578063fe0d94c1146109c257600080fd5b8063d33219b4146107ce578063da35c664146107ee578063da95691a14610804578063ddf0b00914610824578063deaaa7cc14610844578063e23a9a521461087857600080fd5b8063a64e024a11610113578063a64e024a1461072b578063b112626314610742578063b58131b014610758578063b71d1a0c1461076e578063c5a8425d1461078e578063d13f90b4146107ae57600080fd5b80635c60da1b14610699578063791f5d23146106b95780637b3c71d3146106d65780637bdbe4d0146106f6578063995333651461070b57600080fd5b806325fd935a116101e85780633af32abf116101ac5780633af32abf146105a45780633bccf4fd146105ec5780633e4f49e61461060c57806340e58ee5146106395780634d6733d214610659578063567813881461067957600080fd5b806325fd935a146104f35780632678224714610511578063328dd9821461053157806338bd0dda146105615780633932abb11461058e57600080fd5b806317977c611161023a57806317977c611461041e57806317ba1b8b1461044b5780631dfb1b5a1461046b57806320606b701461048b578063215809ca146104bf57806324bc1a64146104d557600080fd5b8063013cf08b1461027757806302a251a31461035057806306fdde03146103745780630ea2d98c146103c4578063109d0af8146103e6575b600080fd5b34801561028357600080fd5b506102f5610292366004613539565b600a60208190526000918252604090912080546001820154600283015460078401546008850154600986015496860154600b870154600c9097015495976001600160a01b0390951696939592949193919290919060ff808216916101009004168a565b604080519a8b526001600160a01b0390991660208b0152978901969096526060880194909452608087019290925260a086015260c085015260e084015215156101008301521515610120820152610140015b60405180910390f35b34801561035c57600080fd5b5061036660045481565b604051908152602001610347565b34801561038057600080fd5b506103b760405180604001604052806017815260200176436f6d706f756e6420476f7665726e6f7220427261766f60481b81525081565b60405161034791906135ae565b3480156103d057600080fd5b506103e46103df366004613539565b6109d5565b005b3480156103f257600080fd5b50600954610406906001600160a01b031681565b6040516001600160a01b039091168152602001610347565b34801561042a57600080fd5b506103666104393660046135dd565b600b6020526000908152604090205481565b34801561045757600080fd5b506103e4610466366004613539565b610b15565b34801561047757600080fd5b506103e4610486366004613539565b610c5d565b34801561049757600080fd5b506103667f8cad95687ba82c2ce50e74f7b754645e5117c3a5bec8151c0726d5857980a86681565b3480156104cb57600080fd5b5061036661168081565b3480156104e157600080fd5b506103666954b40b1f852bda00000081565b3480156104ff57600080fd5b5061036669152d02c7e14af680000081565b34801561051d57600080fd5b50600154610406906001600160a01b031681565b34801561053d57600080fd5b5061055161054c366004613539565b610d84565b60405161034794939291906136c1565b34801561056d57600080fd5b5061036661057c3660046135dd565b600c6020526000908152604090205481565b34801561059a57600080fd5b5061036660035481565b3480156105b057600080fd5b506105dc6105bf3660046135dd565b6001600160a01b03166000908152600c6020526040902054421090565b6040519015158152602001610347565b3480156105f857600080fd5b506103e461060736600461372a565b611015565b34801561061857600080fd5b5061062c610627366004613539565b611292565b604051610347919061378e565b34801561064557600080fd5b506103e4610654366004613539565b61144b565b34801561066557600080fd5b506103e46106743660046137b6565b6118a1565b34801561068557600080fd5b506103e46106943660046137e0565b611987565b3480156106a557600080fd5b50600254610406906001600160a01b031681565b3480156106c557600080fd5b50610366683635c9adc5dea0000081565b3480156106e257600080fd5b506103e46106f136600461380c565b6119f2565b34801561070257600080fd5b50610366600a81565b34801561071757600080fd5b506103e46107263660046135dd565b611a42565b34801561073757600080fd5b5061036662013b0081565b34801561074e57600080fd5b50610366619d8081565b34801561076457600080fd5b5061036660055481565b34801561077a57600080fd5b506103e46107893660046135dd565b611b0f565b34801561079a57600080fd5b50600d54610406906001600160a01b031681565b3480156107ba57600080fd5b506103e46107c9366004613893565b611bd6565b3480156107da57600080fd5b50600854610406906001600160a01b031681565b3480156107fa57600080fd5b5061036660075481565b34801561081057600080fd5b5061036661081f366004613bae565b611ef5565b34801561083057600080fd5b506103e461083f366004613539565b612594565b34801561085057600080fd5b506103667f150214d74d59b7d1e90c73fc22ef3d991dd0a76b046543d4d80ab92d2a50328f81565b34801561088457600080fd5b50610912610893366004613c80565b6040805160608101825260008082526020820181905291810191909152506000918252600a602090815260408084206001600160a01b03939093168452600d9092018152918190208151606081018352905460ff8082161515835261010082041693820193909352620100009092046001600160601b03169082015290565b6040805182511515815260208084015160ff1690820152918101516001600160601b031690820152606001610347565b34801561094e57600080fd5b50610366600181565b34801561096357600080fd5b506103e46128a0565b34801561097857600080fd5b50600054610406906001600160a01b031681565b34801561099857600080fd5b506103e46109a73660046135dd565b6129ca565b3480156109b857600080fd5b5061036660065481565b6103e46109d0366004613539565b612b66565b6000546001600160a01b03163314610a485760405162461bcd60e51b815260206004820152602b60248201527f476f7665726e6f72427261766f3a3a5f736574566f74696e67506572696f643a60448201526a2061646d696e206f6e6c7960a81b60648201526084015b60405180910390fd5b6116808110158015610a5d575062013b008111155b610acf5760405162461bcd60e51b815260206004820152603660248201527f476f7665726e6f72427261766f3a3a5f736574566f74696e67506572696f643a60448201527f20696e76616c696420766f74696e6720706572696f64000000000000000000006064820152608401610a3f565b600480549082905560408051828152602081018490527f7e3f7f0708a84de9203036abaa450dccc85ad5ff52f78c170f3edb55cf5e882891015b60405180910390a15050565b6000546001600160a01b03163314610b885760405162461bcd60e51b815260206004820152603060248201527f476f7665726e6f72427261766f3a3a5f73657450726f706f73616c546872657360448201526f686f6c643a2061646d696e206f6e6c7960801b6064820152608401610a3f565b683635c9adc5dea000008110158015610bab575069152d02c7e14af68000008111155b610c1f576040805162461bcd60e51b81526020600482015260248101919091527f476f7665726e6f72427261766f3a3a5f73657450726f706f73616c546872657360448201527f686f6c643a20696e76616c69642070726f706f73616c207468726573686f6c646064820152608401610a3f565b600580549082905560408051828152602081018490527fccb45da8d5717e6c4544694297c4ba5cf151d455c9bb0ed4fc7a38411bc054619101610b09565b6000546001600160a01b03163314610cca5760405162461bcd60e51b815260206004820152602a60248201527f476f7665726e6f72427261766f3a3a5f736574566f74696e6744656c61793a2060448201526961646d696e206f6e6c7960b01b6064820152608401610a3f565b60018110158015610cdd5750619d808111155b610d465760405162461bcd60e51b815260206004820152603460248201527f476f7665726e6f72427261766f3a3a5f736574566f74696e6744656c61793a20604482015273696e76616c696420766f74696e672064656c617960601b6064820152608401610a3f565b600380549082905560408051828152602081018490527fc565b045403dc03c2eea82b81a0465edad9e2e7fc4d97e11421c209da93d7a939101610b09565b6060806060806000600a600087815260200190815260200160002090508060030181600401826005018360060183805480602002602001604051908101604052809291908181526020018280548015610e0657602002820191906000526020600020905b81546001600160a01b03168152600190910190602001808311610de8575b5050505050935082805480602002602001604051908101604052809291908181526020018280548015610e5857602002820191906000526020600020905b815481526020019060010190808311610e44575b5050505050925081805480602002602001604051908101604052809291908181526020016000905b82821015610f2c578382906000526020600020018054610e9f90613ca3565b80601f0160208091040260200160405190810160405280929190818152602001828054610ecb90613ca3565b8015610f185780601f10610eed57610100808354040283529160200191610f18565b820191906000526020600020905b815481529060010190602001808311610efb57829003601f168201915b505050505081526020019060010190610e80565b50505050915080805480602002602001604051908101604052809291908181526020016000905b82821015610fff578382906000526020600020018054610f7290613ca3565b80601f0160208091040260200160405190810160405280929190818152602001828054610f9e90613ca3565b8015610feb5780601f10610fc057610100808354040283529160200191610feb565b820191906000526020600020905b815481529060010190602001808311610fce57829003601f168201915b505050505081526020019060010190610f53565b5050505090509450945094509450509193509193565b6040805180820182526017815276436f6d706f756e6420476f7665726e6f7220427261766f60481b60209182015281517f8cad95687ba82c2ce50e74f7b754645e5117c3a5bec8151c0726d5857980a866818301527f3d9e905142ff365fb68ce863f26a44f5583cf7ec11bcde450555f50b7e1b561481840152466060820152306080808301919091528351808303909101815260a0820184528051908301207f150214d74d59b7d1e90c73fc22ef3d991dd0a76b046543d4d80ab92d2a50328f60c083015260e0820189905260ff8816610100808401919091528451808403909101815261012083019094528351939092019290922061190160f01b6101408401526101428301829052610162830181905290916000906101820160408051601f198184030181528282528051602091820120600080855291840180845281905260ff8a169284019290925260608301889052608083018790529092509060019060a0016020604051602081039080840390855afa15801561119c573d6000803e3d6000fd5b5050604051601f1901519150506001600160a01b0381166112175760405162461bcd60e51b815260206004820152602f60248201527f476f7665726e6f72427261766f3a3a63617374566f746542795369673a20696e60448201526e76616c6964207369676e617475726560881b6064820152608401610a3f565b806001600160a01b03167fb8e138887d0aa13bab447e82de9d5c1777041ecd21ca36ba824ff1e6c07ddda48a8a61124f858e8e612da3565b6040805193845260ff90921660208401526001600160601b03169082015260806060820181905260009082015260a00160405180910390a2505050505050505050565b600081600754101580156112a7575060065482115b6113055760405162461bcd60e51b815260206004820152602960248201527f476f7665726e6f72427261766f3a3a73746174653a20696e76616c69642070726044820152681bdc1bdcd85b081a5960ba1b6064820152608401610a3f565b6000828152600a60205260409020600c81015460ff16156113295750600292915050565b8060070154431161133d5750600092915050565b806008015443116113515750600192915050565b80600a0154816009015411158061137557506954b40b1f852bda0000008160090154105b156113835750600392915050565b80600201546000036113985750600492915050565b600c810154610100900460ff16156113b35750600792915050565b6002810154600854604080516360d143f160e11b8152905161142d93926001600160a01b03169163c1a287e29160048083019260209291908290030181865afa158015611404573d6000803e3d6000fd5b505050506040513d601f19601f820116820180604052508101906114289190613cd7565b613083565b421061143c5750600692915050565b50600592915050565b50919050565b600761145682611292565b600781111561146757611467613778565b036114da5760405162461bcd60e51b815260206004820152603660248201527f476f7665726e6f72427261766f3a3a63616e63656c3a2063616e6e6f7420636160448201527f6e63656c2065786563757465642070726f706f73616c000000000000000000006064820152608401610a3f565b6000818152600a6020526040902060018101546001600160a01b031633146117455760018101546001600160a01b03166000908152600c602052604090205442101561163e576005546009546001838101546001600160a01b039283169263782d6fe19291169061154c9043906130dd565b6040516001600160e01b031960e085901b1681526001600160a01b0390921660048301526024820152604401602060405180830381865afa158015611595573d6000803e3d6000fd5b505050506040513d601f19601f820116820180604052508101906115b99190613cf0565b6001600160601b03161080156115d95750600d546001600160a01b031633145b6116395760405162461bcd60e51b815260206004820152602b60248201527f476f7665726e6f72427261766f3a3a63616e63656c3a2077686974656c69737460448201526a32b210383937b837b9b2b960a91b6064820152608401610a3f565b611745565b6005546009546001838101546001600160a01b039283169263782d6fe19291169061166a9043906130dd565b6040516001600160e01b031960e085901b1681526001600160a01b0390921660048301526024820152604401602060405180830381865afa1580156116b3573d6000803e3d6000fd5b505050506040513d601f19601f820116820180604052508101906116d79190613cf0565b6001600160601b0316106117455760405162461bcd60e51b815260206004820152602f60248201527f476f7665726e6f72427261766f3a3a63616e63656c3a2070726f706f7365722060448201526e18589bdd99481d1a1c995cda1bdb19608a1b6064820152608401610a3f565b600c8101805460ff1916600117905560005b6003820154811015611870576008546003830180546001600160a01b039092169163591fcdfe91908490811061178f5761178f613d19565b6000918252602090912001546004850180546001600160a01b0390921691859081106117bd576117bd613d19565b90600052602060002001548560050185815481106117dd576117dd613d19565b906000526020600020018660060186815481106117fc576117fc613d19565b9060005260206000200187600201546040518663ffffffff1660e01b815260040161182b959493929190613dcf565b600060405180830381600087803b15801561184557600080fd5b505af1158015611859573d6000803e3d6000fd5b50505050808061186890613e32565b915050611757565b506040518281527f789cf55be980739dad1d0699b93b58e806b51c9d96619bfa8fe0a28abaa7b30c90602001610b09565b6000546001600160a01b03163314806118c45750600d546001600160a01b031633145b6119365760405162461bcd60e51b815260206004820152603960248201527f476f7665726e6f72427261766f3a3a5f73657457686974656c6973744163636f60448201527f756e7445787069726174696f6e3a2061646d696e206f6e6c79000000000000006064820152608401610a3f565b6001600160a01b0382166000818152600c6020908152604091829020849055815192835282018390527f4e7b7545bc5744d0e30425959f4687475774b6c7edad77d24cb51c7d967d45159101610b09565b337fb8e138887d0aa13bab447e82de9d5c1777041ecd21ca36ba824ff1e6c07ddda483836119b6848383612da3565b6040805193845260ff90921660208401526001600160601b03169082015260806060820181905260009082015260a00160405180910390a25050565b337fb8e138887d0aa13bab447e82de9d5c1777041ecd21ca36ba824ff1e6c07ddda48585611a21848383612da3565b8686604051611a34959493929190613e4b565b60405180910390a250505050565b6000546001600160a01b03163314611ab55760405162461bcd60e51b815260206004820152603060248201527f476f7665726e6f72427261766f3a3a5f73657457686974656c6973744775617260448201526f6469616e3a2061646d696e206f6e6c7960801b6064820152608401610a3f565b600d80546001600160a01b038381166001600160a01b031983168117909355604080519190921680825260208201939093527f80a07e73e552148844a9c216d9724212d609cfa54e9c1a2e97203bdd2c4ad3419101610b09565b6000546001600160a01b03163314611b7c5760405162461bcd60e51b815260206004820152602a60248201527f476f7665726e6f72427261766f3a5f73657450656e64696e6741646d696e3a2060448201526961646d696e206f6e6c7960b01b6064820152608401610a3f565b600180546001600160a01b038381166001600160a01b031983168117909355604080519190921680825260208201939093527fca4f2f25d0898edd99413412fb94012f9e54ec8142f9b093e7720646a95b16a99101610b09565b6008546001600160a01b031615611c4b5760405162461bcd60e51b815260206004820152603360248201527f476f7665726e6f72427261766f3a3a696e697469616c697a653a2063616e206f6044820152726e6c7920696e697469616c697a65206f6e636560681b6064820152608401610a3f565b6000546001600160a01b03163314611cb35760405162461bcd60e51b815260206004820152602560248201527f476f7665726e6f72427261766f3a3a696e697469616c697a653a2061646d696e604482015264206f6e6c7960d81b6064820152608401610a3f565b6001600160a01b038516611d135760405162461bcd60e51b8152602060048201526033602482015260008051602061403483398151915260448201527269642074696d656c6f636b206164647265737360681b6064820152608401610a3f565b6001600160a01b038416611d6f5760405162461bcd60e51b815260206004820152602f602482015260008051602061403483398151915260448201526e696420636f6d70206164647265737360881b6064820152608401610a3f565b6116808310158015611d84575062013b008311155b611dd75760405162461bcd60e51b8152602060048201526030602482015260008051602061403483398151915260448201526f1a59081d9bdd1a5b99c81c195c9a5bd960821b6064820152608401610a3f565b60018210158015611dea5750619d808211155b611e3c5760405162461bcd60e51b815260206004820152602f602482015260008051602061403483398151915260448201526e696420766f74696e672064656c617960881b6064820152608401610a3f565b683635c9adc5dea000008110158015611e5f575069152d02c7e14af68000008111155b611eb75760405162461bcd60e51b815260206004820152603560248201526000805160206140348339815191526044820152741a59081c1c9bdc1bdcd85b081d1a1c995cda1bdb19605a1b6064820152608401610a3f565b600880546001600160a01b039687166001600160a01b0319918216179091556009805495909616941693909317909355600455600391909155600555565b6000600654600003611f635760405162461bcd60e51b815260206004820152603160248201527f476f7665726e6f72427261766f3a3a70726f706f73653a20476f7665726e6f7260448201527020427261766f206e6f742061637469766560781b6064820152608401610a3f565b6005546009546001600160a01b031663782d6fe133611f834360016130dd565b6040516001600160e01b031960e085901b1681526001600160a01b0390921660048301526024820152604401602060405180830381865afa158015611fcc573d6000803e3d6000fd5b505050506040513d601f19601f82011682018060405250810190611ff09190613cf0565b6001600160601b031611806120135750336000908152600c602052604090205442105b6120855760405162461bcd60e51b815260206004820152603f60248201527f476f7665726e6f72427261766f3a3a70726f706f73653a2070726f706f73657260448201527f20766f7465732062656c6f772070726f706f73616c207468726573686f6c64006064820152608401610a3f565b84518651148015612097575083518651145b80156120a4575082518651145b6121245760405162461bcd60e51b8152602060048201526044602482018190527f476f7665726e6f72427261766f3a3a70726f706f73653a2070726f706f73616c908201527f2066756e6374696f6e20696e666f726d6174696f6e206172697479206d69736d6064820152630c2e8c6d60e31b608482015260a401610a3f565b855160000361218a5760405162461bcd60e51b815260206004820152602c60248201527f476f7665726e6f72427261766f3a3a70726f706f73653a206d7573742070726f60448201526b7669646520616374696f6e7360a01b6064820152608401610a3f565b600a865111156121ed5760405162461bcd60e51b815260206004820152602860248201527f476f7665726e6f72427261766f3a3a70726f706f73653a20746f6f206d616e7960448201526720616374696f6e7360c01b6064820152608401610a3f565b336000908152600b6020526040902054801561236c57600061220e82611292565b9050600181600781111561222457612224613778565b036122bd5760405162461bcd60e51b815260206004820152605860248201527f476f7665726e6f72427261766f3a3a70726f706f73653a206f6e65206c69766560448201527f2070726f706f73616c207065722070726f706f7365722c20666f756e6420616e60648201527f20616c7265616479206163746976652070726f706f73616c0000000000000000608482015260a401610a3f565b60008160078111156122d1576122d1613778565b0361236a5760405162461bcd60e51b815260206004820152605960248201527f476f7665726e6f72427261766f3a3a70726f706f73653a206f6e65206c69766560448201527f2070726f706f73616c207065722070726f706f7365722c20666f756e6420616e60648201527f20616c72656164792070656e64696e672070726f706f73616c00000000000000608482015260a401610a3f565b505b600061237a43600354613083565b9050600061238a82600454613083565b60078054919250600061239c83613e32565b90915550506007546000818152600a602052604090208054156124155760405162461bcd60e51b815260206004820152602b60248201527f476f7665726e6f72427261766f3a3a70726f706f73653a2050726f706f73616c60448201526a24a21031b7b63639b4b7b760a91b6064820152608401610a3f565b8181556001810180546001600160a01b03191633179055600060028201558a5161244890600383019060208e01906132e8565b50895161245e90600483019060208d019061334d565b50885161247490600583019060208c0190613388565b50875161248a90600683019060208b01906133e1565b5083816007018190555082816008018190555060008160090181905550600081600a0181905550600081600b0181905550600081600c0160006101000a81548160ff021916908315150217905550600081600c0160016101000a81548160ff0219169083151502179055508060000154600b60008360010160009054906101000a90046001600160a01b03166001600160a01b03166001600160a01b03168152602001908152602001600020819055507f7d84a6263ae0d98d3329bd7b46bb4e8d6f98cd35a7adb45c274c8b7fd5ebd5e08160000154338d8d8d8d8a8a8f60405161257d99989796959493929190613e9b565b60405180910390a1549a9950505050505050505050565b600461259f82611292565b60078111156125b0576125b0613778565b146126315760405162461bcd60e51b8152602060048201526044602482018190527f476f7665726e6f72427261766f3a3a71756575653a2070726f706f73616c2063908201527f616e206f6e6c79206265207175657565642069662069742069732073756363656064820152631959195960e21b608482015260a401610a3f565b6000818152600a602090815260408083206008548251630d48571f60e31b815292519194936126909342936001600160a01b0390931692636a42b8f8926004808401939192918290030181865afa158015611404573d6000803e3d6000fd5b905060005b600383015481101561285a576128488360030182815481106126b9576126b9613d19565b6000918252602090912001546004850180546001600160a01b0390921691849081106126e7576126e7613d19565b906000526020600020015485600501848154811061270757612707613d19565b90600052602060002001805461271c90613ca3565b80601f016020809104026020016040519081016040528092919081815260200182805461274890613ca3565b80156127955780601f1061276a57610100808354040283529160200191612795565b820191906000526020600020905b81548152906001019060200180831161277857829003601f168201915b50505050508660060185815481106127af576127af613d19565b9060005260206000200180546127c490613ca3565b80601f01602080910402602001604051908101604052809291908181526020018280546127f090613ca3565b801561283d5780601f106128125761010080835404028352916020019161283d565b820191906000526020600020905b81548152906001019060200180831161282057829003601f168201915b505050505086613131565b8061285281613e32565b915050612695565b506002820181905560408051848152602081018390527f9a2e42fd6722813d69113e7d0079d3d940171428df7373df9c7f7617cfda2892910160405180910390a1505050565b6001546001600160a01b0316331480156128b957503315155b61291c5760405162461bcd60e51b815260206004820152602e60248201527f476f7665726e6f72427261766f3a5f61636365707441646d696e3a2070656e6460448201526d696e672061646d696e206f6e6c7960901b6064820152608401610a3f565b60008054600180546001600160a01b038082166001600160a01b031980861682179096559490911690915560408051919092168082526020820184905292917ff9ffabca9c8276e99321725bcb43fb076a6c66a54b7f21c4e8146d8519b417dc910160405180910390a1600154604080516001600160a01b03808516825290921660208301527fca4f2f25d0898edd99413412fb94012f9e54ec8142f9b093e7720646a95b16a99101610b09565b6000546001600160a01b03163314612a305760405162461bcd60e51b8152602060048201526024808201527f476f7665726e6f72427261766f3a3a5f696e6974696174653a2061646d696e206044820152636f6e6c7960e01b6064820152608401610a3f565b60065415612a995760405162461bcd60e51b815260206004820152603060248201527f476f7665726e6f72427261766f3a3a5f696e6974696174653a2063616e206f6e60448201526f6c7920696e697469617465206f6e636560801b6064820152608401610a3f565b806001600160a01b031663da35c6646040518163ffffffff1660e01b81526004016020604051808303816000875af1158015612ad9573d6000803e3d6000fd5b505050506040513d601f19601f82011682018060405250810190612afd9190613cd7565b600781905560065560085460408051630e18b68160e01b815290516001600160a01b0390921691630e18b6819160048082019260009290919082900301818387803b158015612b4b57600080fd5b505af1158015612b5f573d6000803e3d6000fd5b5050505050565b6005612b7182611292565b6007811115612b8257612b82613778565b14612c035760405162461bcd60e51b815260206004820152604560248201527f476f7665726e6f72427261766f3a3a657865637574653a2070726f706f73616c60448201527f2063616e206f6e6c7920626520657865637574656420696620697420697320716064820152641d595d595960da1b608482015260a401610a3f565b6000818152600a60205260408120600c8101805461ff001916610100179055905b6003820154811015612d72576008546004830180546001600160a01b0390921691630825f38f919084908110612c5c57612c5c613d19565b9060005260206000200154846003018481548110612c7c57612c7c613d19565b6000918252602090912001546004860180546001600160a01b039092169186908110612caa57612caa613d19565b9060005260206000200154866005018681548110612cca57612cca613d19565b90600052602060002001876006018781548110612ce957612ce9613d19565b9060005260206000200188600201546040518763ffffffff1660e01b8152600401612d18959493929190613dcf565b60006040518083038185885af1158015612d36573d6000803e3d6000fd5b50505050506040513d6000823e601f3d908101601f19168201604052612d5f9190810190613f31565b5080612d6a81613e32565b915050612c24565b506040518281527f712ae1383f79ac853f8d882153778e0260ef8f03b504e2866e0593e04d2b291f90602001610b09565b60006001612db084611292565b6007811115612dc157612dc1613778565b14612e285760405162461bcd60e51b815260206004820152603160248201527f476f7665726e6f72427261766f3a3a63617374566f7465496e7465726e616c3a604482015270081d9bdd1a5b99c81a5cc818db1bdcd959607a1b6064820152608401610a3f565b60028260ff161115612e975760405162461bcd60e51b815260206004820152603260248201527f476f7665726e6f72427261766f3a3a63617374566f7465496e7465726e616c3a60448201527120696e76616c696420766f7465207479706560701b6064820152608401610a3f565b6000838152600a602090815260408083206001600160a01b0388168452600d8101909252909120805460ff1615612f2d5760405162461bcd60e51b815260206004820152603460248201527f476f7665726e6f72427261766f3a3a63617374566f7465496e7465726e616c3a604482015273081d9bdd195c88185b1c9958591e481d9bdd195960621b6064820152608401610a3f565b600954600783015460405163782d6fe160e01b81526000926001600160a01b03169163782d6fe191612f77918b916004016001600160a01b03929092168252602082015260400190565b602060405180830381865afa158015612f94573d6000803e3d6000fd5b505050506040513d601f19601f82011682018060405250810190612fb89190613cf0565b90508460ff16600003612fe657612fdc83600a0154826001600160601b0316613083565b600a84015561303a565b8460ff16600103613012576130088360090154826001600160601b0316613083565b600984015561303a565b8460ff1660020361303a5761303483600b0154826001600160601b0316613083565b600b8401555b81546001600160601b03821662010000026dffffffffffffffffffffffff00001960ff88166101000261ffff199093169290921760011791909116179091559150509392505050565b6000806130908385613fa8565b9050838110156130d65760405162461bcd60e51b81526020600482015260116024820152706164646974696f6e206f766572666c6f7760781b6044820152606401610a3f565b9392505050565b6000828211156131275760405162461bcd60e51b81526020600482015260156024820152747375627472616374696f6e20756e646572666c6f7760581b6044820152606401610a3f565b6130d68284613fc0565b6008546040516001600160a01b039091169063f2b065379061315f9088908890889088908890602001613fd7565b604051602081830303815290604052805190602001206040518263ffffffff1660e01b815260040161319391815260200190565b602060405180830381865afa1580156131b0573d6000803e3d6000fd5b505050506040513d601f19601f820116820180604052508101906131d49190614011565b156132655760405162461bcd60e51b815260206004820152605560248201527f476f7665726e6f72427261766f3a3a71756575654f72526576657274496e746560448201527f726e616c3a206964656e746963616c2070726f706f73616c20616374696f6e20606482015274616c7265616479207175657565642061742065746160581b608482015260a401610a3f565b600854604051633a66f90160e01b81526001600160a01b0390911690633a66f9019061329d9088908890889088908890600401613fd7565b6020604051808303816000875af11580156132bc573d6000803e3d6000fd5b505050506040513d601f19601f820116820180604052508101906132e09190613cd7565b505050505050565b82805482825590600052602060002090810192821561333d579160200282015b8281111561333d57825182546001600160a01b0319166001600160a01b03909116178255602090920191600190910190613308565b5061334992915061343a565b5090565b82805482825590600052602060002090810192821561333d579160200282015b8281111561333d57825182559160200191906001019061336d565b8280548282559060005260206000209081019282156133d5579160200282015b828111156133d557825180516133c591849160209091019061344f565b50916020019190600101906133a8565b506133499291506134c2565b82805482825590600052602060002090810192821561342e579160200282015b8281111561342e578251805161341e91849160209091019061344f565b5091602001919060010190613401565b506133499291506134df565b5b80821115613349576000815560010161343b565b82805461345b90613ca3565b90600052602060002090601f01602090048101928261347d576000855561333d565b82601f1061349657805160ff191683800117855561333d565b8280016001018555821561333d579182018281111561333d57825182559160200191906001019061336d565b808211156133495760006134d682826134fc565b506001016134c2565b808211156133495760006134f382826134fc565b506001016134df565b50805461350890613ca3565b6000825580601f10613518575050565b601f016020900490600052602060002090810190613536919061343a565b50565b60006020828403121561354b57600080fd5b5035919050565b60005b8381101561356d578181015183820152602001613555565b8381111561357c576000848401525b50505050565b6000815180845261359a816020860160208601613552565b601f01601f19169290920160200192915050565b6020815260006130d66020830184613582565b80356001600160a01b03811681146135d857600080fd5b919050565b6000602082840312156135ef57600080fd5b6130d6826135c1565b600081518084526020808501945080840160005b838110156136315781516001600160a01b03168752958201959082019060010161360c565b509495945050505050565b600081518084526020808501945080840160005b8381101561363157815187529582019590820190600101613650565b600081518084526020808501808196508360051b8101915082860160005b858110156136b45782840389526136a2848351613582565b9885019893509084019060010161368a565b5091979650505050505050565b6080815260006136d460808301876135f8565b82810360208401526136e6818761363c565b905082810360408401526136fa818661366c565b9050828103606084015261370e818561366c565b979650505050505050565b803560ff811681146135d857600080fd5b600080600080600060a0868803121561374257600080fd5b8535945061375260208701613719565b935061376060408701613719565b94979396509394606081013594506080013592915050565b634e487b7160e01b600052602160045260246000fd5b60208101600883106137b057634e487b7160e01b600052602160045260246000fd5b91905290565b600080604083850312156137c957600080fd5b6137d2836135c1565b946020939093013593505050565b600080604083850312156137f357600080fd5b8235915061380360208401613719565b90509250929050565b6000806000806060858703121561382257600080fd5b8435935061383260208601613719565b9250604085013567ffffffffffffffff8082111561384f57600080fd5b818701915087601f83011261386357600080fd5b81358181111561387257600080fd5b88602082850101111561388457600080fd5b95989497505060200194505050565b600080600080600060a086880312156138ab57600080fd5b6138b4866135c1565b94506138c2602087016135c1565b94979496505050506040830135926060810135926080909101359150565b634e487b7160e01b600052604160045260246000fd5b604051601f8201601f1916810167ffffffffffffffff8111828210171561391f5761391f6138e0565b604052919050565b600067ffffffffffffffff821115613941576139416138e0565b5060051b60200190565b600082601f83011261395c57600080fd5b8135602061397161396c83613927565b6138f6565b82815260059290921b8401810191818101908684111561399057600080fd5b8286015b848110156139b2576139a5816135c1565b8352918301918301613994565b509695505050505050565b600082601f8301126139ce57600080fd5b813560206139de61396c83613927565b82815260059290921b840181019181810190868411156139fd57600080fd5b8286015b848110156139b25780358352918301918301613a01565b600067ffffffffffffffff821115613a3257613a326138e0565b50601f01601f191660200190565b6000613a4e61396c84613a18565b9050828152838383011115613a6257600080fd5b828260208301376000602084830101529392505050565b600082601f830112613a8a57600080fd5b6130d683833560208501613a40565b600082601f830112613aaa57600080fd5b81356020613aba61396c83613927565b82815260059290921b84018101918181019086841115613ad957600080fd5b8286015b848110156139b257803567ffffffffffffffff811115613afd5760008081fd5b613b0b8986838b0101613a79565b845250918301918301613add565b600082601f830112613b2a57600080fd5b81356020613b3a61396c83613927565b82815260059290921b84018101918181019086841115613b5957600080fd5b8286015b848110156139b257803567ffffffffffffffff811115613b7d5760008081fd5b8701603f81018913613b8f5760008081fd5b613ba0898683013560408401613a40565b845250918301918301613b5d565b600080600080600060a08688031215613bc657600080fd5b853567ffffffffffffffff80821115613bde57600080fd5b613bea89838a0161394b565b96506020880135915080821115613c0057600080fd5b613c0c89838a016139bd565b95506040880135915080821115613c2257600080fd5b613c2e89838a01613a99565b94506060880135915080821115613c4457600080fd5b613c5089838a01613b19565b93506080880135915080821115613c6657600080fd5b50613c7388828901613a79565b9150509295509295909350565b60008060408385031215613c9357600080fd5b82359150613803602084016135c1565b600181811c90821680613cb757607f821691505b60208210810361144557634e487b7160e01b600052602260045260246000fd5b600060208284031215613ce957600080fd5b5051919050565b600060208284031215613d0257600080fd5b81516001600160601b03811681146130d657600080fd5b634e487b7160e01b600052603260045260246000fd5b8054600090600181811c9080831680613d4957607f831692505b60208084108203613d6a57634e487b7160e01b600052602260045260246000fd5b838852818015613d815760018114613d9557613dc3565b60ff19861689830152604089019650613dc3565b876000528160002060005b86811015613dbb5781548b8201850152908501908301613da0565b8a0183019750505b50505050505092915050565b6001600160a01b038616815284602082015260a060408201526000613df760a0830186613d2f565b8281036060840152613e098186613d2f565b9150508260808301529695505050505050565b634e487b7160e01b600052601160045260246000fd5b600060018201613e4457613e44613e1c565b5060010190565b85815260ff851660208201526001600160601b038416604082015260806060820152816080820152818360a0830137600081830160a090810191909152601f909201601f19160101949350505050565b60006101208b83526001600160a01b038b166020840152806040840152613ec48184018b6135f8565b90508281036060840152613ed8818a61363c565b90508281036080840152613eec818961366c565b905082810360a0840152613f00818861366c565b90508560c08401528460e0840152828103610100840152613f218185613582565b9c9b505050505050505050505050565b600060208284031215613f4357600080fd5b815167ffffffffffffffff811115613f5a57600080fd5b8201601f81018413613f6b57600080fd5b8051613f7961396c82613a18565b818152856020838501011115613f8e57600080fd5b613f9f826020830160208601613552565b95945050505050565b60008219821115613fbb57613fbb613e1c565b500190565b600082821015613fd257613fd2613e1c565b500390565b6001600160a01b038616815284602082015260a060408201526000613fff60a0830186613582565b8281036060840152613e098186613582565b60006020828403121561402357600080fd5b815180151581146130d657600080fdfe476f7665726e6f72427261766f3a3a696e697469616c697a653a20696e76616ca2646970667358221220d8da8c6d72ca6183db7f18b56e4d178b0f59982b41044cb40b74d2e4b40b1b2f64736f6c634300080d0033",
  "linkReferences": {},
  "deployedLinkReferences": {}
}