{
  "_format": "hh-sol-artifact-1",
  "contractName": "Faucet",
  "sourceName": "contracts/Faucet.sol",
  "abi": [
    {
      "inputs": [
        {
          "internalType": "contract EIP20Interface[]",
          "name": "tokens",
          "type": "address[]"
        }
      ],
      "stateMutability": "nonpayable",
      "type": "constructor"
    },
    {
      "anonymous": false,
      "inputs": [
        {
          "indexed": false,
          "internalType": "address",
          "name": "fundee",
          "type": "address"
        },
        {
          "indexed": false,
          "internalType": "contract EIP20Interface",
          "name": "token",
          "type": "address"
        },
        {
          "indexed": false,
          "internalType": "uint256",
          "name": "amount",
          "type": "uint256"
        }
      ],
      "name": "Funded",
      "type": "event"
    },
    {
      "anonymous": false,
      "inputs": [
        {
          "indexed": true,
          "internalType": "address",
          "name": "previousOwner",
          "type": "address"
        },
        {
          "indexed": true,
          "internalType": "address",
          "name": "newOwner",
          "type": "address"
        }
      ],
      "name": "OwnershipTransferred",
      "type": "event"
    },
    {
      "anonymous": false,
      "inputs": [
        {
          "indexed": false,
          "internalType": "address",
          "name": "fundee",
          "type": "address"
        },
        {
          "indexed": false,
          "internalType": "contract EIP20Interface",
          "name": "token",
          "type": "address"
        },
        {
          "indexed": false,
          "internalType": "uint256",
          "name": "currentBalance",
          "type": "uint256"
        }
      ],
      "name": "SkippingFundingAlreadyFunded",
      "type": "event"
    },
    {
      "anonymous": false,
      "inputs": [
        {
          "indexed": false,
          "internalType": "address",
          "name": "fundee",
          "type": "address"
        },
        {
          "indexed": false,
          "internalType": "contract EIP20Interface",
          "name": "token",
          "type": "address"
        },
        {
          "indexed": false,
          "internalType": "uint256",
          "name": "faucetBalance",
          "type": "uint256"
        }
      ],
      "name": "SkippingFundingFaucetDry",
      "type": "event"
    },
    {
      "inputs": [
        {
          "internalType": "address",
          "name": "",
          "type": "address"
        }
      ],
      "name": "fundees",
      "outputs": [
        {
          "internalType": "bool",
          "name": "",
          "type": "bool"
        }
      ],
      "stateMutability": "view",
      "type": "function"
    },
    {
      "inputs": [],
      "name": "owner",
      "outputs": [
        {
          "internalType": "address",
          "name": "",
          "type": "address"
        }
      ],
      "stateMutability": "view",
      "type": "function"
    },
    {
      "inputs": [],
      "name": "renounceOwnership",
      "outputs": [],
      "stateMutability": "nonpayable",
      "type": "function"
    },
    {
      "inputs": [
        {
          "internalType": "address",
          "name": "fundee",
          "type": "address"
        }
      ],
      "name": "seed",
      "outputs": [],
      "stateMutability": "nonpayable",
      "type": "function"
    },
    {
      "inputs": [
        {
          "internalType": "uint256",
          "name": "",
          "type": "uint256"
        }
      ],
      "name": "supportedTokens",
      "outputs": [
        {
          "internalType": "contract EIP20Interface",
          "name": "",
          "type": "address"
        }
      ],
      "stateMutability": "view",
      "type": "function"
    },
    {
      "inputs": [],
      "name": "tap",
      "outputs": [],
      "stateMutability": "nonpayable",
      "type": "function"
    },
    {
      "inputs": [
        {
          "internalType": "address",
          "name": "newOwner",
          "type": "address"
        }
      ],
      "name": "transferOwnership",
      "outputs": [],
      "stateMutability": "nonpayable",
      "type": "function"
    }
  ],
  "bytecode": "0x60806040523480156200001157600080fd5b5060405162000e3338038062000e33833981016040819052620000349162000160565b6200003f336200005c565b805162000054906002906020840190620000ac565b505062000232565b600080546001600160a01b038381166001600160a01b0319831681178455604051919092169283917f8be0079c531659141344cd1fd0a4f28419497f9722a3daafe3b4186f6b6457e09190a35050565b82805482825590600052602060002090810192821562000104579160200282015b828111156200010457825182546001600160a01b0319166001600160a01b03909116178255602090920191600190910190620000cd565b506200011292915062000116565b5090565b5b8082111562000112576000815560010162000117565b634e487b7160e01b600052604160045260246000fd5b80516001600160a01b03811681146200015b57600080fd5b919050565b600060208083850312156200017457600080fd5b82516001600160401b03808211156200018c57600080fd5b818501915085601f830112620001a157600080fd5b815181811115620001b657620001b66200012d565b8060051b604051601f19603f83011681018181108582111715620001de57620001de6200012d565b604052918252848201925083810185019188831115620001fd57600080fd5b938501935b828510156200022657620002168562000143565b8452938501939285019262000202565b98975050505050505050565b610bf180620002426000396000f3fe608060405234801561001057600080fd5b506004361061007d5760003560e01c80638da5cb5b1161005b5780638da5cb5b146100d7578063c6255626146100fc578063f2fde38b1461010f578063fd2210311461012257600080fd5b80630573e26814610082578063063c67b7146100ba578063715018a6146100cf575b600080fd5b6100a56100903660046108ad565b60016020526000908152604090205460ff1681565b60405190151581526020015b60405180910390f35b6100cd6100c83660046108ad565b61012a565b005b6100cd6101f0565b6000546001600160a01b03165b6040516001600160a01b0390911681526020016100b1565b6100e461010a3660046108dd565b610256565b6100cd61011d3660046108ad565b610280565b6100cd610348565b6000546001600160a01b031633146101895760405162461bcd60e51b815260206004820181905260248201527f4f776e61626c653a2063616c6c6572206973206e6f7420746865206f776e657260448201526064015b60405180910390fd5b6101ed8160028054806020026020016040519081016040528092919081815260200182805480156101e357602002820191906000526020600020905b81546001600160a01b031681526001909101906020018083116101c5575b505050505061042a565b50565b6000546001600160a01b0316331461024a5760405162461bcd60e51b815260206004820181905260248201527f4f776e61626c653a2063616c6c6572206973206e6f7420746865206f776e65726044820152606401610180565b6102546000610850565b565b6002818154811061026657600080fd5b6000918252602090912001546001600160a01b0316905081565b6000546001600160a01b031633146102da5760405162461bcd60e51b815260206004820181905260248201527f4f776e61626c653a2063616c6c6572206973206e6f7420746865206f776e65726044820152606401610180565b6001600160a01b03811661033f5760405162461bcd60e51b815260206004820152602660248201527f4f776e61626c653a206e6577206f776e657220697320746865207a65726f206160448201526564647265737360d01b6064820152608401610180565b6101ed81610850565b3260008181526001602052604090205460ff16156103a85760405162461bcd60e51b815260206004820152601f60248201527f6163636f756e742068617320616c7265616479206265656e2066756e646564006044820152606401610180565b6001600160a01b038116600090815260016020818152604092839020805460ff1916909217909155600280548351818402810184019094528084526101ed938593909291908301828280156101e3576020028201919060005260206000209081546001600160a01b031681526001909101906020018083116101c55750505050505b60005b815181101561084b57600082828151811061044a5761044a6108f6565b6020026020010151905060405160200161046e90631554d11560e21b815260040190565b60405160208183030381529060405280519060200120816001600160a01b03166395d89b416040518163ffffffff1660e01b8152600401600060405180830381865afa1580156104c2573d6000803e3d6000fd5b505050506040513d6000823e601f3d908101601f191682016040526104ea9190810190610952565b6040516020016104fa91906109ff565b6040516020818303038152906040528051906020012014610838576000816001600160a01b031663313ce5676040518163ffffffff1660e01b8152600401602060405180830381865afa158015610555573d6000803e3d6000fd5b505050506040513d601f19601f820116820180604052508101906105799190610a1b565b61058490600a610b3a565b610590906103e8610b49565b6040516370a0823160e01b81523060048201529091506000906001600160a01b038416906370a0823190602401602060405180830381865afa1580156105da573d6000803e3d6000fd5b505050506040513d601f19601f820116820180604052508101906105fe9190610b68565b6040516370a0823160e01b81526001600160a01b0388811660048301529192506000918516906370a0823190602401602060405180830381865afa15801561064a573d6000803e3d6000fd5b505050506040513d601f19601f8201168201806040525081019061066e9190610b68565b90508281106106c857604080516001600160a01b03808a168252861660208201529081018290527f065ce5b4c670dca74ea1191cc70e02ae58a021e3677be40295091e17cc7fe9f7906060015b60405180910390a1610834565b8282101561071857604080516001600160a01b03808a168252861660208201529081018390527f928a65c50d71f3489792c29816b9cd01fa66c832834b6c49de89b38ea56d6b99906060016106bb565b60405163a9059cbb60e01b81526001600160a01b0388811660048301526024820185905285169063a9059cbb906044016020604051808303816000875af1158015610767573d6000803e3d6000fd5b505050506040513d601f19601f8201168201806040525081019061078b9190610b81565b6107e85760405162461bcd60e51b815260206004820152602860248201527f736f6d657468696e672077656e742077726f6e67207769746820746f6b656e206044820152673a3930b739b332b960c11b6064820152608401610180565b604080516001600160a01b03808a168252861660208201529081018490527f3b5083eec1a1116c56de5d6841cff8efc6a0aec9850e836ec509d6ce024ea5619060600160405180910390a15b5050505b50610844600182610ba3565b905061042d565b505050565b600080546001600160a01b0383811673ffffffffffffffffffffffffffffffffffffffff19831681178455604051919092169283917f8be0079c531659141344cd1fd0a4f28419497f9722a3daafe3b4186f6b6457e09190a35050565b6000602082840312156108bf57600080fd5b81356001600160a01b03811681146108d657600080fd5b9392505050565b6000602082840312156108ef57600080fd5b5035919050565b634e487b7160e01b600052603260045260246000fd5b634e487b7160e01b600052604160045260246000fd5b60005b8381101561093d578181015183820152602001610925565b8381111561094c576000848401525b50505050565b60006020828403121561096457600080fd5b815167ffffffffffffffff8082111561097c57600080fd5b818401915084601f83011261099057600080fd5b8151818111156109a2576109a261090c565b604051601f8201601f19908116603f011681019083821181831017156109ca576109ca61090c565b816040528281528760208487010111156109e357600080fd5b6109f4836020830160208801610922565b979650505050505050565b60008251610a11818460208701610922565b9190910192915050565b600060208284031215610a2d57600080fd5b815160ff811681146108d657600080fd5b634e487b7160e01b600052601160045260246000fd5b600181815b80851115610a8f578160001904821115610a7557610a75610a3e565b80851615610a8257918102915b93841c9390800290610a59565b509250929050565b600082610aa657506001610b34565b81610ab357506000610b34565b8160018114610ac95760028114610ad357610aef565b6001915050610b34565b60ff841115610ae457610ae4610a3e565b50506001821b610b34565b5060208310610133831016604e8410600b8410161715610b12575081810a610b34565b610b1c8383610a54565b8060001904821115610b3057610b30610a3e565b0290505b92915050565b60006108d660ff841683610a97565b6000816000190483118215151615610b6357610b63610a3e565b500290565b600060208284031215610b7a57600080fd5b5051919050565b600060208284031215610b9357600080fd5b815180151581146108d657600080fd5b60008219821115610bb657610bb6610a3e565b50019056fea2646970667358221220e000e8c8335bc3f3475601bde1cd191cb49942a220faa202ac74540628e2038c64736f6c634300080d0033",
  "linkReferences": {},
  "deployedLinkReferences": {}
}